{
  "contractName": "HelloDex",
  "abi": [
    {
      "inputs": [],
      "stateMutability": "nonpayable",
      "type": "constructor"
    },
    {
      "anonymous": false,
      "inputs": [
        {
          "indexed": true,
          "internalType": "int256",
          "name": "price",
          "type": "int256"
        },
        {
          "indexed": false,
          "internalType": "uint80",
          "name": "roundId",
          "type": "uint80"
        },
        {
          "indexed": false,
          "internalType": "uint256",
          "name": "startedAt",
          "type": "uint256"
        },
        {
          "indexed": false,
          "internalType": "uint256",
          "name": "timeStamp",
          "type": "uint256"
        },
        {
          "indexed": false,
          "internalType": "uint80",
          "name": "answeredInRound",
          "type": "uint80"
        }
      ],
      "name": "PriceReceived",
      "type": "event"
    },
    {
      "anonymous": false,
      "inputs": [
        {
          "indexed": true,
          "internalType": "address",
          "name": "token",
          "type": "address"
        },
        {
          "indexed": true,
          "internalType": "uint256",
          "name": "price",
          "type": "uint256"
        },
        {
          "indexed": true,
          "internalType": "uint256",
          "name": "amount",
          "type": "uint256"
        }
      ],
      "name": "Swapped",
      "type": "event"
    },
    {
      "inputs": [
        {
          "internalType": "uint256",
          "name": "_amountInEth",
          "type": "uint256"
        }
      ],
      "name": "swapDaiForEth",
      "outputs": [],
      "stateMutability": "nonpayable",
      "type": "function"
    }
  ],
  "bytecode": "0x61014060405234801561001157600080fd5b503373ffffffffffffffffffffffffffffffffffffffff1660808173ffffffffffffffffffffffffffffffffffffffff1660601b81525050735c69bee701ef814a2b6a3edd4b1652cb9cc5aa6f73ffffffffffffffffffffffffffffffffffffffff1660a08173ffffffffffffffffffffffffffffffffffffffff1660601b81525050737a250d5630b4cf539739df2c5dacb4c659f2488d73ffffffffffffffffffffffffffffffffffffffff1660c08173ffffffffffffffffffffffffffffffffffffffff1660601b815250507392facdfb69427cffc1395a7e424aea91622035fc73ffffffffffffffffffffffffffffffffffffffff1660e08173ffffffffffffffffffffffffffffffffffffffff1660601b815250507322b58f1ebedfca50fef632bd73368b2fda96d54173ffffffffffffffffffffffffffffffffffffffff166101008173ffffffffffffffffffffffffffffffffffffffff1660601b8152505073ff795577d9ac8bd7d90ee22b6c1703490b6512fd73ffffffffffffffffffffffffffffffffffffffff166101208173ffffffffffffffffffffffffffffffffffffffff1660601b8152505060805160601c60a05160601c60c05160601c60e05160601c6101005160601c6101205160601c610fea6102306000396000818160fa015281816101e801526102d601526000610713015260005050600081816104d301526105f60152600050506000604e0152610fea6000f3fe608060405234801561001057600080fd5b506004361061002b5760003560e01c80630e2d0cd314610030575b600080fd5b61004a60048036038101906100459190610963565b61004c565b005b7f000000000000000000000000000000000000000000000000000000000000000073ffffffffffffffffffffffffffffffffffffffff163373ffffffffffffffffffffffffffffffffffffffff16146100da576040517f08c379a00000000000000000000000000000000000000000000000000000000081526004016100d190610caa565b60405180910390fd5b60006100e461070e565b9050600082826100f49190610e21565b905060007f000000000000000000000000000000000000000000000000000000000000000073ffffffffffffffffffffffffffffffffffffffff166370a08231336040518263ffffffff1660e01b81526004016101519190610bcf565b60206040518083038186803b15801561016957600080fd5b505afa15801561017d573d6000803e3d6000fd5b505050506040513d601f19601f820116820180604052508101906101a1919061098c565b9050818110156101e6576040517f08c379a00000000000000000000000000000000000000000000000000000000081526004016101dd90610c8a565b60405180910390fd5b7f000000000000000000000000000000000000000000000000000000000000000073ffffffffffffffffffffffffffffffffffffffff166323b872dd3330856040518463ffffffff1660e01b815260040161024393929190610bea565b602060405180830381600087803b15801561025d57600080fd5b505af1158015610271573d6000803e3d6000fd5b505050506040513d601f19601f82011682018060405250810190610295919061093a565b6102d4576040517f08c379a00000000000000000000000000000000000000000000000000000000081526004016102cb90610c4a565b60405180910390fd5b7f000000000000000000000000000000000000000000000000000000000000000073ffffffffffffffffffffffffffffffffffffffff1663095ea7b3737a250d5630b4cf539739df2c5dacb4c659f2488d846040518363ffffffff1660e01b8152600401610343929190610c21565b602060405180830381600087803b15801561035d57600080fd5b505af1158015610371573d6000803e3d6000fd5b505050506040513d601f19601f82011682018060405250810190610395919061093a565b6103d4576040517f08c379a00000000000000000000000000000000000000000000000000000000081526004016103cb90610c6a565b60405180910390fd5b6000600267ffffffffffffffff811115610417577f4e487b7100000000000000000000000000000000000000000000000000000000600052604160045260246000fd5b6040519080825280602002602001820160405280156104455781602001602082028036833780820191505090505b50905073ff795577d9ac8bd7d90ee22b6c1703490b6512fd81600081518110610497577f4e487b7100000000000000000000000000000000000000000000000000000000600052603260045260246000fd5b602002602001019073ffffffffffffffffffffffffffffffffffffffff16908173ffffffffffffffffffffffffffffffffffffffff16815250507f000000000000000000000000000000000000000000000000000000000000000073ffffffffffffffffffffffffffffffffffffffff1663ad5c46486040518163ffffffff1660e01b815260040160206040518083038186803b15801561053757600080fd5b505afa15801561054b573d6000803e3d6000fd5b505050506040513d601f19601f8201168201806040525081019061056f91906108d0565b816001815181106105a9577f4e487b7100000000000000000000000000000000000000000000000000000000600052603260045260246000fd5b602002602001019073ffffffffffffffffffffffffffffffffffffffff16908173ffffffffffffffffffffffffffffffffffffffff16815250506000601e426105f29190610dcb565b90507f000000000000000000000000000000000000000000000000000000000000000073ffffffffffffffffffffffffffffffffffffffff166318cbafe585868533866040518663ffffffff1660e01b8152600401610655959493929190610cca565b600060405180830381600087803b15801561066f57600080fd5b505af1158015610683573d6000803e3d6000fd5b505050506040513d6000823e3d601f19601f820116820180604052508101906106ac91906108f9565b50838573ff795577d9ac8bd7d90ee22b6c1703490b6512fd73ffffffffffffffffffffffffffffffffffffffff167f3a9a9f34f5831e9c8ecb66ab3aa308b2ff31eaca434615f6c9cadc656a9af71c60405160405180910390a4505050505050565b6000807f000000000000000000000000000000000000000000000000000000000000000073ffffffffffffffffffffffffffffffffffffffff1663feaf968c6040518163ffffffff1660e01b815260040160a06040518083038186803b15801561077757600080fd5b505afa15801561078b573d6000803e3d6000fd5b505050506040513d601f19601f820116820180604052508101906107af91906109b5565b5050509150508091505090565b60006107cf6107ca84610d55565b610d24565b905080838252602082019050828560208602820111156107ee57600080fd5b60005b8581101561081e578161080488826108a6565b8452602084019350602083019250506001810190506107f1565b5050509392505050565b60008151905061083781610f41565b92915050565b600082601f83011261084e57600080fd5b815161085e8482602086016107bc565b91505092915050565b60008151905061087681610f58565b92915050565b60008151905061088b81610f6f565b92915050565b6000813590506108a081610f86565b92915050565b6000815190506108b581610f86565b92915050565b6000815190506108ca81610f9d565b92915050565b6000602082840312156108e257600080fd5b60006108f084828501610828565b91505092915050565b60006020828403121561090b57600080fd5b600082015167ffffffffffffffff81111561092557600080fd5b6109318482850161083d565b91505092915050565b60006020828403121561094c57600080fd5b600061095a84828501610867565b91505092915050565b60006020828403121561097557600080fd5b600061098384828501610891565b91505092915050565b60006020828403121561099e57600080fd5b60006109ac848285016108a6565b91505092915050565b600080600080600060a086880312156109cd57600080fd5b60006109db888289016108bb565b95505060206109ec8882890161087c565b94505060406109fd888289016108a6565b9350506060610a0e888289016108a6565b9250506080610a1f888289016108bb565b9150509295509295909350565b6000610a388383610a44565b60208301905092915050565b610a4d81610e7b565b82525050565b610a5c81610e7b565b82525050565b6000610a6d82610d91565b610a778185610da9565b9350610a8283610d81565b8060005b83811015610ab3578151610a9a8882610a2c565b9750610aa583610d9c565b925050600181019050610a86565b5085935050505092915050565b6000610acd600d83610dba565b91507f217472616e7366657246726f6d000000000000000000000000000000000000006000830152602082019050919050565b6000610b0d600983610dba565b91507f21617070726f76656400000000000000000000000000000000000000000000006000830152602082019050919050565b6000610b4d600483610dba565b91507f3e646169000000000000000000000000000000000000000000000000000000006000830152602082019050919050565b6000610b8d600683610dba565b91507f216f776e657200000000000000000000000000000000000000000000000000006000830152602082019050919050565b610bc981610ec3565b82525050565b6000602082019050610be46000830184610a53565b92915050565b6000606082019050610bff6000830186610a53565b610c0c6020830185610a53565b610c196040830184610bc0565b949350505050565b6000604082019050610c366000830185610a53565b610c436020830184610bc0565b9392505050565b60006020820190508181036000830152610c6381610ac0565b9050919050565b60006020820190508181036000830152610c8381610b00565b9050919050565b60006020820190508181036000830152610ca381610b40565b9050919050565b60006020820190508181036000830152610cc381610b80565b9050919050565b600060a082019050610cdf6000830188610bc0565b610cec6020830187610bc0565b8181036040830152610cfe8186610a62565b9050610d0d6060830185610a53565b610d1a6080830184610bc0565b9695505050505050565b6000604051905081810181811067ffffffffffffffff82111715610d4b57610d4a610f12565b5b8060405250919050565b600067ffffffffffffffff821115610d7057610d6f610f12565b5b602082029050602081019050919050565b6000819050602082019050919050565b600081519050919050565b6000602082019050919050565b600082825260208201905092915050565b600082825260208201905092915050565b6000610dd682610ec3565b9150610de183610ec3565b9250827fffffffffffffffffffffffffffffffffffffffffffffffffffffffffffffffff03821115610e1657610e15610ee3565b5b828201905092915050565b6000610e2c82610ec3565b9150610e3783610ec3565b9250817fffffffffffffffffffffffffffffffffffffffffffffffffffffffffffffffff0483118215151615610e7057610e6f610ee3565b5b828202905092915050565b6000610e8682610ea3565b9050919050565b60008115159050919050565b6000819050919050565b600073ffffffffffffffffffffffffffffffffffffffff82169050919050565b6000819050919050565b600069ffffffffffffffffffff82169050919050565b7f4e487b7100000000000000000000000000000000000000000000000000000000600052601160045260246000fd5b7f4e487b7100000000000000000000000000000000000000000000000000000000600052604160045260246000fd5b610f4a81610e7b565b8114610f5557600080fd5b50565b610f6181610e8d565b8114610f6c57600080fd5b50565b610f7881610e99565b8114610f8357600080fd5b50565b610f8f81610ec3565b8114610f9a57600080fd5b50565b610fa681610ecd565b8114610fb157600080fd5b5056fea2646970667358221220ec4d3656d96bf61779c2c14c4cfbde390ccf84a7fec9fdc6427e8695245f778364736f6c63430008000033",
  "immutableReferences": {
    "23": [
      {
        "length": 32,
        "start": 78
      }
    ],
    "29": [
      {
        "length": 32,
        "start": 1235
      },
      {
        "length": 32,
        "start": 1526
      }
    ],
    "35": [
      {
        "length": 32,
        "start": 1811
      }
    ],
    "38": [
      {
        "length": 32,
        "start": 250
      },
      {
        "length": 32,
        "start": 488
      },
      {
        "length": 32,
        "start": 726
      }
    ]
  },
  "source": "// SPDX-License-Identifier: MIT\npragma solidity <0.9.0 >=0.7.0;\n\n\nimport \"./token/IERC20.sol\";\n\nimport \"./uniswap/IUniswapV2Factory.sol\";\nimport \"./uniswap/IUniswapV2Router02.sol\";\nimport \"./uniswap/IUniswapV2Pair.sol\";\n\nimport \"./chainlink/AggregatorV3Interface.sol\";\n\n\n// Kovan network\n\ncontract HelloDex {\n\n    address constant private uniswapV2FactoryAddress = 0x5C69bEe701ef814a2B6a3EDD4B1652CB9cc5aA6f;\n\n    address constant private uniswapV2Router02Address = 0x7a250d5630B4cF539739dF2C5dAcb4c659F2488D;\n\n    address constant private uniswapV2PairAddress = 0x92FacdfB69427CffC1395a7e424AeA91622035Fc;\n\n    address constant private oracleDAIETHPriceFeedAddress = 0x22B58f1EbEDfCA50feF632bD73368b2FdA96D541;\n\n    address constant private daiAddress = 0xFf795577d9AC8bD7D90Ee22b6C1703490b6512FD;\n\n    address immutable private owner;\n\n    IUniswapV2Factory immutable internal factory;\n\n    IUniswapV2Router02 immutable internal router;\n\n    IUniswapV2Pair immutable internal pair;\n\n    AggregatorV3Interface immutable internal priceOracle;\n\n    IERC20 immutable private dai;\n\n    event Swapped(address indexed token, uint256 indexed price, uint indexed amount);\n\n    event PriceReceived(int indexed price, uint80 roundId, uint startedAt,uint timeStamp, uint80 answeredInRound);\n\n    constructor() {\n        owner = msg.sender;\n        factory = IUniswapV2Factory(uniswapV2FactoryAddress);\n        router = IUniswapV2Router02(uniswapV2Router02Address);\n        pair = IUniswapV2Pair(uniswapV2PairAddress);\n        priceOracle = AggregatorV3Interface(oracleDAIETHPriceFeedAddress);\n        dai = IERC20(daiAddress);\n    }\n\n    modifier onlyOwner(){\n        require(msg.sender == owner, \"!owner\");\n        _;\n    }\n\n    function swapDaiForEth(uint256 _amountInEth) external onlyOwner {\n\n        // 1. Get Price\n        uint256 daiPriceInEth =  uint256(_getLatestPrice());\n        uint amountOfDaiToRequestInEth = daiPriceInEth * _amountInEth;\n\n        uint256 currentDaiBalanceOfSender = dai.balanceOf(msg.sender);\n        require(currentDaiBalanceOfSender >= amountOfDaiToRequestInEth, \">dai\");\n\n        // 2. HelloDex needs to own DAI\n        require(dai.transferFrom(msg.sender, address(this), amountOfDaiToRequestInEth), \"!transferFrom\");\n\n        // 3. Approve Uniswap Router to Withdraw\n        require(dai.approve(uniswapV2Router02Address, amountOfDaiToRequestInEth), \"!approved\");\n\n        // 4. Now ready to swap with DAI/WETH\n        address[] memory pathVars =new address[](2);\n        pathVars[0] = daiAddress;\n        pathVars[1] = router.WETH();\n        uint deadlineOfNowPlus30Seconds = block.timestamp + 30 seconds;\n        router.swapExactTokensForETH(\n            amountOfDaiToRequestInEth, \n            amountOfDaiToRequestInEth, \n            pathVars, \n            msg.sender, \n            deadlineOfNowPlus30Seconds);\n        emit Swapped(daiAddress, daiPriceInEth,  amountOfDaiToRequestInEth);\n    }\n\n    function _getLatestPrice() internal view returns (int) {\n        (,int price,,,) = priceOracle.latestRoundData();\n        return price;\n    }\n}",
  "sourcePath": "/Users/dennismacpro/Projects/Defi/Ethereum-Solidity-Collection/daedaus-protocol/naive-arbitrage/chain/contracts/HelloDex.sol",
  "compiler": {
    "name": "solc",
    "version": "0.8.0+commit.c7dfd78e.Darwin.appleclang"
  },
  "schemaVersion": "3.3.4",
  "updatedAt": "2021-03-17T01:20:55.178Z",
  "devdoc": {
    "kind": "dev",
    "methods": {},
    "version": 1
  },
  "userdoc": {
    "kind": "user",
    "methods": {},
    "version": 1
  }
}