{
  "contractName": "TestString",
  "abi": [
    {
      "inputs": [
        {
          "internalType": "string",
          "name": "_base",
          "type": "string"
        }
      ],
      "name": "testConcat",
      "outputs": [
        {
          "internalType": "string",
          "name": "",
          "type": "string"
        }
      ],
      "stateMutability": "pure",
      "type": "function"
    },
    {
      "inputs": [
        {
          "internalType": "string",
          "name": "_base",
          "type": "string"
        }
      ],
      "name": "needleInHaystack",
      "outputs": [
        {
          "internalType": "int256",
          "name": "",
          "type": "int256"
        }
      ],
      "stateMutability": "pure",
      "type": "function"
    }
  ],
  "bytecode": "0x608060405234801561001057600080fd5b50610848806100206000396000f3fe608060405234801561001057600080fd5b50600436106100365760003560e01c8063341312691461003b5780637b3ee3161461006b575b600080fd5b6100556004803603810190610050919061056b565b61009b565b60405161006291906105f4565b60405180910390f35b6100856004803603810190610080919061056b565b6100ec565b604051610092919061060f565b60405180910390f35b60006100e56040518060400160405280600181526020017f74000000000000000000000000000000000000000000000000000000000000008152508361013d90919063ffffffff16565b9050919050565b60606101366040518060400160405280600781526020017f5f73756666697800000000000000000000000000000000000000000000000000815250836102aa90919063ffffffff16565b9050919050565b60008083905060008390506001815114610180577f4e487b7100000000000000000000000000000000000000000000000000000000600052600160045260246000fd5b60005b825181101561027d57816000815181106101c6577f4e487b7100000000000000000000000000000000000000000000000000000000600052603260045260246000fd5b602001015160f81c60f81b7effffffffffffffffffffffffffffffffffffffffffffffffffffffffffffff191683828151811061022c577f4e487b7100000000000000000000000000000000000000000000000000000000600052603260045260246000fd5b602001015160f81c60f81b7effffffffffffffffffffffffffffffffffffffffffffffffffffffffffffff1916141561026a578093505050506102a4565b80806102759061075a565b915050610183565b507fffffffffffffffffffffffffffffffffffffffffffffffffffffffffffffffff925050505b92915050565b6060600083905060008390506000815183516102c691906106ae565b67ffffffffffffffff811115610305577f4e487b7100000000000000000000000000000000000000000000000000000000600052604160045260246000fd5b6040519080825280601f01601f1916602001820160405280156103375781602001600182028036833780820191505090505b5090506000819050600080600091505b855182101561041b57828281518110610389577f4e487b7100000000000000000000000000000000000000000000000000000000600052603260045260246000fd5b602001015160f81c60f81b8382806103a09061075a565b9350815181106103d9577f4e487b7100000000000000000000000000000000000000000000000000000000600052603260045260246000fd5b60200101907effffffffffffffffffffffffffffffffffffffffffffffffffffffffffffff1916908160001a90535081806104139061075a565b925050610347565b600091505b84518210156104f457848281518110610462577f4e487b7100000000000000000000000000000000000000000000000000000000600052603260045260246000fd5b602001015160f81c60f81b8382806104799061075a565b9350815181106104b2577f4e487b7100000000000000000000000000000000000000000000000000000000600052603260045260246000fd5b60200101907effffffffffffffffffffffffffffffffffffffffffffffffffffffffffffff1916908160001a90535081806104ec9061075a565b925050610420565b82965050505050505092915050565b600061051661051184610662565b610631565b90508281526020810184848401111561052e57600080fd5b610539848285610718565b509392505050565b600082601f83011261055257600080fd5b8135610562848260208601610503565b91505092915050565b60006020828403121561057d57600080fd5b600082013567ffffffffffffffff81111561059757600080fd5b6105a384828501610541565b91505092915050565b6105b581610704565b82525050565b60006105c682610692565b6105d0818561069d565b93506105e0818560208601610727565b6105e981610801565b840191505092915050565b600060208201905061060960008301846105ac565b92915050565b6000602082019050818103600083015261062981846105bb565b905092915050565b6000604051905081810181811067ffffffffffffffff82111715610658576106576107d2565b5b8060405250919050565b600067ffffffffffffffff82111561067d5761067c6107d2565b5b601f19601f8301169050602081019050919050565b600081519050919050565b600082825260208201905092915050565b60006106b98261070e565b91506106c48361070e565b9250827fffffffffffffffffffffffffffffffffffffffffffffffffffffffffffffffff038211156106f9576106f86107a3565b5b828201905092915050565b6000819050919050565b6000819050919050565b82818337600083830152505050565b60005b8381101561074557808201518184015260208101905061072a565b83811115610754576000848401525b50505050565b60006107658261070e565b91507fffffffffffffffffffffffffffffffffffffffffffffffffffffffffffffffff821415610798576107976107a3565b5b600182019050919050565b7f4e487b7100000000000000000000000000000000000000000000000000000000600052601160045260246000fd5b7f4e487b7100000000000000000000000000000000000000000000000000000000600052604160045260246000fd5b6000601f19601f830116905091905056fea2646970667358221220070a5bb861855cccbaf3958b51dd5d936ac534c38f83f9e404e00f5a16dea48364736f6c63430008000033",
  "immutableReferences": {},
  "source": "// SPDX-License-Identifier: MIT\n\npragma solidity >=0.7.0 <0.9.0;\n\n\nlibrary Strings {\n\n    function _concat(string memory _base, string memory _values) internal pure returns (string memory) {\n        bytes memory _myBytes = bytes(_base);\n        bytes memory _valueBytes = bytes(_values);\n\n        string memory _tmp = new string(_myBytes.length + _valueBytes.length);\n        bytes memory _newValue = bytes(_tmp);\n\n        uint i;\n        uint j;\n\n        for(i = 0; i < _myBytes.length;i++) {\n            _newValue[j++] = _newValue[i];\n        }\n\n        for(i = 0; i < _valueBytes.length;i++) {\n            _newValue[j++] = _valueBytes[i];\n        }\n         \n        return string(_newValue);\n    }\n\n    function strpos(string memory _base, string memory _value) internal pure returns (int) {\n        bytes memory _baseBytes = bytes(_base);\n        bytes memory _valueBytes = bytes(_value);\n\n        assert(_valueBytes.length == 1);\n\n        for(uint i = 0; i < _baseBytes.length; i++) {\n            if(_baseBytes[i] == _valueBytes[0]) {\n                return int(i);\n            }\n        }\n\n        return -1;\n    }\n}\n\ncontract TestString  {\n    using Strings for string;\n\n    function testConcat(string memory _base) public pure returns (string memory) {\n        return _base._concat(\"_suffix\");\n    }\n\n    function needleInHaystack(string memory _base) public pure returns (int) {\n        return _base.strpos(\"t\");\n    }\n}\n\n",
  "sourcePath": "/Users/dennismacpro/Projects/Defi/Ethereum-Solidity-Collection/ascension-protocol/bytes-protocol/contracts/strings.sol",
  "compiler": {
    "name": "solc",
    "version": "0.8.0+commit.c7dfd78e.Darwin.appleclang"
  },
  "schemaVersion": "3.3.4",
  "updatedAt": "2021-03-03T15:18:31.428Z",
  "devdoc": {
    "kind": "dev",
    "methods": {},
    "version": 1
  },
  "userdoc": {
    "kind": "user",
    "methods": {},
    "version": 1
  }
}