{
  "contractName": "MasterChefImpl",
  "abi": [
    {
      "inputs": [
        {
          "internalType": "contract PickleToken",
          "name": "_pickle",
          "type": "address"
        },
        {
          "internalType": "address",
          "name": "_devaddr",
          "type": "address"
        },
        {
          "internalType": "uint256",
          "name": "_picklePerBlock",
          "type": "uint256"
        },
        {
          "internalType": "uint256",
          "name": "_startBlock",
          "type": "uint256"
        },
        {
          "internalType": "uint256",
          "name": "_bonusEndBlock",
          "type": "uint256"
        }
      ],
      "stateMutability": "nonpayable",
      "type": "constructor"
    },
    {
      "anonymous": false,
      "inputs": [
        {
          "indexed": true,
          "internalType": "address",
          "name": "user",
          "type": "address"
        },
        {
          "indexed": true,
          "internalType": "uint256",
          "name": "pid",
          "type": "uint256"
        },
        {
          "indexed": false,
          "internalType": "uint256",
          "name": "amount",
          "type": "uint256"
        }
      ],
      "name": "Deposit",
      "type": "event"
    },
    {
      "anonymous": false,
      "inputs": [
        {
          "indexed": true,
          "internalType": "address",
          "name": "user",
          "type": "address"
        },
        {
          "indexed": true,
          "internalType": "uint256",
          "name": "pid",
          "type": "uint256"
        },
        {
          "indexed": false,
          "internalType": "uint256",
          "name": "amount",
          "type": "uint256"
        }
      ],
      "name": "EmergencyWithdraw",
      "type": "event"
    },
    {
      "anonymous": false,
      "inputs": [
        {
          "indexed": true,
          "internalType": "address",
          "name": "previousOwner",
          "type": "address"
        },
        {
          "indexed": true,
          "internalType": "address",
          "name": "newOwner",
          "type": "address"
        }
      ],
      "name": "OwnershipTransferred",
      "type": "event"
    },
    {
      "anonymous": false,
      "inputs": [
        {
          "indexed": false,
          "internalType": "address",
          "name": "token",
          "type": "address"
        },
        {
          "indexed": false,
          "internalType": "uint256",
          "name": "amount",
          "type": "uint256"
        }
      ],
      "name": "Recovered",
      "type": "event"
    },
    {
      "anonymous": false,
      "inputs": [
        {
          "indexed": true,
          "internalType": "address",
          "name": "user",
          "type": "address"
        },
        {
          "indexed": true,
          "internalType": "uint256",
          "name": "pid",
          "type": "uint256"
        },
        {
          "indexed": false,
          "internalType": "uint256",
          "name": "amount",
          "type": "uint256"
        }
      ],
      "name": "Withdraw",
      "type": "event"
    },
    {
      "inputs": [],
      "name": "BONUS_MULTIPLIER",
      "outputs": [
        {
          "internalType": "uint256",
          "name": "",
          "type": "uint256"
        }
      ],
      "stateMutability": "view",
      "type": "function"
    },
    {
      "inputs": [],
      "name": "bonusEndBlock",
      "outputs": [
        {
          "internalType": "uint256",
          "name": "",
          "type": "uint256"
        }
      ],
      "stateMutability": "view",
      "type": "function"
    },
    {
      "inputs": [],
      "name": "devFundDivRate",
      "outputs": [
        {
          "internalType": "uint256",
          "name": "",
          "type": "uint256"
        }
      ],
      "stateMutability": "view",
      "type": "function"
    },
    {
      "inputs": [],
      "name": "devaddr",
      "outputs": [
        {
          "internalType": "address",
          "name": "",
          "type": "address"
        }
      ],
      "stateMutability": "view",
      "type": "function"
    },
    {
      "inputs": [],
      "name": "owner",
      "outputs": [
        {
          "internalType": "address",
          "name": "",
          "type": "address"
        }
      ],
      "stateMutability": "view",
      "type": "function"
    },
    {
      "inputs": [],
      "name": "pickle",
      "outputs": [
        {
          "internalType": "contract PickleToken",
          "name": "",
          "type": "address"
        }
      ],
      "stateMutability": "view",
      "type": "function"
    },
    {
      "inputs": [],
      "name": "picklePerBlock",
      "outputs": [
        {
          "internalType": "uint256",
          "name": "",
          "type": "uint256"
        }
      ],
      "stateMutability": "view",
      "type": "function"
    },
    {
      "inputs": [
        {
          "internalType": "uint256",
          "name": "",
          "type": "uint256"
        }
      ],
      "name": "poolInfo",
      "outputs": [
        {
          "internalType": "contract IERC20",
          "name": "lpToken",
          "type": "address"
        },
        {
          "internalType": "uint256",
          "name": "allocPoint",
          "type": "uint256"
        },
        {
          "internalType": "uint256",
          "name": "lastRewardBlock",
          "type": "uint256"
        },
        {
          "internalType": "uint256",
          "name": "accPicklePerShare",
          "type": "uint256"
        }
      ],
      "stateMutability": "view",
      "type": "function"
    },
    {
      "inputs": [],
      "name": "renounceOwnership",
      "outputs": [],
      "stateMutability": "nonpayable",
      "type": "function"
    },
    {
      "inputs": [],
      "name": "startBlock",
      "outputs": [
        {
          "internalType": "uint256",
          "name": "",
          "type": "uint256"
        }
      ],
      "stateMutability": "view",
      "type": "function"
    },
    {
      "inputs": [],
      "name": "totalAllocPoint",
      "outputs": [
        {
          "internalType": "uint256",
          "name": "",
          "type": "uint256"
        }
      ],
      "stateMutability": "view",
      "type": "function"
    },
    {
      "inputs": [
        {
          "internalType": "address",
          "name": "newOwner",
          "type": "address"
        }
      ],
      "name": "transferOwnership",
      "outputs": [],
      "stateMutability": "nonpayable",
      "type": "function"
    },
    {
      "inputs": [
        {
          "internalType": "uint256",
          "name": "",
          "type": "uint256"
        },
        {
          "internalType": "address",
          "name": "",
          "type": "address"
        }
      ],
      "name": "userInfo",
      "outputs": [
        {
          "internalType": "uint256",
          "name": "amount",
          "type": "uint256"
        },
        {
          "internalType": "uint256",
          "name": "rewardDebt",
          "type": "uint256"
        }
      ],
      "stateMutability": "view",
      "type": "function"
    },
    {
      "inputs": [],
      "name": "poolLength",
      "outputs": [
        {
          "internalType": "uint256",
          "name": "",
          "type": "uint256"
        }
      ],
      "stateMutability": "view",
      "type": "function"
    },
    {
      "inputs": [
        {
          "internalType": "uint256",
          "name": "_allocPoint",
          "type": "uint256"
        },
        {
          "internalType": "contract IERC20",
          "name": "_lpToken",
          "type": "address"
        },
        {
          "internalType": "bool",
          "name": "_withUpdate",
          "type": "bool"
        }
      ],
      "name": "add",
      "outputs": [],
      "stateMutability": "nonpayable",
      "type": "function"
    },
    {
      "inputs": [
        {
          "internalType": "uint256",
          "name": "_pid",
          "type": "uint256"
        },
        {
          "internalType": "uint256",
          "name": "_allocPoint",
          "type": "uint256"
        },
        {
          "internalType": "bool",
          "name": "_withUpdate",
          "type": "bool"
        }
      ],
      "name": "set",
      "outputs": [],
      "stateMutability": "nonpayable",
      "type": "function"
    },
    {
      "inputs": [
        {
          "internalType": "uint256",
          "name": "_from",
          "type": "uint256"
        },
        {
          "internalType": "uint256",
          "name": "_to",
          "type": "uint256"
        }
      ],
      "name": "getMultiplier",
      "outputs": [
        {
          "internalType": "uint256",
          "name": "",
          "type": "uint256"
        }
      ],
      "stateMutability": "view",
      "type": "function"
    },
    {
      "inputs": [
        {
          "internalType": "uint256",
          "name": "_pid",
          "type": "uint256"
        },
        {
          "internalType": "address",
          "name": "_user",
          "type": "address"
        }
      ],
      "name": "pendingPickle",
      "outputs": [
        {
          "internalType": "uint256",
          "name": "",
          "type": "uint256"
        }
      ],
      "stateMutability": "view",
      "type": "function"
    },
    {
      "inputs": [],
      "name": "massUpdatePools",
      "outputs": [],
      "stateMutability": "nonpayable",
      "type": "function"
    },
    {
      "inputs": [
        {
          "internalType": "uint256",
          "name": "_pid",
          "type": "uint256"
        }
      ],
      "name": "updatePool",
      "outputs": [],
      "stateMutability": "nonpayable",
      "type": "function"
    },
    {
      "inputs": [
        {
          "internalType": "uint256",
          "name": "_pid",
          "type": "uint256"
        },
        {
          "internalType": "uint256",
          "name": "_amount",
          "type": "uint256"
        }
      ],
      "name": "deposit",
      "outputs": [],
      "stateMutability": "nonpayable",
      "type": "function"
    },
    {
      "inputs": [
        {
          "internalType": "uint256",
          "name": "_pid",
          "type": "uint256"
        },
        {
          "internalType": "uint256",
          "name": "_amount",
          "type": "uint256"
        }
      ],
      "name": "withdraw",
      "outputs": [],
      "stateMutability": "nonpayable",
      "type": "function"
    },
    {
      "inputs": [
        {
          "internalType": "uint256",
          "name": "_pid",
          "type": "uint256"
        }
      ],
      "name": "emergencyWithdraw",
      "outputs": [],
      "stateMutability": "nonpayable",
      "type": "function"
    },
    {
      "inputs": [
        {
          "internalType": "address",
          "name": "_devaddr",
          "type": "address"
        }
      ],
      "name": "dev",
      "outputs": [],
      "stateMutability": "nonpayable",
      "type": "function"
    },
    {
      "inputs": [
        {
          "internalType": "uint256",
          "name": "_picklePerBlock",
          "type": "uint256"
        }
      ],
      "name": "setPicklePerBlock",
      "outputs": [],
      "stateMutability": "nonpayable",
      "type": "function"
    },
    {
      "inputs": [
        {
          "internalType": "uint256",
          "name": "_bonusEndBlock",
          "type": "uint256"
        }
      ],
      "name": "setBonusEndBlock",
      "outputs": [],
      "stateMutability": "nonpayable",
      "type": "function"
    },
    {
      "inputs": [
        {
          "internalType": "uint256",
          "name": "_devFundDivRate",
          "type": "uint256"
        }
      ],
      "name": "setDevFundDivRate",
      "outputs": [],
      "stateMutability": "nonpayable",
      "type": "function"
    }
  ],
  "bytecode": "0x6080604052603260025560006008553480156200001b57600080fd5b5060405162003007380380620030078339818101604052810190620000419190620001e0565b6000620000536200019360201b60201c565b9050806000806101000a81548173ffffffffffffffffffffffffffffffffffffffff021916908373ffffffffffffffffffffffffffffffffffffffff1602179055508073ffffffffffffffffffffffffffffffffffffffff16600073ffffffffffffffffffffffffffffffffffffffff167f8be0079c531659141344cd1fd0a4f28419497f9722a3daafe3b4186f6b6457e060405160405180910390a35084600160006101000a81548173ffffffffffffffffffffffffffffffffffffffff021916908373ffffffffffffffffffffffffffffffffffffffff16021790555083600360006101000a81548173ffffffffffffffffffffffffffffffffffffffff021916908373ffffffffffffffffffffffffffffffffffffffff160217905550826005819055508060048190555081600981905550505050505062000302565b600033905090565b600081519050620001ac81620002b4565b92915050565b600081519050620001c381620002ce565b92915050565b600081519050620001da81620002e8565b92915050565b600080600080600060a08688031215620001f957600080fd5b60006200020988828901620001b2565b95505060206200021c888289016200019b565b94505060406200022f88828901620001c9565b93505060606200024288828901620001c9565b92505060806200025588828901620001c9565b9150509295509295909350565b60006200026f826200028a565b9050919050565b6000620002838262000262565b9050919050565b600073ffffffffffffffffffffffffffffffffffffffff82169050919050565b6000819050919050565b620002bf8162000262565b8114620002cb57600080fd5b50565b620002d98162000276565b8114620002e557600080fd5b50565b620002f381620002aa565b8114620002ff57600080fd5b50565b612cf580620003126000396000f3fe608060405234801561001057600080fd5b50600436106101a95760003560e01c806365538fb2116100f957806393f1a40b11610097578063d49e77cd11610071578063d49e77cd14610472578063e2bbb15814610490578063f2fde38b146104ac578063f3887eee146104c8576101a9565b806393f1a40b146104095780639e0af2341461043a578063bb38ce5014610456576101a9565b80638aa28550116100d35780638aa28550146103815780638d88a90e1461039f5780638da5cb5b146103bb5780638dbb1e3a146103d9576101a9565b806365538fb214610329578063715018a614610347578063876ad66314610351576101a9565b8063441a3e70116101665780635312ea8e116101405780635312ea8e146102c957806353819833146102e5578063630b5ba11461030357806364482f791461030d576101a9565b8063441a3e701461027357806348cd4cb11461028f57806351eb05a6146102ad576101a9565b8063081e3eda146101ae5780631526fe27146101cc57806317caf6f1146101ff5780631aed65531461021d5780631eaaa0451461023b57806325ccad2d14610257575b600080fd5b6101b66104e6565b6040516101c3919061294b565b60405180910390f35b6101e660048036038101906101e191906122dd565b6104f3565b6040516101f694939291906127c9565b60405180910390f35b610207610553565b604051610214919061294b565b60405180910390f35b610225610559565b604051610232919061294b565b60405180910390f35b6102556004803603810190610250919061236b565b61055f565b005b610271600480360381019061026c91906122dd565b610705565b005b61028d600480360381019061028891906123ba565b6107e7565b005b610297610a2b565b6040516102a4919061294b565b60405180910390f35b6102c760048036038101906102c291906122dd565b610a31565b005b6102e360048036038101906102de91906122dd565b610d5a565b005b6102ed610eb9565b6040516102fa919061294b565b60405180910390f35b61030b610ebf565b005b610327600480360381019061032291906123f6565b610ef2565b005b610331611063565b60405161033e919061294b565b60405180910390f35b61034f611069565b005b61036b6004803603810190610366919061232f565b6111bc565b604051610378919061294b565b60405180910390f35b610389611416565b604051610396919061294b565b60405180910390f35b6103b960048036038101906103b4919061228b565b61141b565b005b6103c36114ef565b6040516103d0919061274e565b60405180910390f35b6103f360048036038101906103ee91906123ba565b611518565b604051610400919061294b565b60405180910390f35b610423600480360381019061041e919061232f565b6115ca565b604051610431929190612966565b60405180910390f35b610454600480360381019061044f91906122dd565b6115fb565b005b610470600480360381019061046b91906122dd565b61169a565b005b61047a61177c565b604051610487919061274e565b60405180910390f35b6104aa60048036038101906104a591906123ba565b6117a2565b005b6104c660048036038101906104c1919061228b565b6119af565b005b6104d0611b71565b6040516104dd919061280e565b60405180910390f35b6000600680549050905090565b6006818154811061050357600080fd5b90600052602060002090600402016000915090508060000160009054906101000a900473ffffffffffffffffffffffffffffffffffffffff16908060010154908060020154908060030154905084565b60085481565b60045481565b610567611b97565b73ffffffffffffffffffffffffffffffffffffffff1660008054906101000a900473ffffffffffffffffffffffffffffffffffffffff1673ffffffffffffffffffffffffffffffffffffffff16146105f4576040517f08c379a00000000000000000000000000000000000000000000000000000000081526004016105eb9061288b565b60405180910390fd5b801561060357610602610ebf565b5b6000600954431161061657600954610618565b435b905061062f84600854611b9f90919063ffffffff16565b600881905550600660405180608001604052808573ffffffffffffffffffffffffffffffffffffffff1681526020018681526020018381526020016000815250908060018154018082558091505060019003906000526020600020906004020160009091909190915060008201518160000160006101000a81548173ffffffffffffffffffffffffffffffffffffffff021916908373ffffffffffffffffffffffffffffffffffffffff160217905550602082015181600101556040820151816002015560608201518160030155505050505050565b61070d611b97565b73ffffffffffffffffffffffffffffffffffffffff1660008054906101000a900473ffffffffffffffffffffffffffffffffffffffff1673ffffffffffffffffffffffffffffffffffffffff161461079a576040517f08c379a00000000000000000000000000000000000000000000000000000000081526004016107919061288b565b60405180910390fd5b600081116107dd576040517f08c379a00000000000000000000000000000000000000000000000000000000081526004016107d4906128ab565b60405180910390fd5b8060058190555050565b600060068381548110610823577f4e487b7100000000000000000000000000000000000000000000000000000000600052603260045260246000fd5b9060005260206000209060040201905060006007600085815260200190815260200160002060003373ffffffffffffffffffffffffffffffffffffffff1673ffffffffffffffffffffffffffffffffffffffff168152602001908152602001600020905082816000015410156108ce576040517f08c379a00000000000000000000000000000000000000000000000000000000081526004016108c5906128eb565b60405180910390fd5b6108d784610a31565b6000610921826001015461091364e8d4a5100061090587600301548760000154611bf190919063ffffffff16565b611c6090919063ffffffff16565b611c7b90919063ffffffff16565b905061092d3382611cc8565b610944848360000154611c7b90919063ffffffff16565b826000018190555061097e64e8d4a5100061097085600301548560000154611bf190919063ffffffff16565b611c6090919063ffffffff16565b82600101819055506109d533858560000160009054906101000a900473ffffffffffffffffffffffffffffffffffffffff1673ffffffffffffffffffffffffffffffffffffffff16611eea9092919063ffffffff16565b843373ffffffffffffffffffffffffffffffffffffffff167ff279e6a1f5e320cca91135676d9cb6e44ca8a08c0b88342bcdb1144f6511b56886604051610a1c919061294b565b60405180910390a35050505050565b60095481565b600060068281548110610a6d577f4e487b7100000000000000000000000000000000000000000000000000000000600052603260045260246000fd5b9060005260206000209060040201905080600201544311610a8e5750610d57565b60008160000160009054906101000a900473ffffffffffffffffffffffffffffffffffffffff1673ffffffffffffffffffffffffffffffffffffffff166370a08231306040518263ffffffff1660e01b8152600401610aed919061274e565b60206040518083038186803b158015610b0557600080fd5b505afa158015610b19573d6000803e3d6000fd5b505050506040513d601f19601f82011682018060405250810190610b3d9190612306565b90506000811415610b58574382600201819055505050610d57565b6000610b68836002015443611518565b90506000610bab600854610b9d8660010154610b8f60055487611bf190919063ffffffff16565b611bf190919063ffffffff16565b611c6090919063ffffffff16565b9050600160009054906101000a900473ffffffffffffffffffffffffffffffffffffffff1673ffffffffffffffffffffffffffffffffffffffff166340c10f19600360009054906101000a900473ffffffffffffffffffffffffffffffffffffffff16610c2360025485611c6090919063ffffffff16565b6040518363ffffffff1660e01b8152600401610c409291906127a0565b600060405180830381600087803b158015610c5a57600080fd5b505af1158015610c6e573d6000803e3d6000fd5b50505050600160009054906101000a900473ffffffffffffffffffffffffffffffffffffffff1673ffffffffffffffffffffffffffffffffffffffff166340c10f1930836040518363ffffffff1660e01b8152600401610ccf9291906127a0565b600060405180830381600087803b158015610ce957600080fd5b505af1158015610cfd573d6000803e3d6000fd5b50505050610d41610d2e84610d2064e8d4a5100085611bf190919063ffffffff16565b611c6090919063ffffffff16565b8560030154611b9f90919063ffffffff16565b8460030181905550438460020181905550505050505b50565b600060068281548110610d96577f4e487b7100000000000000000000000000000000000000000000000000000000600052603260045260246000fd5b9060005260206000209060040201905060006007600084815260200190815260200160002060003373ffffffffffffffffffffffffffffffffffffffff1673ffffffffffffffffffffffffffffffffffffffff1681526020019081526020016000209050610e4d3382600001548460000160009054906101000a900473ffffffffffffffffffffffffffffffffffffffff1673ffffffffffffffffffffffffffffffffffffffff16611eea9092919063ffffffff16565b823373ffffffffffffffffffffffffffffffffffffffff167fbb757047c2b5f3974fe26b7c10f732e7bce710b0952a71082702781e62ae05958360000154604051610e98919061294b565b60405180910390a36000816000018190555060008160010181905550505050565b60025481565b6000600680549050905060005b81811015610eee57610edd81610a31565b80610ee790612bab565b9050610ecc565b5050565b610efa611b97565b73ffffffffffffffffffffffffffffffffffffffff1660008054906101000a900473ffffffffffffffffffffffffffffffffffffffff1673ffffffffffffffffffffffffffffffffffffffff1614610f87576040517f08c379a0000000000000000000000000000000000000000000000000000000008152600401610f7e9061288b565b60405180910390fd5b8015610f9657610f95610ebf565b5b61100882610ffa60068681548110610fd7577f4e487b7100000000000000000000000000000000000000000000000000000000600052603260045260246000fd5b906000526020600020906004020160010154600854611c7b90919063ffffffff16565b611b9f90919063ffffffff16565b6008819055508160068481548110611049577f4e487b7100000000000000000000000000000000000000000000000000000000600052603260045260246000fd5b906000526020600020906004020160010181905550505050565b60055481565b611071611b97565b73ffffffffffffffffffffffffffffffffffffffff1660008054906101000a900473ffffffffffffffffffffffffffffffffffffffff1673ffffffffffffffffffffffffffffffffffffffff16146110fe576040517f08c379a00000000000000000000000000000000000000000000000000000000081526004016110f59061288b565b60405180910390fd5b600073ffffffffffffffffffffffffffffffffffffffff1660008054906101000a900473ffffffffffffffffffffffffffffffffffffffff1673ffffffffffffffffffffffffffffffffffffffff167f8be0079c531659141344cd1fd0a4f28419497f9722a3daafe3b4186f6b6457e060405160405180910390a360008060006101000a81548173ffffffffffffffffffffffffffffffffffffffff021916908373ffffffffffffffffffffffffffffffffffffffff160217905550565b600080600684815481106111f9577f4e487b7100000000000000000000000000000000000000000000000000000000600052603260045260246000fd5b9060005260206000209060040201905060006007600086815260200190815260200160002060008573ffffffffffffffffffffffffffffffffffffffff1673ffffffffffffffffffffffffffffffffffffffff168152602001908152602001600020905060008260030154905060008360000160009054906101000a900473ffffffffffffffffffffffffffffffffffffffff1673ffffffffffffffffffffffffffffffffffffffff166370a08231306040518263ffffffff1660e01b81526004016112c5919061274e565b60206040518083038186803b1580156112dd57600080fd5b505afa1580156112f1573d6000803e3d6000fd5b505050506040513d601f19601f820116820180604052508101906113159190612306565b905083600201544311801561132b575060008114155b156113c6576000611340856002015443611518565b90506000611383600854611375886001015461136760055487611bf190919063ffffffff16565b611bf190919063ffffffff16565b611c6090919063ffffffff16565b90506113c16113b2846113a464e8d4a5100085611bf190919063ffffffff16565b611c6090919063ffffffff16565b85611b9f90919063ffffffff16565b935050505b61140a83600101546113fc64e8d4a510006113ee868860000154611bf190919063ffffffff16565b611c6090919063ffffffff16565b611c7b90919063ffffffff16565b94505050505092915050565b600a81565b600360009054906101000a900473ffffffffffffffffffffffffffffffffffffffff1673ffffffffffffffffffffffffffffffffffffffff163373ffffffffffffffffffffffffffffffffffffffff16146114ab576040517f08c379a00000000000000000000000000000000000000000000000000000000081526004016114a29061286b565b60405180910390fd5b80600360006101000a81548173ffffffffffffffffffffffffffffffffffffffff021916908373ffffffffffffffffffffffffffffffffffffffff16021790555050565b60008060009054906101000a900473ffffffffffffffffffffffffffffffffffffffff16905090565b6000600454821161155057611549600a61153b8585611c7b90919063ffffffff16565b611bf190919063ffffffff16565b90506115c4565b60045483106115735761156c8383611c7b90919063ffffffff16565b90506115c4565b6115c161158b60045484611c7b90919063ffffffff16565b6115b3600a6115a587600454611c7b90919063ffffffff16565b611bf190919063ffffffff16565b611b9f90919063ffffffff16565b90505b92915050565b6007602052816000526040600020602052806000526040600020600091509150508060000154908060010154905082565b611603611b97565b73ffffffffffffffffffffffffffffffffffffffff1660008054906101000a900473ffffffffffffffffffffffffffffffffffffffff1673ffffffffffffffffffffffffffffffffffffffff1614611690576040517f08c379a00000000000000000000000000000000000000000000000000000000081526004016116879061288b565b60405180910390fd5b8060048190555050565b6116a2611b97565b73ffffffffffffffffffffffffffffffffffffffff1660008054906101000a900473ffffffffffffffffffffffffffffffffffffffff1673ffffffffffffffffffffffffffffffffffffffff161461172f576040517f08c379a00000000000000000000000000000000000000000000000000000000081526004016117269061288b565b60405180910390fd5b60008111611772576040517f08c379a00000000000000000000000000000000000000000000000000000000081526004016117699061290b565b60405180910390fd5b8060028190555050565b600360009054906101000a900473ffffffffffffffffffffffffffffffffffffffff1681565b6000600683815481106117de577f4e487b7100000000000000000000000000000000000000000000000000000000600052603260045260246000fd5b9060005260206000209060040201905060006007600085815260200190815260200160002060003373ffffffffffffffffffffffffffffffffffffffff1673ffffffffffffffffffffffffffffffffffffffff168152602001908152602001600020905061184b84610a31565b6000816000015411156118b05760006118a2826001015461189464e8d4a5100061188687600301548760000154611bf190919063ffffffff16565b611c6090919063ffffffff16565b611c7b90919063ffffffff16565b90506118ae3382611cc8565b505b6119013330858560000160009054906101000a900473ffffffffffffffffffffffffffffffffffffffff1673ffffffffffffffffffffffffffffffffffffffff16611f70909392919063ffffffff16565b611918838260000154611b9f90919063ffffffff16565b816000018190555061195264e8d4a5100061194484600301548460000154611bf190919063ffffffff16565b611c6090919063ffffffff16565b8160010181905550833373ffffffffffffffffffffffffffffffffffffffff167f90890809c654f11d6e72a28fa60149770a0d11ec6c92319d6ceb2bb0a4ea1a15856040516119a1919061294b565b60405180910390a350505050565b6119b7611b97565b73ffffffffffffffffffffffffffffffffffffffff1660008054906101000a900473ffffffffffffffffffffffffffffffffffffffff1673ffffffffffffffffffffffffffffffffffffffff1614611a44576040517f08c379a0000000000000000000000000000000000000000000000000000000008152600401611a3b9061288b565b60405180910390fd5b600073ffffffffffffffffffffffffffffffffffffffff168173ffffffffffffffffffffffffffffffffffffffff161415611ab4576040517f08c379a0000000000000000000000000000000000000000000000000000000008152600401611aab9061284b565b60405180910390fd5b8073ffffffffffffffffffffffffffffffffffffffff1660008054906101000a900473ffffffffffffffffffffffffffffffffffffffff1673ffffffffffffffffffffffffffffffffffffffff167f8be0079c531659141344cd1fd0a4f28419497f9722a3daafe3b4186f6b6457e060405160405180910390a3806000806101000a81548173ffffffffffffffffffffffffffffffffffffffff021916908373ffffffffffffffffffffffffffffffffffffffff16021790555050565b600160009054906101000a900473ffffffffffffffffffffffffffffffffffffffff1681565b600033905090565b6000808284611bae91906129c1565b905083811015611be7577f4e487b7100000000000000000000000000000000000000000000000000000000600052600160045260246000fd5b8091505092915050565b600080831415611c045760009050611c5a565b60008284611c129190612a48565b9050828482611c219190612a17565b14611c55577f4e487b7100000000000000000000000000000000000000000000000000000000600052600160045260246000fd5b809150505b92915050565b6000808284611c6f9190612a17565b90508091505092915050565b600082821115611cb4577f4e487b7100000000000000000000000000000000000000000000000000000000600052600160045260246000fd5b8183611cc09190612aa2565b905092915050565b6000600160009054906101000a900473ffffffffffffffffffffffffffffffffffffffff1673ffffffffffffffffffffffffffffffffffffffff166370a08231306040518263ffffffff1660e01b8152600401611d25919061274e565b60206040518083038186803b158015611d3d57600080fd5b505afa158015611d51573d6000803e3d6000fd5b505050506040513d601f19601f82011682018060405250810190611d759190612306565b905080821115611e3457600160009054906101000a900473ffffffffffffffffffffffffffffffffffffffff1673ffffffffffffffffffffffffffffffffffffffff1663a9059cbb84836040518363ffffffff1660e01b8152600401611ddc9291906127a0565b602060405180830381600087803b158015611df657600080fd5b505af1158015611e0a573d6000803e3d6000fd5b505050506040513d601f19601f82011682018060405250810190611e2e91906122b4565b50611ee5565b600160009054906101000a900473ffffffffffffffffffffffffffffffffffffffff1673ffffffffffffffffffffffffffffffffffffffff1663a9059cbb84846040518363ffffffff1660e01b8152600401611e919291906127a0565b602060405180830381600087803b158015611eab57600080fd5b505af1158015611ebf573d6000803e3d6000fd5b505050506040513d601f19601f82011682018060405250810190611ee391906122b4565b505b505050565b611f6b8363a9059cbb60e01b8484604051602401611f099291906127a0565b604051602081830303815290604052907bffffffffffffffffffffffffffffffffffffffffffffffffffffffff19166020820180517bffffffffffffffffffffffffffffffffffffffffffffffffffffffff8381831617835250505050611ff9565b505050565b611ff3846323b872dd60e01b858585604051602401611f9193929190612769565b604051602081830303815290604052907bffffffffffffffffffffffffffffffffffffffffffffffffffffffff19166020820180517bffffffffffffffffffffffffffffffffffffffffffffffffffffffff8381831617835250505050611ff9565b50505050565b600061205b826040518060400160405280602081526020017f5361666545524332303a206c6f772d6c6576656c2063616c6c206661696c65648152508573ffffffffffffffffffffffffffffffffffffffff166120c09092919063ffffffff16565b90506000815111156120bb578080602001905181019061207b91906122b4565b6120ba576040517f08c379a00000000000000000000000000000000000000000000000000000000081526004016120b19061292b565b60405180910390fd5b5b505050565b60606120cf84846000856120d8565b90509392505050565b60606120e3856121fa565b612122576040517f08c379a0000000000000000000000000000000000000000000000000000000008152600401612119906128cb565b60405180910390fd5b6000808673ffffffffffffffffffffffffffffffffffffffff16858760405161214b9190612737565b60006040518083038185875af1925050503d8060008114612188576040519150601f19603f3d011682016040523d82523d6000602084013e61218d565b606091505b509150915081156121a25780925050506121f2565b6000815111156121b55780518082602001fd5b836040517f08c379a00000000000000000000000000000000000000000000000000000000081526004016121e99190612829565b60405180910390fd5b949350505050565b600080823b905060008111915050919050565b60008135905061221c81612c63565b92915050565b60008135905061223181612c7a565b92915050565b60008151905061224681612c7a565b92915050565b60008135905061225b81612c91565b92915050565b60008135905061227081612ca8565b92915050565b60008151905061228581612ca8565b92915050565b60006020828403121561229d57600080fd5b60006122ab8482850161220d565b91505092915050565b6000602082840312156122c657600080fd5b60006122d484828501612237565b91505092915050565b6000602082840312156122ef57600080fd5b60006122fd84828501612261565b91505092915050565b60006020828403121561231857600080fd5b600061232684828501612276565b91505092915050565b6000806040838503121561234257600080fd5b600061235085828601612261565b92505060206123618582860161220d565b9150509250929050565b60008060006060848603121561238057600080fd5b600061238e86828701612261565b935050602061239f8682870161224c565b92505060406123b086828701612222565b9150509250925092565b600080604083850312156123cd57600080fd5b60006123db85828601612261565b92505060206123ec85828601612261565b9150509250929050565b60008060006060848603121561240b57600080fd5b600061241986828701612261565b935050602061242a86828701612261565b925050604061243b86828701612222565b9150509250925092565b61244e81612ad6565b82525050565b600061245f8261298f565b61246981856129a5565b9350612479818560208601612b78565b80840191505092915050565b61248e81612b30565b82525050565b61249d81612b54565b82525050565b60006124ae8261299a565b6124b881856129b0565b93506124c8818560208601612b78565b6124d181612c52565b840191505092915050565b60006124e96026836129b0565b91507f4f776e61626c653a206e6577206f776e657220697320746865207a65726f206160008301527f64647265737300000000000000000000000000000000000000000000000000006020830152604082019050919050565b600061254f6009836129b0565b91507f6465763a207775743f00000000000000000000000000000000000000000000006000830152602082019050919050565b600061258f6020836129b0565b91507f4f776e61626c653a2063616c6c6572206973206e6f7420746865206f776e65726000830152602082019050919050565b60006125cf6011836129b0565b91507f217069636b6c65506572426c6f636b2d300000000000000000000000000000006000830152602082019050919050565b600061260f601d836129b0565b91507f416464726573733a2063616c6c20746f206e6f6e2d636f6e74726163740000006000830152602082019050919050565b600061264f6012836129b0565b91507f77697468647261773a206e6f7420676f6f6400000000000000000000000000006000830152602082019050919050565b600061268f6011836129b0565b91507f2164657646756e64446976526174652d300000000000000000000000000000006000830152602082019050919050565b60006126cf602a836129b0565b91507f5361666545524332303a204552433230206f7065726174696f6e20646964206e60008301527f6f742073756363656564000000000000000000000000000000000000000000006020830152604082019050919050565b61273181612b26565b82525050565b60006127438284612454565b915081905092915050565b60006020820190506127636000830184612445565b92915050565b600060608201905061277e6000830186612445565b61278b6020830185612445565b6127986040830184612728565b949350505050565b60006040820190506127b56000830185612445565b6127c26020830184612728565b9392505050565b60006080820190506127de6000830187612485565b6127eb6020830186612728565b6127f86040830185612728565b6128056060830184612728565b95945050505050565b60006020820190506128236000830184612494565b92915050565b6000602082019050818103600083015261284381846124a3565b905092915050565b60006020820190508181036000830152612864816124dc565b9050919050565b6000602082019050818103600083015261288481612542565b9050919050565b600060208201905081810360008301526128a481612582565b9050919050565b600060208201905081810360008301526128c4816125c2565b9050919050565b600060208201905081810360008301526128e481612602565b9050919050565b6000602082019050818103600083015261290481612642565b9050919050565b6000602082019050818103600083015261292481612682565b9050919050565b60006020820190508181036000830152612944816126c2565b9050919050565b60006020820190506129606000830184612728565b92915050565b600060408201905061297b6000830185612728565b6129886020830184612728565b9392505050565b600081519050919050565b600081519050919050565b600081905092915050565b600082825260208201905092915050565b60006129cc82612b26565b91506129d783612b26565b9250827fffffffffffffffffffffffffffffffffffffffffffffffffffffffffffffffff03821115612a0c57612a0b612bf4565b5b828201905092915050565b6000612a2282612b26565b9150612a2d83612b26565b925082612a3d57612a3c612c23565b5b828204905092915050565b6000612a5382612b26565b9150612a5e83612b26565b9250817fffffffffffffffffffffffffffffffffffffffffffffffffffffffffffffffff0483118215151615612a9757612a96612bf4565b5b828202905092915050565b6000612aad82612b26565b9150612ab883612b26565b925082821015612acb57612aca612bf4565b5b828203905092915050565b6000612ae182612b06565b9050919050565b60008115159050919050565b6000612aff82612ad6565b9050919050565b600073ffffffffffffffffffffffffffffffffffffffff82169050919050565b6000819050919050565b6000612b3b82612b42565b9050919050565b6000612b4d82612b06565b9050919050565b6000612b5f82612b66565b9050919050565b6000612b7182612b06565b9050919050565b60005b83811015612b96578082015181840152602081019050612b7b565b83811115612ba5576000848401525b50505050565b6000612bb682612b26565b91507fffffffffffffffffffffffffffffffffffffffffffffffffffffffffffffffff821415612be957612be8612bf4565b5b600182019050919050565b7f4e487b7100000000000000000000000000000000000000000000000000000000600052601160045260246000fd5b7f4e487b7100000000000000000000000000000000000000000000000000000000600052601260045260246000fd5b6000601f19601f8301169050919050565b612c6c81612ad6565b8114612c7757600080fd5b50565b612c8381612ae8565b8114612c8e57600080fd5b50565b612c9a81612af4565b8114612ca557600080fd5b50565b612cb181612b26565b8114612cbc57600080fd5b5056fea264697066735822122064cdba4a03a5e73f445fcb455206cdf5fc4473854d1c4ffd181d9be31b27f4a264736f6c63430008000033",
  "immutableReferences": {},
  "source": "// SPDX-License-Identifier: MIT\n\npragma solidity <0.9.0;\n\nimport \"../ownership/ownable.sol\";\nimport \"../utils/safemath.sol\";\nimport \"../tokens/erc20.sol\";\nimport \"../tokens/SafeErc20.sol\";\nimport \"../tokens/PickleToken.sol\";\n\n// MasterChef was the master of pickle. He now governs over PICKLES. He can make Pickles and he is a fair guy.\n//\n// Note that it's ownable and the owner wields tremendous power. The ownership\n// will be transferred to a governance smart contract once PICKLES is sufficiently\n// distributed and the community can show to govern itself.\n//\n// Have fun reading it. Hopefully it's bug-free. God bless.\ncontract MasterChefImpl is Ownable {\n    using SafeERC20 for IERC20;\n    using Address for address;\n    using SafeMath for uint256;\n\n    // Info of each user.\n    struct UserInfo {\n        uint256 amount; // How many LP tokens the user has provided.\n        uint256 rewardDebt; // Reward debt. See explanation below.\n        //\n        // We do some fancy math here. Basically, any point in time, the amount of PICKLEs\n        // entitled to a user but is pending to be distributed is:\n        //\n        //   pending reward = (user.amount * pool.accPicklePerShare) - user.rewardDebt\n        //\n        // Whenever a user deposits or withdraws LP tokens to a pool. Here's what happens:\n        //   1. The pool's `accPicklePerShare` (and `lastRewardBlock`) gets updated.\n        //   2. User receives the pending reward sent to his/her address.\n        //   3. User's `amount` gets updated.\n        //   4. User's `rewardDebt` gets updated.\n    }\n\n    // Info of each pool.\n    struct PoolInfo {\n        IERC20 lpToken; // Address of LP token contract.\n        uint256 allocPoint; // How many allocation points assigned to this pool. PICKLEs to distribute per block.\n        uint256 lastRewardBlock; // Last block number that PICKLEs distribution occurs.\n        uint256 accPicklePerShare; // Accumulated PICKLEs per share, times 1e12. See below.\n    }\n\n    // The PICKLE TOKEN!\n    PickleToken public pickle;\n    // Dev fund (2%, initially)\n    uint256 public devFundDivRate = 50;\n    // Dev address.\n    address public devaddr;\n    // Block number when bonus PICKLE period ends.\n    uint256 public bonusEndBlock;\n    // PICKLE tokens created per block.\n    uint256 public picklePerBlock;\n    // Bonus muliplier for early pickle makers.\n    uint256 public constant BONUS_MULTIPLIER = 10;\n\n    // Info of each pool.\n    PoolInfo[] public poolInfo;\n    // Info of each user that stakes LP tokens.\n    mapping(uint256 => mapping(address => UserInfo)) public userInfo;\n    // Total allocation points. Must be the sum of all allocation points in all pools.\n    uint256 public totalAllocPoint = 0;\n    // The block number when PICKLE mining starts.\n    uint256 public startBlock;\n\n    // Events\n    event Recovered(address token, uint256 amount);\n    event Deposit(address indexed user, uint256 indexed pid, uint256 amount);\n    event Withdraw(address indexed user, uint256 indexed pid, uint256 amount);\n    event EmergencyWithdraw(\n        address indexed user,\n        uint256 indexed pid,\n        uint256 amount\n    );\n\n    constructor(\n        PickleToken _pickle,\n        address _devaddr,\n        uint256 _picklePerBlock,\n        uint256 _startBlock,\n        uint256 _bonusEndBlock\n    ) {\n        pickle = _pickle;\n        devaddr = _devaddr;\n        picklePerBlock = _picklePerBlock;\n        bonusEndBlock = _bonusEndBlock;\n        startBlock = _startBlock;\n    }\n\n    function poolLength() external view returns (uint256) {\n        return poolInfo.length;\n    }\n\n    // Add a new lp to the pool. Can only be called by the owner.\n    // XXX DO NOT add the same LP token more than once. Rewards will be messed up if you do.\n    function add(\n        uint256 _allocPoint,\n        IERC20 _lpToken,\n        bool _withUpdate\n    ) public onlyOwner {\n        if (_withUpdate) {\n            massUpdatePools();\n        }\n        uint256 lastRewardBlock = block.number > startBlock\n            ? block.number\n            : startBlock;\n        totalAllocPoint = totalAllocPoint.add(_allocPoint);\n        poolInfo.push(\n            PoolInfo({\n                lpToken: _lpToken,\n                allocPoint: _allocPoint,\n                lastRewardBlock: lastRewardBlock,\n                accPicklePerShare: 0\n            })\n        );\n    }\n\n    // Update the given pool's PICKLE allocation point. Can only be called by the owner.\n    function set(\n        uint256 _pid,\n        uint256 _allocPoint,\n        bool _withUpdate\n    ) public onlyOwner {\n        if (_withUpdate) {\n            massUpdatePools();\n        }\n        totalAllocPoint = totalAllocPoint.sub(poolInfo[_pid].allocPoint).add(\n            _allocPoint\n        );\n        poolInfo[_pid].allocPoint = _allocPoint;\n    }\n\n    // Return reward multiplier over the given _from to _to block.\n    function getMultiplier(uint256 _from, uint256 _to)\n        public\n        view\n        returns (uint256)\n    {\n        if (_to <= bonusEndBlock) {\n            return _to.sub(_from).mul(BONUS_MULTIPLIER);\n        } else if (_from >= bonusEndBlock) {\n            return _to.sub(_from);\n        } else {\n            return\n                bonusEndBlock.sub(_from).mul(BONUS_MULTIPLIER).add(\n                    _to.sub(bonusEndBlock)\n                );\n        }\n    }\n\n    // View function to see pending PICKLEs on frontend.\n    function pendingPickle(uint256 _pid, address _user)\n        external\n        view\n        returns (uint256)\n    {\n        PoolInfo storage pool = poolInfo[_pid];\n        UserInfo storage user = userInfo[_pid][_user];\n        uint256 accPicklePerShare = pool.accPicklePerShare;\n        uint256 lpSupply = pool.lpToken.balanceOf(address(this));\n        if (block.number > pool.lastRewardBlock && lpSupply != 0) {\n            uint256 multiplier = getMultiplier(\n                pool.lastRewardBlock,\n                block.number\n            );\n            uint256 pickleReward = multiplier\n                .mul(picklePerBlock)\n                .mul(pool.allocPoint)\n                .div(totalAllocPoint);\n            accPicklePerShare = accPicklePerShare.add(\n                pickleReward.mul(1e12).div(lpSupply)\n            );\n        }\n        return\n            user.amount.mul(accPicklePerShare).div(1e12).sub(user.rewardDebt);\n    }\n\n    // Update reward vairables for all pools. Be careful of gas spending!\n    function massUpdatePools() public {\n        uint256 length = poolInfo.length;\n        for (uint256 pid = 0; pid < length; ++pid) {\n            updatePool(pid);\n        }\n    }\n\n    // Update reward variables of the given pool to be up-to-date.\n    function updatePool(uint256 _pid) public {\n        PoolInfo storage pool = poolInfo[_pid];\n        if (block.number <= pool.lastRewardBlock) {\n            return;\n        }\n        uint256 lpSupply = pool.lpToken.balanceOf(address(this));\n        if (lpSupply == 0) {\n            pool.lastRewardBlock = block.number;\n            return;\n        }\n        uint256 multiplier = getMultiplier(pool.lastRewardBlock, block.number);\n        uint256 pickleReward = multiplier\n            .mul(picklePerBlock)\n            .mul(pool.allocPoint)\n            .div(totalAllocPoint);\n        pickle.mint(devaddr, pickleReward.div(devFundDivRate));\n        pickle.mint(address(this), pickleReward);\n        pool.accPicklePerShare = pool.accPicklePerShare.add(\n            pickleReward.mul(1e12).div(lpSupply)\n        );\n        pool.lastRewardBlock = block.number;\n    }\n\n    // Deposit LP tokens to MasterChef for PICKLE allocation.\n    function deposit(uint256 _pid, uint256 _amount) public {\n        PoolInfo storage pool = poolInfo[_pid];\n        UserInfo storage user = userInfo[_pid][msg.sender];\n        updatePool(_pid);\n        if (user.amount > 0) {\n            uint256 pending = user\n                .amount\n                .mul(pool.accPicklePerShare)\n                .div(1e12)\n                .sub(user.rewardDebt);\n            safePickleTransfer(msg.sender, pending);\n        }\n        pool.lpToken.safeTransferFrom(\n            address(msg.sender),\n            address(this),\n            _amount\n        );\n        user.amount = user.amount.add(_amount);\n        user.rewardDebt = user.amount.mul(pool.accPicklePerShare).div(1e12);\n        emit Deposit(msg.sender, _pid, _amount);\n    }\n\n    // Withdraw LP tokens from MasterChef.\n    function withdraw(uint256 _pid, uint256 _amount) public {\n        PoolInfo storage pool = poolInfo[_pid];\n        UserInfo storage user = userInfo[_pid][msg.sender];\n        require(user.amount >= _amount, \"withdraw: not good\");\n        updatePool(_pid);\n        uint256 pending = user.amount.mul(pool.accPicklePerShare).div(1e12).sub(\n            user.rewardDebt\n        );\n        safePickleTransfer(msg.sender, pending);\n        user.amount = user.amount.sub(_amount);\n        user.rewardDebt = user.amount.mul(pool.accPicklePerShare).div(1e12);\n        pool.lpToken.safeTransfer(address(msg.sender), _amount);\n        emit Withdraw(msg.sender, _pid, _amount);\n    }\n\n    // Withdraw without caring about rewards. EMERGENCY ONLY.\n    function emergencyWithdraw(uint256 _pid) public {\n        PoolInfo storage pool = poolInfo[_pid];\n        UserInfo storage user = userInfo[_pid][msg.sender];\n        pool.lpToken.safeTransfer(address(msg.sender), user.amount);\n        emit EmergencyWithdraw(msg.sender, _pid, user.amount);\n        user.amount = 0;\n        user.rewardDebt = 0;\n    }\n\n    // Safe pickle transfer function, just in case if rounding error causes pool to not have enough PICKLEs.\n    function safePickleTransfer(address _to, uint256 _amount) internal {\n        uint256 pickleBal = pickle.balanceOf(address(this));\n        if (_amount > pickleBal) {\n            pickle.transfer(_to, pickleBal);\n        } else {\n            pickle.transfer(_to, _amount);\n        }\n    }\n\n    // Update dev address by the previous dev.\n    function dev(address _devaddr) public {\n        require(msg.sender == devaddr, \"dev: wut?\");\n        devaddr = _devaddr;\n    }\n\n    // **** Additional functions separate from the original masterchef contract ****\n\n    function setPicklePerBlock(uint256 _picklePerBlock) public onlyOwner {\n        require(_picklePerBlock > 0, \"!picklePerBlock-0\");\n\n        picklePerBlock = _picklePerBlock;\n    }\n\n    function setBonusEndBlock(uint256 _bonusEndBlock) public onlyOwner {\n        bonusEndBlock = _bonusEndBlock;\n    }\n\n    function setDevFundDivRate(uint256 _devFundDivRate) public onlyOwner {\n        require(_devFundDivRate > 0, \"!devFundDivRate-0\");\n        devFundDivRate = _devFundDivRate;\n    }\n}",
  "sourcePath": "/Users/dennismacpro/Projects/Defi/Ethereum-Solidity-Collection/ascension-protocol/pickle-vault-lesson/contracts/contracts/governance/masterchefimpl.sol",
  "compiler": {
    "name": "solc",
    "version": "0.8.0+commit.c7dfd78e.Darwin.appleclang"
  },
  "schemaVersion": "3.3.4",
  "updatedAt": "2021-03-03T02:01:39.892Z",
  "networkType": "ethereum",
  "devdoc": {
    "kind": "dev",
    "methods": {
      "owner()": {
        "details": "Returns the address of the current owner."
      },
      "renounceOwnership()": {
        "details": "Leaves the contract without owner. It will not be possible to call `onlyOwner` functions anymore. Can only be called by the current owner. NOTE: Renouncing ownership will leave the contract without an owner, thereby removing any functionality that is only available to the owner."
      },
      "transferOwnership(address)": {
        "details": "Transfers ownership of the contract to a new account (`newOwner`). Can only be called by the current owner."
      }
    },
    "version": 1
  },
  "userdoc": {
    "kind": "user",
    "methods": {},
    "version": 1
  }
}