{
  "contractName": "StrategyBasisBacDaiLp",
  "abi": [
    {
      "inputs": [
        {
          "internalType": "address",
          "name": "goverance_",
          "type": "address"
        },
        {
          "internalType": "address",
          "name": "strategist_",
          "type": "address"
        },
        {
          "internalType": "address",
          "name": "controller_",
          "type": "address"
        },
        {
          "internalType": "address",
          "name": "timelock_",
          "type": "address"
        }
      ],
      "stateMutability": "nonpayable",
      "type": "constructor"
    },
    {
      "inputs": [],
      "name": "UniswapBacDaiLp",
      "outputs": [
        {
          "internalType": "address",
          "name": "",
          "type": "address"
        }
      ],
      "stateMutability": "view",
      "type": "function"
    },
    {
      "inputs": [],
      "name": "bac",
      "outputs": [
        {
          "internalType": "address",
          "name": "",
          "type": "address"
        }
      ],
      "stateMutability": "view",
      "type": "function"
    },
    {
      "inputs": [],
      "name": "balanceOf",
      "outputs": [
        {
          "internalType": "uint256",
          "name": "",
          "type": "uint256"
        }
      ],
      "stateMutability": "view",
      "type": "function"
    },
    {
      "inputs": [],
      "name": "balanceOfPool",
      "outputs": [
        {
          "internalType": "uint256",
          "name": "",
          "type": "uint256"
        }
      ],
      "stateMutability": "view",
      "type": "function"
    },
    {
      "inputs": [],
      "name": "balanceOfWant",
      "outputs": [
        {
          "internalType": "uint256",
          "name": "",
          "type": "uint256"
        }
      ],
      "stateMutability": "view",
      "type": "function"
    },
    {
      "inputs": [],
      "name": "bas",
      "outputs": [
        {
          "internalType": "address",
          "name": "",
          "type": "address"
        }
      ],
      "stateMutability": "view",
      "type": "function"
    },
    {
      "inputs": [],
      "name": "basRewards",
      "outputs": [
        {
          "internalType": "address",
          "name": "",
          "type": "address"
        }
      ],
      "stateMutability": "view",
      "type": "function"
    },
    {
      "inputs": [],
      "name": "controller",
      "outputs": [
        {
          "internalType": "address",
          "name": "",
          "type": "address"
        }
      ],
      "stateMutability": "view",
      "type": "function"
    },
    {
      "inputs": [],
      "name": "dai",
      "outputs": [
        {
          "internalType": "address",
          "name": "",
          "type": "address"
        }
      ],
      "stateMutability": "view",
      "type": "function"
    },
    {
      "inputs": [],
      "name": "deposit",
      "outputs": [],
      "stateMutability": "nonpayable",
      "type": "function"
    },
    {
      "inputs": [
        {
          "internalType": "address",
          "name": "_target",
          "type": "address"
        },
        {
          "internalType": "bytes",
          "name": "_data",
          "type": "bytes"
        }
      ],
      "name": "execute",
      "outputs": [
        {
          "internalType": "bytes",
          "name": "response",
          "type": "bytes"
        }
      ],
      "stateMutability": "payable",
      "type": "function"
    },
    {
      "inputs": [],
      "name": "getHarvestable",
      "outputs": [
        {
          "internalType": "uint256",
          "name": "",
          "type": "uint256"
        }
      ],
      "stateMutability": "view",
      "type": "function"
    },
    {
      "inputs": [],
      "name": "governance",
      "outputs": [
        {
          "internalType": "address",
          "name": "",
          "type": "address"
        }
      ],
      "stateMutability": "view",
      "type": "function"
    },
    {
      "inputs": [],
      "name": "harvest",
      "outputs": [],
      "stateMutability": "nonpayable",
      "type": "function"
    },
    {
      "inputs": [
        {
          "internalType": "address",
          "name": "",
          "type": "address"
        }
      ],
      "name": "harvesters",
      "outputs": [
        {
          "internalType": "bool",
          "name": "",
          "type": "bool"
        }
      ],
      "stateMutability": "view",
      "type": "function"
    },
    {
      "inputs": [],
      "name": "keepBAS",
      "outputs": [
        {
          "internalType": "uint256",
          "name": "",
          "type": "uint256"
        }
      ],
      "stateMutability": "view",
      "type": "function"
    },
    {
      "inputs": [],
      "name": "keepBASMax",
      "outputs": [
        {
          "internalType": "uint256",
          "name": "",
          "type": "uint256"
        }
      ],
      "stateMutability": "view",
      "type": "function"
    },
    {
      "inputs": [],
      "name": "performanceDevFee",
      "outputs": [
        {
          "internalType": "uint256",
          "name": "",
          "type": "uint256"
        }
      ],
      "stateMutability": "view",
      "type": "function"
    },
    {
      "inputs": [],
      "name": "performanceDevMax",
      "outputs": [
        {
          "internalType": "uint256",
          "name": "",
          "type": "uint256"
        }
      ],
      "stateMutability": "view",
      "type": "function"
    },
    {
      "inputs": [],
      "name": "performanceTreasuryFee",
      "outputs": [
        {
          "internalType": "uint256",
          "name": "",
          "type": "uint256"
        }
      ],
      "stateMutability": "view",
      "type": "function"
    },
    {
      "inputs": [],
      "name": "performanceTreasuryMax",
      "outputs": [
        {
          "internalType": "uint256",
          "name": "",
          "type": "uint256"
        }
      ],
      "stateMutability": "view",
      "type": "function"
    },
    {
      "inputs": [
        {
          "internalType": "address",
          "name": "_harvester",
          "type": "address"
        }
      ],
      "name": "revokeHarvester",
      "outputs": [],
      "stateMutability": "nonpayable",
      "type": "function"
    },
    {
      "inputs": [],
      "name": "rewards",
      "outputs": [
        {
          "internalType": "address",
          "name": "",
          "type": "address"
        }
      ],
      "stateMutability": "view",
      "type": "function"
    },
    {
      "inputs": [
        {
          "internalType": "address",
          "name": "_controller",
          "type": "address"
        }
      ],
      "name": "setController",
      "outputs": [],
      "stateMutability": "nonpayable",
      "type": "function"
    },
    {
      "inputs": [
        {
          "internalType": "address",
          "name": "_governance",
          "type": "address"
        }
      ],
      "name": "setGovernance",
      "outputs": [],
      "stateMutability": "nonpayable",
      "type": "function"
    },
    {
      "inputs": [
        {
          "internalType": "uint256",
          "name": "_keepBAS",
          "type": "uint256"
        }
      ],
      "name": "setKeepBAS",
      "outputs": [],
      "stateMutability": "nonpayable",
      "type": "function"
    },
    {
      "inputs": [
        {
          "internalType": "uint256",
          "name": "_performanceDevFee",
          "type": "uint256"
        }
      ],
      "name": "setPerformanceDevFee",
      "outputs": [],
      "stateMutability": "nonpayable",
      "type": "function"
    },
    {
      "inputs": [
        {
          "internalType": "uint256",
          "name": "_performanceTreasuryFee",
          "type": "uint256"
        }
      ],
      "name": "setPerformanceTreasuryFee",
      "outputs": [],
      "stateMutability": "nonpayable",
      "type": "function"
    },
    {
      "inputs": [
        {
          "internalType": "address",
          "name": "_strategist",
          "type": "address"
        }
      ],
      "name": "setStrategist",
      "outputs": [],
      "stateMutability": "nonpayable",
      "type": "function"
    },
    {
      "inputs": [
        {
          "internalType": "address",
          "name": "_timelock",
          "type": "address"
        }
      ],
      "name": "setTimelock",
      "outputs": [],
      "stateMutability": "nonpayable",
      "type": "function"
    },
    {
      "inputs": [
        {
          "internalType": "uint256",
          "name": "_withdrawalDevFundFee",
          "type": "uint256"
        }
      ],
      "name": "setWithdrawalDevFundFee",
      "outputs": [],
      "stateMutability": "nonpayable",
      "type": "function"
    },
    {
      "inputs": [
        {
          "internalType": "uint256",
          "name": "_withdrawalTreasuryFee",
          "type": "uint256"
        }
      ],
      "name": "setWithdrawalTreasuryFee",
      "outputs": [],
      "stateMutability": "nonpayable",
      "type": "function"
    },
    {
      "inputs": [],
      "name": "strategist",
      "outputs": [
        {
          "internalType": "address",
          "name": "",
          "type": "address"
        }
      ],
      "stateMutability": "view",
      "type": "function"
    },
    {
      "inputs": [],
      "name": "sushiRouter",
      "outputs": [
        {
          "internalType": "address",
          "name": "",
          "type": "address"
        }
      ],
      "stateMutability": "view",
      "type": "function"
    },
    {
      "inputs": [],
      "name": "timelock",
      "outputs": [
        {
          "internalType": "address",
          "name": "",
          "type": "address"
        }
      ],
      "stateMutability": "view",
      "type": "function"
    },
    {
      "inputs": [],
      "name": "token1",
      "outputs": [
        {
          "internalType": "address",
          "name": "",
          "type": "address"
        }
      ],
      "stateMutability": "view",
      "type": "function"
    },
    {
      "inputs": [],
      "name": "univ2Router2",
      "outputs": [
        {
          "internalType": "address",
          "name": "",
          "type": "address"
        }
      ],
      "stateMutability": "view",
      "type": "function"
    },
    {
      "inputs": [],
      "name": "want",
      "outputs": [
        {
          "internalType": "address",
          "name": "",
          "type": "address"
        }
      ],
      "stateMutability": "view",
      "type": "function"
    },
    {
      "inputs": [],
      "name": "weth",
      "outputs": [
        {
          "internalType": "address",
          "name": "",
          "type": "address"
        }
      ],
      "stateMutability": "view",
      "type": "function"
    },
    {
      "inputs": [
        {
          "internalType": "address",
          "name": "_harvester",
          "type": "address"
        }
      ],
      "name": "whitelistHarvester",
      "outputs": [],
      "stateMutability": "nonpayable",
      "type": "function"
    },
    {
      "inputs": [
        {
          "internalType": "uint256",
          "name": "_amount",
          "type": "uint256"
        }
      ],
      "name": "withdraw",
      "outputs": [],
      "stateMutability": "nonpayable",
      "type": "function"
    },
    {
      "inputs": [
        {
          "internalType": "contract IERC20",
          "name": "_asset",
          "type": "address"
        }
      ],
      "name": "withdraw",
      "outputs": [
        {
          "internalType": "uint256",
          "name": "balance",
          "type": "uint256"
        }
      ],
      "stateMutability": "nonpayable",
      "type": "function"
    },
    {
      "inputs": [],
      "name": "withdrawalDevFundFee",
      "outputs": [
        {
          "internalType": "uint256",
          "name": "",
          "type": "uint256"
        }
      ],
      "stateMutability": "view",
      "type": "function"
    },
    {
      "inputs": [],
      "name": "withdrawalDevFundMax",
      "outputs": [
        {
          "internalType": "uint256",
          "name": "",
          "type": "uint256"
        }
      ],
      "stateMutability": "view",
      "type": "function"
    },
    {
      "inputs": [],
      "name": "withdrawalTreasuryFee",
      "outputs": [
        {
          "internalType": "uint256",
          "name": "",
          "type": "uint256"
        }
      ],
      "stateMutability": "view",
      "type": "function"
    },
    {
      "inputs": [],
      "name": "withdrawalTreasuryMax",
      "outputs": [
        {
          "internalType": "uint256",
          "name": "",
          "type": "uint256"
        }
      ],
      "stateMutability": "view",
      "type": "function"
    },
    {
      "inputs": [],
      "name": "getName",
      "outputs": [
        {
          "internalType": "string",
          "name": "",
          "type": "string"
        }
      ],
      "stateMutability": "pure",
      "type": "function"
    }
  ],
  "bytecode": "0x60806040526107d0600055600060015560006002556000600355737a250d5630b4cf539739df2c5dacb4c659f2488d600960006101000a81548173ffffffffffffffffffffffffffffffffffffffff021916908373ffffffffffffffffffffffffffffffffffffffff16021790555073d9e1ce17f2641f24ae83637ab66a2cca9c378b9f600a60006101000a81548173ffffffffffffffffffffffffffffffffffffffff021916908373ffffffffffffffffffffffffffffffffffffffff16021790555073a7ed29b253d8b4e3109ce07c80fc570f81b63696600d60006101000a81548173ffffffffffffffffffffffffffffffffffffffff021916908373ffffffffffffffffffffffffffffffffffffffff160217905550736b175474e89094c44da98b954eedeac495271d0f600e60006101000a81548173ffffffffffffffffffffffffffffffffffffffff021916908373ffffffffffffffffffffffffffffffffffffffff160217905550600060105573067d4d3ce63450e74f880f86b5b52ea3edf9db0f601160006101000a81548173ffffffffffffffffffffffffffffffffffffffff021916908373ffffffffffffffffffffffffffffffffffffffff16021790555073d4405f0704621dbe9d4dea60e128e0c3b26bddbd601260006101000a81548173ffffffffffffffffffffffffffffffffffffffff021916908373ffffffffffffffffffffffffffffffffffffffff160217905550733449fc1cd036255ba1eb19d65ff4ba2b8903a69a601360006101000a81548173ffffffffffffffffffffffffffffffffffffffff021916908373ffffffffffffffffffffffffffffffffffffffff1602179055503480156200027e57600080fd5b50604051620051ac380380620051ac8339818101604052810190620002a491906200063d565b601360009054906101000a900473ffffffffffffffffffffffffffffffffffffffff16601160009054906101000a900473ffffffffffffffffffffffffffffffffffffffff16601260009054906101000a900473ffffffffffffffffffffffffffffffffffffffff16868686868585858585858484848484600073ffffffffffffffffffffffffffffffffffffffff168573ffffffffffffffffffffffffffffffffffffffff1614156200035757600080fd5b600073ffffffffffffffffffffffffffffffffffffffff168473ffffffffffffffffffffffffffffffffffffffff1614156200039257600080fd5b600073ffffffffffffffffffffffffffffffffffffffff168373ffffffffffffffffffffffffffffffffffffffff161415620003cd57600080fd5b600073ffffffffffffffffffffffffffffffffffffffff168273ffffffffffffffffffffffffffffffffffffffff1614156200040857600080fd5b600073ffffffffffffffffffffffffffffffffffffffff168173ffffffffffffffffffffffffffffffffffffffff1614156200044357600080fd5b84600460006101000a81548173ffffffffffffffffffffffffffffffffffffffff021916908373ffffffffffffffffffffffffffffffffffffffff16021790555083600560006101000a81548173ffffffffffffffffffffffffffffffffffffffff021916908373ffffffffffffffffffffffffffffffffffffffff16021790555082600760006101000a81548173ffffffffffffffffffffffffffffffffffffffff021916908373ffffffffffffffffffffffffffffffffffffffff16021790555081600660006101000a81548173ffffffffffffffffffffffffffffffffffffffff021916908373ffffffffffffffffffffffffffffffffffffffff16021790555080600860006101000a81548173ffffffffffffffffffffffffffffffffffffffff021916908373ffffffffffffffffffffffffffffffffffffffff160217905550505050505085600c60006101000a81548173ffffffffffffffffffffffffffffffffffffffff021916908373ffffffffffffffffffffffffffffffffffffffff16021790555050505050505086600f60006101000a81548173ffffffffffffffffffffffffffffffffffffffff021916908373ffffffffffffffffffffffffffffffffffffffff1602179055505050505050505050505050620006f7565b6000815190506200063781620006dd565b92915050565b600080600080608085870312156200065457600080fd5b6000620006648782880162000626565b9450506020620006778782880162000626565b93505060406200068a8782880162000626565b92505060606200069d8782880162000626565b91505092959194509250565b6000620006b682620006bd565b9050919050565b600073ffffffffffffffffffffffffffffffffffffffff82169050919050565b620006e881620006a9565b8114620006f457600080fd5b50565b614aa580620007076000396000f3fe6080604052600436106102885760003560e01c80635aa6e6751161015a578063ab73e433116100c1578063d0e30db01161007a578063d0e30db01461096d578063d21220a714610984578063d33219b4146109af578063f4b9fa75146109da578063f77c479114610a05578063fe1f8f7a14610a3057610288565b8063ab73e43314610873578063b9e374891461089c578063bdacb303146108c7578063c1a3d44c146108f0578063c65e32421461091b578063c7b9d5301461094457610288565b806388993f221161011357806388993f22146107775780638ccdbb70146107a257806392eefe9b146107cd5780639b26a484146107f65780639ec5a8941461081f578063ab033ea91461084a57610288565b80635aa6e6751461066557806366d97000146106905780636d13582c146106bb578063722713f7146106e65780638237859414610711578063879765831461073a57610288565b806326e886c6116101fe578063479119be116101b7578063479119be146105535780634fe809cc1461057e57806351cff8d9146105a957806351f3d0b8146105e657806354df7b631461061157806359739ec41461063a57610288565b806326e886c6146104675780632e1a7d4d1461049257806332ac1f27146104bb5780633656b20b146104e65780633fc8cef3146105115780634641257d1461053c57610288565b80631cff79cd116102505780631cff79cd146103625780631f1fcd51146103925780631fe4a686146103bd5780632321844b146103e8578063249fb9b414610413578063258027561461043c57610288565b806304d152eb1461028d5780630547104d146102b857806311588086146102e357806317d7de7c1461030e57806318eb0e0b14610339575b600080fd5b34801561029957600080fd5b506102a2610a5b565b6040516102af919061460e565b60405180910390f35b3480156102c457600080fd5b506102cd610a61565b6040516102da919061460e565b60405180910390f35b3480156102ef57600080fd5b506102f8610b12565b604051610305919061460e565b60405180910390f35b34801561031a57600080fd5b50610323610bc4565b60405161033091906144ac565b60405180910390f35b34801561034557600080fd5b50610360600480360381019061035b9190613d63565b610be4565b005b61037c60048036038101906103779190613db5565b610d27565b604051610389919061448a565b60405180910390f35b34801561039e57600080fd5b506103a7610e79565b6040516103b49190614384565b60405180910390f35b3480156103c957600080fd5b506103d2610e9f565b6040516103df9190614384565b60405180910390f35b3480156103f457600080fd5b506103fd610ec5565b60405161040a9190614384565b60405180910390f35b34801561041f57600080fd5b5061043a60048036038101906104359190613e9c565b610eeb565b005b34801561044857600080fd5b50610451610f85565b60405161045e9190614384565b60405180910390f35b34801561047357600080fd5b5061047c610fab565b604051610489919061460e565b60405180910390f35b34801561049e57600080fd5b506104b960048036038101906104b49190613e9c565b610fb1565b005b3480156104c757600080fd5b506104d0611518565b6040516104dd9190614384565b60405180910390f35b3480156104f257600080fd5b506104fb61153e565b604051610508919061460e565b60405180910390f35b34801561051d57600080fd5b50610526611544565b6040516105339190614384565b60405180910390f35b34801561054857600080fd5b5061055161155c565b005b34801561055f57600080fd5b50610568612455565b604051610575919061460e565b60405180910390f35b34801561058a57600080fd5b5061059361245c565b6040516105a0919061460e565b60405180910390f35b3480156105b557600080fd5b506105d060048036038101906105cb9190613e73565b612462565b6040516105dd919061460e565b60405180910390f35b3480156105f257600080fd5b506105fb612662565b604051610608919061460e565b60405180910390f35b34801561061d57600080fd5b5061063860048036038101906106339190613d63565b612668565b005b34801561064657600080fd5b5061064f6127ab565b60405161065c919061460e565b60405180910390f35b34801561067157600080fd5b5061067a6127b1565b6040516106879190614384565b60405180910390f35b34801561069c57600080fd5b506106a56127d7565b6040516106b29190614384565b60405180910390f35b3480156106c757600080fd5b506106d06127fd565b6040516106dd9190614384565b60405180910390f35b3480156106f257600080fd5b506106fb612823565b604051610708919061460e565b60405180910390f35b34801561071d57600080fd5b5061073860048036038101906107339190613e9c565b61284b565b005b34801561074657600080fd5b50610761600480360381019061075c9190613d63565b6128e5565b60405161076e919061446f565b60405180910390f35b34801561078357600080fd5b5061078c612905565b604051610799919061460e565b60405180910390f35b3480156107ae57600080fd5b506107b761290b565b6040516107c4919061460e565b60405180910390f35b3480156107d957600080fd5b506107f460048036038101906107ef9190613d63565b612911565b005b34801561080257600080fd5b5061081d60048036038101906108189190613e9c565b6129e6565b005b34801561082b57600080fd5b50610834612a80565b6040516108419190614384565b60405180910390f35b34801561085657600080fd5b50610871600480360381019061086c9190613d63565b612aa6565b005b34801561087f57600080fd5b5061089a60048036038101906108959190613e9c565b612b7a565b005b3480156108a857600080fd5b506108b1612c14565b6040516108be9190614384565b60405180910390f35b3480156108d357600080fd5b506108ee60048036038101906108e99190613d63565b612c3a565b005b3480156108fc57600080fd5b50610905612d0e565b604051610912919061460e565b60405180910390f35b34801561092757600080fd5b50610942600480360381019061093d9190613e9c565b612dc0565b005b34801561095057600080fd5b5061096b60048036038101906109669190613d63565b612e5a565b005b34801561097957600080fd5b50610982612f2e565b005b34801561099057600080fd5b50610999613156565b6040516109a69190614384565b60405180910390f35b3480156109bb57600080fd5b506109c461317c565b6040516109d19190614384565b60405180910390f35b3480156109e657600080fd5b506109ef6131a2565b6040516109fc9190614384565b60405180910390f35b348015610a1157600080fd5b50610a1a6131c8565b604051610a279190614384565b60405180910390f35b348015610a3c57600080fd5b50610a456131ee565b604051610a52919061460e565b60405180910390f35b60105481565b6000600c60009054906101000a900473ffffffffffffffffffffffffffffffffffffffff1673ffffffffffffffffffffffffffffffffffffffff16628cc262306040518263ffffffff1660e01b8152600401610abd9190614384565b60206040518083038186803b158015610ad557600080fd5b505afa158015610ae9573d6000803e3d6000fd5b505050506040513d601f19601f82011682018060405250810190610b0d9190613ec5565b905090565b6000600c60009054906101000a900473ffffffffffffffffffffffffffffffffffffffff1673ffffffffffffffffffffffffffffffffffffffff166370a08231306040518263ffffffff1660e01b8152600401610b6f9190614384565b60206040518083038186803b158015610b8757600080fd5b505afa158015610b9b573d6000803e3d6000fd5b505050506040513d601f19601f82011682018060405250810190610bbf9190613ec5565b905090565b6060604051806060016040528060268152602001614a4a60269139905090565b600560009054906101000a900473ffffffffffffffffffffffffffffffffffffffff1673ffffffffffffffffffffffffffffffffffffffff163373ffffffffffffffffffffffffffffffffffffffff161480610c8d5750600760009054906101000a900473ffffffffffffffffffffffffffffffffffffffff1673ffffffffffffffffffffffffffffffffffffffff163373ffffffffffffffffffffffffffffffffffffffff16145b610ccc576040517f08c379a0000000000000000000000000000000000000000000000000000000008152600401610cc39061454e565b60405180910390fd5b6000600b60008373ffffffffffffffffffffffffffffffffffffffff1673ffffffffffffffffffffffffffffffffffffffff16815260200190815260200160002060006101000a81548160ff02191690831515021790555050565b6060600860009054906101000a900473ffffffffffffffffffffffffffffffffffffffff1673ffffffffffffffffffffffffffffffffffffffff163373ffffffffffffffffffffffffffffffffffffffff1614610db9576040517f08c379a0000000000000000000000000000000000000000000000000000000008152600401610db0906145ce565b60405180910390fd5b600073ffffffffffffffffffffffffffffffffffffffff168373ffffffffffffffffffffffffffffffffffffffff161415610e29576040517f08c379a0000000000000000000000000000000000000000000000000000000008152600401610e20906144ee565b60405180910390fd5b600080835160208501866113885a03f43d6040519250601f19601f6020830101168301604052808352806000602085013e811560018114610e6957610e70565b8160208501fd5b50505092915050565b600460009054906101000a900473ffffffffffffffffffffffffffffffffffffffff1681565b600760009054906101000a900473ffffffffffffffffffffffffffffffffffffffff1681565b601260009054906101000a900473ffffffffffffffffffffffffffffffffffffffff1681565b600860009054906101000a900473ffffffffffffffffffffffffffffffffffffffff1673ffffffffffffffffffffffffffffffffffffffff163373ffffffffffffffffffffffffffffffffffffffff1614610f7b576040517f08c379a0000000000000000000000000000000000000000000000000000000008152600401610f72906145ce565b60405180910390fd5b8060008190555050565b600d60009054906101000a900473ffffffffffffffffffffffffffffffffffffffff1681565b61271081565b600660009054906101000a900473ffffffffffffffffffffffffffffffffffffffff1673ffffffffffffffffffffffffffffffffffffffff163373ffffffffffffffffffffffffffffffffffffffff1614611041576040517f08c379a00000000000000000000000000000000000000000000000000000000081526004016110389061450e565b60405180910390fd5b6000600460009054906101000a900473ffffffffffffffffffffffffffffffffffffffff1673ffffffffffffffffffffffffffffffffffffffff166370a08231306040518263ffffffff1660e01b815260040161109e9190614384565b60206040518083038186803b1580156110b657600080fd5b505afa1580156110ca573d6000803e3d6000fd5b505050506040513d601f19601f820116820180604052508101906110ee9190613ec5565b90508181101561112b5761111361110e82846131f590919063ffffffff16565b613242565b915061112881836132d990919063ffffffff16565b91505b6000611157620186a06111496003548661332b90919063ffffffff16565b61339a90919063ffffffff16565b9050611245600660009054906101000a900473ffffffffffffffffffffffffffffffffffffffff1673ffffffffffffffffffffffffffffffffffffffff16638d8f1e676040518163ffffffff1660e01b815260040160206040518083038186803b1580156111c457600080fd5b505afa1580156111d8573d6000803e3d6000fd5b505050506040513d601f19601f820116820180604052508101906111fc9190613d8c565b82600460009054906101000a900473ffffffffffffffffffffffffffffffffffffffff1673ffffffffffffffffffffffffffffffffffffffff166133b59092919063ffffffff16565b6000611271620186a06112636002548761332b90919063ffffffff16565b61339a90919063ffffffff16565b905061135f600660009054906101000a900473ffffffffffffffffffffffffffffffffffffffff1673ffffffffffffffffffffffffffffffffffffffff166361d027b36040518163ffffffff1660e01b815260040160206040518083038186803b1580156112de57600080fd5b505afa1580156112f2573d6000803e3d6000fd5b505050506040513d601f19601f820116820180604052508101906113169190613d8c565b82600460009054906101000a900473ffffffffffffffffffffffffffffffffffffffff1673ffffffffffffffffffffffffffffffffffffffff166133b59092919063ffffffff16565b6000600660009054906101000a900473ffffffffffffffffffffffffffffffffffffffff1673ffffffffffffffffffffffffffffffffffffffff1663ca6a48c2600460009054906101000a900473ffffffffffffffffffffffffffffffffffffffff166040518263ffffffff1660e01b81526004016113de9190614384565b60206040518083038186803b1580156113f657600080fd5b505afa15801561140a573d6000803e3d6000fd5b505050506040513d601f19601f8201168201806040525081019061142e9190613d8c565b9050600073ffffffffffffffffffffffffffffffffffffffff168173ffffffffffffffffffffffffffffffffffffffff1614156114a0576040517f08c379a00000000000000000000000000000000000000000000000000000000081526004016114979061456e565b60405180910390fd5b611511816114c9846114bb878a6131f590919063ffffffff16565b6131f590919063ffffffff16565b600460009054906101000a900473ffffffffffffffffffffffffffffffffffffffff1673ffffffffffffffffffffffffffffffffffffffff166133b59092919063ffffffff16565b5050505050565b601360009054906101000a900473ffffffffffffffffffffffffffffffffffffffff1681565b61271081565b73c02aaa39b223fe8d0a0e5c4f27ead9083c756cc281565b600b60003373ffffffffffffffffffffffffffffffffffffffff1673ffffffffffffffffffffffffffffffffffffffff16815260200190815260200160002060009054906101000a900460ff16806116015750600560009054906101000a900473ffffffffffffffffffffffffffffffffffffffff1673ffffffffffffffffffffffffffffffffffffffff163373ffffffffffffffffffffffffffffffffffffffff16145b806116595750600760009054906101000a900473ffffffffffffffffffffffffffffffffffffffff1673ffffffffffffffffffffffffffffffffffffffff163373ffffffffffffffffffffffffffffffffffffffff16145b61166257600080fd5b6000600267ffffffffffffffff8111156116a5577f4e487b7100000000000000000000000000000000000000000000000000000000600052604160045260246000fd5b6040519080825280602002602001820160405280156116d35781602001602082028036833780820191505090505b509050600c60009054906101000a900473ffffffffffffffffffffffffffffffffffffffff1673ffffffffffffffffffffffffffffffffffffffff16633d18b9126040518163ffffffff1660e01b8152600401600060405180830381600087803b15801561174057600080fd5b505af1158015611754573d6000803e3d6000fd5b505050506000600d60009054906101000a900473ffffffffffffffffffffffffffffffffffffffff1673ffffffffffffffffffffffffffffffffffffffff166370a08231306040518263ffffffff1660e01b81526004016117b59190614384565b60206040518083038186803b1580156117cd57600080fd5b505afa1580156117e1573d6000803e3d6000fd5b505050506040513d601f19601f820116820180604052508101906118059190613ec5565b90506000811115611a7557600061183b61271061182d6010548561332b90919063ffffffff16565b61339a90919063ffffffff16565b9050611929600660009054906101000a900473ffffffffffffffffffffffffffffffffffffffff1673ffffffffffffffffffffffffffffffffffffffff166361d027b36040518163ffffffff1660e01b815260040160206040518083038186803b1580156118a857600080fd5b505afa1580156118bc573d6000803e3d6000fd5b505050506040513d601f19601f820116820180604052508101906118e09190613d8c565b82600d60009054906101000a900473ffffffffffffffffffffffffffffffffffffffff1673ffffffffffffffffffffffffffffffffffffffff166133b59092919063ffffffff16565b600d60009054906101000a900473ffffffffffffffffffffffffffffffffffffffff1683600081518110611986577f4e487b7100000000000000000000000000000000000000000000000000000000600052603260045260246000fd5b602002602001019073ffffffffffffffffffffffffffffffffffffffff16908173ffffffffffffffffffffffffffffffffffffffff1681525050600e60009054906101000a900473ffffffffffffffffffffffffffffffffffffffff1683600181518110611a1d577f4e487b7100000000000000000000000000000000000000000000000000000000600052603260045260246000fd5b602002602001019073ffffffffffffffffffffffffffffffffffffffff16908173ffffffffffffffffffffffffffffffffffffffff1681525050611a7383611a6e83856131f590919063ffffffff16565b61343b565b505b6000600e60009054906101000a900473ffffffffffffffffffffffffffffffffffffffff1673ffffffffffffffffffffffffffffffffffffffff166370a08231306040518263ffffffff1660e01b8152600401611ad29190614384565b60206040518083038186803b158015611aea57600080fd5b505afa158015611afe573d6000803e3d6000fd5b505050506040513d601f19601f82011682018060405250810190611b229190613ec5565b90506000811115611c7957600e60009054906101000a900473ffffffffffffffffffffffffffffffffffffffff1683600081518110611b8a577f4e487b7100000000000000000000000000000000000000000000000000000000600052603260045260246000fd5b602002602001019073ffffffffffffffffffffffffffffffffffffffff16908173ffffffffffffffffffffffffffffffffffffffff1681525050600f60009054906101000a900473ffffffffffffffffffffffffffffffffffffffff1683600181518110611c21577f4e487b7100000000000000000000000000000000000000000000000000000000600052603260045260246000fd5b602002602001019073ffffffffffffffffffffffffffffffffffffffff16908173ffffffffffffffffffffffffffffffffffffffff1681525050611c7883611c7360028461339a90919063ffffffff16565b61343b565b5b600e60009054906101000a900473ffffffffffffffffffffffffffffffffffffffff1673ffffffffffffffffffffffffffffffffffffffff166370a08231306040518263ffffffff1660e01b8152600401611cd49190614384565b60206040518083038186803b158015611cec57600080fd5b505afa158015611d00573d6000803e3d6000fd5b505050506040513d601f19601f82011682018060405250810190611d249190613ec5565b90506000600f60009054906101000a900473ffffffffffffffffffffffffffffffffffffffff1673ffffffffffffffffffffffffffffffffffffffff166370a08231306040518263ffffffff1660e01b8152600401611d839190614384565b60206040518083038186803b158015611d9b57600080fd5b505afa158015611daf573d6000803e3d6000fd5b505050506040513d601f19601f82011682018060405250810190611dd39190613ec5565b9050600082118015611de55750600081115b1561244757611e5a600960009054906101000a900473ffffffffffffffffffffffffffffffffffffffff166000600e60009054906101000a900473ffffffffffffffffffffffffffffffffffffffff1673ffffffffffffffffffffffffffffffffffffffff166135899092919063ffffffff16565b611ec9600960009054906101000a900473ffffffffffffffffffffffffffffffffffffffff1683600e60009054906101000a900473ffffffffffffffffffffffffffffffffffffffff1673ffffffffffffffffffffffffffffffffffffffff166135899092919063ffffffff16565b611f39600960009054906101000a900473ffffffffffffffffffffffffffffffffffffffff166000600f60009054906101000a900473ffffffffffffffffffffffffffffffffffffffff1673ffffffffffffffffffffffffffffffffffffffff166135899092919063ffffffff16565b611fa8600960009054906101000a900473ffffffffffffffffffffffffffffffffffffffff1682600f60009054906101000a900473ffffffffffffffffffffffffffffffffffffffff1673ffffffffffffffffffffffffffffffffffffffff166135899092919063ffffffff16565b600960009054906101000a900473ffffffffffffffffffffffffffffffffffffffff1673ffffffffffffffffffffffffffffffffffffffff1663e8e33700600e60009054906101000a900473ffffffffffffffffffffffffffffffffffffffff16600f60009054906101000a900473ffffffffffffffffffffffffffffffffffffffff16858560008030603c4261203f919061478c565b6040518963ffffffff1660e01b81526004016120629897969594939291906143c8565b606060405180830381600087803b15801561207c57600080fd5b505af1158015612090573d6000803e3d6000fd5b505050506040513d601f19601f820116820180604052508101906120b49190613eee565b505050600e60009054906101000a900473ffffffffffffffffffffffffffffffffffffffff1673ffffffffffffffffffffffffffffffffffffffff1663a9059cbb600660009054906101000a900473ffffffffffffffffffffffffffffffffffffffff1673ffffffffffffffffffffffffffffffffffffffff166361d027b36040518163ffffffff1660e01b815260040160206040518083038186803b15801561215d57600080fd5b505afa158015612171573d6000803e3d6000fd5b505050506040513d601f19601f820116820180604052508101906121959190613d8c565b600e60009054906101000a900473ffffffffffffffffffffffffffffffffffffffff1673ffffffffffffffffffffffffffffffffffffffff166370a08231306040518263ffffffff1660e01b81526004016121f09190614384565b60206040518083038186803b15801561220857600080fd5b505afa15801561221c573d6000803e3d6000fd5b505050506040513d601f19601f820116820180604052508101906122409190613ec5565b6040518363ffffffff1660e01b815260040161225d929190614446565b602060405180830381600087803b15801561227757600080fd5b505af115801561228b573d6000803e3d6000fd5b505050506040513d601f19601f820116820180604052508101906122af9190613e4a565b50612446600660009054906101000a900473ffffffffffffffffffffffffffffffffffffffff1673ffffffffffffffffffffffffffffffffffffffff166361d027b36040518163ffffffff1660e01b815260040160206040518083038186803b15801561231b57600080fd5b505afa15801561232f573d6000803e3d6000fd5b505050506040513d601f19601f820116820180604052508101906123539190613d8c565b600f60009054906101000a900473ffffffffffffffffffffffffffffffffffffffff1673ffffffffffffffffffffffffffffffffffffffff166370a08231306040518263ffffffff1660e01b81526004016123ae9190614384565b60206040518083038186803b1580156123c657600080fd5b505afa1580156123da573d6000803e3d6000fd5b505050506040513d601f19601f820116820180604052508101906123fe9190613ec5565b600f60009054906101000a900473ffffffffffffffffffffffffffffffffffffffff1673ffffffffffffffffffffffffffffffffffffffff166133b59092919063ffffffff16565b5b61244f6136e7565b50505050565b620186a081565b61271081565b6000600660009054906101000a900473ffffffffffffffffffffffffffffffffffffffff1673ffffffffffffffffffffffffffffffffffffffff163373ffffffffffffffffffffffffffffffffffffffff16146124f4576040517f08c379a00000000000000000000000000000000000000000000000000000000081526004016124eb9061450e565b60405180910390fd5b8173ffffffffffffffffffffffffffffffffffffffff16600460009054906101000a900473ffffffffffffffffffffffffffffffffffffffff1673ffffffffffffffffffffffffffffffffffffffff161415612585576040517f08c379a000000000000000000000000000000000000000000000000000000000815260040161257c9061452e565b60405180910390fd5b8173ffffffffffffffffffffffffffffffffffffffff166370a08231306040518263ffffffff1660e01b81526004016125be9190614384565b60206040518083038186803b1580156125d657600080fd5b505afa1580156125ea573d6000803e3d6000fd5b505050506040513d601f19601f8201168201806040525081019061260e9190613ec5565b905061265d600660009054906101000a900473ffffffffffffffffffffffffffffffffffffffff16828473ffffffffffffffffffffffffffffffffffffffff166133b59092919063ffffffff16565b919050565b60035481565b600560009054906101000a900473ffffffffffffffffffffffffffffffffffffffff1673ffffffffffffffffffffffffffffffffffffffff163373ffffffffffffffffffffffffffffffffffffffff1614806127115750600760009054906101000a900473ffffffffffffffffffffffffffffffffffffffff1673ffffffffffffffffffffffffffffffffffffffff163373ffffffffffffffffffffffffffffffffffffffff16145b612750576040517f08c379a00000000000000000000000000000000000000000000000000000000081526004016127479061454e565b60405180910390fd5b6001600b60008373ffffffffffffffffffffffffffffffffffffffff1673ffffffffffffffffffffffffffffffffffffffff16815260200190815260200160002060006101000a81548160ff02191690831515021790555050565b60005481565b600560009054906101000a900473ffffffffffffffffffffffffffffffffffffffff1681565b601160009054906101000a900473ffffffffffffffffffffffffffffffffffffffff1681565b600a60009054906101000a900473ffffffffffffffffffffffffffffffffffffffff1681565b6000612846612830610b12565b612838612d0e565b6132d990919063ffffffff16565b905090565b600860009054906101000a900473ffffffffffffffffffffffffffffffffffffffff1673ffffffffffffffffffffffffffffffffffffffff163373ffffffffffffffffffffffffffffffffffffffff16146128db576040517f08c379a00000000000000000000000000000000000000000000000000000000081526004016128d2906145ce565b60405180910390fd5b8060028190555050565b600b6020528060005260406000206000915054906101000a900460ff1681565b60015481565b60025481565b600860009054906101000a900473ffffffffffffffffffffffffffffffffffffffff1673ffffffffffffffffffffffffffffffffffffffff163373ffffffffffffffffffffffffffffffffffffffff1614156129a2576040517f08c379a0000000000000000000000000000000000000000000000000000000008152600401612999906145ce565b60405180910390fd5b80600660006101000a81548173ffffffffffffffffffffffffffffffffffffffff021916908373ffffffffffffffffffffffffffffffffffffffff16021790555050565b600860009054906101000a900473ffffffffffffffffffffffffffffffffffffffff1673ffffffffffffffffffffffffffffffffffffffff163373ffffffffffffffffffffffffffffffffffffffff1614612a76576040517f08c379a0000000000000000000000000000000000000000000000000000000008152600401612a6d906145ce565b60405180910390fd5b8060108190555050565b600c60009054906101000a900473ffffffffffffffffffffffffffffffffffffffff1681565b600560009054906101000a900473ffffffffffffffffffffffffffffffffffffffff1673ffffffffffffffffffffffffffffffffffffffff163373ffffffffffffffffffffffffffffffffffffffff1614612b36576040517f08c379a0000000000000000000000000000000000000000000000000000000008152600401612b2d906144ce565b60405180910390fd5b80600560006101000a81548173ffffffffffffffffffffffffffffffffffffffff021916908373ffffffffffffffffffffffffffffffffffffffff16021790555050565b600860009054906101000a900473ffffffffffffffffffffffffffffffffffffffff1673ffffffffffffffffffffffffffffffffffffffff163373ffffffffffffffffffffffffffffffffffffffff1614612c0a576040517f08c379a0000000000000000000000000000000000000000000000000000000008152600401612c01906145ce565b60405180910390fd5b8060038190555050565b600960009054906101000a900473ffffffffffffffffffffffffffffffffffffffff1681565b600860009054906101000a900473ffffffffffffffffffffffffffffffffffffffff1673ffffffffffffffffffffffffffffffffffffffff163373ffffffffffffffffffffffffffffffffffffffff1614612cca576040517f08c379a0000000000000000000000000000000000000000000000000000000008152600401612cc1906145ce565b60405180910390fd5b80600860006101000a81548173ffffffffffffffffffffffffffffffffffffffff021916908373ffffffffffffffffffffffffffffffffffffffff16021790555050565b6000600460009054906101000a900473ffffffffffffffffffffffffffffffffffffffff1673ffffffffffffffffffffffffffffffffffffffff166370a08231306040518263ffffffff1660e01b8152600401612d6b9190614384565b60206040518083038186803b158015612d8357600080fd5b505afa158015612d97573d6000803e3d6000fd5b505050506040513d601f19601f82011682018060405250810190612dbb9190613ec5565b905090565b600860009054906101000a900473ffffffffffffffffffffffffffffffffffffffff1673ffffffffffffffffffffffffffffffffffffffff163373ffffffffffffffffffffffffffffffffffffffff1614612e50576040517f08c379a0000000000000000000000000000000000000000000000000000000008152600401612e47906145ce565b60405180910390fd5b8060018190555050565b600560009054906101000a900473ffffffffffffffffffffffffffffffffffffffff1673ffffffffffffffffffffffffffffffffffffffff163373ffffffffffffffffffffffffffffffffffffffff1614612eea576040517f08c379a0000000000000000000000000000000000000000000000000000000008152600401612ee1906144ce565b60405180910390fd5b80600760006101000a81548173ffffffffffffffffffffffffffffffffffffffff021916908373ffffffffffffffffffffffffffffffffffffffff16021790555050565b6000600460009054906101000a900473ffffffffffffffffffffffffffffffffffffffff1673ffffffffffffffffffffffffffffffffffffffff166370a08231306040518263ffffffff1660e01b8152600401612f8b9190614384565b60206040518083038186803b158015612fa357600080fd5b505afa158015612fb7573d6000803e3d6000fd5b505050506040513d601f19601f82011682018060405250810190612fdb9190613ec5565b9050600081111561315357613056600c60009054906101000a900473ffffffffffffffffffffffffffffffffffffffff166000600460009054906101000a900473ffffffffffffffffffffffffffffffffffffffff1673ffffffffffffffffffffffffffffffffffffffff166135899092919063ffffffff16565b6130c5600c60009054906101000a900473ffffffffffffffffffffffffffffffffffffffff1682600460009054906101000a900473ffffffffffffffffffffffffffffffffffffffff1673ffffffffffffffffffffffffffffffffffffffff166135899092919063ffffffff16565b600c60009054906101000a900473ffffffffffffffffffffffffffffffffffffffff1673ffffffffffffffffffffffffffffffffffffffff1663a694fc3a826040518263ffffffff1660e01b8152600401613120919061460e565b600060405180830381600087803b15801561313a57600080fd5b505af115801561314e573d6000803e3d6000fd5b505050505b50565b600f60009054906101000a900473ffffffffffffffffffffffffffffffffffffffff1681565b600860009054906101000a900473ffffffffffffffffffffffffffffffffffffffff1681565b600e60009054906101000a900473ffffffffffffffffffffffffffffffffffffffff1681565b600660009054906101000a900473ffffffffffffffffffffffffffffffffffffffff1681565b620186a081565b60008282111561322e577f4e487b7100000000000000000000000000000000000000000000000000000000600052600160045260246000fd5b818361323a919061486d565b905092915050565b6000600c60009054906101000a900473ffffffffffffffffffffffffffffffffffffffff1673ffffffffffffffffffffffffffffffffffffffff16632e1a7d4d836040518263ffffffff1660e01b815260040161329f919061460e565b600060405180830381600087803b1580156132b957600080fd5b505af11580156132cd573d6000803e3d6000fd5b50505050819050919050565b60008082846132e8919061478c565b905083811015613321577f4e487b7100000000000000000000000000000000000000000000000000000000600052600160045260246000fd5b8091505092915050565b60008083141561333e5760009050613394565b6000828461334c9190614813565b905082848261335b91906147e2565b1461338f577f4e487b7100000000000000000000000000000000000000000000000000000000600052600160045260246000fd5b809150505b92915050565b60008082846133a991906147e2565b90508091505092915050565b6134368363a9059cbb60e01b84846040516024016133d4929190614446565b604051602081830303815290604052907bffffffffffffffffffffffffffffffffffffffffffffffffffffffff19166020820180517bffffffffffffffffffffffffffffffffffffffffffffffffffffffff83818316178352505050506139d3565b505050565b600073ffffffffffffffffffffffffffffffffffffffff168260018151811061348d577f4e487b7100000000000000000000000000000000000000000000000000000000600052603260045260246000fd5b602002602001015173ffffffffffffffffffffffffffffffffffffffff1614156134b657600080fd5b600960009054906101000a900473ffffffffffffffffffffffffffffffffffffffff1673ffffffffffffffffffffffffffffffffffffffff166338ed1739826000853061350d603c426132d990919063ffffffff16565b6040518663ffffffff1660e01b815260040161352d959493929190614629565b600060405180830381600087803b15801561354757600080fd5b505af115801561355b573d6000803e3d6000fd5b505050506040513d6000823e3d601f19601f820116820180604052508101906135849190613e09565b505050565b6000811480613622575060008373ffffffffffffffffffffffffffffffffffffffff1663dd62ed3e30856040518363ffffffff1660e01b81526004016135d092919061439f565b60206040518083038186803b1580156135e857600080fd5b505afa1580156135fc573d6000803e3d6000fd5b505050506040513d601f19601f820116820180604052508101906136209190613ec5565b145b613661576040517f08c379a0000000000000000000000000000000000000000000000000000000008152600401613658906145ee565b60405180910390fd5b6136e28363095ea7b360e01b8484604051602401613680929190614446565b604051602081830303815290604052907bffffffffffffffffffffffffffffffffffffffffffffffffffffffff19166020820180517bffffffffffffffffffffffffffffffffffffffffffffffffffffffff83818316178352505050506139d3565b505050565b6000600460009054906101000a900473ffffffffffffffffffffffffffffffffffffffff1673ffffffffffffffffffffffffffffffffffffffff166370a08231306040518263ffffffff1660e01b81526004016137449190614384565b60206040518083038186803b15801561375c57600080fd5b505afa158015613770573d6000803e3d6000fd5b505050506040513d601f19601f820116820180604052508101906137949190613ec5565b905060008111156139d0576138b3600660009054906101000a900473ffffffffffffffffffffffffffffffffffffffff1673ffffffffffffffffffffffffffffffffffffffff166361d027b36040518163ffffffff1660e01b815260040160206040518083038186803b15801561380a57600080fd5b505afa15801561381e573d6000803e3d6000fd5b505050506040513d601f19601f820116820180604052508101906138429190613d8c565b61386b61271061385d6000548661332b90919063ffffffff16565b61339a90919063ffffffff16565b600460009054906101000a900473ffffffffffffffffffffffffffffffffffffffff1673ffffffffffffffffffffffffffffffffffffffff166133b59092919063ffffffff16565b6139c7600660009054906101000a900473ffffffffffffffffffffffffffffffffffffffff1673ffffffffffffffffffffffffffffffffffffffff16638d8f1e676040518163ffffffff1660e01b815260040160206040518083038186803b15801561391e57600080fd5b505afa158015613932573d6000803e3d6000fd5b505050506040513d601f19601f820116820180604052508101906139569190613d8c565b61397f6127106139716001548661332b90919063ffffffff16565b61339a90919063ffffffff16565b600460009054906101000a900473ffffffffffffffffffffffffffffffffffffffff1673ffffffffffffffffffffffffffffffffffffffff166133b59092919063ffffffff16565b6139cf612f2e565b5b50565b6000613a35826040518060400160405280602081526020017f5361666545524332303a206c6f772d6c6576656c2063616c6c206661696c65648152508573ffffffffffffffffffffffffffffffffffffffff16613a9a9092919063ffffffff16565b9050600081511115613a955780806020019051810190613a559190613e4a565b613a94576040517f08c379a0000000000000000000000000000000000000000000000000000000008152600401613a8b906145ae565b60405180910390fd5b5b505050565b6060613aa98484600085613ab2565b90509392505050565b6060613abd85613bd4565b613afc576040517f08c379a0000000000000000000000000000000000000000000000000000000008152600401613af39061458e565b60405180910390fd5b6000808673ffffffffffffffffffffffffffffffffffffffff168587604051613b25919061436d565b60006040518083038185875af1925050503d8060008114613b62576040519150601f19603f3d011682016040523d82523d6000602084013e613b67565b606091505b50915091508115613b7c578092505050613bcc565b600081511115613b8f5780518082602001fd5b836040517f08c379a0000000000000000000000000000000000000000000000000000000008152600401613bc391906144ac565b60405180910390fd5b949350505050565b600080823b905060008111915050919050565b6000613bfa613bf5846146b4565b614683565b90508083825260208201905082856020860282011115613c1957600080fd5b60005b85811015613c495781613c2f8882613d4e565b845260208401935060208301925050600181019050613c1c565b5050509392505050565b6000613c66613c61846146e0565b614683565b905082815260208101848484011115613c7e57600080fd5b613c8984828561490d565b509392505050565b600081359050613ca0816149ed565b92915050565b600081519050613cb5816149ed565b92915050565b600082601f830112613ccc57600080fd5b8151613cdc848260208601613be7565b91505092915050565b600081519050613cf481614a04565b92915050565b600082601f830112613d0b57600080fd5b8135613d1b848260208601613c53565b91505092915050565b600081359050613d3381614a1b565b92915050565b600081359050613d4881614a32565b92915050565b600081519050613d5d81614a32565b92915050565b600060208284031215613d7557600080fd5b6000613d8384828501613c91565b91505092915050565b600060208284031215613d9e57600080fd5b6000613dac84828501613ca6565b91505092915050565b60008060408385031215613dc857600080fd5b6000613dd685828601613c91565b925050602083013567ffffffffffffffff811115613df357600080fd5b613dff85828601613cfa565b9150509250929050565b600060208284031215613e1b57600080fd5b600082015167ffffffffffffffff811115613e3557600080fd5b613e4184828501613cbb565b91505092915050565b600060208284031215613e5c57600080fd5b6000613e6a84828501613ce5565b91505092915050565b600060208284031215613e8557600080fd5b6000613e9384828501613d24565b91505092915050565b600060208284031215613eae57600080fd5b6000613ebc84828501613d39565b91505092915050565b600060208284031215613ed757600080fd5b6000613ee584828501613d4e565b91505092915050565b600080600060608486031215613f0357600080fd5b6000613f1186828701613d4e565b9350506020613f2286828701613d4e565b9250506040613f3386828701613d4e565b9150509250925092565b6000613f498383613f55565b60208301905092915050565b613f5e816148a1565b82525050565b613f6d816148a1565b82525050565b6000613f7e82614720565b613f88818561474e565b9350613f9383614710565b8060005b83811015613fc4578151613fab8882613f3d565b9750613fb683614741565b925050600181019050613f97565b5085935050505092915050565b613fda816148b3565b82525050565b6000613feb8261472b565b613ff5818561475f565b935061400581856020860161491c565b61400e816149dc565b840191505092915050565b60006140248261472b565b61402e8185614770565b935061403e81856020860161491c565b80840191505092915050565b614053816148fb565b82525050565b600061406482614736565b61406e818561477b565b935061407e81856020860161491c565b614087816149dc565b840191505092915050565b600061409f600b8361477b565b91507f21676f7665726e616e63650000000000000000000000000000000000000000006000830152602082019050919050565b60006140df60078361477b565b91507f21746172676574000000000000000000000000000000000000000000000000006000830152602082019050919050565b600061411f600b8361477b565b91507f21636f6e74726f6c6c65720000000000000000000000000000000000000000006000830152602082019050919050565b600061415f60048361477b565b91507f77616e74000000000000000000000000000000000000000000000000000000006000830152602082019050919050565b600061419f600e8361477b565b91507f6e6f7420617574686f72697a65640000000000000000000000000000000000006000830152602082019050919050565b60006141df60048361477b565b91507f216a6172000000000000000000000000000000000000000000000000000000006000830152602082019050919050565b600061421f601d8361477b565b91507f416464726573733a2063616c6c20746f206e6f6e2d636f6e74726163740000006000830152602082019050919050565b600061425f602a8361477b565b91507f5361666545524332303a204552433230206f7065726174696f6e20646964206e60008301527f6f742073756363656564000000000000000000000000000000000000000000006020830152604082019050919050565b60006142c560098361477b565b91507f2174696d656c6f636b00000000000000000000000000000000000000000000006000830152602082019050919050565b600061430560368361477b565b91507f5361666545524332303a20617070726f76652066726f6d206e6f6e2d7a65726f60008301527f20746f206e6f6e2d7a65726f20616c6c6f77616e6365000000000000000000006020830152604082019050919050565b614367816148f1565b82525050565b60006143798284614019565b915081905092915050565b60006020820190506143996000830184613f64565b92915050565b60006040820190506143b46000830185613f64565b6143c16020830184613f64565b9392505050565b6000610100820190506143de600083018b613f64565b6143eb602083018a613f64565b6143f8604083018961435e565b614405606083018861435e565b614412608083018761404a565b61441f60a083018661404a565b61442c60c0830185613f64565b61443960e083018461435e565b9998505050505050505050565b600060408201905061445b6000830185613f64565b614468602083018461435e565b9392505050565b60006020820190506144846000830184613fd1565b92915050565b600060208201905081810360008301526144a48184613fe0565b905092915050565b600060208201905081810360008301526144c68184614059565b905092915050565b600060208201905081810360008301526144e781614092565b9050919050565b60006020820190508181036000830152614507816140d2565b9050919050565b6000602082019050818103600083015261452781614112565b9050919050565b6000602082019050818103600083015261454781614152565b9050919050565b6000602082019050818103600083015261456781614192565b9050919050565b60006020820190508181036000830152614587816141d2565b9050919050565b600060208201905081810360008301526145a781614212565b9050919050565b600060208201905081810360008301526145c781614252565b9050919050565b600060208201905081810360008301526145e7816142b8565b9050919050565b60006020820190508181036000830152614607816142f8565b9050919050565b6000602082019050614623600083018461435e565b92915050565b600060a08201905061463e600083018861435e565b61464b602083018761404a565b818103604083015261465d8186613f73565b905061466c6060830185613f64565b614679608083018461435e565b9695505050505050565b6000604051905081810181811067ffffffffffffffff821117156146aa576146a96149ad565b5b8060405250919050565b600067ffffffffffffffff8211156146cf576146ce6149ad565b5b602082029050602081019050919050565b600067ffffffffffffffff8211156146fb576146fa6149ad565b5b601f19601f8301169050602081019050919050565b6000819050602082019050919050565b600081519050919050565b600081519050919050565b600081519050919050565b6000602082019050919050565b600082825260208201905092915050565b600082825260208201905092915050565b600081905092915050565b600082825260208201905092915050565b6000614797826148f1565b91506147a2836148f1565b9250827fffffffffffffffffffffffffffffffffffffffffffffffffffffffffffffffff038211156147d7576147d661494f565b5b828201905092915050565b60006147ed826148f1565b91506147f8836148f1565b9250826148085761480761497e565b5b828204905092915050565b600061481e826148f1565b9150614829836148f1565b9250817fffffffffffffffffffffffffffffffffffffffffffffffffffffffffffffffff04831182151516156148625761486161494f565b5b828202905092915050565b6000614878826148f1565b9150614883836148f1565b9250828210156148965761489561494f565b5b828203905092915050565b60006148ac826148d1565b9050919050565b60008115159050919050565b60006148ca826148a1565b9050919050565b600073ffffffffffffffffffffffffffffffffffffffff82169050919050565b6000819050919050565b6000614906826148f1565b9050919050565b82818337600083830152505050565b60005b8381101561493a57808201518184015260208101905061491f565b83811115614949576000848401525b50505050565b7f4e487b7100000000000000000000000000000000000000000000000000000000600052601160045260246000fd5b7f4e487b7100000000000000000000000000000000000000000000000000000000600052601260045260246000fd5b7f4e487b7100000000000000000000000000000000000000000000000000000000600052604160045260246000fd5b6000601f19601f8301169050919050565b6149f6816148a1565b8114614a0157600080fd5b50565b614a0d816148b3565b8114614a1857600080fd5b50565b614a24816148bf565b8114614a2f57600080fd5b50565b614a3b816148f1565b8114614a4657600080fd5b5056fe537472617465677920426173697320424143202f20444149204c6971756469747920506f6f6ca2646970667358221220ef2357ea2d4ed668ba055a6f326dbf7e71b1af603c51dd6013bd0dce42d2e97764736f6c63430008000033",
  "immutableReferences": {},
  "source": "// SPDX-License-Identifier: MIT\npragma solidity <0.9.0;\n\nimport \"../StrategyBasisFarmBase.sol\";\n\ncontract StrategyBasisBacDaiLp is StrategyBasisFarmBase {\n\n    // Token Address\n    address public basRewards = 0x067d4D3CE63450E74F880F86b5b52ea3edF9Db0f;\n    address public UniswapBacDaiLp = 0xd4405F0704621DBe9d4dEA60E128E0C3b26bddbD;\n    address public bac = 0x3449FC1Cd036255BA1EB19d65fF4BA2b8903A69a;\n\n    constructor(\n        address goverance_,\n        address strategist_,\n        address controller_,\n        address timelock_\n    )\n    StrategyBasisFarmBase(\n        bac,\n        basRewards,\n        UniswapBacDaiLp,\n        goverance_,\n        strategist_,\n        controller_,\n        timelock_\n    ) {\n\n    }\n\n    // View\n    function getName() external override pure returns(string memory) {\n        return \"Strategy Basis BAC / DAI Liqudity Pool\";\n    }  \n\n}",
  "sourcePath": "/Users/dennismacpro/Projects/Defi/ascension-protocol/pickle-vault-lesson/contracts/contracts/strategies/basis/StrategyBasisBacDaiLp.sol",
  "compiler": {
    "name": "solc",
    "version": "0.8.0+commit.c7dfd78e.Emscripten.clang"
  },
  "schemaVersion": "3.3.4",
  "updatedAt": "2021-02-28T14:18:57.596Z",
  "devdoc": {
    "kind": "dev",
    "methods": {},
    "version": 1
  },
  "userdoc": {
    "kind": "user",
    "methods": {},
    "version": 1
  }
}