{
  "contractName": "Timelock",
  "abi": [
    {
      "inputs": [
        {
          "internalType": "address",
          "name": "admin_",
          "type": "address"
        },
        {
          "internalType": "uint256",
          "name": "delay_",
          "type": "uint256"
        }
      ],
      "stateMutability": "nonpayable",
      "type": "constructor"
    },
    {
      "anonymous": false,
      "inputs": [
        {
          "indexed": true,
          "internalType": "bytes32",
          "name": "txHash",
          "type": "bytes32"
        },
        {
          "indexed": true,
          "internalType": "address",
          "name": "target",
          "type": "address"
        },
        {
          "indexed": false,
          "internalType": "uint256",
          "name": "value",
          "type": "uint256"
        },
        {
          "indexed": false,
          "internalType": "string",
          "name": "signature",
          "type": "string"
        },
        {
          "indexed": false,
          "internalType": "bytes",
          "name": "data",
          "type": "bytes"
        },
        {
          "indexed": false,
          "internalType": "uint256",
          "name": "eta",
          "type": "uint256"
        }
      ],
      "name": "CancelTransaction",
      "type": "event"
    },
    {
      "anonymous": false,
      "inputs": [
        {
          "indexed": true,
          "internalType": "bytes32",
          "name": "txHash",
          "type": "bytes32"
        },
        {
          "indexed": true,
          "internalType": "address",
          "name": "target",
          "type": "address"
        },
        {
          "indexed": false,
          "internalType": "uint256",
          "name": "value",
          "type": "uint256"
        },
        {
          "indexed": false,
          "internalType": "string",
          "name": "signature",
          "type": "string"
        },
        {
          "indexed": false,
          "internalType": "bytes",
          "name": "data",
          "type": "bytes"
        },
        {
          "indexed": false,
          "internalType": "uint256",
          "name": "eta",
          "type": "uint256"
        }
      ],
      "name": "ExecuteTransaction",
      "type": "event"
    },
    {
      "anonymous": false,
      "inputs": [
        {
          "indexed": true,
          "internalType": "address",
          "name": "newAdmin",
          "type": "address"
        }
      ],
      "name": "NewAdmin",
      "type": "event"
    },
    {
      "anonymous": false,
      "inputs": [
        {
          "indexed": true,
          "internalType": "uint256",
          "name": "newDelay",
          "type": "uint256"
        }
      ],
      "name": "NewDelay",
      "type": "event"
    },
    {
      "anonymous": false,
      "inputs": [
        {
          "indexed": true,
          "internalType": "address",
          "name": "newPendingAdmin",
          "type": "address"
        }
      ],
      "name": "NewPendingAdmin",
      "type": "event"
    },
    {
      "anonymous": false,
      "inputs": [
        {
          "indexed": true,
          "internalType": "bytes32",
          "name": "txHash",
          "type": "bytes32"
        },
        {
          "indexed": true,
          "internalType": "address",
          "name": "target",
          "type": "address"
        },
        {
          "indexed": false,
          "internalType": "uint256",
          "name": "value",
          "type": "uint256"
        },
        {
          "indexed": false,
          "internalType": "string",
          "name": "signature",
          "type": "string"
        },
        {
          "indexed": false,
          "internalType": "bytes",
          "name": "data",
          "type": "bytes"
        },
        {
          "indexed": false,
          "internalType": "uint256",
          "name": "eta",
          "type": "uint256"
        }
      ],
      "name": "QueueTransaction",
      "type": "event"
    },
    {
      "inputs": [],
      "name": "GRACE_PERIOD",
      "outputs": [
        {
          "internalType": "uint256",
          "name": "",
          "type": "uint256"
        }
      ],
      "stateMutability": "view",
      "type": "function"
    },
    {
      "inputs": [],
      "name": "MAXIMUM_DELAY",
      "outputs": [
        {
          "internalType": "uint256",
          "name": "",
          "type": "uint256"
        }
      ],
      "stateMutability": "view",
      "type": "function"
    },
    {
      "inputs": [],
      "name": "MINIMUM_DELAY",
      "outputs": [
        {
          "internalType": "uint256",
          "name": "",
          "type": "uint256"
        }
      ],
      "stateMutability": "view",
      "type": "function"
    },
    {
      "inputs": [],
      "name": "admin",
      "outputs": [
        {
          "internalType": "address",
          "name": "",
          "type": "address"
        }
      ],
      "stateMutability": "view",
      "type": "function"
    },
    {
      "inputs": [],
      "name": "admin_initialized",
      "outputs": [
        {
          "internalType": "bool",
          "name": "",
          "type": "bool"
        }
      ],
      "stateMutability": "view",
      "type": "function"
    },
    {
      "inputs": [],
      "name": "delay",
      "outputs": [
        {
          "internalType": "uint256",
          "name": "",
          "type": "uint256"
        }
      ],
      "stateMutability": "view",
      "type": "function"
    },
    {
      "inputs": [],
      "name": "pendingAdmin",
      "outputs": [
        {
          "internalType": "address",
          "name": "",
          "type": "address"
        }
      ],
      "stateMutability": "view",
      "type": "function"
    },
    {
      "inputs": [
        {
          "internalType": "bytes32",
          "name": "",
          "type": "bytes32"
        }
      ],
      "name": "queuedTransactions",
      "outputs": [
        {
          "internalType": "bool",
          "name": "",
          "type": "bool"
        }
      ],
      "stateMutability": "view",
      "type": "function"
    },
    {
      "stateMutability": "payable",
      "type": "receive"
    },
    {
      "inputs": [
        {
          "internalType": "uint256",
          "name": "delay_",
          "type": "uint256"
        }
      ],
      "name": "setDelay",
      "outputs": [],
      "stateMutability": "nonpayable",
      "type": "function"
    },
    {
      "inputs": [],
      "name": "acceptAdmin",
      "outputs": [],
      "stateMutability": "nonpayable",
      "type": "function"
    },
    {
      "inputs": [
        {
          "internalType": "address",
          "name": "pendingAdmin_",
          "type": "address"
        }
      ],
      "name": "setPendingAdmin",
      "outputs": [],
      "stateMutability": "nonpayable",
      "type": "function"
    },
    {
      "inputs": [
        {
          "internalType": "address",
          "name": "target",
          "type": "address"
        },
        {
          "internalType": "uint256",
          "name": "value",
          "type": "uint256"
        },
        {
          "internalType": "string",
          "name": "signature",
          "type": "string"
        },
        {
          "internalType": "bytes",
          "name": "data",
          "type": "bytes"
        },
        {
          "internalType": "uint256",
          "name": "eta",
          "type": "uint256"
        }
      ],
      "name": "queueTransaction",
      "outputs": [
        {
          "internalType": "bytes32",
          "name": "",
          "type": "bytes32"
        }
      ],
      "stateMutability": "nonpayable",
      "type": "function"
    },
    {
      "inputs": [
        {
          "internalType": "address",
          "name": "target",
          "type": "address"
        },
        {
          "internalType": "uint256",
          "name": "value",
          "type": "uint256"
        },
        {
          "internalType": "string",
          "name": "signature",
          "type": "string"
        },
        {
          "internalType": "bytes",
          "name": "data",
          "type": "bytes"
        },
        {
          "internalType": "uint256",
          "name": "eta",
          "type": "uint256"
        }
      ],
      "name": "cancelTransaction",
      "outputs": [],
      "stateMutability": "nonpayable",
      "type": "function"
    },
    {
      "inputs": [
        {
          "internalType": "address",
          "name": "target",
          "type": "address"
        },
        {
          "internalType": "uint256",
          "name": "value",
          "type": "uint256"
        },
        {
          "internalType": "string",
          "name": "signature",
          "type": "string"
        },
        {
          "internalType": "bytes",
          "name": "data",
          "type": "bytes"
        },
        {
          "internalType": "uint256",
          "name": "eta",
          "type": "uint256"
        }
      ],
      "name": "executeTransaction",
      "outputs": [
        {
          "internalType": "bytes",
          "name": "",
          "type": "bytes"
        }
      ],
      "stateMutability": "payable",
      "type": "function"
    }
  ],
  "bytecode": "0x60806040523480156200001157600080fd5b506040516200218338038062002183833981810160405281019062000037919062000161565b6202a30081101562000080576040517f08c379a0000000000000000000000000000000000000000000000000000000008152600401620000779062000294565b60405180910390fd5b62278d00811115620000c9576040517f08c379a0000000000000000000000000000000000000000000000000000000008152600401620000c09062000272565b60405180910390fd5b816000806101000a81548173ffffffffffffffffffffffffffffffffffffffff021916908373ffffffffffffffffffffffffffffffffffffffff160217905550806002819055506000600360006101000a81548160ff021916908315150217905550505062000339565b600081519050620001448162000305565b92915050565b6000815190506200015b816200031f565b92915050565b600080604083850312156200017557600080fd5b6000620001858582860162000133565b925050602062000198858286016200014a565b9150509250929050565b6000620001b1603b83620002b6565b91507f54696d656c6f636b3a3a636f6e7374727563746f723a2044656c6179206d757360008301527f74206e6f7420657863656564206d6178696d756d2064656c61792e00000000006020830152604082019050919050565b600062000219603783620002b6565b91507f54696d656c6f636b3a3a636f6e7374727563746f723a2044656c6179206d757360008301527f7420657863656564206d696e696d756d2064656c61792e0000000000000000006020830152604082019050919050565b600060208201905081810360008301526200028d81620001a2565b9050919050565b60006020820190508181036000830152620002af816200020a565b9050919050565b600082825260208201905092915050565b6000620002d482620002db565b9050919050565b600073ffffffffffffffffffffffffffffffffffffffff82169050919050565b6000819050919050565b6200031081620002c7565b81146200031c57600080fd5b50565b6200032a81620002fb565b81146200033657600080fd5b50565b611e3a80620003496000396000f3fe6080604052600436106100e15760003560e01c80636fc1f57e1161007f578063c1a287e211610059578063c1a287e21461029a578063e177246e146102c5578063f2b06537146102ee578063f851a4401461032b576100e8565b80636fc1f57e146102195780637d645fab14610244578063b1b43ae51461026f576100e8565b80633a66f901116100bb5780633a66f9011461015f5780634dd18bf51461019c578063591fcdfe146101c55780636a42b8f8146101ee576100e8565b80630825f38f146100ed5780630e18b6811461011d5780632678224714610134576100e8565b366100e857005b600080fd5b6101076004803603810190610102919061104c565b610356565b604051610114919061190c565b60405180910390f35b34801561012957600080fd5b506101326106a3565b005b34801561014057600080fd5b5061014961081a565b604051610156919061185a565b60405180910390f35b34801561016b57600080fd5b506101866004803603810190610181919061104c565b610840565b60405161019391906118f1565b60405180910390f35b3480156101a857600080fd5b506101c360048036038101906101be9190611023565b6109f0565b005b3480156101d157600080fd5b506101ec60048036038101906101e7919061104c565b610bcb565b005b3480156101fa57600080fd5b50610203610d15565b6040516102109190611aee565b60405180910390f35b34801561022557600080fd5b5061022e610d1b565b60405161023b91906118d6565b60405180910390f35b34801561025057600080fd5b50610259610d2e565b6040516102669190611aee565b60405180910390f35b34801561027b57600080fd5b50610284610d35565b6040516102919190611aee565b60405180910390f35b3480156102a657600080fd5b506102af610d3c565b6040516102bc9190611aee565b60405180910390f35b3480156102d157600080fd5b506102ec60048036038101906102e7919061111c565b610d43565b005b3480156102fa57600080fd5b50610315600480360381019061031091906110f3565b610e76565b60405161032291906118d6565b60405180910390f35b34801561033757600080fd5b50610340610e96565b60405161034d919061185a565b60405180910390f35b606060008054906101000a900473ffffffffffffffffffffffffffffffffffffffff1673ffffffffffffffffffffffffffffffffffffffff163373ffffffffffffffffffffffffffffffffffffffff16146103e6576040517f08c379a00000000000000000000000000000000000000000000000000000000081526004016103dd9061192e565b60405180910390fd5b60008686868686604051602001610401959493929190611875565b6040516020818303038152906040528051906020012090506004600082815260200190815260200160002060009054906101000a900460ff16610479576040517f08c379a000000000000000000000000000000000000000000000000000000000815260040161047090611a0e565b60405180910390fd5b82610482610eba565b10156104c3576040517f08c379a00000000000000000000000000000000000000000000000000000000081526004016104ba9061198e565b60405180910390fd5b6104d96212750084610ec290919063ffffffff16565b6104e1610eba565b1115610522576040517f08c379a00000000000000000000000000000000000000000000000000000000081526004016105199061196e565b60405180910390fd5b60006004600083815260200190815260200160002060006101000a81548160ff02191690831515021790555060606000865114156105625784905061058e565b85805190602001208560405160200161057c92919061181b565b60405160208183030381529060405290505b6000808973ffffffffffffffffffffffffffffffffffffffff1689846040516105b79190611843565b60006040518083038185875af1925050503d80600081146105f4576040519150601f19603f3d011682016040523d82523d6000602084013e6105f9565b606091505b50915091508161063e576040517f08c379a000000000000000000000000000000000000000000000000000000000815260040161063590611a8e565b60405180910390fd5b8973ffffffffffffffffffffffffffffffffffffffff16847fa560e3198060a2f10670c1ec5b403077ea6ae93ca8de1c32b451dc1a943cd6e78b8b8b8b60405161068b9493929190611b09565b60405180910390a38094505050505095945050505050565b600160009054906101000a900473ffffffffffffffffffffffffffffffffffffffff1673ffffffffffffffffffffffffffffffffffffffff163373ffffffffffffffffffffffffffffffffffffffff1614610733576040517f08c379a000000000000000000000000000000000000000000000000000000000815260040161072a90611a2e565b60405180910390fd5b336000806101000a81548173ffffffffffffffffffffffffffffffffffffffff021916908373ffffffffffffffffffffffffffffffffffffffff1602179055506000600160006101000a81548173ffffffffffffffffffffffffffffffffffffffff021916908373ffffffffffffffffffffffffffffffffffffffff16021790555060008054906101000a900473ffffffffffffffffffffffffffffffffffffffff1673ffffffffffffffffffffffffffffffffffffffff167f71614071b88dee5e0b2ae578a9dd7b2ebbe9ae832ba419dc0242cd065a290b6c60405160405180910390a2565b600160009054906101000a900473ffffffffffffffffffffffffffffffffffffffff1681565b60008060009054906101000a900473ffffffffffffffffffffffffffffffffffffffff1673ffffffffffffffffffffffffffffffffffffffff163373ffffffffffffffffffffffffffffffffffffffff16146108d1576040517f08c379a00000000000000000000000000000000000000000000000000000000081526004016108c890611a6e565b60405180910390fd5b6108ed6002546108df610eba565b610ec290919063ffffffff16565b82101561092f576040517f08c379a000000000000000000000000000000000000000000000000000000000815260040161092690611aae565b60405180910390fd5b6000868686868660405160200161094a959493929190611875565b60405160208183030381529060405280519060200120905060016004600083815260200190815260200160002060006101000a81548160ff0219169083151502179055508673ffffffffffffffffffffffffffffffffffffffff16817f76e2796dc3a81d57b0e8504b647febcbeeb5f4af818e164f11eef8131a6a763f888888886040516109db9493929190611b09565b60405180910390a38091505095945050505050565b600360009054906101000a900460ff1615610a78573073ffffffffffffffffffffffffffffffffffffffff163373ffffffffffffffffffffffffffffffffffffffff1614610a73576040517f08c379a0000000000000000000000000000000000000000000000000000000008152600401610a6a90611a4e565b60405180910390fd5b610b22565b60008054906101000a900473ffffffffffffffffffffffffffffffffffffffff1673ffffffffffffffffffffffffffffffffffffffff163373ffffffffffffffffffffffffffffffffffffffff1614610b06576040517f08c379a0000000000000000000000000000000000000000000000000000000008152600401610afd906119ce565b60405180910390fd5b6001600360006101000a81548160ff0219169083151502179055505b80600160006101000a81548173ffffffffffffffffffffffffffffffffffffffff021916908373ffffffffffffffffffffffffffffffffffffffff160217905550600160009054906101000a900473ffffffffffffffffffffffffffffffffffffffff1673ffffffffffffffffffffffffffffffffffffffff167f69d78e38a01985fbb1462961809b4b2d65531bc93b2b94037f3334b82ca4a75660405160405180910390a250565b60008054906101000a900473ffffffffffffffffffffffffffffffffffffffff1673ffffffffffffffffffffffffffffffffffffffff163373ffffffffffffffffffffffffffffffffffffffff1614610c59576040517f08c379a0000000000000000000000000000000000000000000000000000000008152600401610c509061194e565b60405180910390fd5b60008585858585604051602001610c74959493929190611875565b60405160208183030381529060405280519060200120905060006004600083815260200190815260200160002060006101000a81548160ff0219169083151502179055508573ffffffffffffffffffffffffffffffffffffffff16817f2fffc091a501fd91bfbff27141450d3acb40fb8e6d8382b243ec7a812a3aaf8787878787604051610d059493929190611b09565b60405180910390a3505050505050565b60025481565b600360009054906101000a900460ff1681565b62278d0081565b6202a30081565b6212750081565b3073ffffffffffffffffffffffffffffffffffffffff163373ffffffffffffffffffffffffffffffffffffffff1614610db1576040517f08c379a0000000000000000000000000000000000000000000000000000000008152600401610da890611ace565b60405180910390fd5b6202a300811015610df7576040517f08c379a0000000000000000000000000000000000000000000000000000000008152600401610dee906119ae565b60405180910390fd5b62278d00811115610e3d576040517f08c379a0000000000000000000000000000000000000000000000000000000008152600401610e34906119ee565b60405180910390fd5b806002819055506002547f948b1f6a42ee138b7e34058ba85a37f716d55ff25ff05a763f15bed6a04c8d2c60405160405180910390a250565b60046020528060005260406000206000915054906101000a900460ff1681565b60008054906101000a900473ffffffffffffffffffffffffffffffffffffffff1681565b600042905090565b6000808284610ed19190611c30565b905083811015610f0a577f4e487b7100000000000000000000000000000000000000000000000000000000600052600160045260246000fd5b8091505092915050565b6000610f27610f2284611b8d565b611b5c565b905082815260208101848484011115610f3f57600080fd5b610f4a848285611d04565b509392505050565b6000610f65610f6084611bbd565b611b5c565b905082815260208101848484011115610f7d57600080fd5b610f88848285611d04565b509392505050565b600081359050610f9f81611dbf565b92915050565b600081359050610fb481611dd6565b92915050565b600082601f830112610fcb57600080fd5b8135610fdb848260208601610f14565b91505092915050565b600082601f830112610ff557600080fd5b8135611005848260208601610f52565b91505092915050565b60008135905061101d81611ded565b92915050565b60006020828403121561103557600080fd5b600061104384828501610f90565b91505092915050565b600080600080600060a0868803121561106457600080fd5b600061107288828901610f90565b95505060206110838882890161100e565b945050604086013567ffffffffffffffff8111156110a057600080fd5b6110ac88828901610fe4565b935050606086013567ffffffffffffffff8111156110c957600080fd5b6110d588828901610fba565b92505060806110e68882890161100e565b9150509295509295909350565b60006020828403121561110557600080fd5b600061111384828501610fa5565b91505092915050565b60006020828403121561112e57600080fd5b600061113c8482850161100e565b91505092915050565b61114e81611c86565b82525050565b61115d81611c98565b82525050565b61116c81611ca4565b82525050565b61118361117e82611cae565b611d46565b82525050565b600061119482611bed565b61119e8185611c03565b93506111ae818560208601611d13565b6111b781611dae565b840191505092915050565b60006111cd82611bed565b6111d78185611c14565b93506111e7818560208601611d13565b80840191505092915050565b60006111fe82611bf8565b6112088185611c1f565b9350611218818560208601611d13565b61122181611dae565b840191505092915050565b6000611239603883611c1f565b91507f54696d656c6f636b3a3a657865637574655472616e73616374696f6e3a20436160008301527f6c6c206d75737420636f6d652066726f6d2061646d696e2e00000000000000006020830152604082019050919050565b600061129f603783611c1f565b91507f54696d656c6f636b3a3a63616e63656c5472616e73616374696f6e3a2043616c60008301527f6c206d75737420636f6d652066726f6d2061646d696e2e0000000000000000006020830152604082019050919050565b6000611305603383611c1f565b91507f54696d656c6f636b3a3a657865637574655472616e73616374696f6e3a20547260008301527f616e73616374696f6e206973207374616c652e000000000000000000000000006020830152604082019050919050565b600061136b604583611c1f565b91507f54696d656c6f636b3a3a657865637574655472616e73616374696f6e3a20547260008301527f616e73616374696f6e206861736e2774207375727061737365642074696d652060208301527f6c6f636b2e0000000000000000000000000000000000000000000000000000006040830152606082019050919050565b60006113f7603483611c1f565b91507f54696d656c6f636b3a3a73657444656c61793a2044656c6179206d757374206560008301527f7863656564206d696e696d756d2064656c61792e0000000000000000000000006020830152604082019050919050565b600061145d603b83611c1f565b91507f54696d656c6f636b3a3a73657450656e64696e6741646d696e3a20466972737460008301527f2063616c6c206d75737420636f6d652066726f6d2061646d696e2e00000000006020830152604082019050919050565b60006114c3603883611c1f565b91507f54696d656c6f636b3a3a73657444656c61793a2044656c6179206d757374206e60008301527f6f7420657863656564206d6178696d756d2064656c61792e00000000000000006020830152604082019050919050565b6000611529603d83611c1f565b91507f54696d656c6f636b3a3a657865637574655472616e73616374696f6e3a20547260008301527f616e73616374696f6e206861736e2774206265656e207175657565642e0000006020830152604082019050919050565b600061158f603883611c1f565b91507f54696d656c6f636b3a3a61636365707441646d696e3a2043616c6c206d75737460008301527f20636f6d652066726f6d2070656e64696e6741646d696e2e00000000000000006020830152604082019050919050565b60006115f5603883611c1f565b91507f54696d656c6f636b3a3a73657450656e64696e6741646d696e3a2043616c6c2060008301527f6d75737420636f6d652066726f6d2054696d656c6f636b2e00000000000000006020830152604082019050919050565b600061165b603683611c1f565b91507f54696d656c6f636b3a3a71756575655472616e73616374696f6e3a2043616c6c60008301527f206d75737420636f6d652066726f6d2061646d696e2e000000000000000000006020830152604082019050919050565b60006116c1603d83611c1f565b91507f54696d656c6f636b3a3a657865637574655472616e73616374696f6e3a20547260008301527f616e73616374696f6e20657865637574696f6e2072657665727465642e0000006020830152604082019050919050565b6000611727604983611c1f565b91507f54696d656c6f636b3a3a71756575655472616e73616374696f6e3a204573746960008301527f6d6174656420657865637574696f6e20626c6f636b206d75737420736174697360208301527f66792064656c61792e00000000000000000000000000000000000000000000006040830152606082019050919050565b60006117b3603183611c1f565b91507f54696d656c6f636b3a3a73657444656c61793a2043616c6c206d75737420636f60008301527f6d652066726f6d2054696d656c6f636b2e0000000000000000000000000000006020830152604082019050919050565b61181581611cfa565b82525050565b60006118278285611172565b60048201915061183782846111c2565b91508190509392505050565b600061184f82846111c2565b915081905092915050565b600060208201905061186f6000830184611145565b92915050565b600060a08201905061188a6000830188611145565b611897602083018761180c565b81810360408301526118a981866111f3565b905081810360608301526118bd8185611189565b90506118cc608083018461180c565b9695505050505050565b60006020820190506118eb6000830184611154565b92915050565b60006020820190506119066000830184611163565b92915050565b600060208201905081810360008301526119268184611189565b905092915050565b600060208201905081810360008301526119478161122c565b9050919050565b6000602082019050818103600083015261196781611292565b9050919050565b60006020820190508181036000830152611987816112f8565b9050919050565b600060208201905081810360008301526119a78161135e565b9050919050565b600060208201905081810360008301526119c7816113ea565b9050919050565b600060208201905081810360008301526119e781611450565b9050919050565b60006020820190508181036000830152611a07816114b6565b9050919050565b60006020820190508181036000830152611a278161151c565b9050919050565b60006020820190508181036000830152611a4781611582565b9050919050565b60006020820190508181036000830152611a67816115e8565b9050919050565b60006020820190508181036000830152611a878161164e565b9050919050565b60006020820190508181036000830152611aa7816116b4565b9050919050565b60006020820190508181036000830152611ac78161171a565b9050919050565b60006020820190508181036000830152611ae7816117a6565b9050919050565b6000602082019050611b03600083018461180c565b92915050565b6000608082019050611b1e600083018761180c565b8181036020830152611b3081866111f3565b90508181036040830152611b448185611189565b9050611b53606083018461180c565b95945050505050565b6000604051905081810181811067ffffffffffffffff82111715611b8357611b82611d7f565b5b8060405250919050565b600067ffffffffffffffff821115611ba857611ba7611d7f565b5b601f19601f8301169050602081019050919050565b600067ffffffffffffffff821115611bd857611bd7611d7f565b5b601f19601f8301169050602081019050919050565b600081519050919050565b600081519050919050565b600082825260208201905092915050565b600081905092915050565b600082825260208201905092915050565b6000611c3b82611cfa565b9150611c4683611cfa565b9250827fffffffffffffffffffffffffffffffffffffffffffffffffffffffffffffffff03821115611c7b57611c7a611d50565b5b828201905092915050565b6000611c9182611cda565b9050919050565b60008115159050919050565b6000819050919050565b60007fffffffff0000000000000000000000000000000000000000000000000000000082169050919050565b600073ffffffffffffffffffffffffffffffffffffffff82169050919050565b6000819050919050565b82818337600083830152505050565b60005b83811015611d31578082015181840152602081019050611d16565b83811115611d40576000848401525b50505050565b6000819050919050565b7f4e487b7100000000000000000000000000000000000000000000000000000000600052601160045260246000fd5b7f4e487b7100000000000000000000000000000000000000000000000000000000600052604160045260246000fd5b6000601f19601f8301169050919050565b611dc881611c86565b8114611dd357600080fd5b50565b611ddf81611ca4565b8114611dea57600080fd5b50565b611df681611cfa565b8114611e0157600080fd5b5056fea2646970667358221220048fb0291c58010d03846175b1549d8560f0dd9029be092066dcb2e36952174364736f6c63430008000033",
  "immutableReferences": {},
  "source": "// SPDX-License-Identifier: MIT\n\npragma solidity <0.9.0;\n\nimport \"../utils/safemath.sol\";\n\ncontract Timelock {\n    using SafeMath for uint;\n\n    event NewAdmin(address indexed newAdmin);\n    event NewPendingAdmin(address indexed newPendingAdmin);\n    event NewDelay(uint indexed newDelay);\n    event CancelTransaction(bytes32 indexed txHash, address indexed target, uint value, string signature,  bytes data, uint eta);\n    event ExecuteTransaction(bytes32 indexed txHash, address indexed target, uint value, string signature,  bytes data, uint eta);\n    event QueueTransaction(bytes32 indexed txHash, address indexed target, uint value, string signature, bytes data, uint eta);\n\n    uint public constant GRACE_PERIOD = 14 days;\n    uint public constant MINIMUM_DELAY = 2 days;\n    uint public constant MAXIMUM_DELAY = 30 days;\n\n    address public admin;\n    address public pendingAdmin;\n    uint public delay;\n    bool public admin_initialized;\n\n    mapping (bytes32 => bool) public queuedTransactions;\n\n\n    constructor(address admin_, uint delay_) public {\n        require(delay_ >= MINIMUM_DELAY, \"Timelock::constructor: Delay must exceed minimum delay.\");\n        require(delay_ <= MAXIMUM_DELAY, \"Timelock::constructor: Delay must not exceed maximum delay.\");\n\n        admin = admin_;\n        delay = delay_;\n        admin_initialized = false;\n    }\n\n    // XXX: function() external payable { }\n    receive() external payable { }\n\n    function setDelay(uint delay_) public {\n        require(msg.sender == address(this), \"Timelock::setDelay: Call must come from Timelock.\");\n        require(delay_ >= MINIMUM_DELAY, \"Timelock::setDelay: Delay must exceed minimum delay.\");\n        require(delay_ <= MAXIMUM_DELAY, \"Timelock::setDelay: Delay must not exceed maximum delay.\");\n        delay = delay_;\n\n        emit NewDelay(delay);\n    }\n\n    function acceptAdmin() public {\n        require(msg.sender == pendingAdmin, \"Timelock::acceptAdmin: Call must come from pendingAdmin.\");\n        admin = msg.sender;\n        pendingAdmin = address(0);\n\n        emit NewAdmin(admin);\n    }\n\n    function setPendingAdmin(address pendingAdmin_) public {\n        // allows one time setting of admin for deployment purposes\n        if (admin_initialized) {\n            require(msg.sender == address(this), \"Timelock::setPendingAdmin: Call must come from Timelock.\");\n        } else {\n            require(msg.sender == admin, \"Timelock::setPendingAdmin: First call must come from admin.\");\n            admin_initialized = true;\n        }\n        pendingAdmin = pendingAdmin_;\n\n        emit NewPendingAdmin(pendingAdmin);\n    }\n\n    function queueTransaction(address target, uint value, string memory signature, bytes memory data, uint eta) public returns (bytes32) {\n        require(msg.sender == admin, \"Timelock::queueTransaction: Call must come from admin.\");\n        require(eta >= getBlockTimestamp().add(delay), \"Timelock::queueTransaction: Estimated execution block must satisfy delay.\");\n\n        bytes32 txHash = keccak256(abi.encode(target, value, signature, data, eta));\n        queuedTransactions[txHash] = true;\n\n        emit QueueTransaction(txHash, target, value, signature, data, eta);\n        return txHash;\n    }\n\n    function cancelTransaction(address target, uint value, string memory signature, bytes memory data, uint eta) public {\n        require(msg.sender == admin, \"Timelock::cancelTransaction: Call must come from admin.\");\n\n        bytes32 txHash = keccak256(abi.encode(target, value, signature, data, eta));\n        queuedTransactions[txHash] = false;\n\n        emit CancelTransaction(txHash, target, value, signature, data, eta);\n    }\n\n    function executeTransaction(address target, uint value, string memory signature, bytes memory data, uint eta) public payable returns (bytes memory) {\n        require(msg.sender == admin, \"Timelock::executeTransaction: Call must come from admin.\");\n\n        bytes32 txHash = keccak256(abi.encode(target, value, signature, data, eta));\n        require(queuedTransactions[txHash], \"Timelock::executeTransaction: Transaction hasn't been queued.\");\n        require(getBlockTimestamp() >= eta, \"Timelock::executeTransaction: Transaction hasn't surpassed time lock.\");\n        require(getBlockTimestamp() <= eta.add(GRACE_PERIOD), \"Timelock::executeTransaction: Transaction is stale.\");\n\n        queuedTransactions[txHash] = false;\n\n        bytes memory callData;\n\n        if (bytes(signature).length == 0) {\n            callData = data;\n        } else {\n            callData = abi.encodePacked(bytes4(keccak256(bytes(signature))), data);\n        }\n\n        // solium-disable-next-line security/no-call-value\n        (bool success, bytes memory returnData) = target.call{value: value}(callData);\n        require(success, \"Timelock::executeTransaction: Transaction execution reverted.\");\n\n        emit ExecuteTransaction(txHash, target, value, signature, data, eta);\n\n        return returnData;\n    }\n\n    function getBlockTimestamp() internal view returns (uint) {\n        // solium-disable-next-line security/no-block-members\n        return block.timestamp;\n    }\n}",
  "sourcePath": "/Users/dennismacpro/Projects/Defi/ascension-protocol/pickle-vault-lesson/contracts/contracts/governance/timelock.sol",
  "compiler": {
    "name": "solc",
    "version": "0.8.0+commit.c7dfd78e.Emscripten.clang"
  },
  "schemaVersion": "3.3.4",
  "updatedAt": "2021-02-28T13:48:22.006Z",
  "devdoc": {
    "kind": "dev",
    "methods": {},
    "version": 1
  },
  "userdoc": {
    "kind": "user",
    "methods": {},
    "version": 1
  }
}