{
  "contractName": "ERC721Pausable",
  "abi": [
    {
      "anonymous": false,
      "inputs": [
        {
          "indexed": true,
          "internalType": "address",
          "name": "owner",
          "type": "address"
        },
        {
          "indexed": true,
          "internalType": "address",
          "name": "approved",
          "type": "address"
        },
        {
          "indexed": true,
          "internalType": "uint256",
          "name": "tokenId",
          "type": "uint256"
        }
      ],
      "name": "Approval",
      "type": "event"
    },
    {
      "anonymous": false,
      "inputs": [
        {
          "indexed": true,
          "internalType": "address",
          "name": "owner",
          "type": "address"
        },
        {
          "indexed": true,
          "internalType": "address",
          "name": "operator",
          "type": "address"
        },
        {
          "indexed": false,
          "internalType": "bool",
          "name": "approved",
          "type": "bool"
        }
      ],
      "name": "ApprovalForAll",
      "type": "event"
    },
    {
      "anonymous": false,
      "inputs": [
        {
          "indexed": false,
          "internalType": "address",
          "name": "account",
          "type": "address"
        }
      ],
      "name": "Paused",
      "type": "event"
    },
    {
      "anonymous": false,
      "inputs": [
        {
          "indexed": true,
          "internalType": "address",
          "name": "from",
          "type": "address"
        },
        {
          "indexed": true,
          "internalType": "address",
          "name": "to",
          "type": "address"
        },
        {
          "indexed": true,
          "internalType": "uint256",
          "name": "tokenId",
          "type": "uint256"
        }
      ],
      "name": "Transfer",
      "type": "event"
    },
    {
      "anonymous": false,
      "inputs": [
        {
          "indexed": false,
          "internalType": "address",
          "name": "account",
          "type": "address"
        }
      ],
      "name": "Unpaused",
      "type": "event"
    },
    {
      "inputs": [
        {
          "internalType": "address",
          "name": "owner",
          "type": "address"
        }
      ],
      "name": "balanceOf",
      "outputs": [
        {
          "internalType": "uint256",
          "name": "",
          "type": "uint256"
        }
      ],
      "stateMutability": "view",
      "type": "function"
    },
    {
      "inputs": [
        {
          "internalType": "uint256",
          "name": "tokenId",
          "type": "uint256"
        }
      ],
      "name": "getApproved",
      "outputs": [
        {
          "internalType": "address",
          "name": "",
          "type": "address"
        }
      ],
      "stateMutability": "view",
      "type": "function"
    },
    {
      "inputs": [
        {
          "internalType": "address",
          "name": "owner",
          "type": "address"
        },
        {
          "internalType": "address",
          "name": "operator",
          "type": "address"
        }
      ],
      "name": "isApprovedForAll",
      "outputs": [
        {
          "internalType": "bool",
          "name": "",
          "type": "bool"
        }
      ],
      "stateMutability": "view",
      "type": "function"
    },
    {
      "inputs": [
        {
          "internalType": "uint256",
          "name": "tokenId",
          "type": "uint256"
        }
      ],
      "name": "ownerOf",
      "outputs": [
        {
          "internalType": "address",
          "name": "",
          "type": "address"
        }
      ],
      "stateMutability": "view",
      "type": "function"
    },
    {
      "inputs": [],
      "name": "paused",
      "outputs": [
        {
          "internalType": "bool",
          "name": "",
          "type": "bool"
        }
      ],
      "stateMutability": "view",
      "type": "function"
    },
    {
      "inputs": [
        {
          "internalType": "address",
          "name": "from",
          "type": "address"
        },
        {
          "internalType": "address",
          "name": "to",
          "type": "address"
        },
        {
          "internalType": "uint256",
          "name": "tokenId",
          "type": "uint256"
        }
      ],
      "name": "safeTransferFrom",
      "outputs": [],
      "stateMutability": "nonpayable",
      "type": "function"
    },
    {
      "inputs": [
        {
          "internalType": "address",
          "name": "from",
          "type": "address"
        },
        {
          "internalType": "address",
          "name": "to",
          "type": "address"
        },
        {
          "internalType": "uint256",
          "name": "tokenId",
          "type": "uint256"
        },
        {
          "internalType": "bytes",
          "name": "_data",
          "type": "bytes"
        }
      ],
      "name": "safeTransferFrom",
      "outputs": [],
      "stateMutability": "nonpayable",
      "type": "function"
    },
    {
      "inputs": [
        {
          "internalType": "bytes4",
          "name": "interfaceId",
          "type": "bytes4"
        }
      ],
      "name": "supportsInterface",
      "outputs": [
        {
          "internalType": "bool",
          "name": "",
          "type": "bool"
        }
      ],
      "stateMutability": "view",
      "type": "function"
    },
    {
      "inputs": [
        {
          "internalType": "address",
          "name": "from",
          "type": "address"
        },
        {
          "internalType": "address",
          "name": "to",
          "type": "address"
        },
        {
          "internalType": "uint256",
          "name": "tokenId",
          "type": "uint256"
        }
      ],
      "name": "transferFrom",
      "outputs": [],
      "stateMutability": "nonpayable",
      "type": "function"
    },
    {
      "inputs": [
        {
          "internalType": "address",
          "name": "to",
          "type": "address"
        },
        {
          "internalType": "uint256",
          "name": "tokenId",
          "type": "uint256"
        }
      ],
      "name": "approve",
      "outputs": [],
      "stateMutability": "nonpayable",
      "type": "function"
    },
    {
      "inputs": [
        {
          "internalType": "address",
          "name": "to",
          "type": "address"
        },
        {
          "internalType": "bool",
          "name": "approved",
          "type": "bool"
        }
      ],
      "name": "setApprovalForAll",
      "outputs": [],
      "stateMutability": "nonpayable",
      "type": "function"
    }
  ],
  "bytecode": "0x60806040523480156200001157600080fd5b506200002a6301ffc9a760e01b6200006360201b60201c565b620000426380ac58cd60e01b6200006360201b60201c565b6000600560006101000a81548160ff021916908315150217905550620001b0565b63ffffffff60e01b817bffffffffffffffffffffffffffffffffffffffffffffffffffffffff19161415620000cf576040517f08c379a0000000000000000000000000000000000000000000000000000000008152600401620000c6906200017d565b60405180910390fd5b6001600080837bffffffffffffffffffffffffffffffffffffffffffffffffffffffff19167bffffffffffffffffffffffffffffffffffffffffffffffffffffffff1916815260200190815260200160002060006101000a81548160ff02191690831515021790555050565b60006200014a601c836200019f565b91507f4552433136353a20696e76616c696420696e74657266616365206964000000006000830152602082019050919050565b6000602082019050818103600083015262000198816200013b565b9050919050565b600082825260208201905092915050565b611e4180620001c06000396000f3fe608060405234801561001057600080fd5b50600436106100a95760003560e01c80635c975abb116100715780635c975abb146101625780636352211e1461018057806370a08231146101b0578063a22cb465146101e0578063b88d4fde146101fc578063e985e9c514610218576100a9565b806301ffc9a7146100ae578063081812fc146100de578063095ea7b31461010e57806323b872dd1461012a57806342842e0e14610146575b600080fd5b6100c860048036038101906100c391906113fe565b610248565b6040516100d59190611a4a565b60405180910390f35b6100f860048036038101906100f39190611450565b6102af565b60405161010591906119e3565b60405180910390f35b610128600480360381019061012391906113c2565b610334565b005b610144600480360381019061013f91906112bc565b61038a565b005b610160600480360381019061015b91906112bc565b6103ea565b005b61016a61040a565b6040516101779190611a4a565b60405180910390f35b61019a60048036038101906101959190611450565b610421565b6040516101a791906119e3565b60405180910390f35b6101ca60048036038101906101c59190611257565b6104d3565b6040516101d79190611c05565b60405180910390f35b6101fa60048036038101906101f59190611386565b610592565b005b6102166004803603810190610211919061130b565b6105e8565b005b610232600480360381019061022d9190611280565b61064a565b60405161023f9190611a4a565b60405180910390f35b6000806000837bffffffffffffffffffffffffffffffffffffffffffffffffffffffff19167bffffffffffffffffffffffffffffffffffffffffffffffffffffffff1916815260200190815260200160002060009054906101000a900460ff169050919050565b60006102ba826106de565b6102f9576040517f08c379a00000000000000000000000000000000000000000000000000000000081526004016102f090611b85565b60405180910390fd5b6002600083815260200190815260200160002060009054906101000a900473ffffffffffffffffffffffffffffffffffffffff169050919050565b61033c61040a565b1561037c576040517f08c379a000000000000000000000000000000000000000000000000000000000815260040161037390611b05565b60405180910390fd5b6103868282610750565b5050565b61039b61039561090b565b82610913565b6103da576040517f08c379a00000000000000000000000000000000000000000000000000000000081526004016103d190611be5565b60405180910390fd5b6103e58383836109f1565b505050565b610405838383604051806020016040528060008152506105e8565b505050565b6000600560009054906101000a900460ff16905090565b6000806001600084815260200190815260200160002060009054906101000a900473ffffffffffffffffffffffffffffffffffffffff169050600073ffffffffffffffffffffffffffffffffffffffff168173ffffffffffffffffffffffffffffffffffffffff1614156104ca576040517f08c379a00000000000000000000000000000000000000000000000000000000081526004016104c190611b65565b60405180910390fd5b80915050919050565b60008073ffffffffffffffffffffffffffffffffffffffff168273ffffffffffffffffffffffffffffffffffffffff161415610544576040517f08c379a000000000000000000000000000000000000000000000000000000000815260040161053b90611b45565b60405180910390fd5b61058b600360008473ffffffffffffffffffffffffffffffffffffffff1673ffffffffffffffffffffffffffffffffffffffff168152602001908152602001600020610a49565b9050919050565b61059a61040a565b156105da576040517f08c379a00000000000000000000000000000000000000000000000000000000081526004016105d190611b05565b60405180910390fd5b6105e48282610a57565b5050565b6105f96105f361090b565b83610913565b610638576040517f08c379a000000000000000000000000000000000000000000000000000000000815260040161062f90611be5565b60405180910390fd5b61064484848484610bd8565b50505050565b6000600460008473ffffffffffffffffffffffffffffffffffffffff1673ffffffffffffffffffffffffffffffffffffffff16815260200190815260200160002060008373ffffffffffffffffffffffffffffffffffffffff1673ffffffffffffffffffffffffffffffffffffffff16815260200190815260200160002060009054906101000a900460ff16905092915050565b6000806001600084815260200190815260200160002060009054906101000a900473ffffffffffffffffffffffffffffffffffffffff169050600073ffffffffffffffffffffffffffffffffffffffff168173ffffffffffffffffffffffffffffffffffffffff161415915050919050565b600061075b82610421565b90508073ffffffffffffffffffffffffffffffffffffffff168373ffffffffffffffffffffffffffffffffffffffff1614156107cc576040517f08c379a00000000000000000000000000000000000000000000000000000000081526004016107c390611bc5565b60405180910390fd5b8073ffffffffffffffffffffffffffffffffffffffff166107eb61090b565b73ffffffffffffffffffffffffffffffffffffffff16148061081a57506108198161081461090b565b61064a565b5b610859576040517f08c379a000000000000000000000000000000000000000000000000000000000815260040161085090611b25565b60405180910390fd5b826002600084815260200190815260200160002060006101000a81548173ffffffffffffffffffffffffffffffffffffffff021916908373ffffffffffffffffffffffffffffffffffffffff160217905550818373ffffffffffffffffffffffffffffffffffffffff168273ffffffffffffffffffffffffffffffffffffffff167f8c5be1e5ebec7d5bd14f71427d1e84f3dd0314c0f7b2291e5b200ac8c7c3b92560405160405180910390a4505050565b600033905090565b600061091e826106de565b61095d576040517f08c379a000000000000000000000000000000000000000000000000000000000815260040161095490611ae5565b60405180910390fd5b600061096883610421565b90508073ffffffffffffffffffffffffffffffffffffffff168473ffffffffffffffffffffffffffffffffffffffff1614806109d757508373ffffffffffffffffffffffffffffffffffffffff166109bf846102af565b73ffffffffffffffffffffffffffffffffffffffff16145b806109e857506109e7818561064a565b5b91505092915050565b6109f961040a565b15610a39576040517f08c379a0000000000000000000000000000000000000000000000000000000008152600401610a3090611b05565b60405180910390fd5b610a44838383610c34565b505050565b600081600001549050919050565b610a5f61090b565b73ffffffffffffffffffffffffffffffffffffffff168273ffffffffffffffffffffffffffffffffffffffff161415610acd576040517f08c379a0000000000000000000000000000000000000000000000000000000008152600401610ac490611ac5565b60405180910390fd5b8060046000610ada61090b565b73ffffffffffffffffffffffffffffffffffffffff1673ffffffffffffffffffffffffffffffffffffffff16815260200190815260200160002060008473ffffffffffffffffffffffffffffffffffffffff1673ffffffffffffffffffffffffffffffffffffffff16815260200190815260200160002060006101000a81548160ff0219169083151502179055508173ffffffffffffffffffffffffffffffffffffffff16610b8761090b565b73ffffffffffffffffffffffffffffffffffffffff167f17307eab39ab6107e8899845ad3d59bd9653f200f220920489ca2b5937696c3183604051610bcc9190611a4a565b60405180910390a35050565b610be38484846109f1565b610bef84848484610e63565b610c2e576040517f08c379a0000000000000000000000000000000000000000000000000000000008152600401610c2590611a85565b60405180910390fd5b50505050565b8273ffffffffffffffffffffffffffffffffffffffff16610c5482610421565b73ffffffffffffffffffffffffffffffffffffffff1614610caa576040517f08c379a0000000000000000000000000000000000000000000000000000000008152600401610ca190611ba5565b60405180910390fd5b600073ffffffffffffffffffffffffffffffffffffffff168273ffffffffffffffffffffffffffffffffffffffff161415610d1a576040517f08c379a0000000000000000000000000000000000000000000000000000000008152600401610d1190611aa5565b60405180910390fd5b610d2381611043565b610d6a600360008573ffffffffffffffffffffffffffffffffffffffff1673ffffffffffffffffffffffffffffffffffffffff168152602001908152602001600020611101565b610db1600360008473ffffffffffffffffffffffffffffffffffffffff1673ffffffffffffffffffffffffffffffffffffffff16815260200190815260200160002061115d565b816001600083815260200190815260200160002060006101000a81548173ffffffffffffffffffffffffffffffffffffffff021916908373ffffffffffffffffffffffffffffffffffffffff160217905550808273ffffffffffffffffffffffffffffffffffffffff168473ffffffffffffffffffffffffffffffffffffffff167fddf252ad1be2c89b69c2b068fc378daa952ba7f163c4a11628f55a4df523b3ef60405160405180910390a4505050565b6000610e848473ffffffffffffffffffffffffffffffffffffffff16611173565b610e91576001905061103b565b6000808573ffffffffffffffffffffffffffffffffffffffff1663150b7a0260e01b610ebb61090b565b898888604051602401610ed194939291906119fe565b604051602081830303815290604052907bffffffffffffffffffffffffffffffffffffffffffffffffffffffff19166020820180517bffffffffffffffffffffffffffffffffffffffffffffffffffffffff8381831617835250505050604051610f3b91906119cc565b6000604051808303816000865af19150503d8060008114610f78576040519150601f19603f3d011682016040523d82523d6000602084013e610f7d565b606091505b509150915081610fd557600081511115610f9a5780518082602001fd5b6040517f08c379a0000000000000000000000000000000000000000000000000000000008152600401610fcc90611a85565b60405180910390fd5b600081806020019051810190610feb9190611427565b905063150b7a0260e01b7bffffffffffffffffffffffffffffffffffffffffffffffffffffffff1916817bffffffffffffffffffffffffffffffffffffffffffffffffffffffff19161493505050505b949350505050565b600073ffffffffffffffffffffffffffffffffffffffff166002600083815260200190815260200160002060009054906101000a900473ffffffffffffffffffffffffffffffffffffffff1673ffffffffffffffffffffffffffffffffffffffff16146110fe5760006002600083815260200190815260200160002060006101000a81548173ffffffffffffffffffffffffffffffffffffffff021916908373ffffffffffffffffffffffffffffffffffffffff1602179055505b50565b6000816000015490506000811161114d576040517f08c379a000000000000000000000000000000000000000000000000000000000815260040161114490611a65565b60405180910390fd5b6001810382600001819055505050565b6001816000016000828254019250508190555050565b600080823b905060008111915050919050565b600061119961119484611c51565b611c20565b9050828152602081018484840111156111b157600080fd5b6111bc848285611d2d565b509392505050565b6000813590506111d381611daf565b92915050565b6000813590506111e881611dc6565b92915050565b6000813590506111fd81611ddd565b92915050565b60008151905061121281611ddd565b92915050565b600082601f83011261122957600080fd5b8135611239848260208601611186565b91505092915050565b60008135905061125181611df4565b92915050565b60006020828403121561126957600080fd5b6000611277848285016111c4565b91505092915050565b6000806040838503121561129357600080fd5b60006112a1858286016111c4565b92505060206112b2858286016111c4565b9150509250929050565b6000806000606084860312156112d157600080fd5b60006112df868287016111c4565b93505060206112f0868287016111c4565b925050604061130186828701611242565b9150509250925092565b6000806000806080858703121561132157600080fd5b600061132f878288016111c4565b9450506020611340878288016111c4565b935050604061135187828801611242565b925050606085013567ffffffffffffffff81111561136e57600080fd5b61137a87828801611218565b91505092959194509250565b6000806040838503121561139957600080fd5b60006113a7858286016111c4565b92505060206113b8858286016111d9565b9150509250929050565b600080604083850312156113d557600080fd5b60006113e3858286016111c4565b92505060206113f485828601611242565b9150509250929050565b60006020828403121561141057600080fd5b600061141e848285016111ee565b91505092915050565b60006020828403121561143957600080fd5b600061144784828501611203565b91505092915050565b60006020828403121561146257600080fd5b600061147084828501611242565b91505092915050565b61148281611cb9565b82525050565b61149181611ccb565b82525050565b60006114a282611c81565b6114ac8185611c8c565b93506114bc818560208601611d3c565b6114c581611d9e565b840191505092915050565b60006114db82611c81565b6114e58185611c9d565b93506114f5818560208601611d3c565b80840191505092915050565b600061150e601b83611ca8565b91507f436f756e7465723a2064656372656d656e74206f766572666c6f7700000000006000830152602082019050919050565b600061154e603283611ca8565b91507f4552433732313a207472616e7366657220746f206e6f6e20455243373231526560008301527f63656976657220696d706c656d656e74657200000000000000000000000000006020830152604082019050919050565b60006115b4602483611ca8565b91507f4552433732313a207472616e7366657220746f20746865207a65726f2061646460008301527f72657373000000000000000000000000000000000000000000000000000000006020830152604082019050919050565b600061161a601983611ca8565b91507f4552433732313a20617070726f766520746f2063616c6c6572000000000000006000830152602082019050919050565b600061165a602c83611ca8565b91507f4552433732313a206f70657261746f7220717565727920666f72206e6f6e657860008301527f697374656e7420746f6b656e00000000000000000000000000000000000000006020830152604082019050919050565b60006116c0601083611ca8565b91507f5061757361626c653a20706175736564000000000000000000000000000000006000830152602082019050919050565b6000611700603883611ca8565b91507f4552433732313a20617070726f76652063616c6c6572206973206e6f74206f7760008301527f6e6572206e6f7220617070726f76656420666f7220616c6c00000000000000006020830152604082019050919050565b6000611766602a83611ca8565b91507f4552433732313a2062616c616e636520717565727920666f7220746865207a6560008301527f726f2061646472657373000000000000000000000000000000000000000000006020830152604082019050919050565b60006117cc602983611ca8565b91507f4552433732313a206f776e657220717565727920666f72206e6f6e657869737460008301527f656e7420746f6b656e00000000000000000000000000000000000000000000006020830152604082019050919050565b6000611832602c83611ca8565b91507f4552433732313a20617070726f76656420717565727920666f72206e6f6e657860008301527f697374656e7420746f6b656e00000000000000000000000000000000000000006020830152604082019050919050565b6000611898602983611ca8565b91507f4552433732313a207472616e73666572206f6620746f6b656e2074686174206960008301527f73206e6f74206f776e00000000000000000000000000000000000000000000006020830152604082019050919050565b60006118fe602183611ca8565b91507f4552433732313a20617070726f76616c20746f2063757272656e74206f776e6560008301527f72000000000000000000000000000000000000000000000000000000000000006020830152604082019050919050565b6000611964603183611ca8565b91507f4552433732313a207472616e736665722063616c6c6572206973206e6f74206f60008301527f776e6572206e6f7220617070726f7665640000000000000000000000000000006020830152604082019050919050565b6119c681611d23565b82525050565b60006119d882846114d0565b915081905092915050565b60006020820190506119f86000830184611479565b92915050565b6000608082019050611a136000830187611479565b611a206020830186611479565b611a2d60408301856119bd565b8181036060830152611a3f8184611497565b905095945050505050565b6000602082019050611a5f6000830184611488565b92915050565b60006020820190508181036000830152611a7e81611501565b9050919050565b60006020820190508181036000830152611a9e81611541565b9050919050565b60006020820190508181036000830152611abe816115a7565b9050919050565b60006020820190508181036000830152611ade8161160d565b9050919050565b60006020820190508181036000830152611afe8161164d565b9050919050565b60006020820190508181036000830152611b1e816116b3565b9050919050565b60006020820190508181036000830152611b3e816116f3565b9050919050565b60006020820190508181036000830152611b5e81611759565b9050919050565b60006020820190508181036000830152611b7e816117bf565b9050919050565b60006020820190508181036000830152611b9e81611825565b9050919050565b60006020820190508181036000830152611bbe8161188b565b9050919050565b60006020820190508181036000830152611bde816118f1565b9050919050565b60006020820190508181036000830152611bfe81611957565b9050919050565b6000602082019050611c1a60008301846119bd565b92915050565b6000604051905081810181811067ffffffffffffffff82111715611c4757611c46611d6f565b5b8060405250919050565b600067ffffffffffffffff821115611c6c57611c6b611d6f565b5b601f19601f8301169050602081019050919050565b600081519050919050565b600082825260208201905092915050565b600081905092915050565b600082825260208201905092915050565b6000611cc482611d03565b9050919050565b60008115159050919050565b60007fffffffff0000000000000000000000000000000000000000000000000000000082169050919050565b600073ffffffffffffffffffffffffffffffffffffffff82169050919050565b6000819050919050565b82818337600083830152505050565b60005b83811015611d5a578082015181840152602081019050611d3f565b83811115611d69576000848401525b50505050565b7f4e487b7100000000000000000000000000000000000000000000000000000000600052604160045260246000fd5b6000601f19601f8301169050919050565b611db881611cb9565b8114611dc357600080fd5b50565b611dcf81611ccb565b8114611dda57600080fd5b50565b611de681611cd7565b8114611df157600080fd5b50565b611dfd81611d23565b8114611e0857600080fd5b5056fea26469706673582212202f6b58cbf7071184e85fdb3eb4c63cc9a117ae8db5399d2a5fd2700e42f7a5be64736f6c63430008000033",
  "immutableReferences": {},
  "source": "// SPDX-License-Identifier: MIT\n\npragma solidity >=0.5.11 <0.9.0;\n\nimport \"./ERC721.sol\";\nimport \"../security/Pausable.sol\";\n\n/**\n * @dev ERC721 token with pausable token transfers, minting and burning.\n *\n * Useful for scenarios such as preventing trades until the end of an evaluation\n * period, or having an emergency switch for freezing all token transfers in the\n * event of a large bug.\n */\ncontract ERC721Pausable is ERC721, Pausable {\n    function approve(address to, uint256 tokenId) public whenNotPaused override {\n        super.approve(to, tokenId);\n    }\n\n    function setApprovalForAll(address to, bool approved) public whenNotPaused override {\n        super.setApprovalForAll(to, approved);\n    }\n\n    function _transferFrom(address from, address to, uint256 tokenId) internal whenNotPaused override {\n        super._transferFrom(from, to, tokenId);\n    }\n}\n",
  "sourcePath": "/Users/dennismacpro/Projects/Defi/Ethereum-Solidity-Collection/nft-kit/contracts/ERC721/ERC721Pausable.sol",
  "compiler": {
    "name": "solc",
    "version": "0.8.0+commit.c7dfd78e.Darwin.appleclang"
  },
  "schemaVersion": "3.3.4",
  "updatedAt": "2021-03-08T19:30:57.924Z",
  "devdoc": {
    "details": "ERC721 token with pausable token transfers, minting and burning. Useful for scenarios such as preventing trades until the end of an evaluation period, or having an emergency switch for freezing all token transfers in the event of a large bug.",
    "kind": "dev",
    "methods": {
      "approve(address,uint256)": {
        "details": "Approves another address to transfer the given token ID The zero address indicates there is no approved address. There can only be one approved address per token at a given time. Can only be called by the token owner or an approved operator.",
        "params": {
          "to": "address to be approved for the given token ID",
          "tokenId": "uint256 ID of the token to be approved"
        }
      },
      "balanceOf(address)": {
        "details": "Gets the balance of the specified address.",
        "params": {
          "owner": "address to query the balance of"
        },
        "returns": {
          "_0": "uint256 representing the amount owned by the passed address"
        }
      },
      "getApproved(uint256)": {
        "details": "Gets the approved address for a token ID, or zero if no address set Reverts if the token ID does not exist.",
        "params": {
          "tokenId": "uint256 ID of the token to query the approval of"
        },
        "returns": {
          "_0": "address currently approved for the given token ID"
        }
      },
      "isApprovedForAll(address,address)": {
        "details": "Tells whether an operator is approved by a given owner.",
        "params": {
          "operator": "operator address which you want to query the approval of",
          "owner": "owner address which you want to query the approval of"
        },
        "returns": {
          "_0": "bool whether the given operator is approved by the given owner"
        }
      },
      "ownerOf(uint256)": {
        "details": "Gets the owner of the specified token ID.",
        "params": {
          "tokenId": "uint256 ID of the token to query the owner of"
        },
        "returns": {
          "_0": "address currently marked as the owner of the given token ID"
        }
      },
      "paused()": {
        "details": "Returns true if the contract is paused, and false otherwise."
      },
      "safeTransferFrom(address,address,uint256)": {
        "details": "Safely transfers the ownership of a given token ID to another address If the target address is a contract, it must implement {IERC721Receiver-onERC721Received}, which is called upon a safe transfer, and return the magic value `bytes4(keccak256(\"onERC721Received(address,address,uint256,bytes)\"))`; otherwise, the transfer is reverted. Requires the msg.sender to be the owner, approved, or operator",
        "params": {
          "from": "current owner of the token",
          "to": "address to receive the ownership of the given token ID",
          "tokenId": "uint256 ID of the token to be transferred"
        }
      },
      "safeTransferFrom(address,address,uint256,bytes)": {
        "details": "Safely transfers the ownership of a given token ID to another address If the target address is a contract, it must implement {IERC721Receiver-onERC721Received}, which is called upon a safe transfer, and return the magic value `bytes4(keccak256(\"onERC721Received(address,address,uint256,bytes)\"))`; otherwise, the transfer is reverted. Requires the _msgSender() to be the owner, approved, or operator",
        "params": {
          "_data": "bytes data to send along with a safe transfer check",
          "from": "current owner of the token",
          "to": "address to receive the ownership of the given token ID",
          "tokenId": "uint256 ID of the token to be transferred"
        }
      },
      "setApprovalForAll(address,bool)": {
        "details": "Sets or unsets the approval of a given operator An operator is allowed to transfer all tokens of the sender on their behalf.",
        "params": {
          "approved": "representing the status of the approval to be set",
          "to": "operator address to set the approval"
        }
      },
      "supportsInterface(bytes4)": {
        "details": "See {IERC165-supportsInterface}. Time complexity O(1), guaranteed to always use less than 30 000 gas."
      },
      "transferFrom(address,address,uint256)": {
        "details": "Transfers the ownership of a given token ID to another address. Usage of this method is discouraged, use {safeTransferFrom} whenever possible. Requires the msg.sender to be the owner, approved, or operator.",
        "params": {
          "from": "current owner of the token",
          "to": "address to receive the ownership of the given token ID",
          "tokenId": "uint256 ID of the token to be transferred"
        }
      }
    },
    "version": 1
  },
  "userdoc": {
    "kind": "user",
    "methods": {},
    "version": 1
  }
}