{
  "contractName": "ERC721Full",
  "abi": [
    {
      "inputs": [
        {
          "internalType": "string",
          "name": "name_",
          "type": "string"
        },
        {
          "internalType": "string",
          "name": "symbol_",
          "type": "string"
        },
        {
          "internalType": "string",
          "name": "baseTokenURI_",
          "type": "string"
        }
      ],
      "stateMutability": "nonpayable",
      "type": "constructor"
    },
    {
      "anonymous": false,
      "inputs": [
        {
          "indexed": true,
          "internalType": "address",
          "name": "owner",
          "type": "address"
        },
        {
          "indexed": true,
          "internalType": "address",
          "name": "approved",
          "type": "address"
        },
        {
          "indexed": true,
          "internalType": "uint256",
          "name": "tokenId",
          "type": "uint256"
        }
      ],
      "name": "Approval",
      "type": "event"
    },
    {
      "anonymous": false,
      "inputs": [
        {
          "indexed": true,
          "internalType": "address",
          "name": "owner",
          "type": "address"
        },
        {
          "indexed": true,
          "internalType": "address",
          "name": "operator",
          "type": "address"
        },
        {
          "indexed": false,
          "internalType": "bool",
          "name": "approved",
          "type": "bool"
        }
      ],
      "name": "ApprovalForAll",
      "type": "event"
    },
    {
      "anonymous": false,
      "inputs": [
        {
          "indexed": false,
          "internalType": "address",
          "name": "account",
          "type": "address"
        }
      ],
      "name": "Paused",
      "type": "event"
    },
    {
      "anonymous": false,
      "inputs": [
        {
          "indexed": true,
          "internalType": "bytes32",
          "name": "role",
          "type": "bytes32"
        },
        {
          "indexed": true,
          "internalType": "bytes32",
          "name": "previousAdminRole",
          "type": "bytes32"
        },
        {
          "indexed": true,
          "internalType": "bytes32",
          "name": "newAdminRole",
          "type": "bytes32"
        }
      ],
      "name": "RoleAdminChanged",
      "type": "event"
    },
    {
      "anonymous": false,
      "inputs": [
        {
          "indexed": true,
          "internalType": "bytes32",
          "name": "role",
          "type": "bytes32"
        },
        {
          "indexed": true,
          "internalType": "address",
          "name": "account",
          "type": "address"
        },
        {
          "indexed": true,
          "internalType": "address",
          "name": "sender",
          "type": "address"
        }
      ],
      "name": "RoleGranted",
      "type": "event"
    },
    {
      "anonymous": false,
      "inputs": [
        {
          "indexed": true,
          "internalType": "bytes32",
          "name": "role",
          "type": "bytes32"
        },
        {
          "indexed": true,
          "internalType": "address",
          "name": "account",
          "type": "address"
        },
        {
          "indexed": true,
          "internalType": "address",
          "name": "sender",
          "type": "address"
        }
      ],
      "name": "RoleRevoked",
      "type": "event"
    },
    {
      "anonymous": false,
      "inputs": [
        {
          "indexed": true,
          "internalType": "address",
          "name": "from",
          "type": "address"
        },
        {
          "indexed": true,
          "internalType": "address",
          "name": "to",
          "type": "address"
        },
        {
          "indexed": true,
          "internalType": "uint256",
          "name": "tokenId",
          "type": "uint256"
        }
      ],
      "name": "Transfer",
      "type": "event"
    },
    {
      "anonymous": false,
      "inputs": [
        {
          "indexed": false,
          "internalType": "address",
          "name": "account",
          "type": "address"
        }
      ],
      "name": "Unpaused",
      "type": "event"
    },
    {
      "inputs": [],
      "name": "DEFAULT_ADMIN_ROLE",
      "outputs": [
        {
          "internalType": "bytes32",
          "name": "",
          "type": "bytes32"
        }
      ],
      "stateMutability": "view",
      "type": "function"
    },
    {
      "inputs": [],
      "name": "MINTER_ROLE",
      "outputs": [
        {
          "internalType": "bytes32",
          "name": "",
          "type": "bytes32"
        }
      ],
      "stateMutability": "view",
      "type": "function"
    },
    {
      "inputs": [],
      "name": "PAUSER_ROLE",
      "outputs": [
        {
          "internalType": "bytes32",
          "name": "",
          "type": "bytes32"
        }
      ],
      "stateMutability": "view",
      "type": "function"
    },
    {
      "inputs": [
        {
          "internalType": "address",
          "name": "to",
          "type": "address"
        },
        {
          "internalType": "uint256",
          "name": "tokenId",
          "type": "uint256"
        }
      ],
      "name": "approve",
      "outputs": [],
      "stateMutability": "nonpayable",
      "type": "function"
    },
    {
      "inputs": [
        {
          "internalType": "address",
          "name": "owner",
          "type": "address"
        }
      ],
      "name": "balanceOf",
      "outputs": [
        {
          "internalType": "uint256",
          "name": "",
          "type": "uint256"
        }
      ],
      "stateMutability": "view",
      "type": "function"
    },
    {
      "inputs": [
        {
          "internalType": "uint256",
          "name": "tokenId",
          "type": "uint256"
        }
      ],
      "name": "burn",
      "outputs": [],
      "stateMutability": "nonpayable",
      "type": "function"
    },
    {
      "inputs": [
        {
          "internalType": "uint256",
          "name": "tokenId",
          "type": "uint256"
        }
      ],
      "name": "getApproved",
      "outputs": [
        {
          "internalType": "address",
          "name": "",
          "type": "address"
        }
      ],
      "stateMutability": "view",
      "type": "function"
    },
    {
      "inputs": [
        {
          "internalType": "bytes32",
          "name": "role",
          "type": "bytes32"
        }
      ],
      "name": "getRoleAdmin",
      "outputs": [
        {
          "internalType": "bytes32",
          "name": "",
          "type": "bytes32"
        }
      ],
      "stateMutability": "view",
      "type": "function"
    },
    {
      "inputs": [
        {
          "internalType": "bytes32",
          "name": "role",
          "type": "bytes32"
        },
        {
          "internalType": "uint256",
          "name": "index",
          "type": "uint256"
        }
      ],
      "name": "getRoleMember",
      "outputs": [
        {
          "internalType": "address",
          "name": "",
          "type": "address"
        }
      ],
      "stateMutability": "view",
      "type": "function"
    },
    {
      "inputs": [
        {
          "internalType": "bytes32",
          "name": "role",
          "type": "bytes32"
        }
      ],
      "name": "getRoleMemberCount",
      "outputs": [
        {
          "internalType": "uint256",
          "name": "",
          "type": "uint256"
        }
      ],
      "stateMutability": "view",
      "type": "function"
    },
    {
      "inputs": [
        {
          "internalType": "bytes32",
          "name": "role",
          "type": "bytes32"
        },
        {
          "internalType": "address",
          "name": "account",
          "type": "address"
        }
      ],
      "name": "grantRole",
      "outputs": [],
      "stateMutability": "nonpayable",
      "type": "function"
    },
    {
      "inputs": [
        {
          "internalType": "bytes32",
          "name": "role",
          "type": "bytes32"
        },
        {
          "internalType": "address",
          "name": "account",
          "type": "address"
        }
      ],
      "name": "hasRole",
      "outputs": [
        {
          "internalType": "bool",
          "name": "",
          "type": "bool"
        }
      ],
      "stateMutability": "view",
      "type": "function"
    },
    {
      "inputs": [
        {
          "internalType": "address",
          "name": "owner",
          "type": "address"
        },
        {
          "internalType": "address",
          "name": "operator",
          "type": "address"
        }
      ],
      "name": "isApprovedForAll",
      "outputs": [
        {
          "internalType": "bool",
          "name": "",
          "type": "bool"
        }
      ],
      "stateMutability": "view",
      "type": "function"
    },
    {
      "inputs": [],
      "name": "name",
      "outputs": [
        {
          "internalType": "string",
          "name": "",
          "type": "string"
        }
      ],
      "stateMutability": "view",
      "type": "function"
    },
    {
      "inputs": [
        {
          "internalType": "uint256",
          "name": "tokenId",
          "type": "uint256"
        }
      ],
      "name": "ownerOf",
      "outputs": [
        {
          "internalType": "address",
          "name": "",
          "type": "address"
        }
      ],
      "stateMutability": "view",
      "type": "function"
    },
    {
      "inputs": [],
      "name": "paused",
      "outputs": [
        {
          "internalType": "bool",
          "name": "",
          "type": "bool"
        }
      ],
      "stateMutability": "view",
      "type": "function"
    },
    {
      "inputs": [
        {
          "internalType": "bytes32",
          "name": "role",
          "type": "bytes32"
        },
        {
          "internalType": "address",
          "name": "account",
          "type": "address"
        }
      ],
      "name": "renounceRole",
      "outputs": [],
      "stateMutability": "nonpayable",
      "type": "function"
    },
    {
      "inputs": [
        {
          "internalType": "bytes32",
          "name": "role",
          "type": "bytes32"
        },
        {
          "internalType": "address",
          "name": "account",
          "type": "address"
        }
      ],
      "name": "revokeRole",
      "outputs": [],
      "stateMutability": "nonpayable",
      "type": "function"
    },
    {
      "inputs": [
        {
          "internalType": "address",
          "name": "from",
          "type": "address"
        },
        {
          "internalType": "address",
          "name": "to",
          "type": "address"
        },
        {
          "internalType": "uint256",
          "name": "tokenId",
          "type": "uint256"
        }
      ],
      "name": "safeTransferFrom",
      "outputs": [],
      "stateMutability": "nonpayable",
      "type": "function"
    },
    {
      "inputs": [
        {
          "internalType": "address",
          "name": "from",
          "type": "address"
        },
        {
          "internalType": "address",
          "name": "to",
          "type": "address"
        },
        {
          "internalType": "uint256",
          "name": "tokenId",
          "type": "uint256"
        },
        {
          "internalType": "bytes",
          "name": "_data",
          "type": "bytes"
        }
      ],
      "name": "safeTransferFrom",
      "outputs": [],
      "stateMutability": "nonpayable",
      "type": "function"
    },
    {
      "inputs": [
        {
          "internalType": "address",
          "name": "operator",
          "type": "address"
        },
        {
          "internalType": "bool",
          "name": "approved",
          "type": "bool"
        }
      ],
      "name": "setApprovalForAll",
      "outputs": [],
      "stateMutability": "nonpayable",
      "type": "function"
    },
    {
      "inputs": [],
      "name": "symbol",
      "outputs": [
        {
          "internalType": "string",
          "name": "",
          "type": "string"
        }
      ],
      "stateMutability": "view",
      "type": "function"
    },
    {
      "inputs": [
        {
          "internalType": "uint256",
          "name": "index",
          "type": "uint256"
        }
      ],
      "name": "tokenByIndex",
      "outputs": [
        {
          "internalType": "uint256",
          "name": "",
          "type": "uint256"
        }
      ],
      "stateMutability": "view",
      "type": "function"
    },
    {
      "inputs": [
        {
          "internalType": "address",
          "name": "owner",
          "type": "address"
        },
        {
          "internalType": "uint256",
          "name": "index",
          "type": "uint256"
        }
      ],
      "name": "tokenOfOwnerByIndex",
      "outputs": [
        {
          "internalType": "uint256",
          "name": "",
          "type": "uint256"
        }
      ],
      "stateMutability": "view",
      "type": "function"
    },
    {
      "inputs": [
        {
          "internalType": "uint256",
          "name": "tokenId",
          "type": "uint256"
        }
      ],
      "name": "tokenURI",
      "outputs": [
        {
          "internalType": "string",
          "name": "",
          "type": "string"
        }
      ],
      "stateMutability": "view",
      "type": "function"
    },
    {
      "inputs": [],
      "name": "totalSupply",
      "outputs": [
        {
          "internalType": "uint256",
          "name": "",
          "type": "uint256"
        }
      ],
      "stateMutability": "view",
      "type": "function"
    },
    {
      "inputs": [
        {
          "internalType": "address",
          "name": "from",
          "type": "address"
        },
        {
          "internalType": "address",
          "name": "to",
          "type": "address"
        },
        {
          "internalType": "uint256",
          "name": "tokenId",
          "type": "uint256"
        }
      ],
      "name": "transferFrom",
      "outputs": [],
      "stateMutability": "nonpayable",
      "type": "function"
    },
    {
      "inputs": [
        {
          "internalType": "address",
          "name": "_to",
          "type": "address"
        }
      ],
      "name": "mint",
      "outputs": [],
      "stateMutability": "nonpayable",
      "type": "function"
    },
    {
      "inputs": [],
      "name": "pause",
      "outputs": [],
      "stateMutability": "nonpayable",
      "type": "function"
    },
    {
      "inputs": [],
      "name": "unpause",
      "outputs": [],
      "stateMutability": "nonpayable",
      "type": "function"
    },
    {
      "inputs": [
        {
          "internalType": "bytes4",
          "name": "interfaceId",
          "type": "bytes4"
        }
      ],
      "name": "supportsInterface",
      "outputs": [
        {
          "internalType": "bool",
          "name": "",
          "type": "bool"
        }
      ],
      "stateMutability": "view",
      "type": "function"
    }
  ],
  "bytecode": "0x60806040523480156200001157600080fd5b5060405162004a8d38038062004a8d833981810160405281019062000037919062000508565b8282816002908051906020019062000051929190620003e6565b5080600390805190602001906200006a929190620003e6565b5050506000600c60006101000a81548160ff02191690831515021790555080600e9080519060200190620000a0929190620003e6565b50620000c56000801b620000b96200015060201b60201c565b6200015860201b60201c565b620001067f9f2df0fed2c77648de5860a4cc508cd0818c85b8b8a1ab4ceeef8d981c8956a6620000fa6200015060201b60201c565b6200015860201b60201c565b620001477f65d7a28e3265b37a6474929f336521b332c1681b933f6cb9f3376673440d862a6200013b6200015060201b60201c565b6200015860201b60201c565b505050620006da565b600033905090565b6200016f8282620001a060201b620013591760201c565b6200019b8160016000858152602001908152602001600020620001b660201b620013671790919060201c565b505050565b620001b28282620001ee60201b60201c565b5050565b6000620001e6836000018373ffffffffffffffffffffffffffffffffffffffff1660001b620002df60201b60201c565b905092915050565b6200020082826200035960201b60201c565b620002db57600160008084815260200190815260200160002060000160008373ffffffffffffffffffffffffffffffffffffffff1673ffffffffffffffffffffffffffffffffffffffff16815260200190815260200160002060006101000a81548160ff021916908315150217905550620002806200015060201b60201c565b73ffffffffffffffffffffffffffffffffffffffff168173ffffffffffffffffffffffffffffffffffffffff16837f2f8788117e7eff1d82e926ec794901d17c78024a50270940304540a733656f0d60405160405180910390a45b5050565b6000620002f38383620003c360201b60201c565b6200034e57826000018290806001815401808255809150506001900390600052602060002001600090919091909150558260000180549050836001016000848152602001908152602001600020819055506001905062000353565b600090505b92915050565b600080600084815260200190815260200160002060000160008373ffffffffffffffffffffffffffffffffffffffff1673ffffffffffffffffffffffffffffffffffffffff16815260200190815260200160002060009054906101000a900460ff16905092915050565b600080836001016000848152602001908152602001600020541415905092915050565b828054620003f49062000646565b90600052602060002090601f01602090048101928262000418576000855562000464565b82601f106200043357805160ff191683800117855562000464565b8280016001018555821562000464579182015b828111156200046357825182559160200191906001019062000446565b5b50905062000473919062000477565b5090565b5b808211156200049257600081600090555060010162000478565b5090565b6000620004ad620004a784620005dd565b620005a9565b905082815260208101848484011115620004c657600080fd5b620004d384828562000610565b509392505050565b600082601f830112620004ed57600080fd5b8151620004ff84826020860162000496565b91505092915050565b6000806000606084860312156200051e57600080fd5b600084015167ffffffffffffffff8111156200053957600080fd5b6200054786828701620004db565b935050602084015167ffffffffffffffff8111156200056557600080fd5b6200057386828701620004db565b925050604084015167ffffffffffffffff8111156200059157600080fd5b6200059f86828701620004db565b9150509250925092565b6000604051905081810181811067ffffffffffffffff82111715620005d357620005d2620006ab565b5b8060405250919050565b600067ffffffffffffffff821115620005fb57620005fa620006ab565b5b601f19601f8301169050602081019050919050565b60005b838110156200063057808201518184015260208101905062000613565b8381111562000640576000848401525b50505050565b600060028204905060018216806200065f57607f821691505b602082108114156200067657620006756200067c565b5b50919050565b7f4e487b7100000000000000000000000000000000000000000000000000000000600052602260045260246000fd5b7f4e487b7100000000000000000000000000000000000000000000000000000000600052604160045260246000fd5b6143a380620006ea6000396000f3fe608060405234801561001057600080fd5b50600436106101e55760003560e01c80636352211e1161010f578063a22cb465116100a2578063d539139311610071578063d5391393146105a0578063d547741f146105be578063e63ab1e9146105da578063e985e9c5146105f8576101e5565b8063a22cb46514610508578063b88d4fde14610524578063c87b56dd14610540578063ca15c87314610570576101e5565b80639010d07c116100de5780639010d07c1461046c57806391d148541461049c57806395d89b41146104cc578063a217fddf146104ea576101e5565b80636352211e146103e65780636a6278421461041657806370a08231146104325780638456cb5914610462576101e5565b80632f2ff15d1161018757806342842e0e1161015657806342842e0e1461036057806342966c681461037c5780634f6ccce7146103985780635c975abb146103c8576101e5565b80632f2ff15d146102ee5780632f745c591461030a57806336568abe1461033a5780633f4ba83a14610356576101e5565b8063095ea7b3116101c3578063095ea7b31461026857806318160ddd1461028457806323b872dd146102a2578063248a9ca3146102be576101e5565b806301ffc9a7146101ea57806306fdde031461021a578063081812fc14610238575b600080fd5b61020460048036038101906101ff919061302c565b610628565b6040516102119190613baf565b60405180910390f35b61022261063a565b60405161022f9190613be5565b60405180910390f35b610252600480360381019061024d919061307e565b6106cc565b60405161025f9190613b48565b60405180910390f35b610282600480360381019061027d9190612f4f565b610751565b005b61028c610869565b6040516102999190613f47565b60405180910390f35b6102bc60048036038101906102b79190612e49565b610876565b005b6102d860048036038101906102d39190612f8b565b6108d6565b6040516102e59190613bca565b60405180910390f35b61030860048036038101906103039190612fb4565b6108f5565b005b610324600480360381019061031f9190612f4f565b610929565b6040516103319190613f47565b60405180910390f35b610354600480360381019061034f9190612fb4565b6109ce565b005b61035e610a51565b005b61037a60048036038101906103759190612e49565b610acb565b005b6103966004803603810190610391919061307e565b610aeb565b005b6103b260048036038101906103ad919061307e565b610b47565b6040516103bf9190613f47565b60405180910390f35b6103d0610bde565b6040516103dd9190613baf565b60405180910390f35b61040060048036038101906103fb919061307e565b610bf5565b60405161040d9190613b48565b60405180910390f35b610430600480360381019061042b9190612de4565b610ca7565b005b61044c60048036038101906104479190612de4565b610d37565b6040516104599190613f47565b60405180910390f35b61046a610def565b005b61048660048036038101906104819190612ff0565b610e69565b6040516104939190613b48565b60405180910390f35b6104b660048036038101906104b19190612fb4565b610e98565b6040516104c39190613baf565b60405180910390f35b6104d4610f02565b6040516104e19190613be5565b60405180910390f35b6104f2610f94565b6040516104ff9190613bca565b60405180910390f35b610522600480360381019061051d9190612f13565b610f9b565b005b61053e60048036038101906105399190612e98565b61111c565b005b61055a6004803603810190610555919061307e565b61117e565b6040516105679190613be5565b60405180910390f35b61058a60048036038101906105859190612f8b565b611225565b6040516105979190613f47565b60405180910390f35b6105a8611249565b6040516105b59190613bca565b60405180910390f35b6105d860048036038101906105d39190612fb4565b61126d565b005b6105e26112a1565b6040516105ef9190613bca565b60405180910390f35b610612600480360381019061060d9190612e0d565b6112c5565b60405161061f9190613baf565b60405180910390f35b600061063382611397565b9050919050565b60606002805461064990614181565b80601f016020809104026020016040519081016040528092919081815260200182805461067590614181565b80156106c25780601f10610697576101008083540402835291602001916106c2565b820191906000526020600020905b8154815290600101906020018083116106a557829003601f168201915b5050505050905090565b60006106d782611411565b610716576040517f08c379a000000000000000000000000000000000000000000000000000000000815260040161070d90613e07565b60405180910390fd5b6006600083815260200190815260200160002060009054906101000a900473ffffffffffffffffffffffffffffffffffffffff169050919050565b600061075c82610bf5565b90508073ffffffffffffffffffffffffffffffffffffffff168373ffffffffffffffffffffffffffffffffffffffff1614156107cd576040517f08c379a00000000000000000000000000000000000000000000000000000000081526004016107c490613e87565b60405180910390fd5b8073ffffffffffffffffffffffffffffffffffffffff166107ec61147d565b73ffffffffffffffffffffffffffffffffffffffff16148061081b575061081a8161081561147d565b6112c5565b5b61085a576040517f08c379a000000000000000000000000000000000000000000000000000000000815260040161085190613d87565b60405180910390fd5b6108648383611485565b505050565b6000600a80549050905090565b61088761088161147d565b8261153e565b6108c6576040517f08c379a00000000000000000000000000000000000000000000000000000000081526004016108bd90613ea7565b60405180910390fd5b6108d183838361161c565b505050565b6000806000838152602001908152602001600020600101549050919050565b6108ff8282611878565b610924816001600085815260200190815260200160002061136790919063ffffffff16565b505050565b600061093483610d37565b8210610975576040517f08c379a000000000000000000000000000000000000000000000000000000000815260040161096c90613c87565b60405180910390fd5b600860008473ffffffffffffffffffffffffffffffffffffffff1673ffffffffffffffffffffffffffffffffffffffff168152602001908152602001600020600083815260200190815260200160002054905092915050565b6109d661147d565b73ffffffffffffffffffffffffffffffffffffffff168173ffffffffffffffffffffffffffffffffffffffff1614610a43576040517f08c379a0000000000000000000000000000000000000000000000000000000008152600401610a3a90613f27565b60405180910390fd5b610a4d82826118de565b5050565b610a827f65d7a28e3265b37a6474929f336521b332c1681b933f6cb9f3376673440d862a610a7d61147d565b610e98565b610ac1576040517f08c379a0000000000000000000000000000000000000000000000000000000008152600401610ab890613e67565b60405180910390fd5b610ac96119bf565b565b610ae68383836040518060200160405280600081525061111c565b505050565b610afc610af661147d565b8261153e565b610b3b576040517f08c379a0000000000000000000000000000000000000000000000000000000008152600401610b3290613f07565b60405180910390fd5b610b4481611a61565b50565b6000610b51610869565b8210610b92576040517f08c379a0000000000000000000000000000000000000000000000000000000008152600401610b8990613ee7565b60405180910390fd5b600a8281548110610bcc577f4e487b7100000000000000000000000000000000000000000000000000000000600052603260045260246000fd5b90600052602060002001549050919050565b6000600c60009054906101000a900460ff16905090565b6000806004600084815260200190815260200160002060009054906101000a900473ffffffffffffffffffffffffffffffffffffffff169050600073ffffffffffffffffffffffffffffffffffffffff168173ffffffffffffffffffffffffffffffffffffffff161415610c9e576040517f08c379a0000000000000000000000000000000000000000000000000000000008152600401610c9590613dc7565b60405180910390fd5b80915050919050565b610cd87f9f2df0fed2c77648de5860a4cc508cd0818c85b8b8a1ab4ceeef8d981c8956a6610cd361147d565b610e98565b610d17576040517f08c379a0000000000000000000000000000000000000000000000000000000008152600401610d0e90613ec7565b60405180910390fd5b610d2a81610d25600d611b72565b611b80565b610d34600d611d4e565b50565b60008073ffffffffffffffffffffffffffffffffffffffff168273ffffffffffffffffffffffffffffffffffffffff161415610da8576040517f08c379a0000000000000000000000000000000000000000000000000000000008152600401610d9f90613da7565b60405180910390fd5b600560008373ffffffffffffffffffffffffffffffffffffffff1673ffffffffffffffffffffffffffffffffffffffff168152602001908152602001600020549050919050565b610e207f65d7a28e3265b37a6474929f336521b332c1681b933f6cb9f3376673440d862a610e1b61147d565b610e98565b610e5f576040517f08c379a0000000000000000000000000000000000000000000000000000000008152600401610e5690613e67565b60405180910390fd5b610e67611d64565b565b6000610e908260016000868152602001908152602001600020611e0790919063ffffffff16565b905092915050565b600080600084815260200190815260200160002060000160008373ffffffffffffffffffffffffffffffffffffffff1673ffffffffffffffffffffffffffffffffffffffff16815260200190815260200160002060009054906101000a900460ff16905092915050565b606060038054610f1190614181565b80601f0160208091040260200160405190810160405280929190818152602001828054610f3d90614181565b8015610f8a5780601f10610f5f57610100808354040283529160200191610f8a565b820191906000526020600020905b815481529060010190602001808311610f6d57829003601f168201915b5050505050905090565b6000801b81565b610fa361147d565b73ffffffffffffffffffffffffffffffffffffffff168273ffffffffffffffffffffffffffffffffffffffff161415611011576040517f08c379a000000000000000000000000000000000000000000000000000000000815260040161100890613d07565b60405180910390fd5b806007600061101e61147d565b73ffffffffffffffffffffffffffffffffffffffff1673ffffffffffffffffffffffffffffffffffffffff16815260200190815260200160002060008473ffffffffffffffffffffffffffffffffffffffff1673ffffffffffffffffffffffffffffffffffffffff16815260200190815260200160002060006101000a81548160ff0219169083151502179055508173ffffffffffffffffffffffffffffffffffffffff166110cb61147d565b73ffffffffffffffffffffffffffffffffffffffff167f17307eab39ab6107e8899845ad3d59bd9653f200f220920489ca2b5937696c31836040516111109190613baf565b60405180910390a35050565b61112d61112761147d565b8361153e565b61116c576040517f08c379a000000000000000000000000000000000000000000000000000000000815260040161116390613ea7565b60405180910390fd5b61117884848484611e21565b50505050565b606061118982611411565b6111c8576040517f08c379a00000000000000000000000000000000000000000000000000000000081526004016111bf90613e47565b60405180910390fd5b60006111d2611e7d565b905060008151116111f2576040518060200160405280600081525061121d565b806111fc84611f0f565b60405160200161120d929190613b24565b6040516020818303038152906040525b915050919050565b6000611242600160008481526020019081526020016000206120bc565b9050919050565b7f9f2df0fed2c77648de5860a4cc508cd0818c85b8b8a1ab4ceeef8d981c8956a681565b61127782826120d1565b61129c816001600085815260200190815260200160002061213790919063ffffffff16565b505050565b7f65d7a28e3265b37a6474929f336521b332c1681b933f6cb9f3376673440d862a81565b6000600760008473ffffffffffffffffffffffffffffffffffffffff1673ffffffffffffffffffffffffffffffffffffffff16815260200190815260200160002060008373ffffffffffffffffffffffffffffffffffffffff1673ffffffffffffffffffffffffffffffffffffffff16815260200190815260200160002060009054906101000a900460ff16905092915050565b6113638282612167565b5050565b600061138f836000018373ffffffffffffffffffffffffffffffffffffffff1660001b612247565b905092915050565b60007f780e9d63000000000000000000000000000000000000000000000000000000007bffffffffffffffffffffffffffffffffffffffffffffffffffffffff1916827bffffffffffffffffffffffffffffffffffffffffffffffffffffffff1916148061140a5750611409826122b7565b5b9050919050565b60008073ffffffffffffffffffffffffffffffffffffffff166004600084815260200190815260200160002060009054906101000a900473ffffffffffffffffffffffffffffffffffffffff1673ffffffffffffffffffffffffffffffffffffffff1614159050919050565b600033905090565b816006600083815260200190815260200160002060006101000a81548173ffffffffffffffffffffffffffffffffffffffff021916908373ffffffffffffffffffffffffffffffffffffffff160217905550808273ffffffffffffffffffffffffffffffffffffffff166114f883610bf5565b73ffffffffffffffffffffffffffffffffffffffff167f8c5be1e5ebec7d5bd14f71427d1e84f3dd0314c0f7b2291e5b200ac8c7c3b92560405160405180910390a45050565b600061154982611411565b611588576040517f08c379a000000000000000000000000000000000000000000000000000000000815260040161157f90613d27565b60405180910390fd5b600061159383610bf5565b90508073ffffffffffffffffffffffffffffffffffffffff168473ffffffffffffffffffffffffffffffffffffffff16148061160257508373ffffffffffffffffffffffffffffffffffffffff166115ea846106cc565b73ffffffffffffffffffffffffffffffffffffffff16145b80611613575061161281856112c5565b5b91505092915050565b8273ffffffffffffffffffffffffffffffffffffffff1661163c82610bf5565b73ffffffffffffffffffffffffffffffffffffffff1614611692576040517f08c379a000000000000000000000000000000000000000000000000000000000815260040161168990613e27565b60405180910390fd5b600073ffffffffffffffffffffffffffffffffffffffff168273ffffffffffffffffffffffffffffffffffffffff161415611702576040517f08c379a00000000000000000000000000000000000000000000000000000000081526004016116f990613ce7565b60405180910390fd5b61170d838383612399565b611718600082611485565b6001600560008573ffffffffffffffffffffffffffffffffffffffff1673ffffffffffffffffffffffffffffffffffffffff1681526020019081526020016000206000828254611768919061408d565b925050819055506001600560008473ffffffffffffffffffffffffffffffffffffffff1673ffffffffffffffffffffffffffffffffffffffff16815260200190815260200160002060008282546117bf9190614006565b92505081905550816004600083815260200190815260200160002060006101000a81548173ffffffffffffffffffffffffffffffffffffffff021916908373ffffffffffffffffffffffffffffffffffffffff160217905550808273ffffffffffffffffffffffffffffffffffffffff168473ffffffffffffffffffffffffffffffffffffffff167fddf252ad1be2c89b69c2b068fc378daa952ba7f163c4a11628f55a4df523b3ef60405160405180910390a4505050565b611891611884836108d6565b61188c61147d565b610e98565b6118d0576040517f08c379a00000000000000000000000000000000000000000000000000000000081526004016118c790613c47565b60405180910390fd5b6118da8282612167565b5050565b6118e88282610e98565b156119bb57600080600084815260200190815260200160002060000160008373ffffffffffffffffffffffffffffffffffffffff1673ffffffffffffffffffffffffffffffffffffffff16815260200190815260200160002060006101000a81548160ff02191690831515021790555061196061147d565b73ffffffffffffffffffffffffffffffffffffffff168173ffffffffffffffffffffffffffffffffffffffff16837ff6391f5c32d9c69d2a47ea670b442974b53935d1edc7fd64eb21e047a839171b60405160405180910390a45b5050565b6119c7610bde565b611a06576040517f08c379a00000000000000000000000000000000000000000000000000000000081526004016119fd90613c67565b60405180910390fd5b6000600c60006101000a81548160ff0219169083151502179055507f5db9ee0a495bf2e6ff9c91a7834c1ba4fdd244a5e8aa4e537bd38aeae4b073aa611a4a61147d565b604051611a579190613b48565b60405180910390a1565b6000611a6c82610bf5565b9050611a7a81600084612399565b611a85600083611485565b6001600560008373ffffffffffffffffffffffffffffffffffffffff1673ffffffffffffffffffffffffffffffffffffffff1681526020019081526020016000206000828254611ad5919061408d565b925050819055506004600083815260200190815260200160002060006101000a81549073ffffffffffffffffffffffffffffffffffffffff021916905581600073ffffffffffffffffffffffffffffffffffffffff168273ffffffffffffffffffffffffffffffffffffffff167fddf252ad1be2c89b69c2b068fc378daa952ba7f163c4a11628f55a4df523b3ef60405160405180910390a45050565b600081600001549050919050565b600073ffffffffffffffffffffffffffffffffffffffff168273ffffffffffffffffffffffffffffffffffffffff161415611bf0576040517f08c379a0000000000000000000000000000000000000000000000000000000008152600401611be790613de7565b60405180910390fd5b611bf981611411565b15611c39576040517f08c379a0000000000000000000000000000000000000000000000000000000008152600401611c3090613cc7565b60405180910390fd5b611c4560008383612399565b6001600560008473ffffffffffffffffffffffffffffffffffffffff1673ffffffffffffffffffffffffffffffffffffffff1681526020019081526020016000206000828254611c959190614006565b92505081905550816004600083815260200190815260200160002060006101000a81548173ffffffffffffffffffffffffffffffffffffffff021916908373ffffffffffffffffffffffffffffffffffffffff160217905550808273ffffffffffffffffffffffffffffffffffffffff16600073ffffffffffffffffffffffffffffffffffffffff167fddf252ad1be2c89b69c2b068fc378daa952ba7f163c4a11628f55a4df523b3ef60405160405180910390a45050565b6001816000016000828254019250508190555050565b611d6c610bde565b15611dac576040517f08c379a0000000000000000000000000000000000000000000000000000000008152600401611da390613d67565b60405180910390fd5b6001600c60006101000a81548160ff0219169083151502179055507f62e78cea01bee320cd4e420270b5ea74000d11b0c9f74754ebdbfc544b05a258611df061147d565b604051611dfd9190613b48565b60405180910390a1565b6000611e1683600001836123a9565b60001c905092915050565b611e2c84848461161c565b611e3884848484612443565b611e77576040517f08c379a0000000000000000000000000000000000000000000000000000000008152600401611e6e90613ca7565b60405180910390fd5b50505050565b6060600e8054611e8c90614181565b80601f0160208091040260200160405190810160405280929190818152602001828054611eb890614181565b8015611f055780601f10611eda57610100808354040283529160200191611f05565b820191906000526020600020905b815481529060010190602001808311611ee857829003601f168201915b5050505050905090565b60606000821415611f57576040518060400160405280600181526020017f300000000000000000000000000000000000000000000000000000000000000081525090506120b7565b600082905060005b60008214611f89578080611f72906141b3565b915050600a82611f82919061405c565b9150611f5f565b60008167ffffffffffffffff811115611fcb577f4e487b7100000000000000000000000000000000000000000000000000000000600052604160045260246000fd5b6040519080825280601f01601f191660200182016040528015611ffd5781602001600182028036833780820191505090505b5090505b600085146120b057600182612016919061408d565b9150600a8561202591906141fc565b60306120319190614006565b60f81b81838151811061206d577f4e487b7100000000000000000000000000000000000000000000000000000000600052603260045260246000fd5b60200101907effffffffffffffffffffffffffffffffffffffffffffffffffffffffffffff1916908160001a905350600a856120a9919061405c565b9450612001565b8093505050505b919050565b60006120ca826000016125da565b9050919050565b6120ea6120dd836108d6565b6120e561147d565b610e98565b612129576040517f08c379a000000000000000000000000000000000000000000000000000000000815260040161212090613d47565b60405180910390fd5b61213382826118de565b5050565b600061215f836000018373ffffffffffffffffffffffffffffffffffffffff1660001b6125eb565b905092915050565b6121718282610e98565b61224357600160008084815260200190815260200160002060000160008373ffffffffffffffffffffffffffffffffffffffff1673ffffffffffffffffffffffffffffffffffffffff16815260200190815260200160002060006101000a81548160ff0219169083151502179055506121e861147d565b73ffffffffffffffffffffffffffffffffffffffff168173ffffffffffffffffffffffffffffffffffffffff16837f2f8788117e7eff1d82e926ec794901d17c78024a50270940304540a733656f0d60405160405180910390a45b5050565b60006122538383612775565b6122ac5782600001829080600181540180825580915050600190039060005260206000200160009091909190915055826000018054905083600101600084815260200190815260200160002081905550600190506122b1565b600090505b92915050565b60007f80ac58cd000000000000000000000000000000000000000000000000000000007bffffffffffffffffffffffffffffffffffffffffffffffffffffffff1916827bffffffffffffffffffffffffffffffffffffffffffffffffffffffff1916148061238257507f5b5e139f000000000000000000000000000000000000000000000000000000007bffffffffffffffffffffffffffffffffffffffffffffffffffffffff1916827bffffffffffffffffffffffffffffffffffffffffffffffffffffffff1916145b80612392575061239182612798565b5b9050919050565b6123a4838383612802565b505050565b6000818360000180549050116123f4576040517f08c379a00000000000000000000000000000000000000000000000000000000081526004016123eb90613c07565b60405180910390fd5b826000018281548110612430577f4e487b7100000000000000000000000000000000000000000000000000000000600052603260045260246000fd5b9060005260206000200154905092915050565b60006124648473ffffffffffffffffffffffffffffffffffffffff1661285a565b156125cd578373ffffffffffffffffffffffffffffffffffffffff1663150b7a0261248d61147d565b8786866040518563ffffffff1660e01b81526004016124af9493929190613b63565b602060405180830381600087803b1580156124c957600080fd5b505af19250505080156124fa57506040513d601f19601f820116820180604052508101906124f79190613055565b60015b61257d573d806000811461252a576040519150601f19603f3d011682016040523d82523d6000602084013e61252f565b606091505b50600081511415612575576040517f08c379a000000000000000000000000000000000000000000000000000000000815260040161256c90613ca7565b60405180910390fd5b805181602001fd5b63150b7a0260e01b7bffffffffffffffffffffffffffffffffffffffffffffffffffffffff1916817bffffffffffffffffffffffffffffffffffffffffffffffffffffffff1916149150506125d2565b600190505b949350505050565b600081600001805490509050919050565b6000808360010160008481526020019081526020016000205490506000811461276957600060018261261d919061408d565b9050600060018660000180549050612635919061408d565b90506000866000018281548110612675577f4e487b7100000000000000000000000000000000000000000000000000000000600052603260045260246000fd5b90600052602060002001549050808760000184815481106126bf577f4e487b7100000000000000000000000000000000000000000000000000000000600052603260045260246000fd5b90600052602060002001819055506001836126da9190614006565b876001016000838152602001908152602001600020819055508660000180548061272d577f4e487b7100000000000000000000000000000000000000000000000000000000600052603160045260246000fd5b6001900381819060005260206000200160009055905586600101600087815260200190815260200160002060009055600194505050505061276f565b60009150505b92915050565b600080836001016000848152602001908152602001600020541415905092915050565b60007f01ffc9a7000000000000000000000000000000000000000000000000000000007bffffffffffffffffffffffffffffffffffffffffffffffffffffffff1916827bffffffffffffffffffffffffffffffffffffffffffffffffffffffff1916149050919050565b61280d83838361286d565b612815610bde565b15612855576040517f08c379a000000000000000000000000000000000000000000000000000000000815260040161284c90613c27565b60405180910390fd5b505050565b600080823b905060008111915050919050565b612878838383612981565b600073ffffffffffffffffffffffffffffffffffffffff168373ffffffffffffffffffffffffffffffffffffffff1614156128bb576128b681612986565b6128fa565b8173ffffffffffffffffffffffffffffffffffffffff168373ffffffffffffffffffffffffffffffffffffffff16146128f9576128f883826129cf565b5b5b600073ffffffffffffffffffffffffffffffffffffffff168273ffffffffffffffffffffffffffffffffffffffff16141561293d5761293881612b3c565b61297c565b8273ffffffffffffffffffffffffffffffffffffffff168273ffffffffffffffffffffffffffffffffffffffff161461297b5761297a8282612c7f565b5b5b505050565b505050565b600a80549050600b600083815260200190815260200160002081905550600a81908060018154018082558091505060019003906000526020600020016000909190919091505550565b600060016129dc84610d37565b6129e6919061408d565b9050600060096000848152602001908152602001600020549050818114612acb576000600860008673ffffffffffffffffffffffffffffffffffffffff1673ffffffffffffffffffffffffffffffffffffffff168152602001908152602001600020600084815260200190815260200160002054905080600860008773ffffffffffffffffffffffffffffffffffffffff1673ffffffffffffffffffffffffffffffffffffffff168152602001908152602001600020600084815260200190815260200160002081905550816009600083815260200190815260200160002081905550505b6009600084815260200190815260200160002060009055600860008573ffffffffffffffffffffffffffffffffffffffff1673ffffffffffffffffffffffffffffffffffffffff16815260200190815260200160002060008381526020019081526020016000206000905550505050565b60006001600a80549050612b50919061408d565b90506000600b60008481526020019081526020016000205490506000600a8381548110612ba6577f4e487b7100000000000000000000000000000000000000000000000000000000600052603260045260246000fd5b9060005260206000200154905080600a8381548110612bee577f4e487b7100000000000000000000000000000000000000000000000000000000600052603260045260246000fd5b906000526020600020018190555081600b600083815260200190815260200160002081905550600b600085815260200190815260200160002060009055600a805480612c63577f4e487b7100000000000000000000000000000000000000000000000000000000600052603160045260246000fd5b6001900381819060005260206000200160009055905550505050565b6000612c8a83610d37565b905081600860008573ffffffffffffffffffffffffffffffffffffffff1673ffffffffffffffffffffffffffffffffffffffff168152602001908152602001600020600083815260200190815260200160002081905550806009600084815260200190815260200160002081905550505050565b6000612d11612d0c84613f93565b613f62565b905082815260208101848484011115612d2957600080fd5b612d3484828561413f565b509392505050565b600081359050612d4b816142fa565b92915050565b600081359050612d6081614311565b92915050565b600081359050612d7581614328565b92915050565b600081359050612d8a8161433f565b92915050565b600081519050612d9f8161433f565b92915050565b600082601f830112612db657600080fd5b8135612dc6848260208601612cfe565b91505092915050565b600081359050612dde81614356565b92915050565b600060208284031215612df657600080fd5b6000612e0484828501612d3c565b91505092915050565b60008060408385031215612e2057600080fd5b6000612e2e85828601612d3c565b9250506020612e3f85828601612d3c565b9150509250929050565b600080600060608486031215612e5e57600080fd5b6000612e6c86828701612d3c565b9350506020612e7d86828701612d3c565b9250506040612e8e86828701612dcf565b9150509250925092565b60008060008060808587031215612eae57600080fd5b6000612ebc87828801612d3c565b9450506020612ecd87828801612d3c565b9350506040612ede87828801612dcf565b925050606085013567ffffffffffffffff811115612efb57600080fd5b612f0787828801612da5565b91505092959194509250565b60008060408385031215612f2657600080fd5b6000612f3485828601612d3c565b9250506020612f4585828601612d51565b9150509250929050565b60008060408385031215612f6257600080fd5b6000612f7085828601612d3c565b9250506020612f8185828601612dcf565b9150509250929050565b600060208284031215612f9d57600080fd5b6000612fab84828501612d66565b91505092915050565b60008060408385031215612fc757600080fd5b6000612fd585828601612d66565b9250506020612fe685828601612d3c565b9150509250929050565b6000806040838503121561300357600080fd5b600061301185828601612d66565b925050602061302285828601612dcf565b9150509250929050565b60006020828403121561303e57600080fd5b600061304c84828501612d7b565b91505092915050565b60006020828403121561306757600080fd5b600061307584828501612d90565b91505092915050565b60006020828403121561309057600080fd5b600061309e84828501612dcf565b91505092915050565b6130b0816140c1565b82525050565b6130bf816140d3565b82525050565b6130ce816140df565b82525050565b60006130df82613fc3565b6130e98185613fd9565b93506130f981856020860161414e565b613102816142e9565b840191505092915050565b600061311882613fce565b6131228185613fea565b935061313281856020860161414e565b61313b816142e9565b840191505092915050565b600061315182613fce565b61315b8185613ffb565b935061316b81856020860161414e565b80840191505092915050565b6000613184602283613fea565b91507f456e756d657261626c655365743a20696e646578206f7574206f6620626f756e60008301527f64730000000000000000000000000000000000000000000000000000000000006020830152604082019050919050565b60006131ea602b83613fea565b91507f4552433732315061757361626c653a20746f6b656e207472616e73666572207760008301527f68696c65207061757365640000000000000000000000000000000000000000006020830152604082019050919050565b6000613250602f83613fea565b91507f416363657373436f6e74726f6c3a2073656e646572206d75737420626520616e60008301527f2061646d696e20746f206772616e7400000000000000000000000000000000006020830152604082019050919050565b60006132b6601483613fea565b91507f5061757361626c653a206e6f74207061757365640000000000000000000000006000830152602082019050919050565b60006132f6602b83613fea565b91507f455243373231456e756d657261626c653a206f776e657220696e646578206f7560008301527f74206f6620626f756e64730000000000000000000000000000000000000000006020830152604082019050919050565b600061335c603283613fea565b91507f4552433732313a207472616e7366657220746f206e6f6e20455243373231526560008301527f63656976657220696d706c656d656e74657200000000000000000000000000006020830152604082019050919050565b60006133c2601c83613fea565b91507f4552433732313a20746f6b656e20616c7265616479206d696e746564000000006000830152602082019050919050565b6000613402602483613fea565b91507f4552433732313a207472616e7366657220746f20746865207a65726f2061646460008301527f72657373000000000000000000000000000000000000000000000000000000006020830152604082019050919050565b6000613468601983613fea565b91507f4552433732313a20617070726f766520746f2063616c6c6572000000000000006000830152602082019050919050565b60006134a8602c83613fea565b91507f4552433732313a206f70657261746f7220717565727920666f72206e6f6e657860008301527f697374656e7420746f6b656e00000000000000000000000000000000000000006020830152604082019050919050565b600061350e603083613fea565b91507f416363657373436f6e74726f6c3a2073656e646572206d75737420626520616e60008301527f2061646d696e20746f207265766f6b65000000000000000000000000000000006020830152604082019050919050565b6000613574601083613fea565b91507f5061757361626c653a20706175736564000000000000000000000000000000006000830152602082019050919050565b60006135b4603883613fea565b91507f4552433732313a20617070726f76652063616c6c6572206973206e6f74206f7760008301527f6e6572206e6f7220617070726f76656420666f7220616c6c00000000000000006020830152604082019050919050565b600061361a602a83613fea565b91507f4552433732313a2062616c616e636520717565727920666f7220746865207a6560008301527f726f2061646472657373000000000000000000000000000000000000000000006020830152604082019050919050565b6000613680602983613fea565b91507f4552433732313a206f776e657220717565727920666f72206e6f6e657869737460008301527f656e7420746f6b656e00000000000000000000000000000000000000000000006020830152604082019050919050565b60006136e6602083613fea565b91507f4552433732313a206d696e7420746f20746865207a65726f20616464726573736000830152602082019050919050565b6000613726602c83613fea565b91507f4552433732313a20617070726f76656420717565727920666f72206e6f6e657860008301527f697374656e7420746f6b656e00000000000000000000000000000000000000006020830152604082019050919050565b600061378c602983613fea565b91507f4552433732313a207472616e73666572206f6620746f6b656e2074686174206960008301527f73206e6f74206f776e00000000000000000000000000000000000000000000006020830152604082019050919050565b60006137f2602f83613fea565b91507f4552433732314d657461646174613a2055524920717565727920666f72206e6f60008301527f6e6578697374656e7420746f6b656e00000000000000000000000000000000006020830152604082019050919050565b6000613858602283613fea565b91507f4552433732312046756c6c3a2050617573657220526f6c65205265717569726560008301527f642e0000000000000000000000000000000000000000000000000000000000006020830152604082019050919050565b60006138be602183613fea565b91507f4552433732313a20617070726f76616c20746f2063757272656e74206f776e6560008301527f72000000000000000000000000000000000000000000000000000000000000006020830152604082019050919050565b6000613924603183613fea565b91507f4552433732313a207472616e736665722063616c6c6572206973206e6f74206f60008301527f776e6572206e6f7220617070726f7665640000000000000000000000000000006020830152604082019050919050565b600061398a602183613fea565b91507f4552433732312046756c6c3a204d696e74657220526f6c65205265717569726560008301527f64000000000000000000000000000000000000000000000000000000000000006020830152604082019050919050565b60006139f0602c83613fea565b91507f455243373231456e756d657261626c653a20676c6f62616c20696e646578206f60008301527f7574206f6620626f756e647300000000000000000000000000000000000000006020830152604082019050919050565b6000613a56603083613fea565b91507f4552433732314275726e61626c653a2063616c6c6572206973206e6f74206f7760008301527f6e6572206e6f7220617070726f766564000000000000000000000000000000006020830152604082019050919050565b6000613abc602f83613fea565b91507f416363657373436f6e74726f6c3a2063616e206f6e6c792072656e6f756e636560008301527f20726f6c657320666f722073656c6600000000000000000000000000000000006020830152604082019050919050565b613b1e81614135565b82525050565b6000613b308285613146565b9150613b3c8284613146565b91508190509392505050565b6000602082019050613b5d60008301846130a7565b92915050565b6000608082019050613b7860008301876130a7565b613b8560208301866130a7565b613b926040830185613b15565b8181036060830152613ba481846130d4565b905095945050505050565b6000602082019050613bc460008301846130b6565b92915050565b6000602082019050613bdf60008301846130c5565b92915050565b60006020820190508181036000830152613bff818461310d565b905092915050565b60006020820190508181036000830152613c2081613177565b9050919050565b60006020820190508181036000830152613c40816131dd565b9050919050565b60006020820190508181036000830152613c6081613243565b9050919050565b60006020820190508181036000830152613c80816132a9565b9050919050565b60006020820190508181036000830152613ca0816132e9565b9050919050565b60006020820190508181036000830152613cc08161334f565b9050919050565b60006020820190508181036000830152613ce0816133b5565b9050919050565b60006020820190508181036000830152613d00816133f5565b9050919050565b60006020820190508181036000830152613d208161345b565b9050919050565b60006020820190508181036000830152613d408161349b565b9050919050565b60006020820190508181036000830152613d6081613501565b9050919050565b60006020820190508181036000830152613d8081613567565b9050919050565b60006020820190508181036000830152613da0816135a7565b9050919050565b60006020820190508181036000830152613dc08161360d565b9050919050565b60006020820190508181036000830152613de081613673565b9050919050565b60006020820190508181036000830152613e00816136d9565b9050919050565b60006020820190508181036000830152613e2081613719565b9050919050565b60006020820190508181036000830152613e408161377f565b9050919050565b60006020820190508181036000830152613e60816137e5565b9050919050565b60006020820190508181036000830152613e808161384b565b9050919050565b60006020820190508181036000830152613ea0816138b1565b9050919050565b60006020820190508181036000830152613ec081613917565b9050919050565b60006020820190508181036000830152613ee08161397d565b9050919050565b60006020820190508181036000830152613f00816139e3565b9050919050565b60006020820190508181036000830152613f2081613a49565b9050919050565b60006020820190508181036000830152613f4081613aaf565b9050919050565b6000602082019050613f5c6000830184613b15565b92915050565b6000604051905081810181811067ffffffffffffffff82111715613f8957613f886142ba565b5b8060405250919050565b600067ffffffffffffffff821115613fae57613fad6142ba565b5b601f19601f8301169050602081019050919050565b600081519050919050565b600081519050919050565b600082825260208201905092915050565b600082825260208201905092915050565b600081905092915050565b600061401182614135565b915061401c83614135565b9250827fffffffffffffffffffffffffffffffffffffffffffffffffffffffffffffffff038211156140515761405061422d565b5b828201905092915050565b600061406782614135565b915061407283614135565b9250826140825761408161425c565b5b828204905092915050565b600061409882614135565b91506140a383614135565b9250828210156140b6576140b561422d565b5b828203905092915050565b60006140cc82614115565b9050919050565b60008115159050919050565b6000819050919050565b60007fffffffff0000000000000000000000000000000000000000000000000000000082169050919050565b600073ffffffffffffffffffffffffffffffffffffffff82169050919050565b6000819050919050565b82818337600083830152505050565b60005b8381101561416c578082015181840152602081019050614151565b8381111561417b576000848401525b50505050565b6000600282049050600182168061419957607f821691505b602082108114156141ad576141ac61428b565b5b50919050565b60006141be82614135565b91507fffffffffffffffffffffffffffffffffffffffffffffffffffffffffffffffff8214156141f1576141f061422d565b5b600182019050919050565b600061420782614135565b915061421283614135565b9250826142225761422161425c565b5b828206905092915050565b7f4e487b7100000000000000000000000000000000000000000000000000000000600052601160045260246000fd5b7f4e487b7100000000000000000000000000000000000000000000000000000000600052601260045260246000fd5b7f4e487b7100000000000000000000000000000000000000000000000000000000600052602260045260246000fd5b7f4e487b7100000000000000000000000000000000000000000000000000000000600052604160045260246000fd5b6000601f19601f8301169050919050565b614303816140c1565b811461430e57600080fd5b50565b61431a816140d3565b811461432557600080fd5b50565b614331816140df565b811461433c57600080fd5b50565b614348816140e9565b811461435357600080fd5b50565b61435f81614135565b811461436a57600080fd5b5056fea2646970667358221220bb5533233aacb9504263fe7de50859085739810e89817a28d016779ecd6f104264736f6c63430008000033",
  "immutableReferences": {},
  "source": "// SPDX-License-Identifier: MIT\npragma solidity >=0.5.11 <0.9.0;\n\n\nimport \"./ERC721.sol\";\nimport \"./extensions/ERC721Enumerable.sol\";\nimport \"./extensions/ERC721Burnable.sol\";\nimport \"./extensions/ERC721Pausable.sol\";\nimport \"../access/AccessControlEnumerable.sol\";\n\nimport \"../gsn/Context.sol\";\nimport \"../utils/Counters.sol\";\n\n\ncontract ERC721Full is Context, AccessControlEnumerable, ERC721Enumerable, ERC721Burnable, ERC721Pausable {\n    using Counters for Counters.Counter;\n\n    bytes32 public constant MINTER_ROLE = keccak256(\"MINTER_ROLE\");\n    bytes32 public constant PAUSER_ROLE = keccak256(\"PAUSER_ROLE\");\n\n    Counters.Counter internal _tokenIdTracker;\n\n    string private _baseTokenURI;\n\n    constructor(string memory name_, string memory symbol_, string memory baseTokenURI_)\n    ERC721(name_, symbol_) {\n        _baseTokenURI = baseTokenURI_;\n        _setupRole(DEFAULT_ADMIN_ROLE, _msgSender());\n        _setupRole(MINTER_ROLE, _msgSender());\n        _setupRole(PAUSER_ROLE, _msgSender());\n    }\n\n    modifier onlyPauser(){\n        require(hasRole(PAUSER_ROLE, _msgSender()), \"ERC721 Full: Pauser Role Required.\");\n        _;\n    }\n\n    modifier onlyMinter(){\n        require(hasRole(MINTER_ROLE, _msgSender()), \"ERC721 Full: Minter Role Required\");\n        _;\n\n    }\n\n    function _baseURI() internal view virtual override returns(string memory){\n        return _baseTokenURI;\n    }\n\n    /**\n     * @dev Creates a new token for `to`. Its token ID will be automatically\n     * assigned (and available on the emitted {IERC721-Transfer} event), and the token\n     * URI autogenerated based on the base URI passed at construction.\n     *\n     * See {ERC721-_mint}.\n     *\n     * Requirements:\n     *\n     * - the caller must have the `MINTER_ROLE`.\n     */\n     function mint(address _to) public onlyMinter virtual {\n         _mint(_to, _tokenIdTracker.current());\n         _tokenIdTracker.increment();\n     }\n\n      /**\n     * @dev Pauses all token transfers.\n     *\n     * See {ERC721Pausable} and {Pausable-_pause}.\n     *\n     * Requirements:\n     *\n     * - the caller must have the `PAUSER_ROLE`.\n     */\n     function pause() public onlyPauser virtual {\n         _pause();\n     }\n\n     /**\n     * @dev Unpauses all token transfers.\n     *\n     * See {ERC721Pausable} and {Pausable-_unpause}.\n     *\n     * Requirements:\n     *\n     * - the caller must have the `PAUSER_ROLE`.\n     */\n     function unpause() public onlyPauser {\n         _unpause();\n     }\n\n/**\n     * @dev Prefixes token transfers.\n     *\n     * See {ERC721}\n     *\n     * Requirements:\n     *\n     * - optional logic embedded before a transfer\n     */\n    function _beforeTokenTransfer(address _from, address _to, uint256 _tokenId) internal virtual override(ERC721, ERC721Enumerable, ERC721Pausable) {\n        super._beforeTokenTransfer(_from, _to, _tokenId);\n    }\n\n    /**\n     * @dev See {IERC165-supportsInterface}.\n     */\n     function supportsInterface(bytes4 interfaceId) public view virtual override(ERC721, ERC721Enumerable) returns (bool) {\n         return super.supportsInterface(interfaceId);\n     }\n\n\n\n}",
  "sourcePath": "/Users/dennismacpro/Projects/Defi/Ethereum-Solidity-Collection/nft-kit/contracts/ERC721/ERC721Full.sol",
  "compiler": {
    "name": "solc",
    "version": "0.8.0+commit.c7dfd78e.Darwin.appleclang"
  },
  "schemaVersion": "3.3.4",
  "updatedAt": "2021-03-09T21:07:54.997Z",
  "devdoc": {
    "kind": "dev",
    "methods": {
      "approve(address,uint256)": {
        "details": "See {IERC721-approve}."
      },
      "balanceOf(address)": {
        "details": "See {IERC721-balanceOf}."
      },
      "burn(uint256)": {
        "details": "Burns `tokenId`. See {ERC721-_burn}. Requirements: - The caller must own `tokenId` or be an approved operator."
      },
      "getApproved(uint256)": {
        "details": "See {IERC721-getApproved}."
      },
      "getRoleAdmin(bytes32)": {
        "details": "Returns the admin role that controls `role`. See {grantRole} and {revokeRole}. To change a role's admin, use {_setRoleAdmin}."
      },
      "getRoleMember(bytes32,uint256)": {
        "details": "Returns one of the accounts that have `role`. `index` must be a value between 0 and {getRoleMemberCount}, non-inclusive. Role bearers are not sorted in any particular way, and their ordering may change at any point. WARNING: When using {getRoleMember} and {getRoleMemberCount}, make sure you perform all queries on the same block. See the following https://forum.openzeppelin.com/t/iterating-over-elements-on-enumerableset-in-openzeppelin-contracts/2296[forum post] for more information."
      },
      "getRoleMemberCount(bytes32)": {
        "details": "Returns the number of accounts that have `role`. Can be used together with {getRoleMember} to enumerate all bearers of a role."
      },
      "grantRole(bytes32,address)": {
        "details": "Overload {grantRole} to track enumerable memberships"
      },
      "hasRole(bytes32,address)": {
        "details": "Returns `true` if `account` has been granted `role`."
      },
      "isApprovedForAll(address,address)": {
        "details": "See {IERC721-isApprovedForAll}."
      },
      "mint(address)": {
        "details": "Creates a new token for `to`. Its token ID will be automatically assigned (and available on the emitted {IERC721-Transfer} event), and the token URI autogenerated based on the base URI passed at construction. See {ERC721-_mint}. Requirements: - the caller must have the `MINTER_ROLE`."
      },
      "name()": {
        "details": "See {IERC721Metadata-name}."
      },
      "ownerOf(uint256)": {
        "details": "See {IERC721-ownerOf}."
      },
      "pause()": {
        "details": "Pauses all token transfers. See {ERC721Pausable} and {Pausable-_pause}. Requirements: - the caller must have the `PAUSER_ROLE`."
      },
      "paused()": {
        "details": "Returns true if the contract is paused, and false otherwise."
      },
      "renounceRole(bytes32,address)": {
        "details": "Revokes `role` from the calling account. Roles are often managed via {grantRole} and {revokeRole}: this function's purpose is to provide a mechanism for accounts to lose their privileges if they are compromised (such as when a trusted device is misplaced). If the calling account had been granted `role`, emits a {RoleRevoked} event. Requirements: - the caller must be `account`."
      },
      "revokeRole(bytes32,address)": {
        "details": "Overload {revokeRole} to track enumerable memberships"
      },
      "safeTransferFrom(address,address,uint256)": {
        "details": "See {IERC721-safeTransferFrom}."
      },
      "safeTransferFrom(address,address,uint256,bytes)": {
        "details": "See {IERC721-safeTransferFrom}."
      },
      "setApprovalForAll(address,bool)": {
        "details": "See {IERC721-setApprovalForAll}."
      },
      "supportsInterface(bytes4)": {
        "details": "See {IERC165-supportsInterface}."
      },
      "symbol()": {
        "details": "See {IERC721Metadata-symbol}."
      },
      "tokenByIndex(uint256)": {
        "details": "See {IERC721Enumerable-tokenByIndex}."
      },
      "tokenOfOwnerByIndex(address,uint256)": {
        "details": "See {IERC721Enumerable-tokenOfOwnerByIndex}."
      },
      "tokenURI(uint256)": {
        "details": "See {IERC721Metadata-tokenURI}."
      },
      "totalSupply()": {
        "details": "See {IERC721Enumerable-totalSupply}."
      },
      "transferFrom(address,address,uint256)": {
        "details": "See {IERC721-transferFrom}."
      },
      "unpause()": {
        "details": "Unpauses all token transfers. See {ERC721Pausable} and {Pausable-_unpause}. Requirements: - the caller must have the `PAUSER_ROLE`."
      }
    },
    "version": 1
  },
  "userdoc": {
    "kind": "user",
    "methods": {},
    "version": 1
  }
}