{
  "contractName": "ERC721Full",
  "abi": [
    {
      "inputs": [
        {
          "internalType": "string",
          "name": "name_",
          "type": "string"
        },
        {
          "internalType": "string",
          "name": "symbol_",
          "type": "string"
        },
        {
          "internalType": "string",
          "name": "baseTokenURI_",
          "type": "string"
        }
      ],
      "stateMutability": "nonpayable",
      "type": "constructor"
    },
    {
      "anonymous": false,
      "inputs": [
        {
          "indexed": true,
          "internalType": "address",
          "name": "owner",
          "type": "address"
        },
        {
          "indexed": true,
          "internalType": "address",
          "name": "approved",
          "type": "address"
        },
        {
          "indexed": true,
          "internalType": "uint256",
          "name": "tokenId",
          "type": "uint256"
        }
      ],
      "name": "Approval",
      "type": "event"
    },
    {
      "anonymous": false,
      "inputs": [
        {
          "indexed": true,
          "internalType": "address",
          "name": "owner",
          "type": "address"
        },
        {
          "indexed": true,
          "internalType": "address",
          "name": "operator",
          "type": "address"
        },
        {
          "indexed": false,
          "internalType": "bool",
          "name": "approved",
          "type": "bool"
        }
      ],
      "name": "ApprovalForAll",
      "type": "event"
    },
    {
      "anonymous": false,
      "inputs": [
        {
          "indexed": true,
          "internalType": "uint256",
          "name": "_tokenId",
          "type": "uint256"
        }
      ],
      "name": "Burned",
      "type": "event"
    },
    {
      "anonymous": false,
      "inputs": [
        {
          "indexed": true,
          "internalType": "address",
          "name": "_artist",
          "type": "address"
        },
        {
          "indexed": true,
          "internalType": "uint256",
          "name": "_tokenId",
          "type": "uint256"
        },
        {
          "indexed": false,
          "internalType": "string",
          "name": "_tokenURI",
          "type": "string"
        },
        {
          "indexed": false,
          "internalType": "bytes16",
          "name": "_edition",
          "type": "bytes16"
        }
      ],
      "name": "Minted",
      "type": "event"
    },
    {
      "anonymous": false,
      "inputs": [
        {
          "indexed": false,
          "internalType": "address",
          "name": "account",
          "type": "address"
        }
      ],
      "name": "Paused",
      "type": "event"
    },
    {
      "anonymous": false,
      "inputs": [
        {
          "indexed": true,
          "internalType": "bytes32",
          "name": "role",
          "type": "bytes32"
        },
        {
          "indexed": true,
          "internalType": "bytes32",
          "name": "previousAdminRole",
          "type": "bytes32"
        },
        {
          "indexed": true,
          "internalType": "bytes32",
          "name": "newAdminRole",
          "type": "bytes32"
        }
      ],
      "name": "RoleAdminChanged",
      "type": "event"
    },
    {
      "anonymous": false,
      "inputs": [
        {
          "indexed": true,
          "internalType": "bytes32",
          "name": "role",
          "type": "bytes32"
        },
        {
          "indexed": true,
          "internalType": "address",
          "name": "account",
          "type": "address"
        },
        {
          "indexed": true,
          "internalType": "address",
          "name": "sender",
          "type": "address"
        }
      ],
      "name": "RoleGranted",
      "type": "event"
    },
    {
      "anonymous": false,
      "inputs": [
        {
          "indexed": true,
          "internalType": "bytes32",
          "name": "role",
          "type": "bytes32"
        },
        {
          "indexed": true,
          "internalType": "address",
          "name": "account",
          "type": "address"
        },
        {
          "indexed": true,
          "internalType": "address",
          "name": "sender",
          "type": "address"
        }
      ],
      "name": "RoleRevoked",
      "type": "event"
    },
    {
      "anonymous": false,
      "inputs": [
        {
          "indexed": true,
          "internalType": "address",
          "name": "from",
          "type": "address"
        },
        {
          "indexed": true,
          "internalType": "address",
          "name": "to",
          "type": "address"
        },
        {
          "indexed": true,
          "internalType": "uint256",
          "name": "tokenId",
          "type": "uint256"
        }
      ],
      "name": "Transfer",
      "type": "event"
    },
    {
      "anonymous": false,
      "inputs": [
        {
          "indexed": false,
          "internalType": "address",
          "name": "account",
          "type": "address"
        }
      ],
      "name": "Unpaused",
      "type": "event"
    },
    {
      "inputs": [],
      "name": "BURNER_ROLE",
      "outputs": [
        {
          "internalType": "bytes32",
          "name": "",
          "type": "bytes32"
        }
      ],
      "stateMutability": "view",
      "type": "function"
    },
    {
      "inputs": [],
      "name": "DEFAULT_ADMIN_ROLE",
      "outputs": [
        {
          "internalType": "bytes32",
          "name": "",
          "type": "bytes32"
        }
      ],
      "stateMutability": "view",
      "type": "function"
    },
    {
      "inputs": [],
      "name": "MINTER_ROLE",
      "outputs": [
        {
          "internalType": "bytes32",
          "name": "",
          "type": "bytes32"
        }
      ],
      "stateMutability": "view",
      "type": "function"
    },
    {
      "inputs": [],
      "name": "PAUSER_ROLE",
      "outputs": [
        {
          "internalType": "bytes32",
          "name": "",
          "type": "bytes32"
        }
      ],
      "stateMutability": "view",
      "type": "function"
    },
    {
      "inputs": [
        {
          "internalType": "address",
          "name": "to",
          "type": "address"
        },
        {
          "internalType": "uint256",
          "name": "tokenId",
          "type": "uint256"
        }
      ],
      "name": "approve",
      "outputs": [],
      "stateMutability": "nonpayable",
      "type": "function"
    },
    {
      "inputs": [
        {
          "internalType": "address",
          "name": "owner",
          "type": "address"
        }
      ],
      "name": "balanceOf",
      "outputs": [
        {
          "internalType": "uint256",
          "name": "",
          "type": "uint256"
        }
      ],
      "stateMutability": "view",
      "type": "function"
    },
    {
      "inputs": [
        {
          "internalType": "uint256",
          "name": "tokenId",
          "type": "uint256"
        }
      ],
      "name": "getApproved",
      "outputs": [
        {
          "internalType": "address",
          "name": "",
          "type": "address"
        }
      ],
      "stateMutability": "view",
      "type": "function"
    },
    {
      "inputs": [
        {
          "internalType": "bytes32",
          "name": "role",
          "type": "bytes32"
        }
      ],
      "name": "getRoleAdmin",
      "outputs": [
        {
          "internalType": "bytes32",
          "name": "",
          "type": "bytes32"
        }
      ],
      "stateMutability": "view",
      "type": "function"
    },
    {
      "inputs": [
        {
          "internalType": "bytes32",
          "name": "role",
          "type": "bytes32"
        },
        {
          "internalType": "uint256",
          "name": "index",
          "type": "uint256"
        }
      ],
      "name": "getRoleMember",
      "outputs": [
        {
          "internalType": "address",
          "name": "",
          "type": "address"
        }
      ],
      "stateMutability": "view",
      "type": "function"
    },
    {
      "inputs": [
        {
          "internalType": "bytes32",
          "name": "role",
          "type": "bytes32"
        }
      ],
      "name": "getRoleMemberCount",
      "outputs": [
        {
          "internalType": "uint256",
          "name": "",
          "type": "uint256"
        }
      ],
      "stateMutability": "view",
      "type": "function"
    },
    {
      "inputs": [
        {
          "internalType": "bytes32",
          "name": "role",
          "type": "bytes32"
        },
        {
          "internalType": "address",
          "name": "account",
          "type": "address"
        }
      ],
      "name": "grantRole",
      "outputs": [],
      "stateMutability": "nonpayable",
      "type": "function"
    },
    {
      "inputs": [
        {
          "internalType": "bytes32",
          "name": "role",
          "type": "bytes32"
        },
        {
          "internalType": "address",
          "name": "account",
          "type": "address"
        }
      ],
      "name": "hasRole",
      "outputs": [
        {
          "internalType": "bool",
          "name": "",
          "type": "bool"
        }
      ],
      "stateMutability": "view",
      "type": "function"
    },
    {
      "inputs": [
        {
          "internalType": "address",
          "name": "owner",
          "type": "address"
        },
        {
          "internalType": "address",
          "name": "operator",
          "type": "address"
        }
      ],
      "name": "isApprovedForAll",
      "outputs": [
        {
          "internalType": "bool",
          "name": "",
          "type": "bool"
        }
      ],
      "stateMutability": "view",
      "type": "function"
    },
    {
      "inputs": [],
      "name": "name",
      "outputs": [
        {
          "internalType": "string",
          "name": "",
          "type": "string"
        }
      ],
      "stateMutability": "view",
      "type": "function"
    },
    {
      "inputs": [
        {
          "internalType": "uint256",
          "name": "tokenId",
          "type": "uint256"
        }
      ],
      "name": "ownerOf",
      "outputs": [
        {
          "internalType": "address",
          "name": "",
          "type": "address"
        }
      ],
      "stateMutability": "view",
      "type": "function"
    },
    {
      "inputs": [],
      "name": "paused",
      "outputs": [
        {
          "internalType": "bool",
          "name": "",
          "type": "bool"
        }
      ],
      "stateMutability": "view",
      "type": "function"
    },
    {
      "inputs": [
        {
          "internalType": "bytes32",
          "name": "role",
          "type": "bytes32"
        },
        {
          "internalType": "address",
          "name": "account",
          "type": "address"
        }
      ],
      "name": "renounceRole",
      "outputs": [],
      "stateMutability": "nonpayable",
      "type": "function"
    },
    {
      "inputs": [
        {
          "internalType": "bytes32",
          "name": "role",
          "type": "bytes32"
        },
        {
          "internalType": "address",
          "name": "account",
          "type": "address"
        }
      ],
      "name": "revokeRole",
      "outputs": [],
      "stateMutability": "nonpayable",
      "type": "function"
    },
    {
      "inputs": [
        {
          "internalType": "address",
          "name": "from",
          "type": "address"
        },
        {
          "internalType": "address",
          "name": "to",
          "type": "address"
        },
        {
          "internalType": "uint256",
          "name": "tokenId",
          "type": "uint256"
        }
      ],
      "name": "safeTransferFrom",
      "outputs": [],
      "stateMutability": "nonpayable",
      "type": "function"
    },
    {
      "inputs": [
        {
          "internalType": "address",
          "name": "from",
          "type": "address"
        },
        {
          "internalType": "address",
          "name": "to",
          "type": "address"
        },
        {
          "internalType": "uint256",
          "name": "tokenId",
          "type": "uint256"
        },
        {
          "internalType": "bytes",
          "name": "_data",
          "type": "bytes"
        }
      ],
      "name": "safeTransferFrom",
      "outputs": [],
      "stateMutability": "nonpayable",
      "type": "function"
    },
    {
      "inputs": [
        {
          "internalType": "address",
          "name": "operator",
          "type": "address"
        },
        {
          "internalType": "bool",
          "name": "approved",
          "type": "bool"
        }
      ],
      "name": "setApprovalForAll",
      "outputs": [],
      "stateMutability": "nonpayable",
      "type": "function"
    },
    {
      "inputs": [],
      "name": "symbol",
      "outputs": [
        {
          "internalType": "string",
          "name": "",
          "type": "string"
        }
      ],
      "stateMutability": "view",
      "type": "function"
    },
    {
      "inputs": [
        {
          "internalType": "uint256",
          "name": "index",
          "type": "uint256"
        }
      ],
      "name": "tokenByIndex",
      "outputs": [
        {
          "internalType": "uint256",
          "name": "",
          "type": "uint256"
        }
      ],
      "stateMutability": "view",
      "type": "function"
    },
    {
      "inputs": [
        {
          "internalType": "address",
          "name": "owner",
          "type": "address"
        },
        {
          "internalType": "uint256",
          "name": "index",
          "type": "uint256"
        }
      ],
      "name": "tokenOfOwnerByIndex",
      "outputs": [
        {
          "internalType": "uint256",
          "name": "",
          "type": "uint256"
        }
      ],
      "stateMutability": "view",
      "type": "function"
    },
    {
      "inputs": [],
      "name": "totalSupply",
      "outputs": [
        {
          "internalType": "uint256",
          "name": "",
          "type": "uint256"
        }
      ],
      "stateMutability": "view",
      "type": "function"
    },
    {
      "inputs": [
        {
          "internalType": "address",
          "name": "from",
          "type": "address"
        },
        {
          "internalType": "address",
          "name": "to",
          "type": "address"
        },
        {
          "internalType": "uint256",
          "name": "tokenId",
          "type": "uint256"
        }
      ],
      "name": "transferFrom",
      "outputs": [],
      "stateMutability": "nonpayable",
      "type": "function"
    },
    {
      "inputs": [
        {
          "internalType": "string",
          "name": "_newBaseURI",
          "type": "string"
        }
      ],
      "name": "setTokenBaseURI",
      "outputs": [],
      "stateMutability": "nonpayable",
      "type": "function"
    },
    {
      "inputs": [
        {
          "internalType": "uint256",
          "name": "_tokenId",
          "type": "uint256"
        }
      ],
      "name": "tokenURI",
      "outputs": [
        {
          "internalType": "string",
          "name": "",
          "type": "string"
        }
      ],
      "stateMutability": "view",
      "type": "function"
    },
    {
      "inputs": [
        {
          "internalType": "address",
          "name": "_artist",
          "type": "address"
        },
        {
          "internalType": "string",
          "name": "_tokenURI",
          "type": "string"
        },
        {
          "internalType": "bytes16",
          "name": "_edition",
          "type": "bytes16"
        }
      ],
      "name": "mint",
      "outputs": [
        {
          "internalType": "uint256",
          "name": "",
          "type": "uint256"
        }
      ],
      "stateMutability": "nonpayable",
      "type": "function"
    },
    {
      "inputs": [
        {
          "internalType": "uint256",
          "name": "_tokenId",
          "type": "uint256"
        }
      ],
      "name": "burn",
      "outputs": [],
      "stateMutability": "nonpayable",
      "type": "function"
    },
    {
      "inputs": [],
      "name": "pause",
      "outputs": [],
      "stateMutability": "nonpayable",
      "type": "function"
    },
    {
      "inputs": [],
      "name": "unpause",
      "outputs": [],
      "stateMutability": "nonpayable",
      "type": "function"
    },
    {
      "inputs": [
        {
          "internalType": "bytes4",
          "name": "interfaceId",
          "type": "bytes4"
        }
      ],
      "name": "supportsInterface",
      "outputs": [
        {
          "internalType": "bool",
          "name": "",
          "type": "bool"
        }
      ],
      "stateMutability": "view",
      "type": "function"
    }
  ],
  "bytecode": "0x60806040523480156200001157600080fd5b506040516200503b3803806200503b833981810160405281019062000037919062000549565b828281600290805190602001906200005192919062000427565b5080600390805190602001906200006a92919062000427565b5050506000600c60006101000a81548160ff02191690831515021790555080600e9080519060200190620000a092919062000427565b50620000c56000801b620000b96200019160201b60201c565b6200019960201b60201c565b620001067f9f2df0fed2c77648de5860a4cc508cd0818c85b8b8a1ab4ceeef8d981c8956a6620000fa6200019160201b60201c565b6200019960201b60201c565b620001477f65d7a28e3265b37a6474929f336521b332c1681b933f6cb9f3376673440d862a6200013b6200019160201b60201c565b6200019960201b60201c565b620001887f3c11d16cbaffd01df69ce1c404f6340ee057498f5f00246190ea54220576a8486200017c6200019160201b60201c565b6200019960201b60201c565b5050506200071b565b600033905090565b620001b08282620001e160201b620017321760201c565b620001dc8160016000858152602001908152602001600020620001f760201b620017401790919060201c565b505050565b620001f382826200022f60201b60201c565b5050565b600062000227836000018373ffffffffffffffffffffffffffffffffffffffff1660001b6200032060201b60201c565b905092915050565b6200024182826200039a60201b60201c565b6200031c57600160008084815260200190815260200160002060000160008373ffffffffffffffffffffffffffffffffffffffff1673ffffffffffffffffffffffffffffffffffffffff16815260200190815260200160002060006101000a81548160ff021916908315150217905550620002c16200019160201b60201c565b73ffffffffffffffffffffffffffffffffffffffff168173ffffffffffffffffffffffffffffffffffffffff16837f2f8788117e7eff1d82e926ec794901d17c78024a50270940304540a733656f0d60405160405180910390a45b5050565b60006200033483836200040460201b60201c565b6200038f57826000018290806001815401808255809150506001900390600052602060002001600090919091909150558260000180549050836001016000848152602001908152602001600020819055506001905062000394565b600090505b92915050565b600080600084815260200190815260200160002060000160008373ffffffffffffffffffffffffffffffffffffffff1673ffffffffffffffffffffffffffffffffffffffff16815260200190815260200160002060009054906101000a900460ff16905092915050565b600080836001016000848152602001908152602001600020541415905092915050565b828054620004359062000687565b90600052602060002090601f016020900481019282620004595760008555620004a5565b82601f106200047457805160ff1916838001178555620004a5565b82800160010185558215620004a5579182015b82811115620004a457825182559160200191906001019062000487565b5b509050620004b49190620004b8565b5090565b5b80821115620004d3576000816000905550600101620004b9565b5090565b6000620004ee620004e8846200061e565b620005ea565b9050828152602081018484840111156200050757600080fd5b6200051484828562000651565b509392505050565b600082601f8301126200052e57600080fd5b815162000540848260208601620004d7565b91505092915050565b6000806000606084860312156200055f57600080fd5b600084015167ffffffffffffffff8111156200057a57600080fd5b62000588868287016200051c565b935050602084015167ffffffffffffffff811115620005a657600080fd5b620005b4868287016200051c565b925050604084015167ffffffffffffffff811115620005d257600080fd5b620005e0868287016200051c565b9150509250925092565b6000604051905081810181811067ffffffffffffffff82111715620006145762000613620006ec565b5b8060405250919050565b600067ffffffffffffffff8211156200063c576200063b620006ec565b5b601f19601f8301169050602081019050919050565b60005b838110156200067157808201518184015260208101905062000654565b8381111562000681576000848401525b50505050565b60006002820490506001821680620006a057607f821691505b60208210811415620006b757620006b6620006bd565b5b50919050565b7f4e487b7100000000000000000000000000000000000000000000000000000000600052602260045260246000fd5b7f4e487b7100000000000000000000000000000000000000000000000000000000600052604160045260246000fd5b614910806200072b6000396000f3fe608060405234801561001057600080fd5b50600436106101fb5760003560e01c80636352211e1161011a578063a22cb465116100ad578063d53913931161007c578063d5391393146105d4578063d547741f146105f2578063e561c5051461060e578063e63ab1e91461063e578063e985e9c51461065c576101fb565b8063a22cb4651461053c578063b88d4fde14610558578063c87b56dd14610574578063ca15c873146105a4576101fb565b80639010d07c116100e95780639010d07c146104a057806391d14854146104d057806395d89b4114610500578063a217fddf1461051e576101fb565b80636352211e1461041a57806370a082311461044a5780638456cb591461047a5780638ef79e9114610484576101fb565b80632f2ff15d1161019257806342842e0e1161016157806342842e0e1461039457806342966c68146103b05780634f6ccce7146103cc5780635c975abb146103fc576101fb565b80632f2ff15d146103225780632f745c591461033e57806336568abe1461036e5780633f4ba83a1461038a576101fb565b806318160ddd116101ce57806318160ddd1461029a57806323b872dd146102b8578063248a9ca3146102d4578063282c51f314610304576101fb565b806301ffc9a71461020057806306fdde0314610230578063081812fc1461024e578063095ea7b31461027e575b600080fd5b61021a6004803603810190610215919061340f565b61068c565b6040516102279190614157565b60405180910390f35b610238610887565b60405161024591906141bf565b60405180910390f35b610268600480360381019061026391906134a6565b610919565b60405161027591906140f0565b60405180910390f35b61029860048036038101906102939190613332565b61099e565b005b6102a2610ab6565b6040516102af9190614521565b60405180910390f35b6102d260048036038101906102cd91906131c0565b610ac3565b005b6102ee60048036038101906102e9919061336e565b610b23565b6040516102fb9190614172565b60405180910390f35b61030c610b42565b6040516103199190614172565b60405180910390f35b61033c60048036038101906103379190613397565b610b66565b005b61035860048036038101906103539190613332565b610b9a565b6040516103659190614521565b60405180910390f35b61038860048036038101906103839190613397565b610c3f565b005b610392610cc2565b005b6103ae60048036038101906103a991906131c0565b610d3c565b005b6103ca60048036038101906103c591906134a6565b610d5c565b005b6103e660048036038101906103e191906134a6565b610d9e565b6040516103f39190614521565b60405180910390f35b610404610e35565b6040516104119190614157565b60405180910390f35b610434600480360381019061042f91906134a6565b610e4c565b60405161044191906140f0565b60405180910390f35b610464600480360381019061045f919061315b565b610efe565b6040516104719190614521565b60405180910390f35b610482610fb6565b005b61049e60048036038101906104999190613461565b611030565b005b6104ba60048036038101906104b591906133d3565b611099565b6040516104c791906140f0565b60405180910390f35b6104ea60048036038101906104e59190613397565b6110c8565b6040516104f79190614157565b60405180910390f35b610508611132565b60405161051591906141bf565b60405180910390f35b6105266111c4565b6040516105339190614172565b60405180910390f35b6105566004803603810190610551919061328a565b6111cb565b005b610572600480360381019061056d919061320f565b61134c565b005b61058e600480360381019061058991906134a6565b6113ae565b60405161059b91906141bf565b60405180910390f35b6105be60048036038101906105b9919061336e565b6114bc565b6040516105cb9190614521565b60405180910390f35b6105dc6114e0565b6040516105e99190614172565b60405180910390f35b61060c60048036038101906106079190613397565b611504565b005b610628600480360381019061062391906132c6565b611538565b6040516106359190614521565b60405180910390f35b61064661167a565b6040516106539190614172565b60405180910390f35b61067660048036038101906106719190613184565b61169e565b6040516106839190614157565b60405180910390f35b60007f80ac58cd000000000000000000000000000000000000000000000000000000007bffffffffffffffffffffffffffffffffffffffffffffffffffffffff1916827bffffffffffffffffffffffffffffffffffffffffffffffffffffffff1916148061075757507f5b5e139f000000000000000000000000000000000000000000000000000000007bffffffffffffffffffffffffffffffffffffffffffffffffffffffff1916827bffffffffffffffffffffffffffffffffffffffffffffffffffffffff1916145b806107bf57507f780e9d63000000000000000000000000000000000000000000000000000000007bffffffffffffffffffffffffffffffffffffffffffffffffffffffff1916827bffffffffffffffffffffffffffffffffffffffffffffffffffffffff1916145b80610808575060007bffffffffffffffffffffffffffffffffffffffffffffffffffffffff1916827bffffffffffffffffffffffffffffffffffffffffffffffffffffffff1916145b8061087057507f42966c68000000000000000000000000000000000000000000000000000000007bffffffffffffffffffffffffffffffffffffffffffffffffffffffff1916827bffffffffffffffffffffffffffffffffffffffffffffffffffffffff1916145b80610880575061087f82611770565b5b9050919050565b60606002805461089690614780565b80601f01602080910402602001604051908101604052809291908181526020018280546108c290614780565b801561090f5780601f106108e45761010080835404028352916020019161090f565b820191906000526020600020905b8154815290600101906020018083116108f257829003601f168201915b5050505050905090565b6000610924826117da565b610963576040517f08c379a000000000000000000000000000000000000000000000000000000000815260040161095a90614401565b60405180910390fd5b6006600083815260200190815260200160002060009054906101000a900473ffffffffffffffffffffffffffffffffffffffff169050919050565b60006109a982610e4c565b90508073ffffffffffffffffffffffffffffffffffffffff168373ffffffffffffffffffffffffffffffffffffffff161415610a1a576040517f08c379a0000000000000000000000000000000000000000000000000000000008152600401610a1190614481565b60405180910390fd5b8073ffffffffffffffffffffffffffffffffffffffff16610a39611846565b73ffffffffffffffffffffffffffffffffffffffff161480610a685750610a6781610a62611846565b61169e565b5b610aa7576040517f08c379a0000000000000000000000000000000000000000000000000000000008152600401610a9e90614361565b60405180910390fd5b610ab1838361184e565b505050565b6000600a80549050905090565b610ad4610ace611846565b82611907565b610b13576040517f08c379a0000000000000000000000000000000000000000000000000000000008152600401610b0a906144a1565b60405180910390fd5b610b1e8383836119e5565b505050565b6000806000838152602001908152602001600020600101549050919050565b7f3c11d16cbaffd01df69ce1c404f6340ee057498f5f00246190ea54220576a84881565b610b708282611c41565b610b95816001600085815260200190815260200160002061174090919063ffffffff16565b505050565b6000610ba583610efe565b8210610be6576040517f08c379a0000000000000000000000000000000000000000000000000000000008152600401610bdd90614261565b60405180910390fd5b600860008473ffffffffffffffffffffffffffffffffffffffff1673ffffffffffffffffffffffffffffffffffffffff168152602001908152602001600020600083815260200190815260200160002054905092915050565b610c47611846565b73ffffffffffffffffffffffffffffffffffffffff168173ffffffffffffffffffffffffffffffffffffffff1614610cb4576040517f08c379a0000000000000000000000000000000000000000000000000000000008152600401610cab90614501565b60405180910390fd5b610cbe8282611ca7565b5050565b610cf37f65d7a28e3265b37a6474929f336521b332c1681b933f6cb9f3376673440d862a610cee611846565b6110c8565b610d32576040517f08c379a0000000000000000000000000000000000000000000000000000000008152600401610d2990614461565b60405180910390fd5b610d3a611d88565b565b610d578383836040518060200160405280600081525061134c565b505050565b610d6581611e2a565b610d6e81611f32565b807fd83c63197e8e676d80ab0122beba9a9d20f3828839e9a1d6fe81d242e9cd7e6e60405160405180910390a250565b6000610da8610ab6565b8210610de9576040517f08c379a0000000000000000000000000000000000000000000000000000000008152600401610de0906144e1565b60405180910390fd5b600a8281548110610e23577f4e487b7100000000000000000000000000000000000000000000000000000000600052603260045260246000fd5b90600052602060002001549050919050565b6000600c60009054906101000a900460ff16905090565b6000806004600084815260200190815260200160002060009054906101000a900473ffffffffffffffffffffffffffffffffffffffff169050600073ffffffffffffffffffffffffffffffffffffffff168173ffffffffffffffffffffffffffffffffffffffff161415610ef5576040517f08c379a0000000000000000000000000000000000000000000000000000000008152600401610eec906143a1565b60405180910390fd5b80915050919050565b60008073ffffffffffffffffffffffffffffffffffffffff168273ffffffffffffffffffffffffffffffffffffffff161415610f6f576040517f08c379a0000000000000000000000000000000000000000000000000000000008152600401610f6690614381565b60405180910390fd5b600560008373ffffffffffffffffffffffffffffffffffffffff1673ffffffffffffffffffffffffffffffffffffffff168152602001908152602001600020549050919050565b610fe77f65d7a28e3265b37a6474929f336521b332c1681b933f6cb9f3376673440d862a610fe2611846565b6110c8565b611026576040517f08c379a000000000000000000000000000000000000000000000000000000000815260040161101d90614461565b60405180910390fd5b61102e611f86565b565b6110446000801b61103f611846565b6110c8565b611083576040517f08c379a000000000000000000000000000000000000000000000000000000000815260040161107a906143c1565b60405180910390fd5b8181600e9190611094929190612ead565b505050565b60006110c0826001600086815260200190815260200160002061202990919063ffffffff16565b905092915050565b600080600084815260200190815260200160002060000160008373ffffffffffffffffffffffffffffffffffffffff1673ffffffffffffffffffffffffffffffffffffffff16815260200190815260200160002060009054906101000a900460ff16905092915050565b60606003805461114190614780565b80601f016020809104026020016040519081016040528092919081815260200182805461116d90614780565b80156111ba5780601f1061118f576101008083540402835291602001916111ba565b820191906000526020600020905b81548152906001019060200180831161119d57829003601f168201915b5050505050905090565b6000801b81565b6111d3611846565b73ffffffffffffffffffffffffffffffffffffffff168273ffffffffffffffffffffffffffffffffffffffff161415611241576040517f08c379a0000000000000000000000000000000000000000000000000000000008152600401611238906142e1565b60405180910390fd5b806007600061124e611846565b73ffffffffffffffffffffffffffffffffffffffff1673ffffffffffffffffffffffffffffffffffffffff16815260200190815260200160002060008473ffffffffffffffffffffffffffffffffffffffff1673ffffffffffffffffffffffffffffffffffffffff16815260200190815260200160002060006101000a81548160ff0219169083151502179055508173ffffffffffffffffffffffffffffffffffffffff166112fb611846565b73ffffffffffffffffffffffffffffffffffffffff167f17307eab39ab6107e8899845ad3d59bd9653f200f220920489ca2b5937696c31836040516113409190614157565b60405180910390a35050565b61135d611357611846565b83611907565b61139c576040517f08c379a0000000000000000000000000000000000000000000000000000000008152600401611393906144a1565b60405180910390fd5b6113a884848484612043565b50505050565b6060600f60008381526020019081526020016000206040516020016113d391906140c4565b604051602081830303815290604052805190602001206040516020016113f8906140db565b60405160208183030381529060405280519060200120141561144f576040517f08c379a000000000000000000000000000000000000000000000000000000000815260040161144690614441565b60405180910390fd5b600061145961209f565b90506000600f60008581526020019081526020016000209050600082511161149057604051806020016040528060008152506114b3565b81816040516020016114a39291906140a0565b6040516020818303038152906040525b92505050919050565b60006114d960016000848152602001908152602001600020612131565b9050919050565b7f9f2df0fed2c77648de5860a4cc508cd0818c85b8b8a1ab4ceeef8d981c8956a681565b61150e8282612146565b61153381600160008581526020019081526020016000206121ac90919063ffffffff16565b505050565b600061156b7f9f2df0fed2c77648de5860a4cc508cd0818c85b8b8a1ab4ceeef8d981c8956a6611566611846565b6110c8565b6115aa576040517f08c379a00000000000000000000000000000000000000000000000000000000081526004016115a1906144c1565b60405180910390fd5b60006115b6600d6121dc565b90506115c286826121ea565b6116118186868080601f016020809104026020016040519081016040528093929190818152602001838380828437600081840152601f19601f82011690508083019250505050505050856123b8565b808673ffffffffffffffffffffffffffffffffffffffff167f3a540b9006130a01819732465719e909d14683ec4c0abf71bc32dd8de03e1c3f87878760405161165c9392919061418d565b60405180910390a361166e600d61244c565b80915050949350505050565b7f65d7a28e3265b37a6474929f336521b332c1681b933f6cb9f3376673440d862a81565b6000600760008473ffffffffffffffffffffffffffffffffffffffff1673ffffffffffffffffffffffffffffffffffffffff16815260200190815260200160002060008373ffffffffffffffffffffffffffffffffffffffff1673ffffffffffffffffffffffffffffffffffffffff16815260200190815260200160002060009054906101000a900460ff16905092915050565b61173c8282612462565b5050565b6000611768836000018373ffffffffffffffffffffffffffffffffffffffff1660001b612542565b905092915050565b60007f01ffc9a7000000000000000000000000000000000000000000000000000000007bffffffffffffffffffffffffffffffffffffffffffffffffffffffff1916827bffffffffffffffffffffffffffffffffffffffffffffffffffffffff1916149050919050565b60008073ffffffffffffffffffffffffffffffffffffffff166004600084815260200190815260200160002060009054906101000a900473ffffffffffffffffffffffffffffffffffffffff1673ffffffffffffffffffffffffffffffffffffffff1614159050919050565b600033905090565b816006600083815260200190815260200160002060006101000a81548173ffffffffffffffffffffffffffffffffffffffff021916908373ffffffffffffffffffffffffffffffffffffffff160217905550808273ffffffffffffffffffffffffffffffffffffffff166118c183610e4c565b73ffffffffffffffffffffffffffffffffffffffff167f8c5be1e5ebec7d5bd14f71427d1e84f3dd0314c0f7b2291e5b200ac8c7c3b92560405160405180910390a45050565b6000611912826117da565b611951576040517f08c379a000000000000000000000000000000000000000000000000000000000815260040161194890614301565b60405180910390fd5b600061195c83610e4c565b90508073ffffffffffffffffffffffffffffffffffffffff168473ffffffffffffffffffffffffffffffffffffffff1614806119cb57508373ffffffffffffffffffffffffffffffffffffffff166119b384610919565b73ffffffffffffffffffffffffffffffffffffffff16145b806119dc57506119db818561169e565b5b91505092915050565b8273ffffffffffffffffffffffffffffffffffffffff16611a0582610e4c565b73ffffffffffffffffffffffffffffffffffffffff1614611a5b576040517f08c379a0000000000000000000000000000000000000000000000000000000008152600401611a5290614421565b60405180910390fd5b600073ffffffffffffffffffffffffffffffffffffffff168273ffffffffffffffffffffffffffffffffffffffff161415611acb576040517f08c379a0000000000000000000000000000000000000000000000000000000008152600401611ac2906142c1565b60405180910390fd5b611ad68383836125b2565b611ae160008261184e565b6001600560008573ffffffffffffffffffffffffffffffffffffffff1673ffffffffffffffffffffffffffffffffffffffff1681526020019081526020016000206000828254611b319190614660565b925050819055506001600560008473ffffffffffffffffffffffffffffffffffffffff1673ffffffffffffffffffffffffffffffffffffffff1681526020019081526020016000206000828254611b88919061460a565b92505081905550816004600083815260200190815260200160002060006101000a81548173ffffffffffffffffffffffffffffffffffffffff021916908373ffffffffffffffffffffffffffffffffffffffff160217905550808273ffffffffffffffffffffffffffffffffffffffff168473ffffffffffffffffffffffffffffffffffffffff167fddf252ad1be2c89b69c2b068fc378daa952ba7f163c4a11628f55a4df523b3ef60405160405180910390a4505050565b611c5a611c4d83610b23565b611c55611846565b6110c8565b611c99576040517f08c379a0000000000000000000000000000000000000000000000000000000008152600401611c9090614221565b60405180910390fd5b611ca38282612462565b5050565b611cb182826110c8565b15611d8457600080600084815260200190815260200160002060000160008373ffffffffffffffffffffffffffffffffffffffff1673ffffffffffffffffffffffffffffffffffffffff16815260200190815260200160002060006101000a81548160ff021916908315150217905550611d29611846565b73ffffffffffffffffffffffffffffffffffffffff168173ffffffffffffffffffffffffffffffffffffffff16837ff6391f5c32d9c69d2a47ea670b442974b53935d1edc7fd64eb21e047a839171b60405160405180910390a45b5050565b611d90610e35565b611dcf576040517f08c379a0000000000000000000000000000000000000000000000000000000008152600401611dc690614241565b60405180910390fd5b6000600c60006101000a81548160ff0219169083151502179055507f5db9ee0a495bf2e6ff9c91a7834c1ba4fdd244a5e8aa4e537bd38aeae4b073aa611e13611846565b604051611e2091906140f0565b60405180910390a1565b6000611e3582610e4c565b9050611e43816000846125b2565b611e4e60008361184e565b6001600560008373ffffffffffffffffffffffffffffffffffffffff1673ffffffffffffffffffffffffffffffffffffffff168152602001908152602001600020600082825403925050819055506004600083815260200190815260200160002060006101000a81549073ffffffffffffffffffffffffffffffffffffffff021916905581600073ffffffffffffffffffffffffffffffffffffffff168273ffffffffffffffffffffffffffffffffffffffff167fddf252ad1be2c89b69c2b068fc378daa952ba7f163c4a11628f55a4df523b3ef60405160405180910390a45050565b600f60008281526020019081526020016000206000611f519190612f33565b6010600082815260200190815260200160002060006101000a8154906fffffffffffffffffffffffffffffffff021916905550565b611f8e610e35565b15611fce576040517f08c379a0000000000000000000000000000000000000000000000000000000008152600401611fc590614341565b60405180910390fd5b6001600c60006101000a81548160ff0219169083151502179055507f62e78cea01bee320cd4e420270b5ea74000d11b0c9f74754ebdbfc544b05a258612012611846565b60405161201f91906140f0565b60405180910390a1565b600061203883600001836125c2565b60001c905092915050565b61204e8484846119e5565b61205a8484848461265c565b612099576040517f08c379a000000000000000000000000000000000000000000000000000000000815260040161209090614281565b60405180910390fd5b50505050565b6060600e80546120ae90614780565b80601f01602080910402602001604051908101604052809291908181526020018280546120da90614780565b80156121275780601f106120fc57610100808354040283529160200191612127565b820191906000526020600020905b81548152906001019060200180831161210a57829003601f168201915b5050505050905090565b600061213f826000016127f3565b9050919050565b61215f61215283610b23565b61215a611846565b6110c8565b61219e576040517f08c379a000000000000000000000000000000000000000000000000000000000815260040161219590614321565b60405180910390fd5b6121a88282611ca7565b5050565b60006121d4836000018373ffffffffffffffffffffffffffffffffffffffff1660001b612804565b905092915050565b600081600001549050919050565b600073ffffffffffffffffffffffffffffffffffffffff168273ffffffffffffffffffffffffffffffffffffffff16141561225a576040517f08c379a0000000000000000000000000000000000000000000000000000000008152600401612251906143e1565b60405180910390fd5b612263816117da565b156122a3576040517f08c379a000000000000000000000000000000000000000000000000000000000815260040161229a906142a1565b60405180910390fd5b6122af600083836125b2565b6001600560008473ffffffffffffffffffffffffffffffffffffffff1673ffffffffffffffffffffffffffffffffffffffff16815260200190815260200160002060008282546122ff919061460a565b92505081905550816004600083815260200190815260200160002060006101000a81548173ffffffffffffffffffffffffffffffffffffffff021916908373ffffffffffffffffffffffffffffffffffffffff160217905550808273ffffffffffffffffffffffffffffffffffffffff16600073ffffffffffffffffffffffffffffffffffffffff167fddf252ad1be2c89b69c2b068fc378daa952ba7f163c4a11628f55a4df523b3ef60405160405180910390a45050565b81600f600085815260200190815260200160002090805190602001906123df929190612f73565b50806010600085815260200190815260200160002060006101000a8154816fffffffffffffffffffffffffffffffff021916908360801c021790555060006013600085815260200190815260200160002060006101000a81548160ff021916908315150217905550505050565b6001816000016000828254019250508190555050565b61246c82826110c8565b61253e57600160008084815260200190815260200160002060000160008373ffffffffffffffffffffffffffffffffffffffff1673ffffffffffffffffffffffffffffffffffffffff16815260200190815260200160002060006101000a81548160ff0219169083151502179055506124e3611846565b73ffffffffffffffffffffffffffffffffffffffff168173ffffffffffffffffffffffffffffffffffffffff16837f2f8788117e7eff1d82e926ec794901d17c78024a50270940304540a733656f0d60405160405180910390a45b5050565b600061254e838361298e565b6125a75782600001829080600181540180825580915050600190039060005260206000200160009091909190915055826000018054905083600101600084815260200190815260200160002081905550600190506125ac565b600090505b92915050565b6125bd8383836129b1565b505050565b60008183600001805490501161260d576040517f08c379a0000000000000000000000000000000000000000000000000000000008152600401612604906141e1565b60405180910390fd5b826000018281548110612649577f4e487b7100000000000000000000000000000000000000000000000000000000600052603260045260246000fd5b9060005260206000200154905092915050565b600061267d8473ffffffffffffffffffffffffffffffffffffffff16612a09565b156127e6578373ffffffffffffffffffffffffffffffffffffffff1663150b7a026126a6611846565b8786866040518563ffffffff1660e01b81526004016126c8949392919061410b565b602060405180830381600087803b1580156126e257600080fd5b505af192505050801561271357506040513d601f19601f820116820180604052508101906127109190613438565b60015b612796573d8060008114612743576040519150601f19603f3d011682016040523d82523d6000602084013e612748565b606091505b5060008151141561278e576040517f08c379a000000000000000000000000000000000000000000000000000000000815260040161278590614281565b60405180910390fd5b805181602001fd5b63150b7a0260e01b7bffffffffffffffffffffffffffffffffffffffffffffffffffffffff1916817bffffffffffffffffffffffffffffffffffffffffffffffffffffffff1916149150506127eb565b600190505b949350505050565b600081600001805490509050919050565b600080836001016000848152602001908152602001600020549050600081146129825760006001826128369190614660565b905060006001866000018054905061284e9190614660565b9050600086600001828154811061288e577f4e487b7100000000000000000000000000000000000000000000000000000000600052603260045260246000fd5b90600052602060002001549050808760000184815481106128d8577f4e487b7100000000000000000000000000000000000000000000000000000000600052603260045260246000fd5b90600052602060002001819055506001836128f3919061460a565b8760010160008381526020019081526020016000208190555086600001805480612946577f4e487b7100000000000000000000000000000000000000000000000000000000600052603160045260246000fd5b60019003818190600052602060002001600090559055866001016000878152602001908152602001600020600090556001945050505050612988565b60009150505b92915050565b600080836001016000848152602001908152602001600020541415905092915050565b6129bc838383612a1c565b6129c4610e35565b15612a04576040517f08c379a00000000000000000000000000000000000000000000000000000000081526004016129fb90614201565b60405180910390fd5b505050565b600080823b905060008111915050919050565b612a27838383612b30565b600073ffffffffffffffffffffffffffffffffffffffff168373ffffffffffffffffffffffffffffffffffffffff161415612a6a57612a6581612b35565b612aa9565b8173ffffffffffffffffffffffffffffffffffffffff168373ffffffffffffffffffffffffffffffffffffffff1614612aa857612aa78382612b7e565b5b5b600073ffffffffffffffffffffffffffffffffffffffff168273ffffffffffffffffffffffffffffffffffffffff161415612aec57612ae781612ceb565b612b2b565b8273ffffffffffffffffffffffffffffffffffffffff168273ffffffffffffffffffffffffffffffffffffffff1614612b2a57612b298282612e2e565b5b5b505050565b505050565b600a80549050600b600083815260200190815260200160002081905550600a81908060018154018082558091505060019003906000526020600020016000909190919091505550565b60006001612b8b84610efe565b612b959190614660565b9050600060096000848152602001908152602001600020549050818114612c7a576000600860008673ffffffffffffffffffffffffffffffffffffffff1673ffffffffffffffffffffffffffffffffffffffff168152602001908152602001600020600084815260200190815260200160002054905080600860008773ffffffffffffffffffffffffffffffffffffffff1673ffffffffffffffffffffffffffffffffffffffff168152602001908152602001600020600084815260200190815260200160002081905550816009600083815260200190815260200160002081905550505b6009600084815260200190815260200160002060009055600860008573ffffffffffffffffffffffffffffffffffffffff1673ffffffffffffffffffffffffffffffffffffffff16815260200190815260200160002060008381526020019081526020016000206000905550505050565b60006001600a80549050612cff9190614660565b90506000600b60008481526020019081526020016000205490506000600a8381548110612d55577f4e487b7100000000000000000000000000000000000000000000000000000000600052603260045260246000fd5b9060005260206000200154905080600a8381548110612d9d577f4e487b7100000000000000000000000000000000000000000000000000000000600052603260045260246000fd5b906000526020600020018190555081600b600083815260200190815260200160002081905550600b600085815260200190815260200160002060009055600a805480612e12577f4e487b7100000000000000000000000000000000000000000000000000000000600052603160045260246000fd5b6001900381819060005260206000200160009055905550505050565b6000612e3983610efe565b905081600860008573ffffffffffffffffffffffffffffffffffffffff1673ffffffffffffffffffffffffffffffffffffffff168152602001908152602001600020600083815260200190815260200160002081905550806009600084815260200190815260200160002081905550505050565b828054612eb990614780565b90600052602060002090601f016020900481019282612edb5760008555612f22565b82601f10612ef457803560ff1916838001178555612f22565b82800160010185558215612f22579182015b82811115612f21578235825591602001919060010190612f06565b5b509050612f2f9190612ff9565b5090565b508054612f3f90614780565b6000825580601f10612f515750612f70565b601f016020900490600052602060002090810190612f6f9190612ff9565b5b50565b828054612f7f90614780565b90600052602060002090601f016020900481019282612fa15760008555612fe8565b82601f10612fba57805160ff1916838001178555612fe8565b82800160010185558215612fe8579182015b82811115612fe7578251825591602001919060010190612fcc565b5b509050612ff59190612ff9565b5090565b5b80821115613012576000816000905550600101612ffa565b5090565b60006130296130248461456d565b61453c565b90508281526020810184848401111561304157600080fd5b61304c84828561473e565b509392505050565b60008135905061306381614850565b92915050565b60008135905061307881614867565b92915050565b60008135905061308d8161487e565b92915050565b6000813590506130a281614895565b92915050565b6000813590506130b7816148ac565b92915050565b6000815190506130cc816148ac565b92915050565b600082601f8301126130e357600080fd5b81356130f3848260208601613016565b91505092915050565b60008083601f84011261310e57600080fd5b8235905067ffffffffffffffff81111561312757600080fd5b60208301915083600182028301111561313f57600080fd5b9250929050565b600081359050613155816148c3565b92915050565b60006020828403121561316d57600080fd5b600061317b84828501613054565b91505092915050565b6000806040838503121561319757600080fd5b60006131a585828601613054565b92505060206131b685828601613054565b9150509250929050565b6000806000606084860312156131d557600080fd5b60006131e386828701613054565b93505060206131f486828701613054565b925050604061320586828701613146565b9150509250925092565b6000806000806080858703121561322557600080fd5b600061323387828801613054565b945050602061324487828801613054565b935050604061325587828801613146565b925050606085013567ffffffffffffffff81111561327257600080fd5b61327e878288016130d2565b91505092959194509250565b6000806040838503121561329d57600080fd5b60006132ab85828601613054565b92505060206132bc85828601613069565b9150509250929050565b600080600080606085870312156132dc57600080fd5b60006132ea87828801613054565b945050602085013567ffffffffffffffff81111561330757600080fd5b613313878288016130fc565b935093505060406133268782880161307e565b91505092959194509250565b6000806040838503121561334557600080fd5b600061335385828601613054565b925050602061336485828601613146565b9150509250929050565b60006020828403121561338057600080fd5b600061338e84828501613093565b91505092915050565b600080604083850312156133aa57600080fd5b60006133b885828601613093565b92505060206133c985828601613054565b9150509250929050565b600080604083850312156133e657600080fd5b60006133f485828601613093565b925050602061340585828601613146565b9150509250929050565b60006020828403121561342157600080fd5b600061342f848285016130a8565b91505092915050565b60006020828403121561344a57600080fd5b6000613458848285016130bd565b91505092915050565b6000806020838503121561347457600080fd5b600083013567ffffffffffffffff81111561348e57600080fd5b61349a858286016130fc565b92509250509250929050565b6000602082840312156134b857600080fd5b60006134c684828501613146565b91505092915050565b6134d881614694565b82525050565b6134e7816146a6565b82525050565b6134f6816146b2565b82525050565b613505816146de565b82525050565b6000613516826145c7565b61352081856145dd565b935061353081856020860161474d565b6135398161483f565b840191505092915050565b600061355083856145ee565b935061355d83858461473e565b6135668361483f565b840190509392505050565b600061357c826145d2565b61358681856145ee565b935061359681856020860161474d565b61359f8161483f565b840191505092915050565b60006135b5826145d2565b6135bf81856145ff565b93506135cf81856020860161474d565b80840191505092915050565b600081546135e881614780565b6135f281866145ff565b9450600182166000811461360d576001811461361e57613651565b60ff19831686528186019350613651565b613627856145b2565b60005b838110156136495781548189015260018201915060208101905061362a565b838801955050505b50505092915050565b6000815461366781614780565b61367181866145ff565b9450600182166000811461368c576001811461369d576136d0565b60ff198316865281860193506136d0565b6136a68561459d565b60005b838110156136c8578154818901526001820191506020810190506136a9565b838801955050505b50505092915050565b60006136e66022836145ee565b91507f456e756d657261626c655365743a20696e646578206f7574206f6620626f756e60008301527f64730000000000000000000000000000000000000000000000000000000000006020830152604082019050919050565b600061374c602b836145ee565b91507f4552433732315061757361626c653a20746f6b656e207472616e73666572207760008301527f68696c65207061757365640000000000000000000000000000000000000000006020830152604082019050919050565b60006137b2602f836145ee565b91507f416363657373436f6e74726f6c3a2073656e646572206d75737420626520616e60008301527f2061646d696e20746f206772616e7400000000000000000000000000000000006020830152604082019050919050565b60006138186014836145ee565b91507f5061757361626c653a206e6f74207061757365640000000000000000000000006000830152602082019050919050565b6000613858602b836145ee565b91507f455243373231456e756d657261626c653a206f776e657220696e646578206f7560008301527f74206f6620626f756e64730000000000000000000000000000000000000000006020830152604082019050919050565b60006138be6032836145ee565b91507f4552433732313a207472616e7366657220746f206e6f6e20455243373231526560008301527f63656976657220696d706c656d656e74657200000000000000000000000000006020830152604082019050919050565b6000613924601c836145ee565b91507f4552433732313a20746f6b656e20616c7265616479206d696e746564000000006000830152602082019050919050565b60006139646024836145ee565b91507f4552433732313a207472616e7366657220746f20746865207a65726f2061646460008301527f72657373000000000000000000000000000000000000000000000000000000006020830152604082019050919050565b60006139ca6019836145ee565b91507f4552433732313a20617070726f766520746f2063616c6c6572000000000000006000830152602082019050919050565b6000613a0a602c836145ee565b91507f4552433732313a206f70657261746f7220717565727920666f72206e6f6e657860008301527f697374656e7420746f6b656e00000000000000000000000000000000000000006020830152604082019050919050565b6000613a706030836145ee565b91507f416363657373436f6e74726f6c3a2073656e646572206d75737420626520616e60008301527f2061646d696e20746f207265766f6b65000000000000000000000000000000006020830152604082019050919050565b6000613ad66010836145ee565b91507f5061757361626c653a20706175736564000000000000000000000000000000006000830152602082019050919050565b6000613b166038836145ee565b91507f4552433732313a20617070726f76652063616c6c6572206973206e6f74206f7760008301527f6e6572206e6f7220617070726f76656420666f7220616c6c00000000000000006020830152604082019050919050565b6000613b7c602a836145ee565b91507f4552433732313a2062616c616e636520717565727920666f7220746865207a6560008301527f726f2061646472657373000000000000000000000000000000000000000000006020830152604082019050919050565b6000613be26029836145ee565b91507f4552433732313a206f776e657220717565727920666f72206e6f6e657869737460008301527f656e7420746f6b656e00000000000000000000000000000000000000000000006020830152604082019050919050565b6000613c486021836145ee565b91507f4552433732312046756c6c3a2041646d696e20526f6c6520526571756972656460008301527f2e000000000000000000000000000000000000000000000000000000000000006020830152604082019050919050565b6000613cae6020836145ee565b91507f4552433732313a206d696e7420746f20746865207a65726f20616464726573736000830152602082019050919050565b6000613cee602c836145ee565b91507f4552433732313a20617070726f76656420717565727920666f72206e6f6e657860008301527f697374656e7420746f6b656e00000000000000000000000000000000000000006020830152604082019050919050565b6000613d546029836145ee565b91507f4552433732313a207472616e73666572206f6620746f6b656e2074686174206960008301527f73206e6f74206f776e00000000000000000000000000000000000000000000006020830152604082019050919050565b6000613dba6033836145ee565b91507f4552433732314d657461646174613a20546f6b656e206964207175657279206660008301527f6f72206e6f6e6578697374656e74205552492e000000000000000000000000006020830152604082019050919050565b6000613e206022836145ee565b91507f4552433732312046756c6c3a2050617573657220526f6c65205265717569726560008301527f642e0000000000000000000000000000000000000000000000000000000000006020830152604082019050919050565b6000613e866021836145ee565b91507f4552433732313a20617070726f76616c20746f2063757272656e74206f776e6560008301527f72000000000000000000000000000000000000000000000000000000000000006020830152604082019050919050565b6000613eec6000836145ff565b9150600082019050919050565b6000613f066031836145ee565b91507f4552433732313a207472616e736665722063616c6c6572206973206e6f74206f60008301527f776e6572206e6f7220617070726f7665640000000000000000000000000000006020830152604082019050919050565b6000613f6c6021836145ee565b91507f4552433732312046756c6c3a204d696e74657220526f6c65205265717569726560008301527f64000000000000000000000000000000000000000000000000000000000000006020830152604082019050919050565b6000613fd2602c836145ee565b91507f455243373231456e756d657261626c653a20676c6f62616c20696e646578206f60008301527f7574206f6620626f756e647300000000000000000000000000000000000000006020830152604082019050919050565b6000614038602f836145ee565b91507f416363657373436f6e74726f6c3a2063616e206f6e6c792072656e6f756e636560008301527f20726f6c657320666f722073656c6600000000000000000000000000000000006020830152604082019050919050565b61409a81614734565b82525050565b60006140ac82856135aa565b91506140b882846135db565b91508190509392505050565b60006140d0828461365a565b915081905092915050565b60006140e682613edf565b9150819050919050565b600060208201905061410560008301846134cf565b92915050565b600060808201905061412060008301876134cf565b61412d60208301866134cf565b61413a6040830185614091565b818103606083015261414c818461350b565b905095945050505050565b600060208201905061416c60008301846134de565b92915050565b600060208201905061418760008301846134fc565b92915050565b600060408201905081810360008301526141a8818587613544565b90506141b760208301846134ed565b949350505050565b600060208201905081810360008301526141d98184613571565b905092915050565b600060208201905081810360008301526141fa816136d9565b9050919050565b6000602082019050818103600083015261421a8161373f565b9050919050565b6000602082019050818103600083015261423a816137a5565b9050919050565b6000602082019050818103600083015261425a8161380b565b9050919050565b6000602082019050818103600083015261427a8161384b565b9050919050565b6000602082019050818103600083015261429a816138b1565b9050919050565b600060208201905081810360008301526142ba81613917565b9050919050565b600060208201905081810360008301526142da81613957565b9050919050565b600060208201905081810360008301526142fa816139bd565b9050919050565b6000602082019050818103600083015261431a816139fd565b9050919050565b6000602082019050818103600083015261433a81613a63565b9050919050565b6000602082019050818103600083015261435a81613ac9565b9050919050565b6000602082019050818103600083015261437a81613b09565b9050919050565b6000602082019050818103600083015261439a81613b6f565b9050919050565b600060208201905081810360008301526143ba81613bd5565b9050919050565b600060208201905081810360008301526143da81613c3b565b9050919050565b600060208201905081810360008301526143fa81613ca1565b9050919050565b6000602082019050818103600083015261441a81613ce1565b9050919050565b6000602082019050818103600083015261443a81613d47565b9050919050565b6000602082019050818103600083015261445a81613dad565b9050919050565b6000602082019050818103600083015261447a81613e13565b9050919050565b6000602082019050818103600083015261449a81613e79565b9050919050565b600060208201905081810360008301526144ba81613ef9565b9050919050565b600060208201905081810360008301526144da81613f5f565b9050919050565b600060208201905081810360008301526144fa81613fc5565b9050919050565b6000602082019050818103600083015261451a8161402b565b9050919050565b60006020820190506145366000830184614091565b92915050565b6000604051905081810181811067ffffffffffffffff8211171561456357614562614810565b5b8060405250919050565b600067ffffffffffffffff82111561458857614587614810565b5b601f19601f8301169050602081019050919050565b60008190508160005260206000209050919050565b60008190508160005260206000209050919050565b600081519050919050565b600081519050919050565b600082825260208201905092915050565b600082825260208201905092915050565b600081905092915050565b600061461582614734565b915061462083614734565b9250827fffffffffffffffffffffffffffffffffffffffffffffffffffffffffffffffff03821115614655576146546147b2565b5b828201905092915050565b600061466b82614734565b915061467683614734565b925082821015614689576146886147b2565b5b828203905092915050565b600061469f82614714565b9050919050565b60008115159050919050565b60007fffffffffffffffffffffffffffffffff0000000000000000000000000000000082169050919050565b6000819050919050565b60007fffffffff0000000000000000000000000000000000000000000000000000000082169050919050565b600073ffffffffffffffffffffffffffffffffffffffff82169050919050565b6000819050919050565b82818337600083830152505050565b60005b8381101561476b578082015181840152602081019050614750565b8381111561477a576000848401525b50505050565b6000600282049050600182168061479857607f821691505b602082108114156147ac576147ab6147e1565b5b50919050565b7f4e487b7100000000000000000000000000000000000000000000000000000000600052601160045260246000fd5b7f4e487b7100000000000000000000000000000000000000000000000000000000600052602260045260246000fd5b7f4e487b7100000000000000000000000000000000000000000000000000000000600052604160045260246000fd5b6000601f19601f8301169050919050565b61485981614694565b811461486457600080fd5b50565b614870816146a6565b811461487b57600080fd5b50565b614887816146b2565b811461489257600080fd5b50565b61489e816146de565b81146148a957600080fd5b50565b6148b5816146e8565b81146148c057600080fd5b50565b6148cc81614734565b81146148d757600080fd5b5056fea2646970667358221220b10f63d45505065e66e0fcddabd618b6231e5bf4798bac56fb80365fe0d0d5d064736f6c63430008000033",
  "immutableReferences": {},
  "source": "// SPDX-License-Identifier: MIT\npragma solidity >=0.5.11 <0.9.0;\n\n\nimport \"./ERC721.sol\";\nimport \"./extensions/ERC721Enumerable.sol\";\nimport \"./extensions/ERC721Burnable.sol\";\nimport \"./extensions/ERC721Pausable.sol\";\nimport \"../access/AccessControlEnumerable.sol\";\n\nimport \"../gsn/Context.sol\";\nimport \"../utils/Counters.sol\";\n\n\ncontract ERC721Full is Context, AccessControlEnumerable, ERC721Enumerable, ERC721Burnable, ERC721Pausable {\n    using Counters for Counters.Counter;\n\n    // Minter Role\n    bytes32 public constant MINTER_ROLE = keccak256(\"MINTER_ROLE\");\n\n    // Burner Role\n    bytes32 public constant BURNER_ROLE = keccak256(\"BURNER_ROLE\");\n\n    // Pauser Role\n    bytes32 public constant PAUSER_ROLE = keccak256(\"PAUSER_ROLE\");\n\n    // Token Id Counter\n    Counters.Counter internal _tokenIdTracker;  \n\n    // Base URI for metadata\n    string internal _baseTokenURI;\n\n    // Optional mapping for token URIs\n    mapping(uint256 => string) internal _tokenURIs;\n\n    // Token Id to Edition\n    mapping(uint256 => bytes16) internal _tokenIdToEdition;\n\n    // Token Id to Price \n    mapping(uint256 => uint256) internal _tokenIdToPriceInWei;\n    \n    // Token Id to Purchase Time\n    mapping(uint256 => uint32) internal _tokenIdToPurchaseFromTime;\n\n    // Token Id to Purchase\n    mapping(uint256 => bool) internal _tokenIdToPurchased;\n\n    // Event for Minting\n    event Minted(address indexed _artist, uint256 indexed _tokenId, string _tokenURI, bytes16 _edition);\n\n    // Event for Burning\n    event Burned(uint256 indexed _tokenId);\n\n    constructor(\n    string memory name_, \n    string memory symbol_, \n    string memory baseTokenURI_\n      )  ERC721(name_, symbol_) {\n        _baseTokenURI = baseTokenURI_;\n        _setupRole(DEFAULT_ADMIN_ROLE, _msgSender());\n        _setupRole(MINTER_ROLE, _msgSender());\n        _setupRole(PAUSER_ROLE, _msgSender());\n        _setupRole(BURNER_ROLE, _msgSender());\n        \n    }\n\n    modifier onlyAdmin() {\n        require(hasRole(DEFAULT_ADMIN_ROLE, _msgSender()), \"ERC721 Full: Admin Role Required.\");\n        _;\n    }\n\n    modifier onlyPauser(){\n        require(hasRole(PAUSER_ROLE, _msgSender()), \"ERC721 Full: Pauser Role Required.\");\n        _;\n    }\n\n    modifier onlyMinter(){\n        require(hasRole(MINTER_ROLE, _msgSender()), \"ERC721 Full: Minter Role Required\");\n        _;\n    }\n\n    modifier onlyBurner(){\n         require(hasRole(BURNER_ROLE, _msgSender()), \"ERC721 Full: Burner Role Required\");\n        _;\n    }\n\n\n    /**\n    * @dev See {IERC721Metadata-baseURI}.\n    */\n    function _baseURI() internal view virtual override returns(string memory){\n        return _baseTokenURI;\n    }\n\n    /**\n    * @dev Allows management to update the base tokenURI path\n    * @dev Reverts if not called by management\n    * @param _newBaseURI the new base URI to set\n    */\n    function setTokenBaseURI(string calldata _newBaseURI) external onlyAdmin {\n        _baseTokenURI = _newBaseURI;\n    }\n\n    \n\n     /**\n     * @dev See {IERC721Metadata-tokenURI}.\n     */\n    function tokenURI(uint256 _tokenId) public view override returns (string memory) {\n        require(keccak256(abi.encodePacked(\"\")) != keccak256(abi.encodePacked(_tokenURIs[_tokenId])), \"ERC721Metadata: Token id query for nonexistent URI.\");\n        string memory baseURI = _baseURI();\n        string storage _tokenURI = _tokenURIs[_tokenId];\n        return bytes(baseURI).length > 0\n            ? string(abi.encodePacked(baseURI, _tokenURI))\n            : '';\n    }\n     /**\n        * @dev Mint a new token\n        * @dev Reverts if not called by minter\n        * @param _artist the artist of the art\n        * @param _tokenURI the IPFS or equivalent hash\n        * @param _edition the identifier of the edition - leading 3 bytes are the artist code, trailing 3 bytes are the asset type\n    */\n    function mint(address _artist, string calldata _tokenURI, bytes16 _edition) external onlyMinter returns(uint256) {       \n        uint256 _currentTokenId = _tokenIdTracker.current();\n        _mint( _artist, _currentTokenId);   \n        _populateTokenData(_currentTokenId, _tokenURI, _edition);\n        emit Minted(_artist, _currentTokenId, _tokenURI, _edition);    \n        _tokenIdTracker.increment();\n        return _currentTokenId;\n    }   \n\n    function _populateTokenData(uint256 _tokenId, string memory _tokenURI, bytes16 _edition) internal {\n        _tokenURIs[_tokenId] = _tokenURI;\n        _tokenIdToEdition[_tokenId] = _edition;\n        _tokenIdToPurchased[_tokenId] = false;        \n    }\n\n    function burn(uint256 _tokenId) public override {\n        _burn(_tokenId);\n        _depopulateTokenData(_tokenId);\n        emit Burned(_tokenId);\n    }\n\n    function _depopulateTokenData(uint256 _tokenId) internal {\n        delete _tokenURIs[_tokenId];\n        delete _tokenIdToEdition[_tokenId];\n    }    \n\n    /**\n     * @dev Pauses all token transfers.\n     *\n     * See {ERC721Pausable} and {Pausable-_pause}.\n     *\n     * Requirements:\n     *\n     * - the caller must have the `PAUSER_ROLE`.\n     */\n     function pause() public onlyPauser virtual {\n         _pause();\n     }\n\n    /**\n     * @dev Unpauses all token transfers.\n     *\n     * See {ERC721Pausable} and {Pausable-_unpause}.\n     *\n     * Requirements:\n     *\n     * - the caller must have the `PAUSER_ROLE`.\n     */\n    function unpause() public onlyPauser {\n         _unpause();\n    }\n\n    /**\n     * @dev Prefixes token transfers.\n     *\n     * See {ERC721}\n     *\n     * Requirements:\n     *\n     * - optional logic embedded before a transfer\n     */\n    function _beforeTokenTransfer(address _from, address _to, uint256 _tokenId) internal virtual override(ERC721, ERC721Enumerable, ERC721Pausable) {\n        super._beforeTokenTransfer(_from, _to, _tokenId);\n    }\n\n    /**\n     * @dev See {IERC165-supportsInterface}.\n     */\n    function supportsInterface(bytes4 interfaceId) public view virtual override returns (bool) {\n        return interfaceId == type(IERC721).interfaceId\n            || interfaceId == type(IERC721Metadata).interfaceId\n            || interfaceId == type(IERC721Enumerable).interfaceId\n            || interfaceId == type(ERC721Pausable).interfaceId\n            || interfaceId == type(ERC721Burnable).interfaceId\n            || super.supportsInterface(interfaceId);\n    }\n}",
  "sourcePath": "/Users/dennismacpro/Projects/Defi/Ethereum-Solidity-Collection/nft-kit/contracts/ERC721/ERC721Full.sol",
  "compiler": {
    "name": "solc",
    "version": "0.8.0+commit.c7dfd78e.Darwin.appleclang"
  },
  "schemaVersion": "3.3.4",
  "updatedAt": "2021-03-10T21:26:41.933Z",
  "devdoc": {
    "kind": "dev",
    "methods": {
      "approve(address,uint256)": {
        "details": "See {IERC721-approve}."
      },
      "balanceOf(address)": {
        "details": "See {IERC721-balanceOf}."
      },
      "getApproved(uint256)": {
        "details": "See {IERC721-getApproved}."
      },
      "getRoleAdmin(bytes32)": {
        "details": "Returns the admin role that controls `role`. See {grantRole} and {revokeRole}. To change a role's admin, use {_setRoleAdmin}."
      },
      "getRoleMember(bytes32,uint256)": {
        "details": "Returns one of the accounts that have `role`. `index` must be a value between 0 and {getRoleMemberCount}, non-inclusive. Role bearers are not sorted in any particular way, and their ordering may change at any point. WARNING: When using {getRoleMember} and {getRoleMemberCount}, make sure you perform all queries on the same block. See the following https://forum.openzeppelin.com/t/iterating-over-elements-on-enumerableset-in-openzeppelin-contracts/2296[forum post] for more information."
      },
      "getRoleMemberCount(bytes32)": {
        "details": "Returns the number of accounts that have `role`. Can be used together with {getRoleMember} to enumerate all bearers of a role."
      },
      "grantRole(bytes32,address)": {
        "details": "Overload {grantRole} to track enumerable memberships"
      },
      "hasRole(bytes32,address)": {
        "details": "Returns `true` if `account` has been granted `role`."
      },
      "isApprovedForAll(address,address)": {
        "details": "See {IERC721-isApprovedForAll}."
      },
      "mint(address,string,bytes16)": {
        "details": "Mint a new tokenReverts if not called by minter",
        "params": {
          "_artist": "the artist of the art",
          "_edition": "the identifier of the edition - leading 3 bytes are the artist code, trailing 3 bytes are the asset type",
          "_tokenURI": "the IPFS or equivalent hash"
        }
      },
      "name()": {
        "details": "See {IERC721Metadata-name}."
      },
      "ownerOf(uint256)": {
        "details": "See {IERC721-ownerOf}."
      },
      "pause()": {
        "details": "Pauses all token transfers. See {ERC721Pausable} and {Pausable-_pause}. Requirements: - the caller must have the `PAUSER_ROLE`."
      },
      "paused()": {
        "details": "Returns true if the contract is paused, and false otherwise."
      },
      "renounceRole(bytes32,address)": {
        "details": "Revokes `role` from the calling account. Roles are often managed via {grantRole} and {revokeRole}: this function's purpose is to provide a mechanism for accounts to lose their privileges if they are compromised (such as when a trusted device is misplaced). If the calling account had been granted `role`, emits a {RoleRevoked} event. Requirements: - the caller must be `account`."
      },
      "revokeRole(bytes32,address)": {
        "details": "Overload {revokeRole} to track enumerable memberships"
      },
      "safeTransferFrom(address,address,uint256)": {
        "details": "See {IERC721-safeTransferFrom}."
      },
      "safeTransferFrom(address,address,uint256,bytes)": {
        "details": "See {IERC721-safeTransferFrom}."
      },
      "setApprovalForAll(address,bool)": {
        "details": "See {IERC721-setApprovalForAll}."
      },
      "setTokenBaseURI(string)": {
        "details": "Allows management to update the base tokenURI pathReverts if not called by management",
        "params": {
          "_newBaseURI": "the new base URI to set"
        }
      },
      "supportsInterface(bytes4)": {
        "details": "See {IERC165-supportsInterface}."
      },
      "symbol()": {
        "details": "See {IERC721Metadata-symbol}."
      },
      "tokenByIndex(uint256)": {
        "details": "See {IERC721Enumerable-tokenByIndex}."
      },
      "tokenOfOwnerByIndex(address,uint256)": {
        "details": "See {IERC721Enumerable-tokenOfOwnerByIndex}."
      },
      "tokenURI(uint256)": {
        "details": "See {IERC721Metadata-tokenURI}."
      },
      "totalSupply()": {
        "details": "See {IERC721Enumerable-totalSupply}."
      },
      "transferFrom(address,address,uint256)": {
        "details": "See {IERC721-transferFrom}."
      },
      "unpause()": {
        "details": "Unpauses all token transfers. See {ERC721Pausable} and {Pausable-_unpause}. Requirements: - the caller must have the `PAUSER_ROLE`."
      }
    },
    "version": 1
  },
  "userdoc": {
    "kind": "user",
    "methods": {},
    "version": 1
  }
}