{
  "contractName": "LogicReptileFactory",
  "abi": [
    {
      "inputs": [
        {
          "internalType": "address",
          "name": "proxyRegistryAddress_",
          "type": "address"
        },
        {
          "internalType": "address",
          "name": "nftAddress_",
          "type": "address"
        }
      ],
      "stateMutability": "nonpayable",
      "type": "constructor"
    },
    {
      "anonymous": false,
      "inputs": [
        {
          "indexed": true,
          "internalType": "address",
          "name": "previousOwner",
          "type": "address"
        },
        {
          "indexed": true,
          "internalType": "address",
          "name": "newOwner",
          "type": "address"
        }
      ],
      "name": "OwnershipTransferred",
      "type": "event"
    },
    {
      "anonymous": false,
      "inputs": [
        {
          "indexed": true,
          "internalType": "address",
          "name": "from",
          "type": "address"
        },
        {
          "indexed": true,
          "internalType": "address",
          "name": "to",
          "type": "address"
        },
        {
          "indexed": true,
          "internalType": "uint256",
          "name": "tokenId",
          "type": "uint256"
        }
      ],
      "name": "Transfer",
      "type": "event"
    },
    {
      "inputs": [],
      "name": "baseURI",
      "outputs": [
        {
          "internalType": "string",
          "name": "",
          "type": "string"
        }
      ],
      "stateMutability": "view",
      "type": "function"
    },
    {
      "inputs": [],
      "name": "nftAddress",
      "outputs": [
        {
          "internalType": "address",
          "name": "",
          "type": "address"
        }
      ],
      "stateMutability": "view",
      "type": "function"
    },
    {
      "inputs": [],
      "name": "owner",
      "outputs": [
        {
          "internalType": "address",
          "name": "",
          "type": "address"
        }
      ],
      "stateMutability": "view",
      "type": "function"
    },
    {
      "inputs": [],
      "name": "proxyRegistryAddress",
      "outputs": [
        {
          "internalType": "address",
          "name": "",
          "type": "address"
        }
      ],
      "stateMutability": "view",
      "type": "function"
    },
    {
      "inputs": [],
      "name": "renounceOwnership",
      "outputs": [],
      "stateMutability": "nonpayable",
      "type": "function"
    },
    {
      "inputs": [
        {
          "internalType": "address",
          "name": "newOwner",
          "type": "address"
        }
      ],
      "name": "transferOwnership",
      "outputs": [],
      "stateMutability": "nonpayable",
      "type": "function"
    },
    {
      "inputs": [],
      "name": "name",
      "outputs": [
        {
          "internalType": "string",
          "name": "",
          "type": "string"
        }
      ],
      "stateMutability": "pure",
      "type": "function"
    },
    {
      "inputs": [],
      "name": "symbol",
      "outputs": [
        {
          "internalType": "string",
          "name": "",
          "type": "string"
        }
      ],
      "stateMutability": "pure",
      "type": "function"
    },
    {
      "inputs": [],
      "name": "supportsFactoryInterface",
      "outputs": [
        {
          "internalType": "bool",
          "name": "",
          "type": "bool"
        }
      ],
      "stateMutability": "pure",
      "type": "function"
    },
    {
      "inputs": [],
      "name": "numOptions",
      "outputs": [
        {
          "internalType": "uint256",
          "name": "",
          "type": "uint256"
        }
      ],
      "stateMutability": "view",
      "type": "function"
    },
    {
      "inputs": [
        {
          "internalType": "uint256",
          "name": "_optionId",
          "type": "uint256"
        },
        {
          "internalType": "address",
          "name": "_to",
          "type": "address"
        }
      ],
      "name": "mint",
      "outputs": [],
      "stateMutability": "nonpayable",
      "type": "function"
    },
    {
      "inputs": [
        {
          "internalType": "uint256",
          "name": "_optionId",
          "type": "uint256"
        }
      ],
      "name": "canMint",
      "outputs": [
        {
          "internalType": "bool",
          "name": "",
          "type": "bool"
        }
      ],
      "stateMutability": "view",
      "type": "function"
    },
    {
      "inputs": [
        {
          "internalType": "uint256",
          "name": "_optionId",
          "type": "uint256"
        }
      ],
      "name": "tokenURI",
      "outputs": [
        {
          "internalType": "string",
          "name": "",
          "type": "string"
        }
      ],
      "stateMutability": "view",
      "type": "function"
    }
  ],
  "bytecode": "0x608060405260405180602001604052806000815250600390805190602001906200002b92919062000240565b50600160045560016005553480156200004357600080fd5b506040516200132e3803806200132e833981810160405281019062000069919062000307565b60006200007b6200020f60201b60201c565b9050806000806101000a81548173ffffffffffffffffffffffffffffffffffffffff021916908373ffffffffffffffffffffffffffffffffffffffff1602179055508073ffffffffffffffffffffffffffffffffffffffff16600073ffffffffffffffffffffffffffffffffffffffff167f8be0079c531659141344cd1fd0a4f28419497f9722a3daafe3b4186f6b6457e060405160405180910390a35081600160006101000a81548173ffffffffffffffffffffffffffffffffffffffff021916908373ffffffffffffffffffffffffffffffffffffffff16021790555080600260006101000a81548173ffffffffffffffffffffffffffffffffffffffff021916908373ffffffffffffffffffffffffffffffffffffffff1602179055506000620001ad6200021760201b60201c565b73ffffffffffffffffffffffffffffffffffffffff16600073ffffffffffffffffffffffffffffffffffffffff167fddf252ad1be2c89b69c2b068fc378daa952ba7f163c4a11628f55a4df523b3ef60405160405180910390a45050620003fb565b600033905090565b60008060009054906101000a900473ffffffffffffffffffffffffffffffffffffffff16905090565b8280546200024e906200037c565b90600052602060002090601f016020900481019282620002725760008555620002be565b82601f106200028d57805160ff1916838001178555620002be565b82800160010185558215620002be579182015b82811115620002bd578251825591602001919060010190620002a0565b5b509050620002cd9190620002d1565b5090565b5b80821115620002ec576000816000905550600101620002d2565b5090565b6000815190506200030181620003e1565b92915050565b600080604083850312156200031b57600080fd5b60006200032b85828601620002f0565b92505060206200033e85828601620002f0565b9150509250929050565b600062000355826200035c565b9050919050565b600073ffffffffffffffffffffffffffffffffffffffff82169050919050565b600060028204905060018216806200039557607f821691505b60208210811415620003ac57620003ab620003b2565b5b50919050565b7f4e487b7100000000000000000000000000000000000000000000000000000000600052602260045260246000fd5b620003ec8162000348565b8114620003f857600080fd5b50565b610f23806200040b6000396000f3fe608060405234801561001057600080fd5b50600436106100cf5760003560e01c80638da5cb5b1161008c578063c311c52311610066578063c311c523146101de578063c87b56dd146101fc578063cd7c03261461022c578063f2fde38b1461024a576100cf565b80638da5cb5b1461018657806394bf804d146101a457806395d89b41146101c0576100cf565b806306fdde03146100d45780634b97aed9146100f25780635bf8633a146101105780635dd871a31461012e5780636c0360eb1461015e578063715018a61461017c575b600080fd5b6100dc610266565b6040516100e99190610c80565b60405180910390f35b6100fa6102a3565b6040516101079190610ce2565b60405180910390f35b6101186102ad565b6040516101259190610c4a565b60405180910390f35b61014860048036038101906101439190610ad9565b6102d3565b6040516101559190610c65565b60405180910390f35b6101666102de565b6040516101739190610c80565b60405180910390f35b61018461036c565b005b61018e6104a6565b60405161019b9190610c4a565b60405180910390f35b6101be60048036038101906101b99190610b02565b6104cf565b005b6101c86106ce565b6040516101d59190610c80565b60405180910390f35b6101e661070b565b6040516101f39190610c65565b60405180910390f35b61021660048036038101906102119190610ad9565b610714565b6040516102239190610c80565b60405180910390f35b6102346107c8565b6040516102419190610c4a565b60405180910390f35b610264600480360381019061025f9190610a46565b6107ee565b005b60606040518060400160405280601581526020017f52657069746c6520546f6b656e20466163746f72790000000000000000000000815250905090565b6000600554905090565b600260009054906101000a900473ffffffffffffffffffffffffffffffffffffffff1681565b600060019050919050565b600380546102eb90610e07565b80601f016020809104026020016040519081016040528092919081815260200182805461031790610e07565b80156103645780601f1061033957610100808354040283529160200191610364565b820191906000526020600020905b81548152906001019060200180831161034757829003601f168201915b505050505081565b610374610997565b73ffffffffffffffffffffffffffffffffffffffff166103926104a6565b73ffffffffffffffffffffffffffffffffffffffff16146103e8576040517f08c379a00000000000000000000000000000000000000000000000000000000081526004016103df90610cc2565b60405180910390fd5b600073ffffffffffffffffffffffffffffffffffffffff1660008054906101000a900473ffffffffffffffffffffffffffffffffffffffff1673ffffffffffffffffffffffffffffffffffffffff167f8be0079c531659141344cd1fd0a4f28419497f9722a3daafe3b4186f6b6457e060405160405180910390a360008060006101000a81548173ffffffffffffffffffffffffffffffffffffffff021916908373ffffffffffffffffffffffffffffffffffffffff160217905550565b60008060009054906101000a900473ffffffffffffffffffffffffffffffffffffffff16905090565b6000600160009054906101000a900473ffffffffffffffffffffffffffffffffffffffff1690503373ffffffffffffffffffffffffffffffffffffffff168173ffffffffffffffffffffffffffffffffffffffff1663c45527916105316104a6565b6040518263ffffffff1660e01b815260040161054d9190610c4a565b60206040518083038186803b15801561056557600080fd5b505afa158015610579573d6000803e3d6000fd5b505050506040513d601f19601f8201168201806040525081019061059d9190610a6f565b73ffffffffffffffffffffffffffffffffffffffff1614806105f157503373ffffffffffffffffffffffffffffffffffffffff166105d96104a6565b73ffffffffffffffffffffffffffffffffffffffff16145b610624577f4e487b7100000000000000000000000000000000000000000000000000000000600052600160045260246000fd5b61062d836102d3565b61063657600080fd5b6000600260009054906101000a900473ffffffffffffffffffffffffffffffffffffffff1690508073ffffffffffffffffffffffffffffffffffffffff1663755edd17846040518263ffffffff1660e01b81526004016106969190610c4a565b600060405180830381600087803b1580156106b057600080fd5b505af11580156106c4573d6000803e3d6000fd5b5050505050505050565b60606040518060400160405280600681526020017f4c54463030310000000000000000000000000000000000000000000000000000815250905090565b60006001905090565b60606000600260009054906101000a900473ffffffffffffffffffffffffffffffffffffffff1690508073ffffffffffffffffffffffffffffffffffffffff1663d547cfb76040518163ffffffff1660e01b815260040160006040518083038186803b15801561078357600080fd5b505afa158015610797573d6000803e3d6000fd5b505050506040513d6000823e3d601f19601f820116820180604052508101906107c09190610a98565b915050919050565b600160009054906101000a900473ffffffffffffffffffffffffffffffffffffffff1681565b6107f6610997565b73ffffffffffffffffffffffffffffffffffffffff166108146104a6565b73ffffffffffffffffffffffffffffffffffffffff161461086a576040517f08c379a000000000000000000000000000000000000000000000000000000000815260040161086190610cc2565b60405180910390fd5b600073ffffffffffffffffffffffffffffffffffffffff168173ffffffffffffffffffffffffffffffffffffffff1614156108da576040517f08c379a00000000000000000000000000000000000000000000000000000000081526004016108d190610ca2565b60405180910390fd5b8073ffffffffffffffffffffffffffffffffffffffff1660008054906101000a900473ffffffffffffffffffffffffffffffffffffffff1673ffffffffffffffffffffffffffffffffffffffff167f8be0079c531659141344cd1fd0a4f28419497f9722a3daafe3b4186f6b6457e060405160405180910390a3806000806101000a81548173ffffffffffffffffffffffffffffffffffffffff021916908373ffffffffffffffffffffffffffffffffffffffff16021790555050565b600033905090565b60006109b26109ad84610d2e565b610cfd565b9050828152602081018484840111156109ca57600080fd5b6109d5848285610dd4565b509392505050565b6000813590506109ec81610ea8565b92915050565b600081519050610a0181610ebf565b92915050565b600082601f830112610a1857600080fd5b8151610a2884826020860161099f565b91505092915050565b600081359050610a4081610ed6565b92915050565b600060208284031215610a5857600080fd5b6000610a66848285016109dd565b91505092915050565b600060208284031215610a8157600080fd5b6000610a8f848285016109f2565b91505092915050565b600060208284031215610aaa57600080fd5b600082015167ffffffffffffffff811115610ac457600080fd5b610ad084828501610a07565b91505092915050565b600060208284031215610aeb57600080fd5b6000610af984828501610a31565b91505092915050565b60008060408385031215610b1557600080fd5b6000610b2385828601610a31565b9250506020610b34858286016109dd565b9150509250929050565b610b4781610d7a565b82525050565b610b5681610d8c565b82525050565b6000610b6782610d5e565b610b718185610d69565b9350610b81818560208601610dd4565b610b8a81610e97565b840191505092915050565b6000610ba2602683610d69565b91507f4f776e61626c653a206e6577206f776e657220697320746865207a65726f206160008301527f64647265737300000000000000000000000000000000000000000000000000006020830152604082019050919050565b6000610c08602083610d69565b91507f4f776e61626c653a2063616c6c6572206973206e6f7420746865206f776e65726000830152602082019050919050565b610c4481610dca565b82525050565b6000602082019050610c5f6000830184610b3e565b92915050565b6000602082019050610c7a6000830184610b4d565b92915050565b60006020820190508181036000830152610c9a8184610b5c565b905092915050565b60006020820190508181036000830152610cbb81610b95565b9050919050565b60006020820190508181036000830152610cdb81610bfb565b9050919050565b6000602082019050610cf76000830184610c3b565b92915050565b6000604051905081810181811067ffffffffffffffff82111715610d2457610d23610e68565b5b8060405250919050565b600067ffffffffffffffff821115610d4957610d48610e68565b5b601f19601f8301169050602081019050919050565b600081519050919050565b600082825260208201905092915050565b6000610d8582610daa565b9050919050565b60008115159050919050565b6000610da382610d7a565b9050919050565b600073ffffffffffffffffffffffffffffffffffffffff82169050919050565b6000819050919050565b60005b83811015610df2578082015181840152602081019050610dd7565b83811115610e01576000848401525b50505050565b60006002820490506001821680610e1f57607f821691505b60208210811415610e3357610e32610e39565b5b50919050565b7f4e487b7100000000000000000000000000000000000000000000000000000000600052602260045260246000fd5b7f4e487b7100000000000000000000000000000000000000000000000000000000600052604160045260246000fd5b6000601f19601f8301169050919050565b610eb181610d7a565b8114610ebc57600080fd5b50565b610ec881610d98565b8114610ed357600080fd5b50565b610edf81610dca565b8114610eea57600080fd5b5056fea2646970667358221220bd11cc897c65d105bd4fc106a8213bff53176a700447ebbe706b2ed0d941d8a164736f6c63430008000033",
  "immutableReferences": {},
  "source": "// SPDX-License-Identifier: MIT\n\npragma solidity >=0.5.8 <0.9.0;\n\nimport \"../ownership/Ownable.sol\";\nimport \"./IERC721Factory.sol\";\nimport \"./LogicReptile.sol\";\nimport \"../utils/Strings.sol\";\n\n\ncontract LogicReptileFactory is IERC721Factory, Ownable {\n    \n    using Strings for string;\n\n    event Transfer(address indexed from, address indexed to, uint256 indexed tokenId);\n    \n    address public proxyRegistryAddress;\n\n    address public nftAddress;\n\n    string public baseURI = \"\";\n\n    \n    uint256 REPTILE_SUPPLY = 1;\n\n    uint256 NUM_OPTIONS = 1;\n\n    constructor(address proxyRegistryAddress_, address nftAddress_) {\n        proxyRegistryAddress = proxyRegistryAddress_;\n        nftAddress = nftAddress_;\n        emit Transfer(address(0), owner(), 0);\n    }\n\n    function name() external pure override returns (string memory){\n        return \"Repitle Token Factory\";\n    }    \n\n    function symbol() external pure override returns (string memory){\n        return \"LTF001\";\n    }\n\n    function supportsFactoryInterface() public pure override returns (bool) {\n        return true;\n    }\n\n    function numOptions() public view override returns (uint256) {\n        return NUM_OPTIONS;\n    }\n\n    function mint(uint256 _optionId, address _to) public override {\n        ProxyRegistry proxyRegistry  = ProxyRegistry(proxyRegistryAddress);\n        assert(\n            address(proxyRegistry.proxies(owner())) == msg.sender ||\n            owner() == msg.sender\n        );\n        require(canMint(_optionId));\n\n        LogicReptileToken logicReptileToken = LogicReptileToken(nftAddress);\n        logicReptileToken.mintTo(_to);\n    }\n\n    function canMint(uint256 _optionId) public view override returns (bool) {\n        return true;\n    }\n\n    function tokenURI(uint256 _optionId) external view override returns (string memory){\n        LogicReptileToken logicReptileToken = LogicReptileToken(nftAddress);\n        return logicReptileToken.baseTokenURI();\n    }     \n}",
  "sourcePath": "/Users/dennismacpro/Projects/Defi/Ethereum-Solidity-Collection/nft-kit/contracts/logicreptile/LogicReptileFactory.sol",
  "compiler": {
    "name": "solc",
    "version": "0.8.0+commit.c7dfd78e.Darwin.appleclang"
  },
  "schemaVersion": "3.3.4",
  "updatedAt": "2021-03-09T02:07:49.685Z",
  "devdoc": {
    "kind": "dev",
    "methods": {
      "canMint(uint256)": {
        "details": "Returns whether the option ID can be minted. Can return false if the developer wishes to restrict a total supply per option ID (or overall)."
      },
      "owner()": {
        "details": "Returns the address of the current owner."
      },
      "renounceOwnership()": {
        "details": "Leaves the contract without owner. It will not be possible to call `onlyOwner` functions anymore. Can only be called by the current owner. NOTE: Renouncing ownership will leave the contract without an owner, thereby removing any functionality that is only available to the owner."
      },
      "tokenURI(uint256)": {
        "details": "Returns a URL specifying some metadata about the option. This metadata can be of the same structure as the ERC721 metadata."
      },
      "transferOwnership(address)": {
        "details": "Transfers ownership of the contract to a new account (`newOwner`). Can only be called by the current owner."
      }
    },
    "version": 1
  },
  "userdoc": {
    "kind": "user",
    "methods": {
      "name()": {
        "notice": "Returns the name of this factory."
      },
      "numOptions()": {
        "notice": "Number of options the factory supports."
      },
      "supportsFactoryInterface()": {
        "notice": "Indicates that this is a factory contract. Ideally would use EIP 165 supportsInterface()"
      },
      "symbol()": {
        "notice": "Returns the symbol for this factory."
      }
    },
    "version": 1
  }
}