{
  "contractName": "LogicReptileDigitalAssets",
  "abi": [
    {
      "inputs": [
        {
          "internalType": "string",
          "name": "name_",
          "type": "string"
        },
        {
          "internalType": "string",
          "name": "symbol_",
          "type": "string"
        },
        {
          "internalType": "string",
          "name": "baseURI_",
          "type": "string"
        }
      ],
      "stateMutability": "nonpayable",
      "type": "constructor"
    },
    {
      "anonymous": false,
      "inputs": [
        {
          "indexed": true,
          "internalType": "address",
          "name": "owner",
          "type": "address"
        },
        {
          "indexed": true,
          "internalType": "address",
          "name": "approved",
          "type": "address"
        },
        {
          "indexed": true,
          "internalType": "uint256",
          "name": "tokenId",
          "type": "uint256"
        }
      ],
      "name": "Approval",
      "type": "event"
    },
    {
      "anonymous": false,
      "inputs": [
        {
          "indexed": true,
          "internalType": "address",
          "name": "owner",
          "type": "address"
        },
        {
          "indexed": true,
          "internalType": "address",
          "name": "operator",
          "type": "address"
        },
        {
          "indexed": false,
          "internalType": "bool",
          "name": "approved",
          "type": "bool"
        }
      ],
      "name": "ApprovalForAll",
      "type": "event"
    },
    {
      "anonymous": false,
      "inputs": [
        {
          "indexed": true,
          "internalType": "uint256",
          "name": "_tokenId",
          "type": "uint256"
        }
      ],
      "name": "Burned",
      "type": "event"
    },
    {
      "anonymous": false,
      "inputs": [
        {
          "indexed": true,
          "internalType": "address",
          "name": "_artist",
          "type": "address"
        },
        {
          "indexed": true,
          "internalType": "uint256",
          "name": "_tokenId",
          "type": "uint256"
        },
        {
          "indexed": false,
          "internalType": "string",
          "name": "_tokenURI",
          "type": "string"
        },
        {
          "indexed": false,
          "internalType": "bytes16",
          "name": "_edition",
          "type": "bytes16"
        }
      ],
      "name": "Minted",
      "type": "event"
    },
    {
      "anonymous": false,
      "inputs": [
        {
          "indexed": false,
          "internalType": "address",
          "name": "account",
          "type": "address"
        }
      ],
      "name": "Paused",
      "type": "event"
    },
    {
      "anonymous": false,
      "inputs": [
        {
          "indexed": true,
          "internalType": "bytes32",
          "name": "role",
          "type": "bytes32"
        },
        {
          "indexed": true,
          "internalType": "bytes32",
          "name": "previousAdminRole",
          "type": "bytes32"
        },
        {
          "indexed": true,
          "internalType": "bytes32",
          "name": "newAdminRole",
          "type": "bytes32"
        }
      ],
      "name": "RoleAdminChanged",
      "type": "event"
    },
    {
      "anonymous": false,
      "inputs": [
        {
          "indexed": true,
          "internalType": "bytes32",
          "name": "role",
          "type": "bytes32"
        },
        {
          "indexed": true,
          "internalType": "address",
          "name": "account",
          "type": "address"
        },
        {
          "indexed": true,
          "internalType": "address",
          "name": "sender",
          "type": "address"
        }
      ],
      "name": "RoleGranted",
      "type": "event"
    },
    {
      "anonymous": false,
      "inputs": [
        {
          "indexed": true,
          "internalType": "bytes32",
          "name": "role",
          "type": "bytes32"
        },
        {
          "indexed": true,
          "internalType": "address",
          "name": "account",
          "type": "address"
        },
        {
          "indexed": true,
          "internalType": "address",
          "name": "sender",
          "type": "address"
        }
      ],
      "name": "RoleRevoked",
      "type": "event"
    },
    {
      "anonymous": false,
      "inputs": [
        {
          "indexed": true,
          "internalType": "address",
          "name": "from",
          "type": "address"
        },
        {
          "indexed": true,
          "internalType": "address",
          "name": "to",
          "type": "address"
        },
        {
          "indexed": true,
          "internalType": "uint256",
          "name": "tokenId",
          "type": "uint256"
        }
      ],
      "name": "Transfer",
      "type": "event"
    },
    {
      "anonymous": false,
      "inputs": [
        {
          "indexed": false,
          "internalType": "address",
          "name": "account",
          "type": "address"
        }
      ],
      "name": "Unpaused",
      "type": "event"
    },
    {
      "inputs": [],
      "name": "BURNER_ROLE",
      "outputs": [
        {
          "internalType": "bytes32",
          "name": "",
          "type": "bytes32"
        }
      ],
      "stateMutability": "view",
      "type": "function"
    },
    {
      "inputs": [],
      "name": "DEFAULT_ADMIN_ROLE",
      "outputs": [
        {
          "internalType": "bytes32",
          "name": "",
          "type": "bytes32"
        }
      ],
      "stateMutability": "view",
      "type": "function"
    },
    {
      "inputs": [],
      "name": "MINTER_ROLE",
      "outputs": [
        {
          "internalType": "bytes32",
          "name": "",
          "type": "bytes32"
        }
      ],
      "stateMutability": "view",
      "type": "function"
    },
    {
      "inputs": [],
      "name": "PAUSER_ROLE",
      "outputs": [
        {
          "internalType": "bytes32",
          "name": "",
          "type": "bytes32"
        }
      ],
      "stateMutability": "view",
      "type": "function"
    },
    {
      "inputs": [
        {
          "internalType": "address",
          "name": "to",
          "type": "address"
        },
        {
          "internalType": "uint256",
          "name": "tokenId",
          "type": "uint256"
        }
      ],
      "name": "approve",
      "outputs": [],
      "stateMutability": "nonpayable",
      "type": "function"
    },
    {
      "inputs": [
        {
          "internalType": "address",
          "name": "owner",
          "type": "address"
        }
      ],
      "name": "balanceOf",
      "outputs": [
        {
          "internalType": "uint256",
          "name": "",
          "type": "uint256"
        }
      ],
      "stateMutability": "view",
      "type": "function"
    },
    {
      "inputs": [
        {
          "internalType": "uint256",
          "name": "_tokenId",
          "type": "uint256"
        }
      ],
      "name": "burn",
      "outputs": [],
      "stateMutability": "nonpayable",
      "type": "function"
    },
    {
      "inputs": [
        {
          "internalType": "uint256",
          "name": "tokenId",
          "type": "uint256"
        }
      ],
      "name": "getApproved",
      "outputs": [
        {
          "internalType": "address",
          "name": "",
          "type": "address"
        }
      ],
      "stateMutability": "view",
      "type": "function"
    },
    {
      "inputs": [
        {
          "internalType": "bytes32",
          "name": "role",
          "type": "bytes32"
        }
      ],
      "name": "getRoleAdmin",
      "outputs": [
        {
          "internalType": "bytes32",
          "name": "",
          "type": "bytes32"
        }
      ],
      "stateMutability": "view",
      "type": "function"
    },
    {
      "inputs": [
        {
          "internalType": "bytes32",
          "name": "role",
          "type": "bytes32"
        },
        {
          "internalType": "uint256",
          "name": "index",
          "type": "uint256"
        }
      ],
      "name": "getRoleMember",
      "outputs": [
        {
          "internalType": "address",
          "name": "",
          "type": "address"
        }
      ],
      "stateMutability": "view",
      "type": "function"
    },
    {
      "inputs": [
        {
          "internalType": "bytes32",
          "name": "role",
          "type": "bytes32"
        }
      ],
      "name": "getRoleMemberCount",
      "outputs": [
        {
          "internalType": "uint256",
          "name": "",
          "type": "uint256"
        }
      ],
      "stateMutability": "view",
      "type": "function"
    },
    {
      "inputs": [
        {
          "internalType": "bytes32",
          "name": "role",
          "type": "bytes32"
        },
        {
          "internalType": "address",
          "name": "account",
          "type": "address"
        }
      ],
      "name": "grantRole",
      "outputs": [],
      "stateMutability": "nonpayable",
      "type": "function"
    },
    {
      "inputs": [
        {
          "internalType": "bytes32",
          "name": "role",
          "type": "bytes32"
        },
        {
          "internalType": "address",
          "name": "account",
          "type": "address"
        }
      ],
      "name": "hasRole",
      "outputs": [
        {
          "internalType": "bool",
          "name": "",
          "type": "bool"
        }
      ],
      "stateMutability": "view",
      "type": "function"
    },
    {
      "inputs": [
        {
          "internalType": "address",
          "name": "owner",
          "type": "address"
        },
        {
          "internalType": "address",
          "name": "operator",
          "type": "address"
        }
      ],
      "name": "isApprovedForAll",
      "outputs": [
        {
          "internalType": "bool",
          "name": "",
          "type": "bool"
        }
      ],
      "stateMutability": "view",
      "type": "function"
    },
    {
      "inputs": [
        {
          "internalType": "address",
          "name": "_artist",
          "type": "address"
        },
        {
          "internalType": "string",
          "name": "_tokenURI",
          "type": "string"
        },
        {
          "internalType": "bytes16",
          "name": "_edition",
          "type": "bytes16"
        }
      ],
      "name": "mint",
      "outputs": [],
      "stateMutability": "nonpayable",
      "type": "function"
    },
    {
      "inputs": [],
      "name": "name",
      "outputs": [
        {
          "internalType": "string",
          "name": "",
          "type": "string"
        }
      ],
      "stateMutability": "view",
      "type": "function"
    },
    {
      "inputs": [
        {
          "internalType": "uint256",
          "name": "tokenId",
          "type": "uint256"
        }
      ],
      "name": "ownerOf",
      "outputs": [
        {
          "internalType": "address",
          "name": "",
          "type": "address"
        }
      ],
      "stateMutability": "view",
      "type": "function"
    },
    {
      "inputs": [],
      "name": "pause",
      "outputs": [],
      "stateMutability": "nonpayable",
      "type": "function"
    },
    {
      "inputs": [],
      "name": "paused",
      "outputs": [
        {
          "internalType": "bool",
          "name": "",
          "type": "bool"
        }
      ],
      "stateMutability": "view",
      "type": "function"
    },
    {
      "inputs": [
        {
          "internalType": "bytes32",
          "name": "role",
          "type": "bytes32"
        },
        {
          "internalType": "address",
          "name": "account",
          "type": "address"
        }
      ],
      "name": "renounceRole",
      "outputs": [],
      "stateMutability": "nonpayable",
      "type": "function"
    },
    {
      "inputs": [
        {
          "internalType": "bytes32",
          "name": "role",
          "type": "bytes32"
        },
        {
          "internalType": "address",
          "name": "account",
          "type": "address"
        }
      ],
      "name": "revokeRole",
      "outputs": [],
      "stateMutability": "nonpayable",
      "type": "function"
    },
    {
      "inputs": [
        {
          "internalType": "address",
          "name": "from",
          "type": "address"
        },
        {
          "internalType": "address",
          "name": "to",
          "type": "address"
        },
        {
          "internalType": "uint256",
          "name": "tokenId",
          "type": "uint256"
        }
      ],
      "name": "safeTransferFrom",
      "outputs": [],
      "stateMutability": "nonpayable",
      "type": "function"
    },
    {
      "inputs": [
        {
          "internalType": "address",
          "name": "from",
          "type": "address"
        },
        {
          "internalType": "address",
          "name": "to",
          "type": "address"
        },
        {
          "internalType": "uint256",
          "name": "tokenId",
          "type": "uint256"
        },
        {
          "internalType": "bytes",
          "name": "_data",
          "type": "bytes"
        }
      ],
      "name": "safeTransferFrom",
      "outputs": [],
      "stateMutability": "nonpayable",
      "type": "function"
    },
    {
      "inputs": [
        {
          "internalType": "address",
          "name": "operator",
          "type": "address"
        },
        {
          "internalType": "bool",
          "name": "approved",
          "type": "bool"
        }
      ],
      "name": "setApprovalForAll",
      "outputs": [],
      "stateMutability": "nonpayable",
      "type": "function"
    },
    {
      "inputs": [
        {
          "internalType": "string",
          "name": "_newBaseURI",
          "type": "string"
        }
      ],
      "name": "setTokenBaseURI",
      "outputs": [],
      "stateMutability": "nonpayable",
      "type": "function"
    },
    {
      "inputs": [
        {
          "internalType": "bytes4",
          "name": "interfaceId",
          "type": "bytes4"
        }
      ],
      "name": "supportsInterface",
      "outputs": [
        {
          "internalType": "bool",
          "name": "",
          "type": "bool"
        }
      ],
      "stateMutability": "view",
      "type": "function"
    },
    {
      "inputs": [],
      "name": "symbol",
      "outputs": [
        {
          "internalType": "string",
          "name": "",
          "type": "string"
        }
      ],
      "stateMutability": "view",
      "type": "function"
    },
    {
      "inputs": [
        {
          "internalType": "uint256",
          "name": "index",
          "type": "uint256"
        }
      ],
      "name": "tokenByIndex",
      "outputs": [
        {
          "internalType": "uint256",
          "name": "",
          "type": "uint256"
        }
      ],
      "stateMutability": "view",
      "type": "function"
    },
    {
      "inputs": [
        {
          "internalType": "address",
          "name": "owner",
          "type": "address"
        },
        {
          "internalType": "uint256",
          "name": "index",
          "type": "uint256"
        }
      ],
      "name": "tokenOfOwnerByIndex",
      "outputs": [
        {
          "internalType": "uint256",
          "name": "",
          "type": "uint256"
        }
      ],
      "stateMutability": "view",
      "type": "function"
    },
    {
      "inputs": [
        {
          "internalType": "uint256",
          "name": "_tokenId",
          "type": "uint256"
        }
      ],
      "name": "tokenURI",
      "outputs": [
        {
          "internalType": "string",
          "name": "",
          "type": "string"
        }
      ],
      "stateMutability": "view",
      "type": "function"
    },
    {
      "inputs": [],
      "name": "totalSupply",
      "outputs": [
        {
          "internalType": "uint256",
          "name": "",
          "type": "uint256"
        }
      ],
      "stateMutability": "view",
      "type": "function"
    },
    {
      "inputs": [
        {
          "internalType": "address",
          "name": "from",
          "type": "address"
        },
        {
          "internalType": "address",
          "name": "to",
          "type": "address"
        },
        {
          "internalType": "uint256",
          "name": "tokenId",
          "type": "uint256"
        }
      ],
      "name": "transferFrom",
      "outputs": [],
      "stateMutability": "nonpayable",
      "type": "function"
    },
    {
      "inputs": [],
      "name": "unpause",
      "outputs": [],
      "stateMutability": "nonpayable",
      "type": "function"
    },
    {
      "inputs": [],
      "name": "baseURI",
      "outputs": [
        {
          "internalType": "string",
          "name": "",
          "type": "string"
        }
      ],
      "stateMutability": "view",
      "type": "function"
    }
  ],
  "bytecode": "0x60806040526040518060400160405280601581526020017f68747470733a2f2f697066732e696f2f697066732f000000000000000000000081525060149080519060200190620000519291906200047b565b503480156200005f57600080fd5b506040516200521a3803806200521a83398181016040528101906200008591906200059d565b82828282828160029080519060200190620000a29291906200047b565b508060039080519060200190620000bb9291906200047b565b5050506000600c60006101000a81548160ff02191690831515021790555080600e9080519060200190620000f19291906200047b565b50620001166000801b6200010a620001e560201b60201c565b620001ed60201b60201c565b620001577f9f2df0fed2c77648de5860a4cc508cd0818c85b8b8a1ab4ceeef8d981c8956a66200014b620001e560201b60201c565b620001ed60201b60201c565b620001987f65d7a28e3265b37a6474929f336521b332c1681b933f6cb9f3376673440d862a6200018c620001e560201b60201c565b620001ed60201b60201c565b620001d97f3c11d16cbaffd01df69ce1c404f6340ee057498f5f00246190ea54220576a848620001cd620001e560201b60201c565b620001ed60201b60201c565b5050505050506200076f565b600033905090565b6200020482826200023560201b620017db1760201c565b6200023081600160008581526020019081526020016000206200024b60201b620017e91790919060201c565b505050565b6200024782826200028360201b60201c565b5050565b60006200027b836000018373ffffffffffffffffffffffffffffffffffffffff1660001b6200037460201b60201c565b905092915050565b620002958282620003ee60201b60201c565b6200037057600160008084815260200190815260200160002060000160008373ffffffffffffffffffffffffffffffffffffffff1673ffffffffffffffffffffffffffffffffffffffff16815260200190815260200160002060006101000a81548160ff02191690831515021790555062000315620001e560201b60201c565b73ffffffffffffffffffffffffffffffffffffffff168173ffffffffffffffffffffffffffffffffffffffff16837f2f8788117e7eff1d82e926ec794901d17c78024a50270940304540a733656f0d60405160405180910390a45b5050565b60006200038883836200045860201b60201c565b620003e3578260000182908060018154018082558091505060019003906000526020600020016000909190919091505582600001805490508360010160008481526020019081526020016000208190555060019050620003e8565b600090505b92915050565b600080600084815260200190815260200160002060000160008373ffffffffffffffffffffffffffffffffffffffff1673ffffffffffffffffffffffffffffffffffffffff16815260200190815260200160002060009054906101000a900460ff16905092915050565b600080836001016000848152602001908152602001600020541415905092915050565b8280546200048990620006db565b90600052602060002090601f016020900481019282620004ad5760008555620004f9565b82601f10620004c857805160ff1916838001178555620004f9565b82800160010185558215620004f9579182015b82811115620004f8578251825591602001919060010190620004db565b5b5090506200050891906200050c565b5090565b5b80821115620005275760008160009055506001016200050d565b5090565b6000620005426200053c8462000672565b6200063e565b9050828152602081018484840111156200055b57600080fd5b62000568848285620006a5565b509392505050565b600082601f8301126200058257600080fd5b8151620005948482602086016200052b565b91505092915050565b600080600060608486031215620005b357600080fd5b600084015167ffffffffffffffff811115620005ce57600080fd5b620005dc8682870162000570565b935050602084015167ffffffffffffffff811115620005fa57600080fd5b620006088682870162000570565b925050604084015167ffffffffffffffff8111156200062657600080fd5b620006348682870162000570565b9150509250925092565b6000604051905081810181811067ffffffffffffffff8211171562000668576200066762000740565b5b8060405250919050565b600067ffffffffffffffff82111562000690576200068f62000740565b5b601f19601f8301169050602081019050919050565b60005b83811015620006c5578082015181840152602081019050620006a8565b83811115620006d5576000848401525b50505050565b60006002820490506001821680620006f457607f821691505b602082108114156200070b576200070a62000711565b5b50919050565b7f4e487b7100000000000000000000000000000000000000000000000000000000600052602260045260246000fd5b7f4e487b7100000000000000000000000000000000000000000000000000000000600052604160045260246000fd5b614a9b806200077f6000396000f3fe608060405234801561001057600080fd5b50600436106102065760003560e01c80636c0360eb1161011a578063a22cb465116100ad578063d53913931161007c578063d5391393146105fd578063d547741f1461061b578063e561c50514610637578063e63ab1e914610653578063e985e9c51461067157610206565b8063a22cb46514610565578063b88d4fde14610581578063c87b56dd1461059d578063ca15c873146105cd57610206565b80639010d07c116100e95780639010d07c146104c957806391d14854146104f957806395d89b4114610529578063a217fddf1461054757610206565b80636c0360eb1461045557806370a08231146104735780638456cb59146104a35780638ef79e91146104ad57610206565b80632f2ff15d1161019d57806342842e0e1161016c57806342842e0e1461039f57806342966c68146103bb5780634f6ccce7146103d75780635c975abb146104075780636352211e1461042557610206565b80632f2ff15d1461032d5780632f745c591461034957806336568abe146103795780633f4ba83a1461039557610206565b806318160ddd116101d957806318160ddd146102a557806323b872dd146102c3578063248a9ca3146102df578063282c51f31461030f57610206565b806301ffc9a71461020b57806306fdde031461023b578063081812fc14610259578063095ea7b314610289575b600080fd5b61022560048036038101906102209190613514565b6106a1565b60405161023291906142c2565b60405180910390f35b61024361089c565b604051610250919061432a565b60405180910390f35b610273600480360381019061026e91906135ab565b61092e565b604051610280919061425b565b60405180910390f35b6102a3600480360381019061029e9190613437565b6109b3565b005b6102ad610acb565b6040516102ba91906146ac565b60405180910390f35b6102dd60048036038101906102d891906132c5565b610ad8565b005b6102f960048036038101906102f49190613473565b610b38565b60405161030691906142dd565b60405180910390f35b610317610b57565b60405161032491906142dd565b60405180910390f35b6103476004803603810190610342919061349c565b610b7b565b005b610363600480360381019061035e9190613437565b610baf565b60405161037091906146ac565b60405180910390f35b610393600480360381019061038e919061349c565b610c54565b005b61039d610cd7565b005b6103b960048036038101906103b491906132c5565b610d51565b005b6103d560048036038101906103d091906135ab565b610d71565b005b6103f160048036038101906103ec91906135ab565b610dbc565b6040516103fe91906146ac565b60405180910390f35b61040f610e53565b60405161041c91906142c2565b60405180910390f35b61043f600480360381019061043a91906135ab565b610e6a565b60405161044c919061425b565b60405180910390f35b61045d610f1c565b60405161046a919061432a565b60405180910390f35b61048d60048036038101906104889190613260565b610fae565b60405161049a91906146ac565b60405180910390f35b6104ab611066565b005b6104c760048036038101906104c29190613566565b6110e0565b005b6104e360048036038101906104de91906134d8565b611149565b6040516104f0919061425b565b60405180910390f35b610513600480360381019061050e919061349c565b611178565b60405161052091906142c2565b60405180910390f35b6105316111e2565b60405161053e919061432a565b60405180910390f35b61054f611274565b60405161055c91906142dd565b60405180910390f35b61057f600480360381019061057a919061338f565b61127b565b005b61059b60048036038101906105969190613314565b6113fc565b005b6105b760048036038101906105b291906135ab565b61145e565b6040516105c4919061432a565b60405180910390f35b6105e760048036038101906105e29190613473565b61156c565b6040516105f491906146ac565b60405180910390f35b610605611590565b60405161061291906142dd565b60405180910390f35b6106356004803603810190610630919061349c565b6115b4565b005b610651600480360381019061064c91906133cb565b6115e8565b005b61065b611723565b60405161066891906142dd565b60405180910390f35b61068b60048036038101906106869190613289565b611747565b60405161069891906142c2565b60405180910390f35b60007f80ac58cd000000000000000000000000000000000000000000000000000000007bffffffffffffffffffffffffffffffffffffffffffffffffffffffff1916827bffffffffffffffffffffffffffffffffffffffffffffffffffffffff1916148061076c57507f5b5e139f000000000000000000000000000000000000000000000000000000007bffffffffffffffffffffffffffffffffffffffffffffffffffffffff1916827bffffffffffffffffffffffffffffffffffffffffffffffffffffffff1916145b806107d457507f780e9d63000000000000000000000000000000000000000000000000000000007bffffffffffffffffffffffffffffffffffffffffffffffffffffffff1916827bffffffffffffffffffffffffffffffffffffffffffffffffffffffff1916145b8061081d575060007bffffffffffffffffffffffffffffffffffffffffffffffffffffffff1916827bffffffffffffffffffffffffffffffffffffffffffffffffffffffff1916145b8061088557507f42966c68000000000000000000000000000000000000000000000000000000007bffffffffffffffffffffffffffffffffffffffffffffffffffffffff1916827bffffffffffffffffffffffffffffffffffffffffffffffffffffffff1916145b80610895575061089482611819565b5b9050919050565b6060600280546108ab9061490b565b80601f01602080910402602001604051908101604052809291908181526020018280546108d79061490b565b80156109245780601f106108f957610100808354040283529160200191610924565b820191906000526020600020905b81548152906001019060200180831161090757829003601f168201915b5050505050905090565b600061093982611883565b610978576040517f08c379a000000000000000000000000000000000000000000000000000000000815260040161096f9061456c565b60405180910390fd5b6006600083815260200190815260200160002060009054906101000a900473ffffffffffffffffffffffffffffffffffffffff169050919050565b60006109be82610e6a565b90508073ffffffffffffffffffffffffffffffffffffffff168373ffffffffffffffffffffffffffffffffffffffff161415610a2f576040517f08c379a0000000000000000000000000000000000000000000000000000000008152600401610a26906145ec565b60405180910390fd5b8073ffffffffffffffffffffffffffffffffffffffff16610a4e6118ef565b73ffffffffffffffffffffffffffffffffffffffff161480610a7d5750610a7c81610a776118ef565b611747565b5b610abc576040517f08c379a0000000000000000000000000000000000000000000000000000000008152600401610ab3906144cc565b60405180910390fd5b610ac683836118f7565b505050565b6000600a80549050905090565b610ae9610ae36118ef565b826119b0565b610b28576040517f08c379a0000000000000000000000000000000000000000000000000000000008152600401610b1f9061460c565b60405180910390fd5b610b33838383611a8e565b505050565b6000806000838152602001908152602001600020600101549050919050565b7f3c11d16cbaffd01df69ce1c404f6340ee057498f5f00246190ea54220576a84881565b610b858282611cea565b610baa81600160008581526020019081526020016000206117e990919063ffffffff16565b505050565b6000610bba83610fae565b8210610bfb576040517f08c379a0000000000000000000000000000000000000000000000000000000008152600401610bf2906143cc565b60405180910390fd5b600860008473ffffffffffffffffffffffffffffffffffffffff1673ffffffffffffffffffffffffffffffffffffffff168152602001908152602001600020600083815260200190815260200160002054905092915050565b610c5c6118ef565b73ffffffffffffffffffffffffffffffffffffffff168173ffffffffffffffffffffffffffffffffffffffff1614610cc9576040517f08c379a0000000000000000000000000000000000000000000000000000000008152600401610cc09061468c565b60405180910390fd5b610cd38282611d50565b5050565b610d087f65d7a28e3265b37a6474929f336521b332c1681b933f6cb9f3376673440d862a610d036118ef565b611178565b610d47576040517f08c379a0000000000000000000000000000000000000000000000000000000008152600401610d3e906145cc565b60405180910390fd5b610d4f611e31565b565b610d6c838383604051806020016040528060008152506113fc565b505050565b610d7a81611ed3565b610d8381611f2f565b610d8c81612037565b807fd83c63197e8e676d80ab0122beba9a9d20f3828839e9a1d6fe81d242e9cd7e6e60405160405180910390a250565b6000610dc6610acb565b8210610e07576040517f08c379a0000000000000000000000000000000000000000000000000000000008152600401610dfe9061464c565b60405180910390fd5b600a8281548110610e41577f4e487b7100000000000000000000000000000000000000000000000000000000600052603260045260246000fd5b90600052602060002001549050919050565b6000600c60009054906101000a900460ff16905090565b6000806004600084815260200190815260200160002060009054906101000a900473ffffffffffffffffffffffffffffffffffffffff169050600073ffffffffffffffffffffffffffffffffffffffff168173ffffffffffffffffffffffffffffffffffffffff161415610f13576040517f08c379a0000000000000000000000000000000000000000000000000000000008152600401610f0a9061450c565b60405180910390fd5b80915050919050565b606060148054610f2b9061490b565b80601f0160208091040260200160405190810160405280929190818152602001828054610f579061490b565b8015610fa45780601f10610f7957610100808354040283529160200191610fa4565b820191906000526020600020905b815481529060010190602001808311610f8757829003601f168201915b5050505050905090565b60008073ffffffffffffffffffffffffffffffffffffffff168273ffffffffffffffffffffffffffffffffffffffff16141561101f576040517f08c379a0000000000000000000000000000000000000000000000000000000008152600401611016906144ec565b60405180910390fd5b600560008373ffffffffffffffffffffffffffffffffffffffff1673ffffffffffffffffffffffffffffffffffffffff168152602001908152602001600020549050919050565b6110977f65d7a28e3265b37a6474929f336521b332c1681b933f6cb9f3376673440d862a6110926118ef565b611178565b6110d6576040517f08c379a00000000000000000000000000000000000000000000000000000000081526004016110cd906145cc565b60405180910390fd5b6110de61208b565b565b6110f46000801b6110ef6118ef565b611178565b611133576040517f08c379a000000000000000000000000000000000000000000000000000000000815260040161112a9061452c565b60405180910390fd5b8181600e9190611144929190612fb2565b505050565b6000611170826001600086815260200190815260200160002061212e90919063ffffffff16565b905092915050565b600080600084815260200190815260200160002060000160008373ffffffffffffffffffffffffffffffffffffffff1673ffffffffffffffffffffffffffffffffffffffff16815260200190815260200160002060009054906101000a900460ff16905092915050565b6060600380546111f19061490b565b80601f016020809104026020016040519081016040528092919081815260200182805461121d9061490b565b801561126a5780601f1061123f5761010080835404028352916020019161126a565b820191906000526020600020905b81548152906001019060200180831161124d57829003601f168201915b5050505050905090565b6000801b81565b6112836118ef565b73ffffffffffffffffffffffffffffffffffffffff168273ffffffffffffffffffffffffffffffffffffffff1614156112f1576040517f08c379a00000000000000000000000000000000000000000000000000000000081526004016112e89061444c565b60405180910390fd5b80600760006112fe6118ef565b73ffffffffffffffffffffffffffffffffffffffff1673ffffffffffffffffffffffffffffffffffffffff16815260200190815260200160002060008473ffffffffffffffffffffffffffffffffffffffff1673ffffffffffffffffffffffffffffffffffffffff16815260200190815260200160002060006101000a81548160ff0219169083151502179055508173ffffffffffffffffffffffffffffffffffffffff166113ab6118ef565b73ffffffffffffffffffffffffffffffffffffffff167f17307eab39ab6107e8899845ad3d59bd9653f200f220920489ca2b5937696c31836040516113f091906142c2565b60405180910390a35050565b61140d6114076118ef565b836119b0565b61144c576040517f08c379a00000000000000000000000000000000000000000000000000000000081526004016114439061460c565b60405180910390fd5b61145884848484612148565b50505050565b6060600f6000838152602001908152602001600020604051602001611483919061422f565b604051602081830303815290604052805190602001206040516020016114a890614246565b6040516020818303038152906040528051906020012014156114ff576040517f08c379a00000000000000000000000000000000000000000000000000000000081526004016114f6906145ac565b60405180910390fd5b60006115096121a4565b90506000600f6000858152602001908152602001600020905060008251116115405760405180602001604052806000815250611563565b818160405160200161155392919061420b565b6040516020818303038152906040525b92505050919050565b600061158960016000848152602001908152602001600020612236565b9050919050565b7f9f2df0fed2c77648de5860a4cc508cd0818c85b8b8a1ab4ceeef8d981c8956a681565b6115be828261224b565b6115e381600160008581526020019081526020016000206122b190919063ffffffff16565b505050565b6116197f9f2df0fed2c77648de5860a4cc508cd0818c85b8b8a1ab4ceeef8d981c8956a66116146118ef565b611178565b611658576040517f08c379a000000000000000000000000000000000000000000000000000000000815260040161164f9061462c565b60405180910390fd5b6000611664600d6122e1565b905061167085826122ef565b6116bf8185858080601f016020809104026020016040519081016040528093929190818152602001838380828437600081840152601f19601f82011690508083019250505050505050846124bd565b808573ffffffffffffffffffffffffffffffffffffffff167f3a540b9006130a01819732465719e909d14683ec4c0abf71bc32dd8de03e1c3f86868660405161170a939291906142f8565b60405180910390a361171c600d612551565b5050505050565b7f65d7a28e3265b37a6474929f336521b332c1681b933f6cb9f3376673440d862a81565b6000600760008473ffffffffffffffffffffffffffffffffffffffff1673ffffffffffffffffffffffffffffffffffffffff16815260200190815260200160002060008373ffffffffffffffffffffffffffffffffffffffff1673ffffffffffffffffffffffffffffffffffffffff16815260200190815260200160002060009054906101000a900460ff16905092915050565b6117e58282612567565b5050565b6000611811836000018373ffffffffffffffffffffffffffffffffffffffff1660001b612647565b905092915050565b60007f01ffc9a7000000000000000000000000000000000000000000000000000000007bffffffffffffffffffffffffffffffffffffffffffffffffffffffff1916827bffffffffffffffffffffffffffffffffffffffffffffffffffffffff1916149050919050565b60008073ffffffffffffffffffffffffffffffffffffffff166004600084815260200190815260200160002060009054906101000a900473ffffffffffffffffffffffffffffffffffffffff1673ffffffffffffffffffffffffffffffffffffffff1614159050919050565b600033905090565b816006600083815260200190815260200160002060006101000a81548173ffffffffffffffffffffffffffffffffffffffff021916908373ffffffffffffffffffffffffffffffffffffffff160217905550808273ffffffffffffffffffffffffffffffffffffffff1661196a83610e6a565b73ffffffffffffffffffffffffffffffffffffffff167f8c5be1e5ebec7d5bd14f71427d1e84f3dd0314c0f7b2291e5b200ac8c7c3b92560405160405180910390a45050565b60006119bb82611883565b6119fa576040517f08c379a00000000000000000000000000000000000000000000000000000000081526004016119f19061446c565b60405180910390fd5b6000611a0583610e6a565b90508073ffffffffffffffffffffffffffffffffffffffff168473ffffffffffffffffffffffffffffffffffffffff161480611a7457508373ffffffffffffffffffffffffffffffffffffffff16611a5c8461092e565b73ffffffffffffffffffffffffffffffffffffffff16145b80611a855750611a848185611747565b5b91505092915050565b8273ffffffffffffffffffffffffffffffffffffffff16611aae82610e6a565b73ffffffffffffffffffffffffffffffffffffffff1614611b04576040517f08c379a0000000000000000000000000000000000000000000000000000000008152600401611afb9061458c565b60405180910390fd5b600073ffffffffffffffffffffffffffffffffffffffff168273ffffffffffffffffffffffffffffffffffffffff161415611b74576040517f08c379a0000000000000000000000000000000000000000000000000000000008152600401611b6b9061442c565b60405180910390fd5b611b7f8383836126b7565b611b8a6000826118f7565b6001600560008573ffffffffffffffffffffffffffffffffffffffff1673ffffffffffffffffffffffffffffffffffffffff1681526020019081526020016000206000828254611bda91906147eb565b925050819055506001600560008473ffffffffffffffffffffffffffffffffffffffff1673ffffffffffffffffffffffffffffffffffffffff1681526020019081526020016000206000828254611c319190614795565b92505081905550816004600083815260200190815260200160002060006101000a81548173ffffffffffffffffffffffffffffffffffffffff021916908373ffffffffffffffffffffffffffffffffffffffff160217905550808273ffffffffffffffffffffffffffffffffffffffff168473ffffffffffffffffffffffffffffffffffffffff167fddf252ad1be2c89b69c2b068fc378daa952ba7f163c4a11628f55a4df523b3ef60405160405180910390a4505050565b611d03611cf683610b38565b611cfe6118ef565b611178565b611d42576040517f08c379a0000000000000000000000000000000000000000000000000000000008152600401611d399061438c565b60405180910390fd5b611d4c8282612567565b5050565b611d5a8282611178565b15611e2d57600080600084815260200190815260200160002060000160008373ffffffffffffffffffffffffffffffffffffffff1673ffffffffffffffffffffffffffffffffffffffff16815260200190815260200160002060006101000a81548160ff021916908315150217905550611dd26118ef565b73ffffffffffffffffffffffffffffffffffffffff168173ffffffffffffffffffffffffffffffffffffffff16837ff6391f5c32d9c69d2a47ea670b442974b53935d1edc7fd64eb21e047a839171b60405160405180910390a45b5050565b611e39610e53565b611e78576040517f08c379a0000000000000000000000000000000000000000000000000000000008152600401611e6f906143ac565b60405180910390fd5b6000600c60006101000a81548160ff0219169083151502179055507f5db9ee0a495bf2e6ff9c91a7834c1ba4fdd244a5e8aa4e537bd38aeae4b073aa611ebc6118ef565b604051611ec9919061425b565b60405180910390a1565b611ee4611ede6118ef565b826119b0565b611f23576040517f08c379a0000000000000000000000000000000000000000000000000000000008152600401611f1a9061466c565b60405180910390fd5b611f2c81611f2f565b50565b6000611f3a82610e6a565b9050611f48816000846126b7565b611f536000836118f7565b6001600560008373ffffffffffffffffffffffffffffffffffffffff1673ffffffffffffffffffffffffffffffffffffffff168152602001908152602001600020600082825403925050819055506004600083815260200190815260200160002060006101000a81549073ffffffffffffffffffffffffffffffffffffffff021916905581600073ffffffffffffffffffffffffffffffffffffffff168273ffffffffffffffffffffffffffffffffffffffff167fddf252ad1be2c89b69c2b068fc378daa952ba7f163c4a11628f55a4df523b3ef60405160405180910390a45050565b600f600082815260200190815260200160002060006120569190613038565b6010600082815260200190815260200160002060006101000a8154906fffffffffffffffffffffffffffffffff021916905550565b612093610e53565b156120d3576040517f08c379a00000000000000000000000000000000000000000000000000000000081526004016120ca906144ac565b60405180910390fd5b6001600c60006101000a81548160ff0219169083151502179055507f62e78cea01bee320cd4e420270b5ea74000d11b0c9f74754ebdbfc544b05a2586121176118ef565b604051612124919061425b565b60405180910390a1565b600061213d83600001836126c7565b60001c905092915050565b612153848484611a8e565b61215f84848484612761565b61219e576040517f08c379a0000000000000000000000000000000000000000000000000000000008152600401612195906143ec565b60405180910390fd5b50505050565b6060600e80546121b39061490b565b80601f01602080910402602001604051908101604052809291908181526020018280546121df9061490b565b801561222c5780601f106122015761010080835404028352916020019161222c565b820191906000526020600020905b81548152906001019060200180831161220f57829003601f168201915b5050505050905090565b6000612244826000016128f8565b9050919050565b61226461225783610b38565b61225f6118ef565b611178565b6122a3576040517f08c379a000000000000000000000000000000000000000000000000000000000815260040161229a9061448c565b60405180910390fd5b6122ad8282611d50565b5050565b60006122d9836000018373ffffffffffffffffffffffffffffffffffffffff1660001b612909565b905092915050565b600081600001549050919050565b600073ffffffffffffffffffffffffffffffffffffffff168273ffffffffffffffffffffffffffffffffffffffff16141561235f576040517f08c379a00000000000000000000000000000000000000000000000000000000081526004016123569061454c565b60405180910390fd5b61236881611883565b156123a8576040517f08c379a000000000000000000000000000000000000000000000000000000000815260040161239f9061440c565b60405180910390fd5b6123b4600083836126b7565b6001600560008473ffffffffffffffffffffffffffffffffffffffff1673ffffffffffffffffffffffffffffffffffffffff16815260200190815260200160002060008282546124049190614795565b92505081905550816004600083815260200190815260200160002060006101000a81548173ffffffffffffffffffffffffffffffffffffffff021916908373ffffffffffffffffffffffffffffffffffffffff160217905550808273ffffffffffffffffffffffffffffffffffffffff16600073ffffffffffffffffffffffffffffffffffffffff167fddf252ad1be2c89b69c2b068fc378daa952ba7f163c4a11628f55a4df523b3ef60405160405180910390a45050565b81600f600085815260200190815260200160002090805190602001906124e4929190613078565b50806010600085815260200190815260200160002060006101000a8154816fffffffffffffffffffffffffffffffff021916908360801c021790555060006013600085815260200190815260200160002060006101000a81548160ff021916908315150217905550505050565b6001816000016000828254019250508190555050565b6125718282611178565b61264357600160008084815260200190815260200160002060000160008373ffffffffffffffffffffffffffffffffffffffff1673ffffffffffffffffffffffffffffffffffffffff16815260200190815260200160002060006101000a81548160ff0219169083151502179055506125e86118ef565b73ffffffffffffffffffffffffffffffffffffffff168173ffffffffffffffffffffffffffffffffffffffff16837f2f8788117e7eff1d82e926ec794901d17c78024a50270940304540a733656f0d60405160405180910390a45b5050565b60006126538383612a93565b6126ac5782600001829080600181540180825580915050600190039060005260206000200160009091909190915055826000018054905083600101600084815260200190815260200160002081905550600190506126b1565b600090505b92915050565b6126c2838383612ab6565b505050565b600081836000018054905011612712576040517f08c379a00000000000000000000000000000000000000000000000000000000081526004016127099061434c565b60405180910390fd5b82600001828154811061274e577f4e487b7100000000000000000000000000000000000000000000000000000000600052603260045260246000fd5b9060005260206000200154905092915050565b60006127828473ffffffffffffffffffffffffffffffffffffffff16612b0e565b156128eb578373ffffffffffffffffffffffffffffffffffffffff1663150b7a026127ab6118ef565b8786866040518563ffffffff1660e01b81526004016127cd9493929190614276565b602060405180830381600087803b1580156127e757600080fd5b505af192505050801561281857506040513d601f19601f82011682018060405250810190612815919061353d565b60015b61289b573d8060008114612848576040519150601f19603f3d011682016040523d82523d6000602084013e61284d565b606091505b50600081511415612893576040517f08c379a000000000000000000000000000000000000000000000000000000000815260040161288a906143ec565b60405180910390fd5b805181602001fd5b63150b7a0260e01b7bffffffffffffffffffffffffffffffffffffffffffffffffffffffff1916817bffffffffffffffffffffffffffffffffffffffffffffffffffffffff1916149150506128f0565b600190505b949350505050565b600081600001805490509050919050565b60008083600101600084815260200190815260200160002054905060008114612a8757600060018261293b91906147eb565b905060006001866000018054905061295391906147eb565b90506000866000018281548110612993577f4e487b7100000000000000000000000000000000000000000000000000000000600052603260045260246000fd5b90600052602060002001549050808760000184815481106129dd577f4e487b7100000000000000000000000000000000000000000000000000000000600052603260045260246000fd5b90600052602060002001819055506001836129f89190614795565b8760010160008381526020019081526020016000208190555086600001805480612a4b577f4e487b7100000000000000000000000000000000000000000000000000000000600052603160045260246000fd5b60019003818190600052602060002001600090559055866001016000878152602001908152602001600020600090556001945050505050612a8d565b60009150505b92915050565b600080836001016000848152602001908152602001600020541415905092915050565b612ac1838383612b21565b612ac9610e53565b15612b09576040517f08c379a0000000000000000000000000000000000000000000000000000000008152600401612b009061436c565b60405180910390fd5b505050565b600080823b905060008111915050919050565b612b2c838383612c35565b600073ffffffffffffffffffffffffffffffffffffffff168373ffffffffffffffffffffffffffffffffffffffff161415612b6f57612b6a81612c3a565b612bae565b8173ffffffffffffffffffffffffffffffffffffffff168373ffffffffffffffffffffffffffffffffffffffff1614612bad57612bac8382612c83565b5b5b600073ffffffffffffffffffffffffffffffffffffffff168273ffffffffffffffffffffffffffffffffffffffff161415612bf157612bec81612df0565b612c30565b8273ffffffffffffffffffffffffffffffffffffffff168273ffffffffffffffffffffffffffffffffffffffff1614612c2f57612c2e8282612f33565b5b5b505050565b505050565b600a80549050600b600083815260200190815260200160002081905550600a81908060018154018082558091505060019003906000526020600020016000909190919091505550565b60006001612c9084610fae565b612c9a91906147eb565b9050600060096000848152602001908152602001600020549050818114612d7f576000600860008673ffffffffffffffffffffffffffffffffffffffff1673ffffffffffffffffffffffffffffffffffffffff168152602001908152602001600020600084815260200190815260200160002054905080600860008773ffffffffffffffffffffffffffffffffffffffff1673ffffffffffffffffffffffffffffffffffffffff168152602001908152602001600020600084815260200190815260200160002081905550816009600083815260200190815260200160002081905550505b6009600084815260200190815260200160002060009055600860008573ffffffffffffffffffffffffffffffffffffffff1673ffffffffffffffffffffffffffffffffffffffff16815260200190815260200160002060008381526020019081526020016000206000905550505050565b60006001600a80549050612e0491906147eb565b90506000600b60008481526020019081526020016000205490506000600a8381548110612e5a577f4e487b7100000000000000000000000000000000000000000000000000000000600052603260045260246000fd5b9060005260206000200154905080600a8381548110612ea2577f4e487b7100000000000000000000000000000000000000000000000000000000600052603260045260246000fd5b906000526020600020018190555081600b600083815260200190815260200160002081905550600b600085815260200190815260200160002060009055600a805480612f17577f4e487b7100000000000000000000000000000000000000000000000000000000600052603160045260246000fd5b6001900381819060005260206000200160009055905550505050565b6000612f3e83610fae565b905081600860008573ffffffffffffffffffffffffffffffffffffffff1673ffffffffffffffffffffffffffffffffffffffff168152602001908152602001600020600083815260200190815260200160002081905550806009600084815260200190815260200160002081905550505050565b828054612fbe9061490b565b90600052602060002090601f016020900481019282612fe05760008555613027565b82601f10612ff957803560ff1916838001178555613027565b82800160010185558215613027579182015b8281111561302657823582559160200191906001019061300b565b5b50905061303491906130fe565b5090565b5080546130449061490b565b6000825580601f106130565750613075565b601f01602090049060005260206000209081019061307491906130fe565b5b50565b8280546130849061490b565b90600052602060002090601f0160209004810192826130a657600085556130ed565b82601f106130bf57805160ff19168380011785556130ed565b828001600101855582156130ed579182015b828111156130ec5782518255916020019190600101906130d1565b5b5090506130fa91906130fe565b5090565b5b808211156131175760008160009055506001016130ff565b5090565b600061312e613129846146f8565b6146c7565b90508281526020810184848401111561314657600080fd5b6131518482856148c9565b509392505050565b600081359050613168816149db565b92915050565b60008135905061317d816149f2565b92915050565b60008135905061319281614a09565b92915050565b6000813590506131a781614a20565b92915050565b6000813590506131bc81614a37565b92915050565b6000815190506131d181614a37565b92915050565b600082601f8301126131e857600080fd5b81356131f884826020860161311b565b91505092915050565b60008083601f84011261321357600080fd5b8235905067ffffffffffffffff81111561322c57600080fd5b60208301915083600182028301111561324457600080fd5b9250929050565b60008135905061325a81614a4e565b92915050565b60006020828403121561327257600080fd5b600061328084828501613159565b91505092915050565b6000806040838503121561329c57600080fd5b60006132aa85828601613159565b92505060206132bb85828601613159565b9150509250929050565b6000806000606084860312156132da57600080fd5b60006132e886828701613159565b93505060206132f986828701613159565b925050604061330a8682870161324b565b9150509250925092565b6000806000806080858703121561332a57600080fd5b600061333887828801613159565b945050602061334987828801613159565b935050604061335a8782880161324b565b925050606085013567ffffffffffffffff81111561337757600080fd5b613383878288016131d7565b91505092959194509250565b600080604083850312156133a257600080fd5b60006133b085828601613159565b92505060206133c18582860161316e565b9150509250929050565b600080600080606085870312156133e157600080fd5b60006133ef87828801613159565b945050602085013567ffffffffffffffff81111561340c57600080fd5b61341887828801613201565b9350935050604061342b87828801613183565b91505092959194509250565b6000806040838503121561344a57600080fd5b600061345885828601613159565b92505060206134698582860161324b565b9150509250929050565b60006020828403121561348557600080fd5b600061349384828501613198565b91505092915050565b600080604083850312156134af57600080fd5b60006134bd85828601613198565b92505060206134ce85828601613159565b9150509250929050565b600080604083850312156134eb57600080fd5b60006134f985828601613198565b925050602061350a8582860161324b565b9150509250929050565b60006020828403121561352657600080fd5b6000613534848285016131ad565b91505092915050565b60006020828403121561354f57600080fd5b600061355d848285016131c2565b91505092915050565b6000806020838503121561357957600080fd5b600083013567ffffffffffffffff81111561359357600080fd5b61359f85828601613201565b92509250509250929050565b6000602082840312156135bd57600080fd5b60006135cb8482850161324b565b91505092915050565b6135dd8161481f565b82525050565b6135ec81614831565b82525050565b6135fb8161483d565b82525050565b61360a81614869565b82525050565b600061361b82614752565b6136258185614768565b93506136358185602086016148d8565b61363e816149ca565b840191505092915050565b60006136558385614779565b93506136628385846148c9565b61366b836149ca565b840190509392505050565b60006136818261475d565b61368b8185614779565b935061369b8185602086016148d8565b6136a4816149ca565b840191505092915050565b60006136ba8261475d565b6136c4818561478a565b93506136d48185602086016148d8565b80840191505092915050565b600081546136ed8161490b565b6136f7818661478a565b94506001821660008114613712576001811461372357613756565b60ff19831686528186019350613756565b61372c8561473d565b60005b8381101561374e5781548189015260018201915060208101905061372f565b838801955050505b50505092915050565b6000815461376c8161490b565b613776818661478a565b9450600182166000811461379157600181146137a2576137d5565b60ff198316865281860193506137d5565b6137ab85614728565b60005b838110156137cd578154818901526001820191506020810190506137ae565b838801955050505b50505092915050565b60006137eb602283614779565b91507f456e756d657261626c655365743a20696e646578206f7574206f6620626f756e60008301527f64730000000000000000000000000000000000000000000000000000000000006020830152604082019050919050565b6000613851602b83614779565b91507f4552433732315061757361626c653a20746f6b656e207472616e73666572207760008301527f68696c65207061757365640000000000000000000000000000000000000000006020830152604082019050919050565b60006138b7602f83614779565b91507f416363657373436f6e74726f6c3a2073656e646572206d75737420626520616e60008301527f2061646d696e20746f206772616e7400000000000000000000000000000000006020830152604082019050919050565b600061391d601483614779565b91507f5061757361626c653a206e6f74207061757365640000000000000000000000006000830152602082019050919050565b600061395d602b83614779565b91507f455243373231456e756d657261626c653a206f776e657220696e646578206f7560008301527f74206f6620626f756e64730000000000000000000000000000000000000000006020830152604082019050919050565b60006139c3603283614779565b91507f4552433732313a207472616e7366657220746f206e6f6e20455243373231526560008301527f63656976657220696d706c656d656e74657200000000000000000000000000006020830152604082019050919050565b6000613a29601c83614779565b91507f4552433732313a20746f6b656e20616c7265616479206d696e746564000000006000830152602082019050919050565b6000613a69602483614779565b91507f4552433732313a207472616e7366657220746f20746865207a65726f2061646460008301527f72657373000000000000000000000000000000000000000000000000000000006020830152604082019050919050565b6000613acf601983614779565b91507f4552433732313a20617070726f766520746f2063616c6c6572000000000000006000830152602082019050919050565b6000613b0f602c83614779565b91507f4552433732313a206f70657261746f7220717565727920666f72206e6f6e657860008301527f697374656e7420746f6b656e00000000000000000000000000000000000000006020830152604082019050919050565b6000613b75603083614779565b91507f416363657373436f6e74726f6c3a2073656e646572206d75737420626520616e60008301527f2061646d696e20746f207265766f6b65000000000000000000000000000000006020830152604082019050919050565b6000613bdb601083614779565b91507f5061757361626c653a20706175736564000000000000000000000000000000006000830152602082019050919050565b6000613c1b603883614779565b91507f4552433732313a20617070726f76652063616c6c6572206973206e6f74206f7760008301527f6e6572206e6f7220617070726f76656420666f7220616c6c00000000000000006020830152604082019050919050565b6000613c81602a83614779565b91507f4552433732313a2062616c616e636520717565727920666f7220746865207a6560008301527f726f2061646472657373000000000000000000000000000000000000000000006020830152604082019050919050565b6000613ce7602983614779565b91507f4552433732313a206f776e657220717565727920666f72206e6f6e657869737460008301527f656e7420746f6b656e00000000000000000000000000000000000000000000006020830152604082019050919050565b6000613d4d602183614779565b91507f4552433732312046756c6c3a2041646d696e20526f6c6520526571756972656460008301527f2e000000000000000000000000000000000000000000000000000000000000006020830152604082019050919050565b6000613db3602083614779565b91507f4552433732313a206d696e7420746f20746865207a65726f20616464726573736000830152602082019050919050565b6000613df3602c83614779565b91507f4552433732313a20617070726f76656420717565727920666f72206e6f6e657860008301527f697374656e7420746f6b656e00000000000000000000000000000000000000006020830152604082019050919050565b6000613e59602983614779565b91507f4552433732313a207472616e73666572206f6620746f6b656e2074686174206960008301527f73206e6f74206f776e00000000000000000000000000000000000000000000006020830152604082019050919050565b6000613ebf603383614779565b91507f4552433732314d657461646174613a20546f6b656e206964207175657279206660008301527f6f72206e6f6e6578697374656e74205552492e000000000000000000000000006020830152604082019050919050565b6000613f25602283614779565b91507f4552433732312046756c6c3a2050617573657220526f6c65205265717569726560008301527f642e0000000000000000000000000000000000000000000000000000000000006020830152604082019050919050565b6000613f8b602183614779565b91507f4552433732313a20617070726f76616c20746f2063757272656e74206f776e6560008301527f72000000000000000000000000000000000000000000000000000000000000006020830152604082019050919050565b6000613ff160008361478a565b9150600082019050919050565b600061400b603183614779565b91507f4552433732313a207472616e736665722063616c6c6572206973206e6f74206f60008301527f776e6572206e6f7220617070726f7665640000000000000000000000000000006020830152604082019050919050565b6000614071602183614779565b91507f4552433732312046756c6c3a204d696e74657220526f6c65205265717569726560008301527f64000000000000000000000000000000000000000000000000000000000000006020830152604082019050919050565b60006140d7602c83614779565b91507f455243373231456e756d657261626c653a20676c6f62616c20696e646578206f60008301527f7574206f6620626f756e647300000000000000000000000000000000000000006020830152604082019050919050565b600061413d603083614779565b91507f4552433732314275726e61626c653a2063616c6c6572206973206e6f74206f7760008301527f6e6572206e6f7220617070726f766564000000000000000000000000000000006020830152604082019050919050565b60006141a3602f83614779565b91507f416363657373436f6e74726f6c3a2063616e206f6e6c792072656e6f756e636560008301527f20726f6c657320666f722073656c6600000000000000000000000000000000006020830152604082019050919050565b614205816148bf565b82525050565b600061421782856136af565b915061422382846136e0565b91508190509392505050565b600061423b828461375f565b915081905092915050565b600061425182613fe4565b9150819050919050565b600060208201905061427060008301846135d4565b92915050565b600060808201905061428b60008301876135d4565b61429860208301866135d4565b6142a560408301856141fc565b81810360608301526142b78184613610565b905095945050505050565b60006020820190506142d760008301846135e3565b92915050565b60006020820190506142f26000830184613601565b92915050565b60006040820190508181036000830152614313818587613649565b905061432260208301846135f2565b949350505050565b600060208201905081810360008301526143448184613676565b905092915050565b60006020820190508181036000830152614365816137de565b9050919050565b6000602082019050818103600083015261438581613844565b9050919050565b600060208201905081810360008301526143a5816138aa565b9050919050565b600060208201905081810360008301526143c581613910565b9050919050565b600060208201905081810360008301526143e581613950565b9050919050565b60006020820190508181036000830152614405816139b6565b9050919050565b6000602082019050818103600083015261442581613a1c565b9050919050565b6000602082019050818103600083015261444581613a5c565b9050919050565b6000602082019050818103600083015261446581613ac2565b9050919050565b6000602082019050818103600083015261448581613b02565b9050919050565b600060208201905081810360008301526144a581613b68565b9050919050565b600060208201905081810360008301526144c581613bce565b9050919050565b600060208201905081810360008301526144e581613c0e565b9050919050565b6000602082019050818103600083015261450581613c74565b9050919050565b6000602082019050818103600083015261452581613cda565b9050919050565b6000602082019050818103600083015261454581613d40565b9050919050565b6000602082019050818103600083015261456581613da6565b9050919050565b6000602082019050818103600083015261458581613de6565b9050919050565b600060208201905081810360008301526145a581613e4c565b9050919050565b600060208201905081810360008301526145c581613eb2565b9050919050565b600060208201905081810360008301526145e581613f18565b9050919050565b6000602082019050818103600083015261460581613f7e565b9050919050565b6000602082019050818103600083015261462581613ffe565b9050919050565b6000602082019050818103600083015261464581614064565b9050919050565b60006020820190508181036000830152614665816140ca565b9050919050565b6000602082019050818103600083015261468581614130565b9050919050565b600060208201905081810360008301526146a581614196565b9050919050565b60006020820190506146c160008301846141fc565b92915050565b6000604051905081810181811067ffffffffffffffff821117156146ee576146ed61499b565b5b8060405250919050565b600067ffffffffffffffff8211156147135761471261499b565b5b601f19601f8301169050602081019050919050565b60008190508160005260206000209050919050565b60008190508160005260206000209050919050565b600081519050919050565b600081519050919050565b600082825260208201905092915050565b600082825260208201905092915050565b600081905092915050565b60006147a0826148bf565b91506147ab836148bf565b9250827fffffffffffffffffffffffffffffffffffffffffffffffffffffffffffffffff038211156147e0576147df61493d565b5b828201905092915050565b60006147f6826148bf565b9150614801836148bf565b9250828210156148145761481361493d565b5b828203905092915050565b600061482a8261489f565b9050919050565b60008115159050919050565b60007fffffffffffffffffffffffffffffffff0000000000000000000000000000000082169050919050565b6000819050919050565b60007fffffffff0000000000000000000000000000000000000000000000000000000082169050919050565b600073ffffffffffffffffffffffffffffffffffffffff82169050919050565b6000819050919050565b82818337600083830152505050565b60005b838110156148f65780820151818401526020810190506148db565b83811115614905576000848401525b50505050565b6000600282049050600182168061492357607f821691505b602082108114156149375761493661496c565b5b50919050565b7f4e487b7100000000000000000000000000000000000000000000000000000000600052601160045260246000fd5b7f4e487b7100000000000000000000000000000000000000000000000000000000600052602260045260246000fd5b7f4e487b7100000000000000000000000000000000000000000000000000000000600052604160045260246000fd5b6000601f19601f8301169050919050565b6149e48161481f565b81146149ef57600080fd5b50565b6149fb81614831565b8114614a0657600080fd5b50565b614a128161483d565b8114614a1d57600080fd5b50565b614a2981614869565b8114614a3457600080fd5b50565b614a4081614873565b8114614a4b57600080fd5b50565b614a57816148bf565b8114614a6257600080fd5b5056fea26469706673582212203896fe738cac56500f985e0ea620eae264b6fe1039c550b229bfd57fc5c96c3a64736f6c63430008000033",
  "immutableReferences": {},
  "source": "\n// SPDX-License-Identifier: MIT\npragma solidity >=0.5.11 <0.9.0;\n\nimport \"../ERC721/ERC721Full.sol\";\n\n/**\n * @title Creature\n * Creature - a contract for my non-fungible creatures.\n */\ncontract LogicReptileDigitalAssets is ERC721Full {    \n\n    string internal tokenBaseURI = \"https://ipfs.io/ipfs/\";    \n\n    constructor(string memory name_, string memory symbol_, string memory baseURI_)\n        ERC721Full(name_,symbol_,baseURI_)\n    {}   \n\n    function baseURI() external view returns (string memory){\n        return tokenBaseURI;\n    } \n}",
  "sourcePath": "/Users/dennismacpro/Projects/Defi/Ethereum-Solidity-Collection/nft-kit/contracts/logicreptile/LogicReptile.sol",
  "compiler": {
    "name": "solc",
    "version": "0.8.0+commit.c7dfd78e.Darwin.appleclang"
  },
  "schemaVersion": "3.3.4",
  "updatedAt": "2021-03-10T20:31:06.898Z",
  "devdoc": {
    "kind": "dev",
    "methods": {
      "approve(address,uint256)": {
        "details": "See {IERC721-approve}."
      },
      "balanceOf(address)": {
        "details": "See {IERC721-balanceOf}."
      },
      "getApproved(uint256)": {
        "details": "See {IERC721-getApproved}."
      },
      "getRoleAdmin(bytes32)": {
        "details": "Returns the admin role that controls `role`. See {grantRole} and {revokeRole}. To change a role's admin, use {_setRoleAdmin}."
      },
      "getRoleMember(bytes32,uint256)": {
        "details": "Returns one of the accounts that have `role`. `index` must be a value between 0 and {getRoleMemberCount}, non-inclusive. Role bearers are not sorted in any particular way, and their ordering may change at any point. WARNING: When using {getRoleMember} and {getRoleMemberCount}, make sure you perform all queries on the same block. See the following https://forum.openzeppelin.com/t/iterating-over-elements-on-enumerableset-in-openzeppelin-contracts/2296[forum post] for more information."
      },
      "getRoleMemberCount(bytes32)": {
        "details": "Returns the number of accounts that have `role`. Can be used together with {getRoleMember} to enumerate all bearers of a role."
      },
      "grantRole(bytes32,address)": {
        "details": "Overload {grantRole} to track enumerable memberships"
      },
      "hasRole(bytes32,address)": {
        "details": "Returns `true` if `account` has been granted `role`."
      },
      "isApprovedForAll(address,address)": {
        "details": "See {IERC721-isApprovedForAll}."
      },
      "mint(address,string,bytes16)": {
        "details": "Mint a new tokenReverts if not called by minter",
        "params": {
          "_artist": "the artist of the art",
          "_edition": "the identifier of the edition - leading 3 bytes are the artist code, trailing 3 bytes are the asset type",
          "_tokenURI": "the IPFS or equivalent hash"
        }
      },
      "name()": {
        "details": "See {IERC721Metadata-name}."
      },
      "ownerOf(uint256)": {
        "details": "See {IERC721-ownerOf}."
      },
      "pause()": {
        "details": "Pauses all token transfers. See {ERC721Pausable} and {Pausable-_pause}. Requirements: - the caller must have the `PAUSER_ROLE`."
      },
      "paused()": {
        "details": "Returns true if the contract is paused, and false otherwise."
      },
      "renounceRole(bytes32,address)": {
        "details": "Revokes `role` from the calling account. Roles are often managed via {grantRole} and {revokeRole}: this function's purpose is to provide a mechanism for accounts to lose their privileges if they are compromised (such as when a trusted device is misplaced). If the calling account had been granted `role`, emits a {RoleRevoked} event. Requirements: - the caller must be `account`."
      },
      "revokeRole(bytes32,address)": {
        "details": "Overload {revokeRole} to track enumerable memberships"
      },
      "safeTransferFrom(address,address,uint256)": {
        "details": "See {IERC721-safeTransferFrom}."
      },
      "safeTransferFrom(address,address,uint256,bytes)": {
        "details": "See {IERC721-safeTransferFrom}."
      },
      "setApprovalForAll(address,bool)": {
        "details": "See {IERC721-setApprovalForAll}."
      },
      "setTokenBaseURI(string)": {
        "details": "Allows management to update the base tokenURI pathReverts if not called by management",
        "params": {
          "_newBaseURI": "the new base URI to set"
        }
      },
      "supportsInterface(bytes4)": {
        "details": "See {IERC165-supportsInterface}."
      },
      "symbol()": {
        "details": "See {IERC721Metadata-symbol}."
      },
      "tokenByIndex(uint256)": {
        "details": "See {IERC721Enumerable-tokenByIndex}."
      },
      "tokenOfOwnerByIndex(address,uint256)": {
        "details": "See {IERC721Enumerable-tokenOfOwnerByIndex}."
      },
      "tokenURI(uint256)": {
        "details": "See {IERC721Metadata-tokenURI}."
      },
      "totalSupply()": {
        "details": "See {IERC721Enumerable-totalSupply}."
      },
      "transferFrom(address,address,uint256)": {
        "details": "See {IERC721-transferFrom}."
      },
      "unpause()": {
        "details": "Unpauses all token transfers. See {ERC721Pausable} and {Pausable-_unpause}. Requirements: - the caller must have the `PAUSER_ROLE`."
      }
    },
    "title": "Creature Creature - a contract for my non-fungible creatures.",
    "version": 1
  },
  "userdoc": {
    "kind": "user",
    "methods": {},
    "version": 1
  }
}