{
  "contractName": "LogicReptileToken",
  "abi": [
    {
      "inputs": [
        {
          "internalType": "string",
          "name": "name_",
          "type": "string"
        },
        {
          "internalType": "string",
          "name": "symbol_",
          "type": "string"
        },
        {
          "internalType": "string",
          "name": "baseURI_",
          "type": "string"
        }
      ],
      "stateMutability": "nonpayable",
      "type": "constructor"
    },
    {
      "anonymous": false,
      "inputs": [
        {
          "indexed": true,
          "internalType": "address",
          "name": "owner",
          "type": "address"
        },
        {
          "indexed": true,
          "internalType": "address",
          "name": "approved",
          "type": "address"
        },
        {
          "indexed": true,
          "internalType": "uint256",
          "name": "tokenId",
          "type": "uint256"
        }
      ],
      "name": "Approval",
      "type": "event"
    },
    {
      "anonymous": false,
      "inputs": [
        {
          "indexed": true,
          "internalType": "address",
          "name": "owner",
          "type": "address"
        },
        {
          "indexed": true,
          "internalType": "address",
          "name": "operator",
          "type": "address"
        },
        {
          "indexed": false,
          "internalType": "bool",
          "name": "approved",
          "type": "bool"
        }
      ],
      "name": "ApprovalForAll",
      "type": "event"
    },
    {
      "anonymous": false,
      "inputs": [
        {
          "indexed": true,
          "internalType": "uint256",
          "name": "_tokenId",
          "type": "uint256"
        }
      ],
      "name": "Burned",
      "type": "event"
    },
    {
      "anonymous": false,
      "inputs": [
        {
          "indexed": true,
          "internalType": "address",
          "name": "_artist",
          "type": "address"
        },
        {
          "indexed": true,
          "internalType": "uint256",
          "name": "_tokenId",
          "type": "uint256"
        },
        {
          "indexed": false,
          "internalType": "string",
          "name": "_tokenURI",
          "type": "string"
        },
        {
          "indexed": false,
          "internalType": "bytes16",
          "name": "_edition",
          "type": "bytes16"
        }
      ],
      "name": "Minted",
      "type": "event"
    },
    {
      "anonymous": false,
      "inputs": [
        {
          "indexed": false,
          "internalType": "address",
          "name": "account",
          "type": "address"
        }
      ],
      "name": "Paused",
      "type": "event"
    },
    {
      "anonymous": false,
      "inputs": [
        {
          "indexed": true,
          "internalType": "bytes32",
          "name": "role",
          "type": "bytes32"
        },
        {
          "indexed": true,
          "internalType": "bytes32",
          "name": "previousAdminRole",
          "type": "bytes32"
        },
        {
          "indexed": true,
          "internalType": "bytes32",
          "name": "newAdminRole",
          "type": "bytes32"
        }
      ],
      "name": "RoleAdminChanged",
      "type": "event"
    },
    {
      "anonymous": false,
      "inputs": [
        {
          "indexed": true,
          "internalType": "bytes32",
          "name": "role",
          "type": "bytes32"
        },
        {
          "indexed": true,
          "internalType": "address",
          "name": "account",
          "type": "address"
        },
        {
          "indexed": true,
          "internalType": "address",
          "name": "sender",
          "type": "address"
        }
      ],
      "name": "RoleGranted",
      "type": "event"
    },
    {
      "anonymous": false,
      "inputs": [
        {
          "indexed": true,
          "internalType": "bytes32",
          "name": "role",
          "type": "bytes32"
        },
        {
          "indexed": true,
          "internalType": "address",
          "name": "account",
          "type": "address"
        },
        {
          "indexed": true,
          "internalType": "address",
          "name": "sender",
          "type": "address"
        }
      ],
      "name": "RoleRevoked",
      "type": "event"
    },
    {
      "anonymous": false,
      "inputs": [
        {
          "indexed": true,
          "internalType": "address",
          "name": "from",
          "type": "address"
        },
        {
          "indexed": true,
          "internalType": "address",
          "name": "to",
          "type": "address"
        },
        {
          "indexed": true,
          "internalType": "uint256",
          "name": "tokenId",
          "type": "uint256"
        }
      ],
      "name": "Transfer",
      "type": "event"
    },
    {
      "anonymous": false,
      "inputs": [
        {
          "indexed": false,
          "internalType": "address",
          "name": "account",
          "type": "address"
        }
      ],
      "name": "Unpaused",
      "type": "event"
    },
    {
      "inputs": [],
      "name": "BURNER_ROLE",
      "outputs": [
        {
          "internalType": "bytes32",
          "name": "",
          "type": "bytes32"
        }
      ],
      "stateMutability": "view",
      "type": "function",
      "constant": true
    },
    {
      "inputs": [],
      "name": "DEFAULT_ADMIN_ROLE",
      "outputs": [
        {
          "internalType": "bytes32",
          "name": "",
          "type": "bytes32"
        }
      ],
      "stateMutability": "view",
      "type": "function",
      "constant": true
    },
    {
      "inputs": [],
      "name": "MINTER_ROLE",
      "outputs": [
        {
          "internalType": "bytes32",
          "name": "",
          "type": "bytes32"
        }
      ],
      "stateMutability": "view",
      "type": "function",
      "constant": true
    },
    {
      "inputs": [],
      "name": "PAUSER_ROLE",
      "outputs": [
        {
          "internalType": "bytes32",
          "name": "",
          "type": "bytes32"
        }
      ],
      "stateMutability": "view",
      "type": "function",
      "constant": true
    },
    {
      "inputs": [
        {
          "internalType": "address",
          "name": "to",
          "type": "address"
        },
        {
          "internalType": "uint256",
          "name": "tokenId",
          "type": "uint256"
        }
      ],
      "name": "approve",
      "outputs": [],
      "stateMutability": "nonpayable",
      "type": "function"
    },
    {
      "inputs": [
        {
          "internalType": "address",
          "name": "owner",
          "type": "address"
        }
      ],
      "name": "balanceOf",
      "outputs": [
        {
          "internalType": "uint256",
          "name": "",
          "type": "uint256"
        }
      ],
      "stateMutability": "view",
      "type": "function",
      "constant": true
    },
    {
      "inputs": [
        {
          "internalType": "uint256",
          "name": "_tokenId",
          "type": "uint256"
        }
      ],
      "name": "burn",
      "outputs": [],
      "stateMutability": "nonpayable",
      "type": "function"
    },
    {
      "inputs": [
        {
          "internalType": "uint256",
          "name": "tokenId",
          "type": "uint256"
        }
      ],
      "name": "getApproved",
      "outputs": [
        {
          "internalType": "address",
          "name": "",
          "type": "address"
        }
      ],
      "stateMutability": "view",
      "type": "function",
      "constant": true
    },
    {
      "inputs": [
        {
          "internalType": "bytes32",
          "name": "role",
          "type": "bytes32"
        }
      ],
      "name": "getRoleAdmin",
      "outputs": [
        {
          "internalType": "bytes32",
          "name": "",
          "type": "bytes32"
        }
      ],
      "stateMutability": "view",
      "type": "function",
      "constant": true
    },
    {
      "inputs": [
        {
          "internalType": "bytes32",
          "name": "role",
          "type": "bytes32"
        },
        {
          "internalType": "uint256",
          "name": "index",
          "type": "uint256"
        }
      ],
      "name": "getRoleMember",
      "outputs": [
        {
          "internalType": "address",
          "name": "",
          "type": "address"
        }
      ],
      "stateMutability": "view",
      "type": "function",
      "constant": true
    },
    {
      "inputs": [
        {
          "internalType": "bytes32",
          "name": "role",
          "type": "bytes32"
        }
      ],
      "name": "getRoleMemberCount",
      "outputs": [
        {
          "internalType": "uint256",
          "name": "",
          "type": "uint256"
        }
      ],
      "stateMutability": "view",
      "type": "function",
      "constant": true
    },
    {
      "inputs": [
        {
          "internalType": "bytes32",
          "name": "role",
          "type": "bytes32"
        },
        {
          "internalType": "address",
          "name": "account",
          "type": "address"
        }
      ],
      "name": "grantRole",
      "outputs": [],
      "stateMutability": "nonpayable",
      "type": "function"
    },
    {
      "inputs": [
        {
          "internalType": "bytes32",
          "name": "role",
          "type": "bytes32"
        },
        {
          "internalType": "address",
          "name": "account",
          "type": "address"
        }
      ],
      "name": "hasRole",
      "outputs": [
        {
          "internalType": "bool",
          "name": "",
          "type": "bool"
        }
      ],
      "stateMutability": "view",
      "type": "function",
      "constant": true
    },
    {
      "inputs": [
        {
          "internalType": "address",
          "name": "owner",
          "type": "address"
        },
        {
          "internalType": "address",
          "name": "operator",
          "type": "address"
        }
      ],
      "name": "isApprovedForAll",
      "outputs": [
        {
          "internalType": "bool",
          "name": "",
          "type": "bool"
        }
      ],
      "stateMutability": "view",
      "type": "function",
      "constant": true
    },
    {
      "inputs": [
        {
          "internalType": "address",
          "name": "_artist",
          "type": "address"
        },
        {
          "internalType": "string",
          "name": "_tokenURI",
          "type": "string"
        },
        {
          "internalType": "bytes16",
          "name": "_edition",
          "type": "bytes16"
        }
      ],
      "name": "mint",
      "outputs": [
        {
          "internalType": "uint256",
          "name": "",
          "type": "uint256"
        }
      ],
      "stateMutability": "nonpayable",
      "type": "function"
    },
    {
      "inputs": [],
      "name": "name",
      "outputs": [
        {
          "internalType": "string",
          "name": "",
          "type": "string"
        }
      ],
      "stateMutability": "view",
      "type": "function",
      "constant": true
    },
    {
      "inputs": [
        {
          "internalType": "uint256",
          "name": "tokenId",
          "type": "uint256"
        }
      ],
      "name": "ownerOf",
      "outputs": [
        {
          "internalType": "address",
          "name": "",
          "type": "address"
        }
      ],
      "stateMutability": "view",
      "type": "function",
      "constant": true
    },
    {
      "inputs": [],
      "name": "pause",
      "outputs": [],
      "stateMutability": "nonpayable",
      "type": "function"
    },
    {
      "inputs": [],
      "name": "paused",
      "outputs": [
        {
          "internalType": "bool",
          "name": "",
          "type": "bool"
        }
      ],
      "stateMutability": "view",
      "type": "function",
      "constant": true
    },
    {
      "inputs": [
        {
          "internalType": "bytes32",
          "name": "role",
          "type": "bytes32"
        },
        {
          "internalType": "address",
          "name": "account",
          "type": "address"
        }
      ],
      "name": "renounceRole",
      "outputs": [],
      "stateMutability": "nonpayable",
      "type": "function"
    },
    {
      "inputs": [
        {
          "internalType": "bytes32",
          "name": "role",
          "type": "bytes32"
        },
        {
          "internalType": "address",
          "name": "account",
          "type": "address"
        }
      ],
      "name": "revokeRole",
      "outputs": [],
      "stateMutability": "nonpayable",
      "type": "function"
    },
    {
      "inputs": [
        {
          "internalType": "address",
          "name": "from",
          "type": "address"
        },
        {
          "internalType": "address",
          "name": "to",
          "type": "address"
        },
        {
          "internalType": "uint256",
          "name": "tokenId",
          "type": "uint256"
        }
      ],
      "name": "safeTransferFrom",
      "outputs": [],
      "stateMutability": "nonpayable",
      "type": "function"
    },
    {
      "inputs": [
        {
          "internalType": "address",
          "name": "from",
          "type": "address"
        },
        {
          "internalType": "address",
          "name": "to",
          "type": "address"
        },
        {
          "internalType": "uint256",
          "name": "tokenId",
          "type": "uint256"
        },
        {
          "internalType": "bytes",
          "name": "_data",
          "type": "bytes"
        }
      ],
      "name": "safeTransferFrom",
      "outputs": [],
      "stateMutability": "nonpayable",
      "type": "function"
    },
    {
      "inputs": [
        {
          "internalType": "address",
          "name": "operator",
          "type": "address"
        },
        {
          "internalType": "bool",
          "name": "approved",
          "type": "bool"
        }
      ],
      "name": "setApprovalForAll",
      "outputs": [],
      "stateMutability": "nonpayable",
      "type": "function"
    },
    {
      "inputs": [
        {
          "internalType": "string",
          "name": "_newBaseURI",
          "type": "string"
        }
      ],
      "name": "setTokenBaseURI",
      "outputs": [],
      "stateMutability": "nonpayable",
      "type": "function"
    },
    {
      "inputs": [
        {
          "internalType": "bytes4",
          "name": "interfaceId",
          "type": "bytes4"
        }
      ],
      "name": "supportsInterface",
      "outputs": [
        {
          "internalType": "bool",
          "name": "",
          "type": "bool"
        }
      ],
      "stateMutability": "view",
      "type": "function",
      "constant": true
    },
    {
      "inputs": [],
      "name": "symbol",
      "outputs": [
        {
          "internalType": "string",
          "name": "",
          "type": "string"
        }
      ],
      "stateMutability": "view",
      "type": "function",
      "constant": true
    },
    {
      "inputs": [
        {
          "internalType": "uint256",
          "name": "index",
          "type": "uint256"
        }
      ],
      "name": "tokenByIndex",
      "outputs": [
        {
          "internalType": "uint256",
          "name": "",
          "type": "uint256"
        }
      ],
      "stateMutability": "view",
      "type": "function",
      "constant": true
    },
    {
      "inputs": [
        {
          "internalType": "address",
          "name": "owner",
          "type": "address"
        },
        {
          "internalType": "uint256",
          "name": "index",
          "type": "uint256"
        }
      ],
      "name": "tokenOfOwnerByIndex",
      "outputs": [
        {
          "internalType": "uint256",
          "name": "",
          "type": "uint256"
        }
      ],
      "stateMutability": "view",
      "type": "function",
      "constant": true
    },
    {
      "inputs": [
        {
          "internalType": "uint256",
          "name": "_tokenId",
          "type": "uint256"
        }
      ],
      "name": "tokenURI",
      "outputs": [
        {
          "internalType": "string",
          "name": "",
          "type": "string"
        }
      ],
      "stateMutability": "view",
      "type": "function",
      "constant": true
    },
    {
      "inputs": [],
      "name": "totalSupply",
      "outputs": [
        {
          "internalType": "uint256",
          "name": "",
          "type": "uint256"
        }
      ],
      "stateMutability": "view",
      "type": "function",
      "constant": true
    },
    {
      "inputs": [
        {
          "internalType": "address",
          "name": "from",
          "type": "address"
        },
        {
          "internalType": "address",
          "name": "to",
          "type": "address"
        },
        {
          "internalType": "uint256",
          "name": "tokenId",
          "type": "uint256"
        }
      ],
      "name": "transferFrom",
      "outputs": [],
      "stateMutability": "nonpayable",
      "type": "function"
    },
    {
      "inputs": [],
      "name": "unpause",
      "outputs": [],
      "stateMutability": "nonpayable",
      "type": "function"
    },
    {
      "inputs": [],
      "name": "baseURI",
      "outputs": [
        {
          "internalType": "string",
          "name": "",
          "type": "string"
        }
      ],
      "stateMutability": "view",
      "type": "function",
      "constant": true
    }
  ],
  "bytecode": "0x60806040523480156200001157600080fd5b506040516200529d3803806200529d83398181016040528101906200003791906200054f565b82828282828160029080519060200190620000549291906200042d565b5080600390805190602001906200006d9291906200042d565b5050506000600c60006101000a81548160ff02191690831515021790555080600e9080519060200190620000a39291906200042d565b50620000c86000801b620000bc6200019760201b60201c565b6200019f60201b60201c565b620001097f9f2df0fed2c77648de5860a4cc508cd0818c85b8b8a1ab4ceeef8d981c8956a6620000fd6200019760201b60201c565b6200019f60201b60201c565b6200014a7f65d7a28e3265b37a6474929f336521b332c1681b933f6cb9f3376673440d862a6200013e6200019760201b60201c565b6200019f60201b60201c565b6200018b7f3c11d16cbaffd01df69ce1c404f6340ee057498f5f00246190ea54220576a8486200017f6200019760201b60201c565b6200019f60201b60201c565b50505050505062000721565b600033905090565b620001b68282620001e760201b620018821760201c565b620001e28160016000858152602001908152602001600020620001fd60201b620018901790919060201c565b505050565b620001f982826200023560201b60201c565b5050565b60006200022d836000018373ffffffffffffffffffffffffffffffffffffffff1660001b6200032660201b60201c565b905092915050565b620002478282620003a060201b60201c565b6200032257600160008084815260200190815260200160002060000160008373ffffffffffffffffffffffffffffffffffffffff1673ffffffffffffffffffffffffffffffffffffffff16815260200190815260200160002060006101000a81548160ff021916908315150217905550620002c76200019760201b60201c565b73ffffffffffffffffffffffffffffffffffffffff168173ffffffffffffffffffffffffffffffffffffffff16837f2f8788117e7eff1d82e926ec794901d17c78024a50270940304540a733656f0d60405160405180910390a45b5050565b60006200033a83836200040a60201b60201c565b620003955782600001829080600181540180825580915050600190039060005260206000200160009091909190915055826000018054905083600101600084815260200190815260200160002081905550600190506200039a565b600090505b92915050565b600080600084815260200190815260200160002060000160008373ffffffffffffffffffffffffffffffffffffffff1673ffffffffffffffffffffffffffffffffffffffff16815260200190815260200160002060009054906101000a900460ff16905092915050565b600080836001016000848152602001908152602001600020541415905092915050565b8280546200043b906200068d565b90600052602060002090601f0160209004810192826200045f5760008555620004ab565b82601f106200047a57805160ff1916838001178555620004ab565b82800160010185558215620004ab579182015b82811115620004aa5782518255916020019190600101906200048d565b5b509050620004ba9190620004be565b5090565b5b80821115620004d9576000816000905550600101620004bf565b5090565b6000620004f4620004ee8462000624565b620005f0565b9050828152602081018484840111156200050d57600080fd5b6200051a84828562000657565b509392505050565b600082601f8301126200053457600080fd5b815162000546848260208601620004dd565b91505092915050565b6000806000606084860312156200056557600080fd5b600084015167ffffffffffffffff8111156200058057600080fd5b6200058e8682870162000522565b935050602084015167ffffffffffffffff811115620005ac57600080fd5b620005ba8682870162000522565b925050604084015167ffffffffffffffff811115620005d857600080fd5b620005e68682870162000522565b9150509250925092565b6000604051905081810181811067ffffffffffffffff821117156200061a5762000619620006f2565b5b8060405250919050565b600067ffffffffffffffff821115620006425762000641620006f2565b5b601f19601f8301169050602081019050919050565b60005b83811015620006775780820151818401526020810190506200065a565b8381111562000687576000848401525b50505050565b60006002820490506001821680620006a657607f821691505b60208210811415620006bd57620006bc620006c3565b5b50919050565b7f4e487b7100000000000000000000000000000000000000000000000000000000600052602260045260246000fd5b7f4e487b7100000000000000000000000000000000000000000000000000000000600052604160045260246000fd5b614b6c80620007316000396000f3fe608060405234801561001057600080fd5b50600436106102065760003560e01c80636c0360eb1161011a578063a22cb465116100ad578063d53913931161007c578063d5391393146105fd578063d547741f1461061b578063e561c50514610637578063e63ab1e914610667578063e985e9c51461068557610206565b8063a22cb46514610565578063b88d4fde14610581578063c87b56dd1461059d578063ca15c873146105cd57610206565b80639010d07c116100e95780639010d07c146104c957806391d14854146104f957806395d89b4114610529578063a217fddf1461054757610206565b80636c0360eb1461045557806370a08231146104735780638456cb59146104a35780638ef79e91146104ad57610206565b80632f2ff15d1161019d57806342842e0e1161016c57806342842e0e1461039f57806342966c68146103bb5780634f6ccce7146103d75780635c975abb146104075780636352211e1461042557610206565b80632f2ff15d1461032d5780632f745c591461034957806336568abe146103795780633f4ba83a1461039557610206565b806318160ddd116101d957806318160ddd146102a557806323b872dd146102c3578063248a9ca3146102df578063282c51f31461030f57610206565b806301ffc9a71461020b57806306fdde031461023b578063081812fc14610259578063095ea7b314610289575b600080fd5b6102256004803603810190610220919061355f565b6106b5565b6040516102329190614373565b60405180910390f35b6102436108b0565b60405161025091906143db565b60405180910390f35b610273600480360381019061026e91906135f6565b610942565b604051610280919061430c565b60405180910390f35b6102a3600480360381019061029e9190613482565b6109c7565b005b6102ad610adf565b6040516102ba919061477d565b60405180910390f35b6102dd60048036038101906102d89190613310565b610aec565b005b6102f960048036038101906102f491906134be565b610b4c565b604051610306919061438e565b60405180910390f35b610317610b6b565b604051610324919061438e565b60405180910390f35b610347600480360381019061034291906134e7565b610b8f565b005b610363600480360381019061035e9190613482565b610bc3565b604051610370919061477d565b60405180910390f35b610393600480360381019061038e91906134e7565b610c68565b005b61039d610ceb565b005b6103b960048036038101906103b49190613310565b610d65565b005b6103d560048036038101906103d091906135f6565b610d85565b005b6103f160048036038101906103ec91906135f6565b610e97565b6040516103fe919061477d565b60405180910390f35b61040f610f2e565b60405161041c9190614373565b60405180910390f35b61043f600480360381019061043a91906135f6565b610f45565b60405161044c919061430c565b60405180910390f35b61045d610ff7565b60405161046a91906143db565b60405180910390f35b61048d600480360381019061048891906132ab565b611006565b60405161049a919061477d565b60405180910390f35b6104ab6110be565b005b6104c760048036038101906104c291906135b1565b611138565b005b6104e360048036038101906104de9190613523565b6111a1565b6040516104f0919061430c565b60405180910390f35b610513600480360381019061050e91906134e7565b6111d0565b6040516105209190614373565b60405180910390f35b61053161123a565b60405161053e91906143db565b60405180910390f35b61054f6112cc565b60405161055c919061438e565b60405180910390f35b61057f600480360381019061057a91906133da565b6112d3565b005b61059b6004803603810190610596919061335f565b611454565b005b6105b760048036038101906105b291906135f6565b6114b6565b6040516105c491906143db565b60405180910390f35b6105e760048036038101906105e291906134be565b61160c565b6040516105f4919061477d565b60405180910390f35b610605611630565b604051610612919061438e565b60405180910390f35b610635600480360381019061063091906134e7565b611654565b005b610651600480360381019061064c9190613416565b611688565b60405161065e919061477d565b60405180910390f35b61066f6117ca565b60405161067c919061438e565b60405180910390f35b61069f600480360381019061069a91906132d4565b6117ee565b6040516106ac9190614373565b60405180910390f35b60007f80ac58cd000000000000000000000000000000000000000000000000000000007bffffffffffffffffffffffffffffffffffffffffffffffffffffffff1916827bffffffffffffffffffffffffffffffffffffffffffffffffffffffff1916148061078057507f5b5e139f000000000000000000000000000000000000000000000000000000007bffffffffffffffffffffffffffffffffffffffffffffffffffffffff1916827bffffffffffffffffffffffffffffffffffffffffffffffffffffffff1916145b806107e857507f780e9d63000000000000000000000000000000000000000000000000000000007bffffffffffffffffffffffffffffffffffffffffffffffffffffffff1916827bffffffffffffffffffffffffffffffffffffffffffffffffffffffff1916145b80610831575060007bffffffffffffffffffffffffffffffffffffffffffffffffffffffff1916827bffffffffffffffffffffffffffffffffffffffffffffffffffffffff1916145b8061089957507f42966c68000000000000000000000000000000000000000000000000000000007bffffffffffffffffffffffffffffffffffffffffffffffffffffffff1916827bffffffffffffffffffffffffffffffffffffffffffffffffffffffff1916145b806108a957506108a8826118c0565b5b9050919050565b6060600280546108bf906149dc565b80601f01602080910402602001604051908101604052809291908181526020018280546108eb906149dc565b80156109385780601f1061090d57610100808354040283529160200191610938565b820191906000526020600020905b81548152906001019060200180831161091b57829003601f168201915b5050505050905090565b600061094d8261192a565b61098c576040517f08c379a00000000000000000000000000000000000000000000000000000000081526004016109839061465d565b60405180910390fd5b6006600083815260200190815260200160002060009054906101000a900473ffffffffffffffffffffffffffffffffffffffff169050919050565b60006109d282610f45565b90508073ffffffffffffffffffffffffffffffffffffffff168373ffffffffffffffffffffffffffffffffffffffff161415610a43576040517f08c379a0000000000000000000000000000000000000000000000000000000008152600401610a3a906146dd565b60405180910390fd5b8073ffffffffffffffffffffffffffffffffffffffff16610a62611996565b73ffffffffffffffffffffffffffffffffffffffff161480610a915750610a9081610a8b611996565b6117ee565b5b610ad0576040517f08c379a0000000000000000000000000000000000000000000000000000000008152600401610ac79061459d565b60405180910390fd5b610ada838361199e565b505050565b6000600a80549050905090565b610afd610af7611996565b82611a57565b610b3c576040517f08c379a0000000000000000000000000000000000000000000000000000000008152600401610b33906146fd565b60405180910390fd5b610b47838383611b35565b505050565b6000806000838152602001908152602001600020600101549050919050565b7f3c11d16cbaffd01df69ce1c404f6340ee057498f5f00246190ea54220576a84881565b610b998282611d91565b610bbe816001600085815260200190815260200160002061189090919063ffffffff16565b505050565b6000610bce83611006565b8210610c0f576040517f08c379a0000000000000000000000000000000000000000000000000000000008152600401610c069061449d565b60405180910390fd5b600860008473ffffffffffffffffffffffffffffffffffffffff1673ffffffffffffffffffffffffffffffffffffffff168152602001908152602001600020600083815260200190815260200160002054905092915050565b610c70611996565b73ffffffffffffffffffffffffffffffffffffffff168173ffffffffffffffffffffffffffffffffffffffff1614610cdd576040517f08c379a0000000000000000000000000000000000000000000000000000000008152600401610cd49061475d565b60405180910390fd5b610ce78282611df7565b5050565b610d1c7f65d7a28e3265b37a6474929f336521b332c1681b933f6cb9f3376673440d862a610d17611996565b6111d0565b610d5b576040517f08c379a0000000000000000000000000000000000000000000000000000000008152600401610d52906146bd565b60405180910390fd5b610d63611ed8565b565b610d8083838360405180602001604052806000815250611454565b505050565b610d8e81610f45565b73ffffffffffffffffffffffffffffffffffffffff16610dac611996565b73ffffffffffffffffffffffffffffffffffffffff161480610dde5750610ddd6000801b610dd8611996565b6111d0565b5b80610e165750610e157f3c11d16cbaffd01df69ce1c404f6340ee057498f5f00246190ea54220576a848610e10611996565b6111d0565b5b610e55576040517f08c379a0000000000000000000000000000000000000000000000000000000008152600401610e4c9061447d565b60405180910390fd5b610e5e81611f7a565b610e6781612082565b807fd83c63197e8e676d80ab0122beba9a9d20f3828839e9a1d6fe81d242e9cd7e6e60405160405180910390a250565b6000610ea1610adf565b8210610ee2576040517f08c379a0000000000000000000000000000000000000000000000000000000008152600401610ed99061473d565b60405180910390fd5b600a8281548110610f1c577f4e487b7100000000000000000000000000000000000000000000000000000000600052603260045260246000fd5b90600052602060002001549050919050565b6000600c60009054906101000a900460ff16905090565b6000806004600084815260200190815260200160002060009054906101000a900473ffffffffffffffffffffffffffffffffffffffff169050600073ffffffffffffffffffffffffffffffffffffffff168173ffffffffffffffffffffffffffffffffffffffff161415610fee576040517f08c379a0000000000000000000000000000000000000000000000000000000008152600401610fe5906145dd565b60405180910390fd5b80915050919050565b60606110016120d6565b905090565b60008073ffffffffffffffffffffffffffffffffffffffff168273ffffffffffffffffffffffffffffffffffffffff161415611077576040517f08c379a000000000000000000000000000000000000000000000000000000000815260040161106e906145bd565b60405180910390fd5b600560008373ffffffffffffffffffffffffffffffffffffffff1673ffffffffffffffffffffffffffffffffffffffff168152602001908152602001600020549050919050565b6110ef7f65d7a28e3265b37a6474929f336521b332c1681b933f6cb9f3376673440d862a6110ea611996565b6111d0565b61112e576040517f08c379a0000000000000000000000000000000000000000000000000000000008152600401611125906146bd565b60405180910390fd5b611136612168565b565b61114c6000801b611147611996565b6111d0565b61118b576040517f08c379a0000000000000000000000000000000000000000000000000000000008152600401611182906145fd565b60405180910390fd5b8181600e919061119c929190612ffd565b505050565b60006111c8826001600086815260200190815260200160002061220b90919063ffffffff16565b905092915050565b600080600084815260200190815260200160002060000160008373ffffffffffffffffffffffffffffffffffffffff1673ffffffffffffffffffffffffffffffffffffffff16815260200190815260200160002060009054906101000a900460ff16905092915050565b606060038054611249906149dc565b80601f0160208091040260200160405190810160405280929190818152602001828054611275906149dc565b80156112c25780601f10611297576101008083540402835291602001916112c2565b820191906000526020600020905b8154815290600101906020018083116112a557829003601f168201915b5050505050905090565b6000801b81565b6112db611996565b73ffffffffffffffffffffffffffffffffffffffff168273ffffffffffffffffffffffffffffffffffffffff161415611349576040517f08c379a00000000000000000000000000000000000000000000000000000000081526004016113409061451d565b60405180910390fd5b8060076000611356611996565b73ffffffffffffffffffffffffffffffffffffffff1673ffffffffffffffffffffffffffffffffffffffff16815260200190815260200160002060008473ffffffffffffffffffffffffffffffffffffffff1673ffffffffffffffffffffffffffffffffffffffff16815260200190815260200160002060006101000a81548160ff0219169083151502179055508173ffffffffffffffffffffffffffffffffffffffff16611403611996565b73ffffffffffffffffffffffffffffffffffffffff167f17307eab39ab6107e8899845ad3d59bd9653f200f220920489ca2b5937696c31836040516114489190614373565b60405180910390a35050565b61146561145f611996565b83611a57565b6114a4576040517f08c379a000000000000000000000000000000000000000000000000000000000815260040161149b906146fd565b60405180910390fd5b6114b084848484612225565b50505050565b60606114c18261192a565b611500576040517f08c379a00000000000000000000000000000000000000000000000000000000081526004016114f79061461d565b60405180910390fd5b600f600083815260200190815260200160002060405160200161152391906142e0565b60405160208183030381529060405280519060200120604051602001611548906142f7565b60405160208183030381529060405280519060200120141561159f576040517f08c379a00000000000000000000000000000000000000000000000000000000081526004016115969061469d565b60405180910390fd5b60006115a96120d6565b90506000600f6000858152602001908152602001600020905060008251116115e05760405180602001604052806000815250611603565b81816040516020016115f39291906142bc565b6040516020818303038152906040525b92505050919050565b600061162960016000848152602001908152602001600020612281565b9050919050565b7f9f2df0fed2c77648de5860a4cc508cd0818c85b8b8a1ab4ceeef8d981c8956a681565b61165e8282612296565b61168381600160008581526020019081526020016000206122fc90919063ffffffff16565b505050565b60006116bb7f9f2df0fed2c77648de5860a4cc508cd0818c85b8b8a1ab4ceeef8d981c8956a66116b6611996565b6111d0565b6116fa576040517f08c379a00000000000000000000000000000000000000000000000000000000081526004016116f19061471d565b60405180910390fd5b6000611706600d61232c565b9050611712868261233a565b6117618186868080601f016020809104026020016040519081016040528093929190818152602001838380828437600081840152601f19601f8201169050808301925050505050505085612508565b808673ffffffffffffffffffffffffffffffffffffffff167f3a540b9006130a01819732465719e909d14683ec4c0abf71bc32dd8de03e1c3f8787876040516117ac939291906143a9565b60405180910390a36117be600d61259c565b80915050949350505050565b7f65d7a28e3265b37a6474929f336521b332c1681b933f6cb9f3376673440d862a81565b6000600760008473ffffffffffffffffffffffffffffffffffffffff1673ffffffffffffffffffffffffffffffffffffffff16815260200190815260200160002060008373ffffffffffffffffffffffffffffffffffffffff1673ffffffffffffffffffffffffffffffffffffffff16815260200190815260200160002060009054906101000a900460ff16905092915050565b61188c82826125b2565b5050565b60006118b8836000018373ffffffffffffffffffffffffffffffffffffffff1660001b612692565b905092915050565b60007f01ffc9a7000000000000000000000000000000000000000000000000000000007bffffffffffffffffffffffffffffffffffffffffffffffffffffffff1916827bffffffffffffffffffffffffffffffffffffffffffffffffffffffff1916149050919050565b60008073ffffffffffffffffffffffffffffffffffffffff166004600084815260200190815260200160002060009054906101000a900473ffffffffffffffffffffffffffffffffffffffff1673ffffffffffffffffffffffffffffffffffffffff1614159050919050565b600033905090565b816006600083815260200190815260200160002060006101000a81548173ffffffffffffffffffffffffffffffffffffffff021916908373ffffffffffffffffffffffffffffffffffffffff160217905550808273ffffffffffffffffffffffffffffffffffffffff16611a1183610f45565b73ffffffffffffffffffffffffffffffffffffffff167f8c5be1e5ebec7d5bd14f71427d1e84f3dd0314c0f7b2291e5b200ac8c7c3b92560405160405180910390a45050565b6000611a628261192a565b611aa1576040517f08c379a0000000000000000000000000000000000000000000000000000000008152600401611a989061453d565b60405180910390fd5b6000611aac83610f45565b90508073ffffffffffffffffffffffffffffffffffffffff168473ffffffffffffffffffffffffffffffffffffffff161480611b1b57508373ffffffffffffffffffffffffffffffffffffffff16611b0384610942565b73ffffffffffffffffffffffffffffffffffffffff16145b80611b2c5750611b2b81856117ee565b5b91505092915050565b8273ffffffffffffffffffffffffffffffffffffffff16611b5582610f45565b73ffffffffffffffffffffffffffffffffffffffff1614611bab576040517f08c379a0000000000000000000000000000000000000000000000000000000008152600401611ba29061467d565b60405180910390fd5b600073ffffffffffffffffffffffffffffffffffffffff168273ffffffffffffffffffffffffffffffffffffffff161415611c1b576040517f08c379a0000000000000000000000000000000000000000000000000000000008152600401611c12906144fd565b60405180910390fd5b611c26838383612702565b611c3160008261199e565b6001600560008573ffffffffffffffffffffffffffffffffffffffff1673ffffffffffffffffffffffffffffffffffffffff1681526020019081526020016000206000828254611c8191906148bc565b925050819055506001600560008473ffffffffffffffffffffffffffffffffffffffff1673ffffffffffffffffffffffffffffffffffffffff1681526020019081526020016000206000828254611cd89190614866565b92505081905550816004600083815260200190815260200160002060006101000a81548173ffffffffffffffffffffffffffffffffffffffff021916908373ffffffffffffffffffffffffffffffffffffffff160217905550808273ffffffffffffffffffffffffffffffffffffffff168473ffffffffffffffffffffffffffffffffffffffff167fddf252ad1be2c89b69c2b068fc378daa952ba7f163c4a11628f55a4df523b3ef60405160405180910390a4505050565b611daa611d9d83610b4c565b611da5611996565b6111d0565b611de9576040517f08c379a0000000000000000000000000000000000000000000000000000000008152600401611de09061443d565b60405180910390fd5b611df382826125b2565b5050565b611e0182826111d0565b15611ed457600080600084815260200190815260200160002060000160008373ffffffffffffffffffffffffffffffffffffffff1673ffffffffffffffffffffffffffffffffffffffff16815260200190815260200160002060006101000a81548160ff021916908315150217905550611e79611996565b73ffffffffffffffffffffffffffffffffffffffff168173ffffffffffffffffffffffffffffffffffffffff16837ff6391f5c32d9c69d2a47ea670b442974b53935d1edc7fd64eb21e047a839171b60405160405180910390a45b5050565b611ee0610f2e565b611f1f576040517f08c379a0000000000000000000000000000000000000000000000000000000008152600401611f169061445d565b60405180910390fd5b6000600c60006101000a81548160ff0219169083151502179055507f5db9ee0a495bf2e6ff9c91a7834c1ba4fdd244a5e8aa4e537bd38aeae4b073aa611f63611996565b604051611f70919061430c565b60405180910390a1565b6000611f8582610f45565b9050611f9381600084612702565b611f9e60008361199e565b6001600560008373ffffffffffffffffffffffffffffffffffffffff1673ffffffffffffffffffffffffffffffffffffffff168152602001908152602001600020600082825403925050819055506004600083815260200190815260200160002060006101000a81549073ffffffffffffffffffffffffffffffffffffffff021916905581600073ffffffffffffffffffffffffffffffffffffffff168273ffffffffffffffffffffffffffffffffffffffff167fddf252ad1be2c89b69c2b068fc378daa952ba7f163c4a11628f55a4df523b3ef60405160405180910390a45050565b600f600082815260200190815260200160002060006120a19190613083565b6010600082815260200190815260200160002060006101000a8154906fffffffffffffffffffffffffffffffff021916905550565b6060600e80546120e5906149dc565b80601f0160208091040260200160405190810160405280929190818152602001828054612111906149dc565b801561215e5780601f106121335761010080835404028352916020019161215e565b820191906000526020600020905b81548152906001019060200180831161214157829003601f168201915b5050505050905090565b612170610f2e565b156121b0576040517f08c379a00000000000000000000000000000000000000000000000000000000081526004016121a79061457d565b60405180910390fd5b6001600c60006101000a81548160ff0219169083151502179055507f62e78cea01bee320cd4e420270b5ea74000d11b0c9f74754ebdbfc544b05a2586121f4611996565b604051612201919061430c565b60405180910390a1565b600061221a8360000183612712565b60001c905092915050565b612230848484611b35565b61223c848484846127ac565b61227b576040517f08c379a0000000000000000000000000000000000000000000000000000000008152600401612272906144bd565b60405180910390fd5b50505050565b600061228f82600001612943565b9050919050565b6122af6122a283610b4c565b6122aa611996565b6111d0565b6122ee576040517f08c379a00000000000000000000000000000000000000000000000000000000081526004016122e59061455d565b60405180910390fd5b6122f88282611df7565b5050565b6000612324836000018373ffffffffffffffffffffffffffffffffffffffff1660001b612954565b905092915050565b600081600001549050919050565b600073ffffffffffffffffffffffffffffffffffffffff168273ffffffffffffffffffffffffffffffffffffffff1614156123aa576040517f08c379a00000000000000000000000000000000000000000000000000000000081526004016123a19061463d565b60405180910390fd5b6123b38161192a565b156123f3576040517f08c379a00000000000000000000000000000000000000000000000000000000081526004016123ea906144dd565b60405180910390fd5b6123ff60008383612702565b6001600560008473ffffffffffffffffffffffffffffffffffffffff1673ffffffffffffffffffffffffffffffffffffffff168152602001908152602001600020600082825461244f9190614866565b92505081905550816004600083815260200190815260200160002060006101000a81548173ffffffffffffffffffffffffffffffffffffffff021916908373ffffffffffffffffffffffffffffffffffffffff160217905550808273ffffffffffffffffffffffffffffffffffffffff16600073ffffffffffffffffffffffffffffffffffffffff167fddf252ad1be2c89b69c2b068fc378daa952ba7f163c4a11628f55a4df523b3ef60405160405180910390a45050565b81600f6000858152602001908152602001600020908051906020019061252f9291906130c3565b50806010600085815260200190815260200160002060006101000a8154816fffffffffffffffffffffffffffffffff021916908360801c021790555060006013600085815260200190815260200160002060006101000a81548160ff021916908315150217905550505050565b6001816000016000828254019250508190555050565b6125bc82826111d0565b61268e57600160008084815260200190815260200160002060000160008373ffffffffffffffffffffffffffffffffffffffff1673ffffffffffffffffffffffffffffffffffffffff16815260200190815260200160002060006101000a81548160ff021916908315150217905550612633611996565b73ffffffffffffffffffffffffffffffffffffffff168173ffffffffffffffffffffffffffffffffffffffff16837f2f8788117e7eff1d82e926ec794901d17c78024a50270940304540a733656f0d60405160405180910390a45b5050565b600061269e8383612ade565b6126f75782600001829080600181540180825580915050600190039060005260206000200160009091909190915055826000018054905083600101600084815260200190815260200160002081905550600190506126fc565b600090505b92915050565b61270d838383612b01565b505050565b60008183600001805490501161275d576040517f08c379a0000000000000000000000000000000000000000000000000000000008152600401612754906143fd565b60405180910390fd5b826000018281548110612799577f4e487b7100000000000000000000000000000000000000000000000000000000600052603260045260246000fd5b9060005260206000200154905092915050565b60006127cd8473ffffffffffffffffffffffffffffffffffffffff16612b59565b15612936578373ffffffffffffffffffffffffffffffffffffffff1663150b7a026127f6611996565b8786866040518563ffffffff1660e01b81526004016128189493929190614327565b602060405180830381600087803b15801561283257600080fd5b505af192505050801561286357506040513d601f19601f820116820180604052508101906128609190613588565b60015b6128e6573d8060008114612893576040519150601f19603f3d011682016040523d82523d6000602084013e612898565b606091505b506000815114156128de576040517f08c379a00000000000000000000000000000000000000000000000000000000081526004016128d5906144bd565b60405180910390fd5b805181602001fd5b63150b7a0260e01b7bffffffffffffffffffffffffffffffffffffffffffffffffffffffff1916817bffffffffffffffffffffffffffffffffffffffffffffffffffffffff19161491505061293b565b600190505b949350505050565b600081600001805490509050919050565b60008083600101600084815260200190815260200160002054905060008114612ad257600060018261298691906148bc565b905060006001866000018054905061299e91906148bc565b905060008660000182815481106129de577f4e487b7100000000000000000000000000000000000000000000000000000000600052603260045260246000fd5b9060005260206000200154905080876000018481548110612a28577f4e487b7100000000000000000000000000000000000000000000000000000000600052603260045260246000fd5b9060005260206000200181905550600183612a439190614866565b8760010160008381526020019081526020016000208190555086600001805480612a96577f4e487b7100000000000000000000000000000000000000000000000000000000600052603160045260246000fd5b60019003818190600052602060002001600090559055866001016000878152602001908152602001600020600090556001945050505050612ad8565b60009150505b92915050565b600080836001016000848152602001908152602001600020541415905092915050565b612b0c838383612b6c565b612b14610f2e565b15612b54576040517f08c379a0000000000000000000000000000000000000000000000000000000008152600401612b4b9061441d565b60405180910390fd5b505050565b600080823b905060008111915050919050565b612b77838383612c80565b600073ffffffffffffffffffffffffffffffffffffffff168373ffffffffffffffffffffffffffffffffffffffff161415612bba57612bb581612c85565b612bf9565b8173ffffffffffffffffffffffffffffffffffffffff168373ffffffffffffffffffffffffffffffffffffffff1614612bf857612bf78382612cce565b5b5b600073ffffffffffffffffffffffffffffffffffffffff168273ffffffffffffffffffffffffffffffffffffffff161415612c3c57612c3781612e3b565b612c7b565b8273ffffffffffffffffffffffffffffffffffffffff168273ffffffffffffffffffffffffffffffffffffffff1614612c7a57612c798282612f7e565b5b5b505050565b505050565b600a80549050600b600083815260200190815260200160002081905550600a81908060018154018082558091505060019003906000526020600020016000909190919091505550565b60006001612cdb84611006565b612ce591906148bc565b9050600060096000848152602001908152602001600020549050818114612dca576000600860008673ffffffffffffffffffffffffffffffffffffffff1673ffffffffffffffffffffffffffffffffffffffff168152602001908152602001600020600084815260200190815260200160002054905080600860008773ffffffffffffffffffffffffffffffffffffffff1673ffffffffffffffffffffffffffffffffffffffff168152602001908152602001600020600084815260200190815260200160002081905550816009600083815260200190815260200160002081905550505b6009600084815260200190815260200160002060009055600860008573ffffffffffffffffffffffffffffffffffffffff1673ffffffffffffffffffffffffffffffffffffffff16815260200190815260200160002060008381526020019081526020016000206000905550505050565b60006001600a80549050612e4f91906148bc565b90506000600b60008481526020019081526020016000205490506000600a8381548110612ea5577f4e487b7100000000000000000000000000000000000000000000000000000000600052603260045260246000fd5b9060005260206000200154905080600a8381548110612eed577f4e487b7100000000000000000000000000000000000000000000000000000000600052603260045260246000fd5b906000526020600020018190555081600b600083815260200190815260200160002081905550600b600085815260200190815260200160002060009055600a805480612f62577f4e487b7100000000000000000000000000000000000000000000000000000000600052603160045260246000fd5b6001900381819060005260206000200160009055905550505050565b6000612f8983611006565b905081600860008573ffffffffffffffffffffffffffffffffffffffff1673ffffffffffffffffffffffffffffffffffffffff168152602001908152602001600020600083815260200190815260200160002081905550806009600084815260200190815260200160002081905550505050565b828054613009906149dc565b90600052602060002090601f01602090048101928261302b5760008555613072565b82601f1061304457803560ff1916838001178555613072565b82800160010185558215613072579182015b82811115613071578235825591602001919060010190613056565b5b50905061307f9190613149565b5090565b50805461308f906149dc565b6000825580601f106130a157506130c0565b601f0160209004906000526020600020908101906130bf9190613149565b5b50565b8280546130cf906149dc565b90600052602060002090601f0160209004810192826130f15760008555613138565b82601f1061310a57805160ff1916838001178555613138565b82800160010185558215613138579182015b8281111561313757825182559160200191906001019061311c565b5b5090506131459190613149565b5090565b5b8082111561316257600081600090555060010161314a565b5090565b6000613179613174846147c9565b614798565b90508281526020810184848401111561319157600080fd5b61319c84828561499a565b509392505050565b6000813590506131b381614aac565b92915050565b6000813590506131c881614ac3565b92915050565b6000813590506131dd81614ada565b92915050565b6000813590506131f281614af1565b92915050565b60008135905061320781614b08565b92915050565b60008151905061321c81614b08565b92915050565b600082601f83011261323357600080fd5b8135613243848260208601613166565b91505092915050565b60008083601f84011261325e57600080fd5b8235905067ffffffffffffffff81111561327757600080fd5b60208301915083600182028301111561328f57600080fd5b9250929050565b6000813590506132a581614b1f565b92915050565b6000602082840312156132bd57600080fd5b60006132cb848285016131a4565b91505092915050565b600080604083850312156132e757600080fd5b60006132f5858286016131a4565b9250506020613306858286016131a4565b9150509250929050565b60008060006060848603121561332557600080fd5b6000613333868287016131a4565b9350506020613344868287016131a4565b925050604061335586828701613296565b9150509250925092565b6000806000806080858703121561337557600080fd5b6000613383878288016131a4565b9450506020613394878288016131a4565b93505060406133a587828801613296565b925050606085013567ffffffffffffffff8111156133c257600080fd5b6133ce87828801613222565b91505092959194509250565b600080604083850312156133ed57600080fd5b60006133fb858286016131a4565b925050602061340c858286016131b9565b9150509250929050565b6000806000806060858703121561342c57600080fd5b600061343a878288016131a4565b945050602085013567ffffffffffffffff81111561345757600080fd5b6134638782880161324c565b93509350506040613476878288016131ce565b91505092959194509250565b6000806040838503121561349557600080fd5b60006134a3858286016131a4565b92505060206134b485828601613296565b9150509250929050565b6000602082840312156134d057600080fd5b60006134de848285016131e3565b91505092915050565b600080604083850312156134fa57600080fd5b6000613508858286016131e3565b9250506020613519858286016131a4565b9150509250929050565b6000806040838503121561353657600080fd5b6000613544858286016131e3565b925050602061355585828601613296565b9150509250929050565b60006020828403121561357157600080fd5b600061357f848285016131f8565b91505092915050565b60006020828403121561359a57600080fd5b60006135a88482850161320d565b91505092915050565b600080602083850312156135c457600080fd5b600083013567ffffffffffffffff8111156135de57600080fd5b6135ea8582860161324c565b92509250509250929050565b60006020828403121561360857600080fd5b600061361684828501613296565b91505092915050565b613628816148f0565b82525050565b61363781614902565b82525050565b6136468161490e565b82525050565b6136558161493a565b82525050565b600061366682614823565b6136708185614839565b93506136808185602086016149a9565b61368981614a9b565b840191505092915050565b60006136a0838561484a565b93506136ad83858461499a565b6136b683614a9b565b840190509392505050565b60006136cc8261482e565b6136d6818561484a565b93506136e68185602086016149a9565b6136ef81614a9b565b840191505092915050565b60006137058261482e565b61370f818561485b565b935061371f8185602086016149a9565b80840191505092915050565b60008154613738816149dc565b613742818661485b565b9450600182166000811461375d576001811461376e576137a1565b60ff198316865281860193506137a1565b6137778561480e565b60005b838110156137995781548189015260018201915060208101905061377a565b838801955050505b50505092915050565b600081546137b7816149dc565b6137c1818661485b565b945060018216600081146137dc57600181146137ed57613820565b60ff19831686528186019350613820565b6137f6856147f9565b60005b83811015613818578154818901526001820191506020810190506137f9565b838801955050505b50505092915050565b600061383660228361484a565b91507f456e756d657261626c655365743a20696e646578206f7574206f6620626f756e60008301527f64730000000000000000000000000000000000000000000000000000000000006020830152604082019050919050565b600061389c602b8361484a565b91507f4552433732315061757361626c653a20746f6b656e207472616e73666572207760008301527f68696c65207061757365640000000000000000000000000000000000000000006020830152604082019050919050565b6000613902602f8361484a565b91507f416363657373436f6e74726f6c3a2073656e646572206d75737420626520616e60008301527f2061646d696e20746f206772616e7400000000000000000000000000000000006020830152604082019050919050565b600061396860148361484a565b91507f5061757361626c653a206e6f74207061757365640000000000000000000000006000830152602082019050919050565b60006139a860218361484a565b91507f4552433732313a204e6f74205065726d697373696f6e656420546f204275726e60008301527f2e000000000000000000000000000000000000000000000000000000000000006020830152604082019050919050565b6000613a0e602b8361484a565b91507f455243373231456e756d657261626c653a206f776e657220696e646578206f7560008301527f74206f6620626f756e64730000000000000000000000000000000000000000006020830152604082019050919050565b6000613a7460328361484a565b91507f4552433732313a207472616e7366657220746f206e6f6e20455243373231526560008301527f63656976657220696d706c656d656e74657200000000000000000000000000006020830152604082019050919050565b6000613ada601c8361484a565b91507f4552433732313a20746f6b656e20616c7265616479206d696e746564000000006000830152602082019050919050565b6000613b1a60248361484a565b91507f4552433732313a207472616e7366657220746f20746865207a65726f2061646460008301527f72657373000000000000000000000000000000000000000000000000000000006020830152604082019050919050565b6000613b8060198361484a565b91507f4552433732313a20617070726f766520746f2063616c6c6572000000000000006000830152602082019050919050565b6000613bc0602c8361484a565b91507f4552433732313a206f70657261746f7220717565727920666f72206e6f6e657860008301527f697374656e7420746f6b656e00000000000000000000000000000000000000006020830152604082019050919050565b6000613c2660308361484a565b91507f416363657373436f6e74726f6c3a2073656e646572206d75737420626520616e60008301527f2061646d696e20746f207265766f6b65000000000000000000000000000000006020830152604082019050919050565b6000613c8c60108361484a565b91507f5061757361626c653a20706175736564000000000000000000000000000000006000830152602082019050919050565b6000613ccc60388361484a565b91507f4552433732313a20617070726f76652063616c6c6572206973206e6f74206f7760008301527f6e6572206e6f7220617070726f76656420666f7220616c6c00000000000000006020830152604082019050919050565b6000613d32602a8361484a565b91507f4552433732313a2062616c616e636520717565727920666f7220746865207a6560008301527f726f2061646472657373000000000000000000000000000000000000000000006020830152604082019050919050565b6000613d9860298361484a565b91507f4552433732313a206f776e657220717565727920666f72206e6f6e657869737460008301527f656e7420746f6b656e00000000000000000000000000000000000000000000006020830152604082019050919050565b6000613dfe60218361484a565b91507f4552433732312046756c6c3a2041646d696e20526f6c6520526571756972656460008301527f2e000000000000000000000000000000000000000000000000000000000000006020830152604082019050919050565b6000613e6460238361484a565b91507f45524337323146554c4c3a20546f6b656e20496420446f6573204e6f7420457860008301527f69737400000000000000000000000000000000000000000000000000000000006020830152604082019050919050565b6000613eca60208361484a565b91507f4552433732313a206d696e7420746f20746865207a65726f20616464726573736000830152602082019050919050565b6000613f0a602c8361484a565b91507f4552433732313a20617070726f76656420717565727920666f72206e6f6e657860008301527f697374656e7420746f6b656e00000000000000000000000000000000000000006020830152604082019050919050565b6000613f7060298361484a565b91507f4552433732313a207472616e73666572206f6620746f6b656e2074686174206960008301527f73206e6f74206f776e00000000000000000000000000000000000000000000006020830152604082019050919050565b6000613fd660338361484a565b91507f4552433732314d657461646174613a20546f6b656e206964207175657279206660008301527f6f72206e6f6e6578697374656e74205552492e000000000000000000000000006020830152604082019050919050565b600061403c60228361484a565b91507f4552433732312046756c6c3a2050617573657220526f6c65205265717569726560008301527f642e0000000000000000000000000000000000000000000000000000000000006020830152604082019050919050565b60006140a260218361484a565b91507f4552433732313a20617070726f76616c20746f2063757272656e74206f776e6560008301527f72000000000000000000000000000000000000000000000000000000000000006020830152604082019050919050565b600061410860008361485b565b9150600082019050919050565b600061412260318361484a565b91507f4552433732313a207472616e736665722063616c6c6572206973206e6f74206f60008301527f776e6572206e6f7220617070726f7665640000000000000000000000000000006020830152604082019050919050565b600061418860218361484a565b91507f4552433732312046756c6c3a204d696e74657220526f6c65205265717569726560008301527f64000000000000000000000000000000000000000000000000000000000000006020830152604082019050919050565b60006141ee602c8361484a565b91507f455243373231456e756d657261626c653a20676c6f62616c20696e646578206f60008301527f7574206f6620626f756e647300000000000000000000000000000000000000006020830152604082019050919050565b6000614254602f8361484a565b91507f416363657373436f6e74726f6c3a2063616e206f6e6c792072656e6f756e636560008301527f20726f6c657320666f722073656c6600000000000000000000000000000000006020830152604082019050919050565b6142b681614990565b82525050565b60006142c882856136fa565b91506142d4828461372b565b91508190509392505050565b60006142ec82846137aa565b915081905092915050565b6000614302826140fb565b9150819050919050565b6000602082019050614321600083018461361f565b92915050565b600060808201905061433c600083018761361f565b614349602083018661361f565b61435660408301856142ad565b8181036060830152614368818461365b565b905095945050505050565b6000602082019050614388600083018461362e565b92915050565b60006020820190506143a3600083018461364c565b92915050565b600060408201905081810360008301526143c4818587613694565b90506143d3602083018461363d565b949350505050565b600060208201905081810360008301526143f581846136c1565b905092915050565b6000602082019050818103600083015261441681613829565b9050919050565b600060208201905081810360008301526144368161388f565b9050919050565b60006020820190508181036000830152614456816138f5565b9050919050565b600060208201905081810360008301526144768161395b565b9050919050565b600060208201905081810360008301526144968161399b565b9050919050565b600060208201905081810360008301526144b681613a01565b9050919050565b600060208201905081810360008301526144d681613a67565b9050919050565b600060208201905081810360008301526144f681613acd565b9050919050565b6000602082019050818103600083015261451681613b0d565b9050919050565b6000602082019050818103600083015261453681613b73565b9050919050565b6000602082019050818103600083015261455681613bb3565b9050919050565b6000602082019050818103600083015261457681613c19565b9050919050565b6000602082019050818103600083015261459681613c7f565b9050919050565b600060208201905081810360008301526145b681613cbf565b9050919050565b600060208201905081810360008301526145d681613d25565b9050919050565b600060208201905081810360008301526145f681613d8b565b9050919050565b6000602082019050818103600083015261461681613df1565b9050919050565b6000602082019050818103600083015261463681613e57565b9050919050565b6000602082019050818103600083015261465681613ebd565b9050919050565b6000602082019050818103600083015261467681613efd565b9050919050565b6000602082019050818103600083015261469681613f63565b9050919050565b600060208201905081810360008301526146b681613fc9565b9050919050565b600060208201905081810360008301526146d68161402f565b9050919050565b600060208201905081810360008301526146f681614095565b9050919050565b6000602082019050818103600083015261471681614115565b9050919050565b600060208201905081810360008301526147368161417b565b9050919050565b60006020820190508181036000830152614756816141e1565b9050919050565b6000602082019050818103600083015261477681614247565b9050919050565b600060208201905061479260008301846142ad565b92915050565b6000604051905081810181811067ffffffffffffffff821117156147bf576147be614a6c565b5b8060405250919050565b600067ffffffffffffffff8211156147e4576147e3614a6c565b5b601f19601f8301169050602081019050919050565b60008190508160005260206000209050919050565b60008190508160005260206000209050919050565b600081519050919050565b600081519050919050565b600082825260208201905092915050565b600082825260208201905092915050565b600081905092915050565b600061487182614990565b915061487c83614990565b9250827fffffffffffffffffffffffffffffffffffffffffffffffffffffffffffffffff038211156148b1576148b0614a0e565b5b828201905092915050565b60006148c782614990565b91506148d283614990565b9250828210156148e5576148e4614a0e565b5b828203905092915050565b60006148fb82614970565b9050919050565b60008115159050919050565b60007fffffffffffffffffffffffffffffffff0000000000000000000000000000000082169050919050565b6000819050919050565b60007fffffffff0000000000000000000000000000000000000000000000000000000082169050919050565b600073ffffffffffffffffffffffffffffffffffffffff82169050919050565b6000819050919050565b82818337600083830152505050565b60005b838110156149c75780820151818401526020810190506149ac565b838111156149d6576000848401525b50505050565b600060028204905060018216806149f457607f821691505b60208210811415614a0857614a07614a3d565b5b50919050565b7f4e487b7100000000000000000000000000000000000000000000000000000000600052601160045260246000fd5b7f4e487b7100000000000000000000000000000000000000000000000000000000600052602260045260246000fd5b7f4e487b7100000000000000000000000000000000000000000000000000000000600052604160045260246000fd5b6000601f19601f8301169050919050565b614ab5816148f0565b8114614ac057600080fd5b50565b614acc81614902565b8114614ad757600080fd5b50565b614ae38161490e565b8114614aee57600080fd5b50565b614afa8161493a565b8114614b0557600080fd5b50565b614b1181614944565b8114614b1c57600080fd5b50565b614b2881614990565b8114614b3357600080fd5b5056fea26469706673582212201f9a09713dc586dd2111912080e2fd059beb978460a5fffbf5833d80466ccc8764736f6c63430008000033",
  "immutableReferences": {},
  "source": "\n// SPDX-License-Identifier: MIT\npragma solidity >=0.5.11 <0.9.0;\n\nimport \"../ERC721/ERC721Full.sol\";\n\n/**\n * @title Creature\n * Creature - a contract for my non-fungible creatures.\n */\ncontract LogicReptileToken is ERC721Full {    \n\n    constructor(string memory name_, string memory symbol_, string memory baseURI_)\n        ERC721Full(name_,symbol_,baseURI_)\n    {}   \n\n    function baseURI() external view returns (string memory){\n        return _baseURI();\n    } \n}",
  "sourcePath": "/Users/dennismacpro/Projects/Defi/Ethereum-Solidity-Collection/nft-kit/contracts/logicreptile/LogicReptile.sol",
  "compiler": {
    "name": "solc",
    "version": "0.8.0+commit.c7dfd78e.Darwin.appleclang"
  },
  "schemaVersion": "3.3.4",
  "updatedAt": "2021-03-11T02:48:25.136Z",
  "networkType": "ethereum",
  "devdoc": {
    "kind": "dev",
    "methods": {
      "approve(address,uint256)": {
        "details": "See {IERC721-approve}."
      },
      "balanceOf(address)": {
        "details": "See {IERC721-balanceOf}."
      },
      "getApproved(uint256)": {
        "details": "See {IERC721-getApproved}."
      },
      "getRoleAdmin(bytes32)": {
        "details": "Returns the admin role that controls `role`. See {grantRole} and {revokeRole}. To change a role's admin, use {_setRoleAdmin}."
      },
      "getRoleMember(bytes32,uint256)": {
        "details": "Returns one of the accounts that have `role`. `index` must be a value between 0 and {getRoleMemberCount}, non-inclusive. Role bearers are not sorted in any particular way, and their ordering may change at any point. WARNING: When using {getRoleMember} and {getRoleMemberCount}, make sure you perform all queries on the same block. See the following https://forum.openzeppelin.com/t/iterating-over-elements-on-enumerableset-in-openzeppelin-contracts/2296[forum post] for more information."
      },
      "getRoleMemberCount(bytes32)": {
        "details": "Returns the number of accounts that have `role`. Can be used together with {getRoleMember} to enumerate all bearers of a role."
      },
      "grantRole(bytes32,address)": {
        "details": "Overload {grantRole} to track enumerable memberships"
      },
      "hasRole(bytes32,address)": {
        "details": "Returns `true` if `account` has been granted `role`."
      },
      "isApprovedForAll(address,address)": {
        "details": "See {IERC721-isApprovedForAll}."
      },
      "mint(address,string,bytes16)": {
        "details": "Mint a new tokenReverts if not called by minter",
        "params": {
          "_artist": "the artist of the art",
          "_edition": "the identifier of the edition - leading 3 bytes are the artist code, trailing 3 bytes are the asset type",
          "_tokenURI": "the IPFS or equivalent hash"
        }
      },
      "name()": {
        "details": "See {IERC721Metadata-name}."
      },
      "ownerOf(uint256)": {
        "details": "See {IERC721-ownerOf}."
      },
      "pause()": {
        "details": "Pauses all token transfers. See {ERC721Pausable} and {Pausable-_pause}. Requirements: - the caller must have the `PAUSER_ROLE`."
      },
      "paused()": {
        "details": "Returns true if the contract is paused, and false otherwise."
      },
      "renounceRole(bytes32,address)": {
        "details": "Revokes `role` from the calling account. Roles are often managed via {grantRole} and {revokeRole}: this function's purpose is to provide a mechanism for accounts to lose their privileges if they are compromised (such as when a trusted device is misplaced). If the calling account had been granted `role`, emits a {RoleRevoked} event. Requirements: - the caller must be `account`."
      },
      "revokeRole(bytes32,address)": {
        "details": "Overload {revokeRole} to track enumerable memberships"
      },
      "safeTransferFrom(address,address,uint256)": {
        "details": "See {IERC721-safeTransferFrom}."
      },
      "safeTransferFrom(address,address,uint256,bytes)": {
        "details": "See {IERC721-safeTransferFrom}."
      },
      "setApprovalForAll(address,bool)": {
        "details": "See {IERC721-setApprovalForAll}."
      },
      "setTokenBaseURI(string)": {
        "details": "Allows management to update the base tokenURI pathReverts if not called by management",
        "params": {
          "_newBaseURI": "the new base URI to set"
        }
      },
      "supportsInterface(bytes4)": {
        "details": "See {IERC165-supportsInterface}."
      },
      "symbol()": {
        "details": "See {IERC721Metadata-symbol}."
      },
      "tokenByIndex(uint256)": {
        "details": "See {IERC721Enumerable-tokenByIndex}."
      },
      "tokenOfOwnerByIndex(address,uint256)": {
        "details": "See {IERC721Enumerable-tokenOfOwnerByIndex}."
      },
      "tokenURI(uint256)": {
        "details": "See {IERC721Metadata-tokenURI}."
      },
      "totalSupply()": {
        "details": "See {IERC721Enumerable-totalSupply}."
      },
      "transferFrom(address,address,uint256)": {
        "details": "See {IERC721-transferFrom}."
      },
      "unpause()": {
        "details": "Unpauses all token transfers. See {ERC721Pausable} and {Pausable-_unpause}. Requirements: - the caller must have the `PAUSER_ROLE`."
      }
    },
    "title": "Creature Creature - a contract for my non-fungible creatures.",
    "version": 1
  },
  "userdoc": {
    "kind": "user",
    "methods": {},
    "version": 1
  }
}