{
  "contractName": "LogicReptileToken",
  "abi": [
    {
      "inputs": [
        {
          "internalType": "string",
          "name": "name_",
          "type": "string"
        },
        {
          "internalType": "string",
          "name": "symbol_",
          "type": "string"
        },
        {
          "internalType": "address",
          "name": "proxyRegistryAddress_",
          "type": "address"
        }
      ],
      "stateMutability": "nonpayable",
      "type": "constructor"
    },
    {
      "anonymous": false,
      "inputs": [
        {
          "indexed": true,
          "internalType": "address",
          "name": "owner",
          "type": "address"
        },
        {
          "indexed": true,
          "internalType": "address",
          "name": "approved",
          "type": "address"
        },
        {
          "indexed": true,
          "internalType": "uint256",
          "name": "tokenId",
          "type": "uint256"
        }
      ],
      "name": "Approval",
      "type": "event"
    },
    {
      "anonymous": false,
      "inputs": [
        {
          "indexed": true,
          "internalType": "address",
          "name": "owner",
          "type": "address"
        },
        {
          "indexed": true,
          "internalType": "address",
          "name": "operator",
          "type": "address"
        },
        {
          "indexed": false,
          "internalType": "bool",
          "name": "approved",
          "type": "bool"
        }
      ],
      "name": "ApprovalForAll",
      "type": "event"
    },
    {
      "anonymous": false,
      "inputs": [
        {
          "indexed": true,
          "internalType": "address",
          "name": "previousOwner",
          "type": "address"
        },
        {
          "indexed": true,
          "internalType": "address",
          "name": "newOwner",
          "type": "address"
        }
      ],
      "name": "OwnershipTransferred",
      "type": "event"
    },
    {
      "anonymous": false,
      "inputs": [
        {
          "indexed": true,
          "internalType": "address",
          "name": "from",
          "type": "address"
        },
        {
          "indexed": true,
          "internalType": "address",
          "name": "to",
          "type": "address"
        },
        {
          "indexed": true,
          "internalType": "uint256",
          "name": "tokenId",
          "type": "uint256"
        }
      ],
      "name": "Transfer",
      "type": "event"
    },
    {
      "inputs": [
        {
          "internalType": "address",
          "name": "to",
          "type": "address"
        },
        {
          "internalType": "uint256",
          "name": "tokenId",
          "type": "uint256"
        }
      ],
      "name": "approve",
      "outputs": [],
      "stateMutability": "nonpayable",
      "type": "function"
    },
    {
      "inputs": [
        {
          "internalType": "address",
          "name": "owner",
          "type": "address"
        }
      ],
      "name": "balanceOf",
      "outputs": [
        {
          "internalType": "uint256",
          "name": "",
          "type": "uint256"
        }
      ],
      "stateMutability": "view",
      "type": "function"
    },
    {
      "inputs": [],
      "name": "baseTokenURI",
      "outputs": [
        {
          "internalType": "string",
          "name": "",
          "type": "string"
        }
      ],
      "stateMutability": "view",
      "type": "function"
    },
    {
      "inputs": [],
      "name": "baseURI",
      "outputs": [
        {
          "internalType": "string",
          "name": "",
          "type": "string"
        }
      ],
      "stateMutability": "view",
      "type": "function"
    },
    {
      "inputs": [
        {
          "internalType": "uint256",
          "name": "tokenId",
          "type": "uint256"
        }
      ],
      "name": "getApproved",
      "outputs": [
        {
          "internalType": "address",
          "name": "",
          "type": "address"
        }
      ],
      "stateMutability": "view",
      "type": "function"
    },
    {
      "inputs": [
        {
          "internalType": "address",
          "name": "owner",
          "type": "address"
        },
        {
          "internalType": "address",
          "name": "operator",
          "type": "address"
        }
      ],
      "name": "isApprovedForAll",
      "outputs": [
        {
          "internalType": "bool",
          "name": "",
          "type": "bool"
        }
      ],
      "stateMutability": "view",
      "type": "function"
    },
    {
      "inputs": [
        {
          "internalType": "address",
          "name": "_to",
          "type": "address"
        }
      ],
      "name": "mintTo",
      "outputs": [],
      "stateMutability": "nonpayable",
      "type": "function"
    },
    {
      "inputs": [],
      "name": "name",
      "outputs": [
        {
          "internalType": "string",
          "name": "",
          "type": "string"
        }
      ],
      "stateMutability": "view",
      "type": "function"
    },
    {
      "inputs": [],
      "name": "owner",
      "outputs": [
        {
          "internalType": "address",
          "name": "",
          "type": "address"
        }
      ],
      "stateMutability": "view",
      "type": "function"
    },
    {
      "inputs": [
        {
          "internalType": "uint256",
          "name": "tokenId",
          "type": "uint256"
        }
      ],
      "name": "ownerOf",
      "outputs": [
        {
          "internalType": "address",
          "name": "",
          "type": "address"
        }
      ],
      "stateMutability": "view",
      "type": "function"
    },
    {
      "inputs": [],
      "name": "renounceOwnership",
      "outputs": [],
      "stateMutability": "nonpayable",
      "type": "function"
    },
    {
      "inputs": [
        {
          "internalType": "address",
          "name": "from",
          "type": "address"
        },
        {
          "internalType": "address",
          "name": "to",
          "type": "address"
        },
        {
          "internalType": "uint256",
          "name": "tokenId",
          "type": "uint256"
        }
      ],
      "name": "safeTransferFrom",
      "outputs": [],
      "stateMutability": "nonpayable",
      "type": "function"
    },
    {
      "inputs": [
        {
          "internalType": "address",
          "name": "from",
          "type": "address"
        },
        {
          "internalType": "address",
          "name": "to",
          "type": "address"
        },
        {
          "internalType": "uint256",
          "name": "tokenId",
          "type": "uint256"
        },
        {
          "internalType": "bytes",
          "name": "_data",
          "type": "bytes"
        }
      ],
      "name": "safeTransferFrom",
      "outputs": [],
      "stateMutability": "nonpayable",
      "type": "function"
    },
    {
      "inputs": [
        {
          "internalType": "address",
          "name": "to",
          "type": "address"
        },
        {
          "internalType": "bool",
          "name": "approved",
          "type": "bool"
        }
      ],
      "name": "setApprovalForAll",
      "outputs": [],
      "stateMutability": "nonpayable",
      "type": "function"
    },
    {
      "inputs": [
        {
          "internalType": "bytes4",
          "name": "interfaceId",
          "type": "bytes4"
        }
      ],
      "name": "supportsInterface",
      "outputs": [
        {
          "internalType": "bool",
          "name": "",
          "type": "bool"
        }
      ],
      "stateMutability": "view",
      "type": "function"
    },
    {
      "inputs": [],
      "name": "symbol",
      "outputs": [
        {
          "internalType": "string",
          "name": "",
          "type": "string"
        }
      ],
      "stateMutability": "view",
      "type": "function"
    },
    {
      "inputs": [
        {
          "internalType": "uint256",
          "name": "index",
          "type": "uint256"
        }
      ],
      "name": "tokenByIndex",
      "outputs": [
        {
          "internalType": "uint256",
          "name": "",
          "type": "uint256"
        }
      ],
      "stateMutability": "view",
      "type": "function"
    },
    {
      "inputs": [
        {
          "internalType": "address",
          "name": "owner",
          "type": "address"
        },
        {
          "internalType": "uint256",
          "name": "index",
          "type": "uint256"
        }
      ],
      "name": "tokenOfOwnerByIndex",
      "outputs": [
        {
          "internalType": "uint256",
          "name": "",
          "type": "uint256"
        }
      ],
      "stateMutability": "view",
      "type": "function"
    },
    {
      "inputs": [
        {
          "internalType": "uint256",
          "name": "_tokenId",
          "type": "uint256"
        }
      ],
      "name": "tokenURI",
      "outputs": [
        {
          "internalType": "string",
          "name": "",
          "type": "string"
        }
      ],
      "stateMutability": "view",
      "type": "function"
    },
    {
      "inputs": [],
      "name": "totalSupply",
      "outputs": [
        {
          "internalType": "uint256",
          "name": "",
          "type": "uint256"
        }
      ],
      "stateMutability": "view",
      "type": "function"
    },
    {
      "inputs": [
        {
          "internalType": "address",
          "name": "from",
          "type": "address"
        },
        {
          "internalType": "address",
          "name": "to",
          "type": "address"
        },
        {
          "internalType": "uint256",
          "name": "tokenId",
          "type": "uint256"
        }
      ],
      "name": "transferFrom",
      "outputs": [],
      "stateMutability": "nonpayable",
      "type": "function"
    },
    {
      "inputs": [
        {
          "internalType": "address",
          "name": "newOwner",
          "type": "address"
        }
      ],
      "name": "transferOwnership",
      "outputs": [],
      "stateMutability": "nonpayable",
      "type": "function"
    }
  ],
  "bytecode": "0x60806040526000600f556040518060400160405280601c81526020017f68747470733a2f2f697066732e696e667572612e696f2f697066732f00000000815250601090805190602001906200005692919062000305565b503480156200006457600080fd5b50604051620035a5380380620035a583398181016040528101906200008a91906200043e565b82828282828181620000a96301ffc9a760e01b6200022560201b60201c565b620000c16380ac58cd60e01b6200022560201b60201c565b620000d963780e9d6360e01b6200022560201b60201c565b8160099080519060200190620000f192919062000305565b5080600a90805190602001906200010a92919062000305565b5062000123635b5e139f60e01b6200022560201b60201c565b50505050600062000139620002fd60201b60201c565b905080600d60006101000a81548173ffffffffffffffffffffffffffffffffffffffff021916908373ffffffffffffffffffffffffffffffffffffffff1602179055508073ffffffffffffffffffffffffffffffffffffffff16600073ffffffffffffffffffffffffffffffffffffffff167f8be0079c531659141344cd1fd0a4f28419497f9722a3daafe3b4186f6b6457e060405160405180910390a35080600e60006101000a81548173ffffffffffffffffffffffffffffffffffffffff021916908373ffffffffffffffffffffffffffffffffffffffff160217905550505050505050620006ba565b63ffffffff60e01b817bffffffffffffffffffffffffffffffffffffffffffffffffffffffff1916141562000291576040517f08c379a0000000000000000000000000000000000000000000000000000000008152600401620002889062000508565b60405180910390fd5b6001600080837bffffffffffffffffffffffffffffffffffffffffffffffffffffffff19167bffffffffffffffffffffffffffffffffffffffffffffffffffffffff1916815260200190815260200160002060006101000a81548160ff02191690831515021790555050565b600033905090565b82805462000313906200060c565b90600052602060002090601f01602090048101928262000337576000855562000383565b82601f106200035257805160ff191683800117855562000383565b8280016001018555821562000383579182015b828111156200038257825182559160200191906001019062000365565b5b50905062000392919062000396565b5090565b5b80821115620003b157600081600090555060010162000397565b5090565b6000620003cc620003c6846200055e565b6200052a565b905082815260208101848484011115620003e557600080fd5b620003f2848285620005d6565b509392505050565b6000815190506200040b81620006a0565b92915050565b600082601f8301126200042357600080fd5b815162000435848260208601620003b5565b91505092915050565b6000806000606084860312156200045457600080fd5b600084015167ffffffffffffffff8111156200046f57600080fd5b6200047d8682870162000411565b935050602084015167ffffffffffffffff8111156200049b57600080fd5b620004a98682870162000411565b9250506040620004bc86828701620003fa565b9150509250925092565b6000620004d5601c8362000591565b91507f4552433136353a20696e76616c696420696e74657266616365206964000000006000830152602082019050919050565b600060208201905081810360008301526200052381620004c6565b9050919050565b6000604051905081810181811067ffffffffffffffff8211171562000554576200055362000671565b5b8060405250919050565b600067ffffffffffffffff8211156200057c576200057b62000671565b5b601f19601f8301169050602081019050919050565b600082825260208201905092915050565b6000620005af82620005b6565b9050919050565b600073ffffffffffffffffffffffffffffffffffffffff82169050919050565b60005b83811015620005f6578082015181840152602081019050620005d9565b8381111562000606576000848401525b50505050565b600060028204905060018216806200062557607f821691505b602082108114156200063c576200063b62000642565b5b50919050565b7f4e487b7100000000000000000000000000000000000000000000000000000000600052602260045260246000fd5b7f4e487b7100000000000000000000000000000000000000000000000000000000600052604160045260246000fd5b620006ab81620005a2565b8114620006b757600080fd5b50565b612edb80620006ca6000396000f3fe608060405234801561001057600080fd5b50600436106101425760003560e01c806370a08231116100b8578063a22cb4651161007c578063a22cb46514610377578063b88d4fde14610393578063c87b56dd146103af578063d547cfb7146103df578063e985e9c5146103fd578063f2fde38b1461042d57610142565b806370a08231146102e5578063715018a614610315578063755edd171461031f5780638da5cb5b1461033b57806395d89b411461035957610142565b806323b872dd1161010a57806323b872dd146101ff5780632f745c591461021b57806342842e0e1461024b5780634f6ccce7146102675780636352211e146102975780636c0360eb146102c757610142565b806301ffc9a71461014757806306fdde0314610177578063081812fc14610195578063095ea7b3146101c557806318160ddd146101e1575b600080fd5b610161600480360381019061015c919061219c565b610449565b60405161016e9190612870565b60405180910390f35b61017f6104b0565b60405161018c919061288b565b60405180910390f35b6101af60048036038101906101aa9190612217565b610542565b6040516101bc9190612809565b60405180910390f35b6101df60048036038101906101da9190612160565b6105c7565b005b6101e9610782565b6040516101f69190612a4d565b60405180910390f35b6102196004803603810190610214919061205a565b61078f565b005b61023560048036038101906102309190612160565b6107ef565b6040516102429190612a4d565b60405180910390f35b6102656004803603810190610260919061205a565b6108c5565b005b610281600480360381019061027c9190612217565b6108e5565b60405161028e9190612a4d565b60405180910390f35b6102b160048036038101906102ac9190612217565b61097c565b6040516102be9190612809565b60405180910390f35b6102cf610a2e565b6040516102dc919061288b565b60405180910390f35b6102ff60048036038101906102fa9190611ff5565b610ac0565b60405161030c9190612a4d565b60405180910390f35b61031d610b7f565b005b61033960048036038101906103349190611ff5565b610cbc565b005b610343610d5a565b6040516103509190612809565b60405180910390f35b610361610d84565b60405161036e919061288b565b60405180910390f35b610391600480360381019061038c9190612124565b610e16565b005b6103ad60048036038101906103a891906120a9565b610f97565b005b6103c960048036038101906103c49190612217565b610ff9565b6040516103d6919061288b565b60405180910390f35b6103e761101b565b6040516103f4919061288b565b60405180910390f35b6104176004803603810190610412919061201e565b6110ad565b6040516104249190612870565b60405180910390f35b61044760048036038101906104429190611ff5565b6111af565b005b6000806000837bffffffffffffffffffffffffffffffffffffffffffffffffffffffff19167bffffffffffffffffffffffffffffffffffffffffffffffffffffffff1916815260200190815260200160002060009054906101000a900460ff169050919050565b6060600980546104bf90612cb9565b80601f01602080910402602001604051908101604052809291908181526020018280546104eb90612cb9565b80156105385780601f1061050d57610100808354040283529160200191610538565b820191906000526020600020905b81548152906001019060200180831161051b57829003601f168201915b5050505050905090565b600061054d8261135b565b61058c576040517f08c379a0000000000000000000000000000000000000000000000000000000008152600401610583906129ad565b60405180910390fd5b6002600083815260200190815260200160002060009054906101000a900473ffffffffffffffffffffffffffffffffffffffff169050919050565b60006105d28261097c565b90508073ffffffffffffffffffffffffffffffffffffffff168373ffffffffffffffffffffffffffffffffffffffff161415610643576040517f08c379a000000000000000000000000000000000000000000000000000000000815260040161063a906129ed565b60405180910390fd5b8073ffffffffffffffffffffffffffffffffffffffff166106626113cd565b73ffffffffffffffffffffffffffffffffffffffff16148061069157506106908161068b6113cd565b6110ad565b5b6106d0576040517f08c379a00000000000000000000000000000000000000000000000000000000081526004016106c79061294d565b60405180910390fd5b826002600084815260200190815260200160002060006101000a81548173ffffffffffffffffffffffffffffffffffffffff021916908373ffffffffffffffffffffffffffffffffffffffff160217905550818373ffffffffffffffffffffffffffffffffffffffff168273ffffffffffffffffffffffffffffffffffffffff167f8c5be1e5ebec7d5bd14f71427d1e84f3dd0314c0f7b2291e5b200ac8c7c3b92560405160405180910390a4505050565b6000600780549050905090565b6107a061079a6113cd565b826113d5565b6107df576040517f08c379a00000000000000000000000000000000000000000000000000000000081526004016107d690612a0d565b60405180910390fd5b6107ea8383836114b3565b505050565b60006107fa83610ac0565b821061083b576040517f08c379a0000000000000000000000000000000000000000000000000000000008152600401610832906128ad565b60405180910390fd5b600560008473ffffffffffffffffffffffffffffffffffffffff1673ffffffffffffffffffffffffffffffffffffffff16815260200190815260200160002082815481106108b2577f4e487b7100000000000000000000000000000000000000000000000000000000600052603260045260246000fd5b9060005260206000200154905092915050565b6108e083838360405180602001604052806000815250610f97565b505050565b60006108ef610782565b8210610930576040517f08c379a000000000000000000000000000000000000000000000000000000000815260040161092790612a2d565b60405180910390fd5b6007828154811061096a577f4e487b7100000000000000000000000000000000000000000000000000000000600052603260045260246000fd5b90600052602060002001549050919050565b6000806001600084815260200190815260200160002060009054906101000a900473ffffffffffffffffffffffffffffffffffffffff169050600073ffffffffffffffffffffffffffffffffffffffff168173ffffffffffffffffffffffffffffffffffffffff161415610a25576040517f08c379a0000000000000000000000000000000000000000000000000000000008152600401610a1c9061298d565b60405180910390fd5b80915050919050565b6060600b8054610a3d90612cb9565b80601f0160208091040260200160405190810160405280929190818152602001828054610a6990612cb9565b8015610ab65780601f10610a8b57610100808354040283529160200191610ab6565b820191906000526020600020905b815481529060010190602001808311610a9957829003601f168201915b5050505050905090565b60008073ffffffffffffffffffffffffffffffffffffffff168273ffffffffffffffffffffffffffffffffffffffff161415610b31576040517f08c379a0000000000000000000000000000000000000000000000000000000008152600401610b289061296d565b60405180910390fd5b610b78600360008473ffffffffffffffffffffffffffffffffffffffff1673ffffffffffffffffffffffffffffffffffffffff1681526020019081526020016000206114b8565b9050919050565b610b876113cd565b73ffffffffffffffffffffffffffffffffffffffff16610ba5610d5a565b73ffffffffffffffffffffffffffffffffffffffff1614610bfb576040517f08c379a0000000000000000000000000000000000000000000000000000000008152600401610bf2906129cd565b60405180910390fd5b600073ffffffffffffffffffffffffffffffffffffffff16600d60009054906101000a900473ffffffffffffffffffffffffffffffffffffffff1673ffffffffffffffffffffffffffffffffffffffff167f8be0079c531659141344cd1fd0a4f28419497f9722a3daafe3b4186f6b6457e060405160405180910390a36000600d60006101000a81548173ffffffffffffffffffffffffffffffffffffffff021916908373ffffffffffffffffffffffffffffffffffffffff160217905550565b610cc46113cd565b73ffffffffffffffffffffffffffffffffffffffff16610ce2610d5a565b73ffffffffffffffffffffffffffffffffffffffff1614610d38576040517f08c379a0000000000000000000000000000000000000000000000000000000008152600401610d2f906129cd565b60405180910390fd5b6000610d426114c6565b9050610d4e82826114e3565b610d566114e7565b5050565b6000600d60009054906101000a900473ffffffffffffffffffffffffffffffffffffffff16905090565b6060600a8054610d9390612cb9565b80601f0160208091040260200160405190810160405280929190818152602001828054610dbf90612cb9565b8015610e0c5780601f10610de157610100808354040283529160200191610e0c565b820191906000526020600020905b815481529060010190602001808311610def57829003601f168201915b5050505050905090565b610e1e6113cd565b73ffffffffffffffffffffffffffffffffffffffff168273ffffffffffffffffffffffffffffffffffffffff161415610e8c576040517f08c379a0000000000000000000000000000000000000000000000000000000008152600401610e839061290d565b60405180910390fd5b8060046000610e996113cd565b73ffffffffffffffffffffffffffffffffffffffff1673ffffffffffffffffffffffffffffffffffffffff16815260200190815260200160002060008473ffffffffffffffffffffffffffffffffffffffff1673ffffffffffffffffffffffffffffffffffffffff16815260200190815260200160002060006101000a81548160ff0219169083151502179055508173ffffffffffffffffffffffffffffffffffffffff16610f466113cd565b73ffffffffffffffffffffffffffffffffffffffff167f17307eab39ab6107e8899845ad3d59bd9653f200f220920489ca2b5937696c3183604051610f8b9190612870565b60405180910390a35050565b610fa8610fa26113cd565b836113d5565b610fe7576040517f08c379a0000000000000000000000000000000000000000000000000000000008152600401610fde90612a0d565b60405180910390fd5b610ff384848484611501565b50505050565b606061101461100661101b565b61100f8461155d565b611719565b9050919050565b60606010805461102a90612cb9565b80601f016020809104026020016040519081016040528092919081815260200182805461105690612cb9565b80156110a35780601f10611078576101008083540402835291602001916110a3565b820191906000526020600020905b81548152906001019060200180831161108657829003601f168201915b5050505050905090565b600080600e60009054906101000a900473ffffffffffffffffffffffffffffffffffffffff1690508273ffffffffffffffffffffffffffffffffffffffff168173ffffffffffffffffffffffffffffffffffffffff1663c4552791866040518263ffffffff1660e01b81526004016111259190612809565b60206040518083038186803b15801561113d57600080fd5b505afa158015611151573d6000803e3d6000fd5b505050506040513d601f19601f8201168201806040525081019061117591906121ee565b73ffffffffffffffffffffffffffffffffffffffff16141561119b5760019150506111a9565b6111a5848461175d565b9150505b92915050565b6111b76113cd565b73ffffffffffffffffffffffffffffffffffffffff166111d5610d5a565b73ffffffffffffffffffffffffffffffffffffffff161461122b576040517f08c379a0000000000000000000000000000000000000000000000000000000008152600401611222906129cd565b60405180910390fd5b600073ffffffffffffffffffffffffffffffffffffffff168173ffffffffffffffffffffffffffffffffffffffff16141561129b576040517f08c379a0000000000000000000000000000000000000000000000000000000008152600401611292906128ed565b60405180910390fd5b8073ffffffffffffffffffffffffffffffffffffffff16600d60009054906101000a900473ffffffffffffffffffffffffffffffffffffffff1673ffffffffffffffffffffffffffffffffffffffff167f8be0079c531659141344cd1fd0a4f28419497f9722a3daafe3b4186f6b6457e060405160405180910390a380600d60006101000a81548173ffffffffffffffffffffffffffffffffffffffff021916908373ffffffffffffffffffffffffffffffffffffffff16021790555050565b6000806001600084815260200190815260200160002060009054906101000a900473ffffffffffffffffffffffffffffffffffffffff169050600073ffffffffffffffffffffffffffffffffffffffff168173ffffffffffffffffffffffffffffffffffffffff161415915050919050565b600033905090565b60006113e08261135b565b61141f576040517f08c379a00000000000000000000000000000000000000000000000000000000081526004016114169061292d565b60405180910390fd5b600061142a8361097c565b90508073ffffffffffffffffffffffffffffffffffffffff168473ffffffffffffffffffffffffffffffffffffffff16148061149957508373ffffffffffffffffffffffffffffffffffffffff1661148184610542565b73ffffffffffffffffffffffffffffffffffffffff16145b806114aa57506114a981856110ad565b5b91505092915050565b505050565b600081600001549050919050565b60006114de6001600f546117f190919063ffffffff16565b905090565b5050565b600f60008154809291906114fa90612ceb565b9190505550565b61150c8484846114b3565b61151884848484611807565b611557576040517f08c379a000000000000000000000000000000000000000000000000000000000815260040161154e906128cd565b60405180910390fd5b50505050565b606060008214156115a5576040518060400160405280600181526020017f30000000000000000000000000000000000000000000000000000000000000008152509050611714565b600082905060005b600082146115d75780806115c090612ceb565b915050600a826115d09190612b62565b91506115ad565b60008167ffffffffffffffff811115611619577f4e487b7100000000000000000000000000000000000000000000000000000000600052604160045260246000fd5b6040519080825280601f01601f19166020018201604052801561164b5781602001600182028036833780820191505090505b509050600060018361165d9190612b93565b90505b6000861461170c57600a866116759190612d34565b60306116819190612b0c565b60f81b82828061169090612c8f565b9350815181106116c9577f4e487b7100000000000000000000000000000000000000000000000000000000600052603260045260246000fd5b60200101907effffffffffffffffffffffffffffffffffffffffffffffffffffffffffffff1916908160001a905350600a866117059190612b62565b9550611660565b819450505050505b919050565b606061175583836040518060200160405280600081525060405180602001604052806000815250604051806020016040528060008152506119e7565b905092915050565b6000600460008473ffffffffffffffffffffffffffffffffffffffff1673ffffffffffffffffffffffffffffffffffffffff16815260200190815260200160002060008373ffffffffffffffffffffffffffffffffffffffff1673ffffffffffffffffffffffffffffffffffffffff16815260200190815260200160002060009054906101000a900460ff16905092915050565b600081836117ff9190612b0c565b905092915050565b60006118288473ffffffffffffffffffffffffffffffffffffffff16611efc565b61183557600190506119df565b6000808573ffffffffffffffffffffffffffffffffffffffff1663150b7a0260e01b61185f6113cd565b8988886040516024016118759493929190612824565b604051602081830303815290604052907bffffffffffffffffffffffffffffffffffffffffffffffffffffffff19166020820180517bffffffffffffffffffffffffffffffffffffffffffffffffffffffff83818316178352505050506040516118df91906127f2565b6000604051808303816000865af19150503d806000811461191c576040519150601f19603f3d011682016040523d82523d6000602084013e611921565b606091505b5091509150816119795760008151111561193e5780518082602001fd5b6040517f08c379a0000000000000000000000000000000000000000000000000000000008152600401611970906128cd565b60405180910390fd5b60008180602001905181019061198f91906121c5565b905063150b7a0260e01b7bffffffffffffffffffffffffffffffffffffffffffffffffffffffff1916817bffffffffffffffffffffffffffffffffffffffffffffffffffffffff19161493505050505b949350505050565b606060008690506000869050600086905060008690506000869050600081518351855187518951611a189190612b0c565b611a229190612b0c565b611a2c9190612b0c565b611a369190612b0c565b67ffffffffffffffff811115611a75577f4e487b7100000000000000000000000000000000000000000000000000000000600052604160045260246000fd5b6040519080825280601f01601f191660200182016040528015611aa75781602001600182028036833780820191505090505b50905060008190506000805b8851811015611b8757888181518110611af5577f4e487b7100000000000000000000000000000000000000000000000000000000600052603260045260246000fd5b602001015160f81c60f81b838380611b0c90612ceb565b945081518110611b45577f4e487b7100000000000000000000000000000000000000000000000000000000600052603260045260246000fd5b60200101907effffffffffffffffffffffffffffffffffffffffffffffffffffffffffffff1916908160001a9053508080611b7f90612ceb565b915050611ab3565b5060005b8751811015611c5f57878181518110611bcd577f4e487b7100000000000000000000000000000000000000000000000000000000600052603260045260246000fd5b602001015160f81c60f81b838380611be490612ceb565b945081518110611c1d577f4e487b7100000000000000000000000000000000000000000000000000000000600052603260045260246000fd5b60200101907effffffffffffffffffffffffffffffffffffffffffffffffffffffffffffff1916908160001a9053508080611c5790612ceb565b915050611b8b565b5060005b8651811015611d3757868181518110611ca5577f4e487b7100000000000000000000000000000000000000000000000000000000600052603260045260246000fd5b602001015160f81c60f81b838380611cbc90612ceb565b945081518110611cf5577f4e487b7100000000000000000000000000000000000000000000000000000000600052603260045260246000fd5b60200101907effffffffffffffffffffffffffffffffffffffffffffffffffffffffffffff1916908160001a9053508080611d2f90612ceb565b915050611c63565b5060005b8551811015611e0f57858181518110611d7d577f4e487b7100000000000000000000000000000000000000000000000000000000600052603260045260246000fd5b602001015160f81c60f81b838380611d9490612ceb565b945081518110611dcd577f4e487b7100000000000000000000000000000000000000000000000000000000600052603260045260246000fd5b60200101907effffffffffffffffffffffffffffffffffffffffffffffffffffffffffffff1916908160001a9053508080611e0790612ceb565b915050611d3b565b5060005b8451811015611ee757848181518110611e55577f4e487b7100000000000000000000000000000000000000000000000000000000600052603260045260246000fd5b602001015160f81c60f81b838380611e6c90612ceb565b945081518110611ea5577f4e487b7100000000000000000000000000000000000000000000000000000000600052603260045260246000fd5b60200101907effffffffffffffffffffffffffffffffffffffffffffffffffffffffffffff1916908160001a9053508080611edf90612ceb565b915050611e13565b50819850505050505050505095945050505050565b600080823b905060008111915050919050565b6000611f22611f1d84612a99565b612a68565b905082815260208101848484011115611f3a57600080fd5b611f45848285612c4d565b509392505050565b600081359050611f5c81612e32565b92915050565b600081359050611f7181612e49565b92915050565b600081359050611f8681612e60565b92915050565b600081519050611f9b81612e60565b92915050565b600082601f830112611fb257600080fd5b8135611fc2848260208601611f0f565b91505092915050565b600081519050611fda81612e77565b92915050565b600081359050611fef81612e8e565b92915050565b60006020828403121561200757600080fd5b600061201584828501611f4d565b91505092915050565b6000806040838503121561203157600080fd5b600061203f85828601611f4d565b925050602061205085828601611f4d565b9150509250929050565b60008060006060848603121561206f57600080fd5b600061207d86828701611f4d565b935050602061208e86828701611f4d565b925050604061209f86828701611fe0565b9150509250925092565b600080600080608085870312156120bf57600080fd5b60006120cd87828801611f4d565b94505060206120de87828801611f4d565b93505060406120ef87828801611fe0565b925050606085013567ffffffffffffffff81111561210c57600080fd5b61211887828801611fa1565b91505092959194509250565b6000806040838503121561213757600080fd5b600061214585828601611f4d565b925050602061215685828601611f62565b9150509250929050565b6000806040838503121561217357600080fd5b600061218185828601611f4d565b925050602061219285828601611fe0565b9150509250929050565b6000602082840312156121ae57600080fd5b60006121bc84828501611f77565b91505092915050565b6000602082840312156121d757600080fd5b60006121e584828501611f8c565b91505092915050565b60006020828403121561220057600080fd5b600061220e84828501611fcb565b91505092915050565b60006020828403121561222957600080fd5b600061223784828501611fe0565b91505092915050565b61224981612bc7565b82525050565b61225881612bd9565b82525050565b600061226982612ac9565b6122738185612adf565b9350612283818560208601612c5c565b61228c81612e21565b840191505092915050565b60006122a282612ac9565b6122ac8185612af0565b93506122bc818560208601612c5c565b80840191505092915050565b60006122d382612ad4565b6122dd8185612afb565b93506122ed818560208601612c5c565b6122f681612e21565b840191505092915050565b600061230e602b83612afb565b91507f455243373231456e756d657261626c653a206f776e657220696e646578206f7560008301527f74206f6620626f756e64730000000000000000000000000000000000000000006020830152604082019050919050565b6000612374603283612afb565b91507f4552433732313a207472616e7366657220746f206e6f6e20455243373231526560008301527f63656976657220696d706c656d656e74657200000000000000000000000000006020830152604082019050919050565b60006123da602683612afb565b91507f4f776e61626c653a206e6577206f776e657220697320746865207a65726f206160008301527f64647265737300000000000000000000000000000000000000000000000000006020830152604082019050919050565b6000612440601983612afb565b91507f4552433732313a20617070726f766520746f2063616c6c6572000000000000006000830152602082019050919050565b6000612480602c83612afb565b91507f4552433732313a206f70657261746f7220717565727920666f72206e6f6e657860008301527f697374656e7420746f6b656e00000000000000000000000000000000000000006020830152604082019050919050565b60006124e6603883612afb565b91507f4552433732313a20617070726f76652063616c6c6572206973206e6f74206f7760008301527f6e6572206e6f7220617070726f76656420666f7220616c6c00000000000000006020830152604082019050919050565b600061254c602a83612afb565b91507f4552433732313a2062616c616e636520717565727920666f7220746865207a6560008301527f726f2061646472657373000000000000000000000000000000000000000000006020830152604082019050919050565b60006125b2602983612afb565b91507f4552433732313a206f776e657220717565727920666f72206e6f6e657869737460008301527f656e7420746f6b656e00000000000000000000000000000000000000000000006020830152604082019050919050565b6000612618602c83612afb565b91507f4552433732313a20617070726f76656420717565727920666f72206e6f6e657860008301527f697374656e7420746f6b656e00000000000000000000000000000000000000006020830152604082019050919050565b600061267e602083612afb565b91507f4f776e61626c653a2063616c6c6572206973206e6f7420746865206f776e65726000830152602082019050919050565b60006126be602183612afb565b91507f4552433732313a20617070726f76616c20746f2063757272656e74206f776e6560008301527f72000000000000000000000000000000000000000000000000000000000000006020830152604082019050919050565b6000612724603183612afb565b91507f4552433732313a207472616e736665722063616c6c6572206973206e6f74206f60008301527f776e6572206e6f7220617070726f7665640000000000000000000000000000006020830152604082019050919050565b600061278a602c83612afb565b91507f455243373231456e756d657261626c653a20676c6f62616c20696e646578206f60008301527f7574206f6620626f756e647300000000000000000000000000000000000000006020830152604082019050919050565b6127ec81612c43565b82525050565b60006127fe8284612297565b915081905092915050565b600060208201905061281e6000830184612240565b92915050565b60006080820190506128396000830187612240565b6128466020830186612240565b61285360408301856127e3565b8181036060830152612865818461225e565b905095945050505050565b6000602082019050612885600083018461224f565b92915050565b600060208201905081810360008301526128a581846122c8565b905092915050565b600060208201905081810360008301526128c681612301565b9050919050565b600060208201905081810360008301526128e681612367565b9050919050565b60006020820190508181036000830152612906816123cd565b9050919050565b6000602082019050818103600083015261292681612433565b9050919050565b6000602082019050818103600083015261294681612473565b9050919050565b60006020820190508181036000830152612966816124d9565b9050919050565b600060208201905081810360008301526129868161253f565b9050919050565b600060208201905081810360008301526129a6816125a5565b9050919050565b600060208201905081810360008301526129c68161260b565b9050919050565b600060208201905081810360008301526129e681612671565b9050919050565b60006020820190508181036000830152612a06816126b1565b9050919050565b60006020820190508181036000830152612a2681612717565b9050919050565b60006020820190508181036000830152612a468161277d565b9050919050565b6000602082019050612a6260008301846127e3565b92915050565b6000604051905081810181811067ffffffffffffffff82111715612a8f57612a8e612df2565b5b8060405250919050565b600067ffffffffffffffff821115612ab457612ab3612df2565b5b601f19601f8301169050602081019050919050565b600081519050919050565b600081519050919050565b600082825260208201905092915050565b600081905092915050565b600082825260208201905092915050565b6000612b1782612c43565b9150612b2283612c43565b9250827fffffffffffffffffffffffffffffffffffffffffffffffffffffffffffffffff03821115612b5757612b56612d65565b5b828201905092915050565b6000612b6d82612c43565b9150612b7883612c43565b925082612b8857612b87612d94565b5b828204905092915050565b6000612b9e82612c43565b9150612ba983612c43565b925082821015612bbc57612bbb612d65565b5b828203905092915050565b6000612bd282612c23565b9050919050565b60008115159050919050565b60007fffffffff0000000000000000000000000000000000000000000000000000000082169050919050565b6000612c1c82612bc7565b9050919050565b600073ffffffffffffffffffffffffffffffffffffffff82169050919050565b6000819050919050565b82818337600083830152505050565b60005b83811015612c7a578082015181840152602081019050612c5f565b83811115612c89576000848401525b50505050565b6000612c9a82612c43565b91506000821415612cae57612cad612d65565b5b600182039050919050565b60006002820490506001821680612cd157607f821691505b60208210811415612ce557612ce4612dc3565b5b50919050565b6000612cf682612c43565b91507fffffffffffffffffffffffffffffffffffffffffffffffffffffffffffffffff821415612d2957612d28612d65565b5b600182019050919050565b6000612d3f82612c43565b9150612d4a83612c43565b925082612d5a57612d59612d94565b5b828206905092915050565b7f4e487b7100000000000000000000000000000000000000000000000000000000600052601160045260246000fd5b7f4e487b7100000000000000000000000000000000000000000000000000000000600052601260045260246000fd5b7f4e487b7100000000000000000000000000000000000000000000000000000000600052602260045260246000fd5b7f4e487b7100000000000000000000000000000000000000000000000000000000600052604160045260246000fd5b6000601f19601f8301169050919050565b612e3b81612bc7565b8114612e4657600080fd5b50565b612e5281612bd9565b8114612e5d57600080fd5b50565b612e6981612be5565b8114612e7457600080fd5b50565b612e8081612c11565b8114612e8b57600080fd5b50565b612e9781612c43565b8114612ea257600080fd5b5056fea264697066735822122032d6556b49773e95d06aae08b43a8a778b2004c29950f40cb11fe91dbfece5c064736f6c63430008000033",
  "immutableReferences": {},
  "source": "\n// SPDX-License-Identifier: MIT\npragma solidity >=0.5.11 <0.9.0;\n\n\nimport \"./ERC721Tradable.sol\";\n\n/**\n * @title Creature\n * Creature - a contract for my non-fungible creatures.\n */\ncontract LogicReptileToken is ERC721Tradable {    \n\n    constructor(string memory name_, string memory symbol_, address proxyRegistryAddress_)\n        ERC721Tradable(name_,symbol_, proxyRegistryAddress_)\n    {}\n}",
  "sourcePath": "/Users/dennismacpro/Projects/Defi/Ethereum-Solidity-Collection/nft-kit/contracts/logicreptile/LogicReptile.sol",
  "compiler": {
    "name": "solc",
    "version": "0.8.0+commit.c7dfd78e.Darwin.appleclang"
  },
  "schemaVersion": "3.3.4",
  "updatedAt": "2021-03-09T02:07:49.672Z",
  "devdoc": {
    "kind": "dev",
    "methods": {
      "approve(address,uint256)": {
        "details": "Approves another address to transfer the given token ID The zero address indicates there is no approved address. There can only be one approved address per token at a given time. Can only be called by the token owner or an approved operator.",
        "params": {
          "to": "address to be approved for the given token ID",
          "tokenId": "uint256 ID of the token to be approved"
        }
      },
      "balanceOf(address)": {
        "details": "Gets the balance of the specified address.",
        "params": {
          "owner": "address to query the balance of"
        },
        "returns": {
          "_0": "uint256 representing the amount owned by the passed address"
        }
      },
      "baseURI()": {
        "details": "Returns the base URI set via {_setBaseURI}. This will be automatically added as a preffix in {tokenURI} to each token's URI, when they are non-empty. _Available since v2.5.0._"
      },
      "getApproved(uint256)": {
        "details": "Gets the approved address for a token ID, or zero if no address set Reverts if the token ID does not exist.",
        "params": {
          "tokenId": "uint256 ID of the token to query the approval of"
        },
        "returns": {
          "_0": "address currently approved for the given token ID"
        }
      },
      "mintTo(address)": {
        "details": "Mints a token to an address with a tokenURI.",
        "params": {
          "_to": "address of the future owner of the token"
        }
      },
      "name()": {
        "details": "Gets the token name.",
        "returns": {
          "_0": "string representing the token name"
        }
      },
      "owner()": {
        "details": "Returns the address of the current owner."
      },
      "ownerOf(uint256)": {
        "details": "Gets the owner of the specified token ID.",
        "params": {
          "tokenId": "uint256 ID of the token to query the owner of"
        },
        "returns": {
          "_0": "address currently marked as the owner of the given token ID"
        }
      },
      "renounceOwnership()": {
        "details": "Leaves the contract without owner. It will not be possible to call `onlyOwner` functions anymore. Can only be called by the current owner. NOTE: Renouncing ownership will leave the contract without an owner, thereby removing any functionality that is only available to the owner."
      },
      "safeTransferFrom(address,address,uint256)": {
        "details": "Safely transfers the ownership of a given token ID to another address If the target address is a contract, it must implement {IERC721Receiver-onERC721Received}, which is called upon a safe transfer, and return the magic value `bytes4(keccak256(\"onERC721Received(address,address,uint256,bytes)\"))`; otherwise, the transfer is reverted. Requires the msg.sender to be the owner, approved, or operator",
        "params": {
          "from": "current owner of the token",
          "to": "address to receive the ownership of the given token ID",
          "tokenId": "uint256 ID of the token to be transferred"
        }
      },
      "safeTransferFrom(address,address,uint256,bytes)": {
        "details": "Safely transfers the ownership of a given token ID to another address If the target address is a contract, it must implement {IERC721Receiver-onERC721Received}, which is called upon a safe transfer, and return the magic value `bytes4(keccak256(\"onERC721Received(address,address,uint256,bytes)\"))`; otherwise, the transfer is reverted. Requires the _msgSender() to be the owner, approved, or operator",
        "params": {
          "_data": "bytes data to send along with a safe transfer check",
          "from": "current owner of the token",
          "to": "address to receive the ownership of the given token ID",
          "tokenId": "uint256 ID of the token to be transferred"
        }
      },
      "setApprovalForAll(address,bool)": {
        "details": "Sets or unsets the approval of a given operator An operator is allowed to transfer all tokens of the sender on their behalf.",
        "params": {
          "approved": "representing the status of the approval to be set",
          "to": "operator address to set the approval"
        }
      },
      "supportsInterface(bytes4)": {
        "details": "See {IERC165-supportsInterface}. Time complexity O(1), guaranteed to always use less than 30 000 gas."
      },
      "symbol()": {
        "details": "Gets the token symbol.",
        "returns": {
          "_0": "string representing the token symbol"
        }
      },
      "tokenByIndex(uint256)": {
        "details": "Gets the token ID at a given index of all the tokens in this contract Reverts if the index is greater or equal to the total number of tokens.",
        "params": {
          "index": "uint256 representing the index to be accessed of the tokens list"
        },
        "returns": {
          "_0": "uint256 token ID at the given index of the tokens list"
        }
      },
      "tokenOfOwnerByIndex(address,uint256)": {
        "details": "Gets the token ID at a given index of the tokens list of the requested owner.",
        "params": {
          "index": "uint256 representing the index to be accessed of the requested tokens list",
          "owner": "address owning the tokens list to be accessed"
        },
        "returns": {
          "_0": "uint256 token ID at the given index of the tokens list owned by the requested address"
        }
      },
      "totalSupply()": {
        "details": "Gets the total amount of tokens stored by the contract.",
        "returns": {
          "_0": "uint256 representing the total amount of tokens"
        }
      },
      "transferFrom(address,address,uint256)": {
        "details": "Transfers the ownership of a given token ID to another address. Usage of this method is discouraged, use {safeTransferFrom} whenever possible. Requires the msg.sender to be the owner, approved, or operator.",
        "params": {
          "from": "current owner of the token",
          "to": "address to receive the ownership of the given token ID",
          "tokenId": "uint256 ID of the token to be transferred"
        }
      },
      "transferOwnership(address)": {
        "details": "Transfers ownership of the contract to a new account (`newOwner`). Can only be called by the current owner."
      }
    },
    "title": "Creature Creature - a contract for my non-fungible creatures.",
    "version": 1
  },
  "userdoc": {
    "kind": "user",
    "methods": {
      "isApprovedForAll(address,address)": {
        "notice": "Override isApprovedForAll to whitelist user's OpenSea proxy accounts to enable gas-less listings."
      }
    },
    "version": 1
  }
}