{
  "contractName": "TradeableERC721Token",
  "abi": [
    {
      "inputs": [
        {
          "internalType": "string",
          "name": "_name",
          "type": "string"
        },
        {
          "internalType": "string",
          "name": "_symbol",
          "type": "string"
        },
        {
          "internalType": "address",
          "name": "_proxyRegistryAddress",
          "type": "address"
        }
      ],
      "stateMutability": "nonpayable",
      "type": "constructor"
    },
    {
      "anonymous": false,
      "inputs": [
        {
          "indexed": true,
          "internalType": "address",
          "name": "owner",
          "type": "address"
        },
        {
          "indexed": true,
          "internalType": "address",
          "name": "approved",
          "type": "address"
        },
        {
          "indexed": true,
          "internalType": "uint256",
          "name": "tokenId",
          "type": "uint256"
        }
      ],
      "name": "Approval",
      "type": "event"
    },
    {
      "anonymous": false,
      "inputs": [
        {
          "indexed": true,
          "internalType": "address",
          "name": "owner",
          "type": "address"
        },
        {
          "indexed": true,
          "internalType": "address",
          "name": "operator",
          "type": "address"
        },
        {
          "indexed": false,
          "internalType": "bool",
          "name": "approved",
          "type": "bool"
        }
      ],
      "name": "ApprovalForAll",
      "type": "event"
    },
    {
      "anonymous": false,
      "inputs": [
        {
          "indexed": true,
          "internalType": "address",
          "name": "previousOwner",
          "type": "address"
        },
        {
          "indexed": true,
          "internalType": "address",
          "name": "newOwner",
          "type": "address"
        }
      ],
      "name": "OwnershipTransferred",
      "type": "event"
    },
    {
      "anonymous": false,
      "inputs": [
        {
          "indexed": true,
          "internalType": "address",
          "name": "from",
          "type": "address"
        },
        {
          "indexed": true,
          "internalType": "address",
          "name": "to",
          "type": "address"
        },
        {
          "indexed": true,
          "internalType": "uint256",
          "name": "tokenId",
          "type": "uint256"
        }
      ],
      "name": "Transfer",
      "type": "event"
    },
    {
      "inputs": [
        {
          "internalType": "address",
          "name": "to",
          "type": "address"
        },
        {
          "internalType": "uint256",
          "name": "tokenId",
          "type": "uint256"
        }
      ],
      "name": "approve",
      "outputs": [],
      "stateMutability": "nonpayable",
      "type": "function"
    },
    {
      "inputs": [
        {
          "internalType": "address",
          "name": "owner",
          "type": "address"
        }
      ],
      "name": "balanceOf",
      "outputs": [
        {
          "internalType": "uint256",
          "name": "",
          "type": "uint256"
        }
      ],
      "stateMutability": "view",
      "type": "function",
      "constant": true
    },
    {
      "inputs": [
        {
          "internalType": "uint256",
          "name": "tokenId",
          "type": "uint256"
        }
      ],
      "name": "getApproved",
      "outputs": [
        {
          "internalType": "address",
          "name": "",
          "type": "address"
        }
      ],
      "stateMutability": "view",
      "type": "function",
      "constant": true
    },
    {
      "inputs": [
        {
          "internalType": "address",
          "name": "owner",
          "type": "address"
        },
        {
          "internalType": "address",
          "name": "operator",
          "type": "address"
        }
      ],
      "name": "isApprovedForAll",
      "outputs": [
        {
          "internalType": "bool",
          "name": "",
          "type": "bool"
        }
      ],
      "stateMutability": "view",
      "type": "function",
      "constant": true
    },
    {
      "inputs": [],
      "name": "name",
      "outputs": [
        {
          "internalType": "string",
          "name": "",
          "type": "string"
        }
      ],
      "stateMutability": "view",
      "type": "function",
      "constant": true
    },
    {
      "inputs": [],
      "name": "owner",
      "outputs": [
        {
          "internalType": "address",
          "name": "",
          "type": "address"
        }
      ],
      "stateMutability": "view",
      "type": "function",
      "constant": true
    },
    {
      "inputs": [
        {
          "internalType": "uint256",
          "name": "tokenId",
          "type": "uint256"
        }
      ],
      "name": "ownerOf",
      "outputs": [
        {
          "internalType": "address",
          "name": "",
          "type": "address"
        }
      ],
      "stateMutability": "view",
      "type": "function",
      "constant": true
    },
    {
      "inputs": [],
      "name": "renounceOwnership",
      "outputs": [],
      "stateMutability": "nonpayable",
      "type": "function"
    },
    {
      "inputs": [
        {
          "internalType": "address",
          "name": "from",
          "type": "address"
        },
        {
          "internalType": "address",
          "name": "to",
          "type": "address"
        },
        {
          "internalType": "uint256",
          "name": "tokenId",
          "type": "uint256"
        }
      ],
      "name": "safeTransferFrom",
      "outputs": [],
      "stateMutability": "nonpayable",
      "type": "function"
    },
    {
      "inputs": [
        {
          "internalType": "address",
          "name": "from",
          "type": "address"
        },
        {
          "internalType": "address",
          "name": "to",
          "type": "address"
        },
        {
          "internalType": "uint256",
          "name": "tokenId",
          "type": "uint256"
        },
        {
          "internalType": "bytes",
          "name": "_data",
          "type": "bytes"
        }
      ],
      "name": "safeTransferFrom",
      "outputs": [],
      "stateMutability": "nonpayable",
      "type": "function"
    },
    {
      "inputs": [
        {
          "internalType": "address",
          "name": "operator",
          "type": "address"
        },
        {
          "internalType": "bool",
          "name": "approved",
          "type": "bool"
        }
      ],
      "name": "setApprovalForAll",
      "outputs": [],
      "stateMutability": "nonpayable",
      "type": "function"
    },
    {
      "inputs": [
        {
          "internalType": "bytes4",
          "name": "interfaceId",
          "type": "bytes4"
        }
      ],
      "name": "supportsInterface",
      "outputs": [
        {
          "internalType": "bool",
          "name": "",
          "type": "bool"
        }
      ],
      "stateMutability": "view",
      "type": "function",
      "constant": true
    },
    {
      "inputs": [],
      "name": "symbol",
      "outputs": [
        {
          "internalType": "string",
          "name": "",
          "type": "string"
        }
      ],
      "stateMutability": "view",
      "type": "function",
      "constant": true
    },
    {
      "inputs": [
        {
          "internalType": "uint256",
          "name": "tokenId",
          "type": "uint256"
        }
      ],
      "name": "tokenURI",
      "outputs": [
        {
          "internalType": "string",
          "name": "",
          "type": "string"
        }
      ],
      "stateMutability": "view",
      "type": "function",
      "constant": true
    },
    {
      "inputs": [
        {
          "internalType": "address",
          "name": "from",
          "type": "address"
        },
        {
          "internalType": "address",
          "name": "to",
          "type": "address"
        },
        {
          "internalType": "uint256",
          "name": "tokenId",
          "type": "uint256"
        }
      ],
      "name": "transferFrom",
      "outputs": [],
      "stateMutability": "nonpayable",
      "type": "function"
    },
    {
      "inputs": [
        {
          "internalType": "address",
          "name": "newOwner",
          "type": "address"
        }
      ],
      "name": "transferOwnership",
      "outputs": [],
      "stateMutability": "nonpayable",
      "type": "function"
    },
    {
      "inputs": [],
      "name": "baseTokenURI",
      "outputs": [
        {
          "internalType": "string",
          "name": "",
          "type": "string"
        }
      ],
      "stateMutability": "pure",
      "type": "function",
      "constant": true
    }
  ],
  "bytecode": "0x60806040523480156200001157600080fd5b5060405162002ccf38038062002ccf8339818101604052810190620000379190620002a9565b828281600090805190602001906200005192919062000170565b5080600190805190602001906200006a92919062000170565b50505060006200007f6200016860201b60201c565b905080600660006101000a81548173ffffffffffffffffffffffffffffffffffffffff021916908373ffffffffffffffffffffffffffffffffffffffff1602179055508073ffffffffffffffffffffffffffffffffffffffff16600073ffffffffffffffffffffffffffffffffffffffff167f8be0079c531659141344cd1fd0a4f28419497f9722a3daafe3b4186f6b6457e060405160405180910390a35080600760006101000a81548173ffffffffffffffffffffffffffffffffffffffff021916908373ffffffffffffffffffffffffffffffffffffffff160217905550505050620004b0565b600033905090565b8280546200017e9062000402565b90600052602060002090601f016020900481019282620001a25760008555620001ee565b82601f10620001bd57805160ff1916838001178555620001ee565b82800160010185558215620001ee579182015b82811115620001ed578251825591602001919060010190620001d0565b5b509050620001fd919062000201565b5090565b5b808211156200021c57600081600090555060010162000202565b5090565b600062000237620002318462000365565b62000331565b9050828152602081018484840111156200025057600080fd5b6200025d848285620003cc565b509392505050565b600081519050620002768162000496565b92915050565b600082601f8301126200028e57600080fd5b8151620002a084826020860162000220565b91505092915050565b600080600060608486031215620002bf57600080fd5b600084015167ffffffffffffffff811115620002da57600080fd5b620002e8868287016200027c565b935050602084015167ffffffffffffffff8111156200030657600080fd5b62000314868287016200027c565b9250506040620003278682870162000265565b9150509250925092565b6000604051905081810181811067ffffffffffffffff821117156200035b576200035a62000467565b5b8060405250919050565b600067ffffffffffffffff82111562000383576200038262000467565b5b601f19601f8301169050602081019050919050565b6000620003a582620003ac565b9050919050565b600073ffffffffffffffffffffffffffffffffffffffff82169050919050565b60005b83811015620003ec578082015181840152602081019050620003cf565b83811115620003fc576000848401525b50505050565b600060028204905060018216806200041b57607f821691505b6020821081141562000432576200043162000438565b5b50919050565b7f4e487b7100000000000000000000000000000000000000000000000000000000600052602260045260246000fd5b7f4e487b7100000000000000000000000000000000000000000000000000000000600052604160045260246000fd5b620004a18162000398565b8114620004ad57600080fd5b50565b61280f80620004c06000396000f3fe608060405234801561001057600080fd5b506004361061010b5760003560e01c8063715018a6116100a2578063b88d4fde11610071578063b88d4fde146102a4578063c87b56dd146102c0578063d547cfb7146102f0578063e985e9c51461030e578063f2fde38b1461033e5761010b565b8063715018a6146102425780638da5cb5b1461024c57806395d89b411461026a578063a22cb465146102885761010b565b806323b872dd116100de57806323b872dd146101aa57806342842e0e146101c65780636352211e146101e257806370a08231146102125761010b565b806301ffc9a71461011057806306fdde0314610140578063081812fc1461015e578063095ea7b31461018e575b600080fd5b61012a60048036038101906101259190611a50565b61035a565b604051610137919061216e565b60405180910390f35b61014861043c565b6040516101559190612189565b60405180910390f35b61017860048036038101906101739190611aa2565b6104ce565b6040516101859190612107565b60405180910390f35b6101a860048036038101906101a39190611a14565b610553565b005b6101c460048036038101906101bf919061190e565b61066b565b005b6101e060048036038101906101db919061190e565b6106cb565b005b6101fc60048036038101906101f79190611aa2565b6106eb565b6040516102099190612107565b60405180910390f35b61022c600480360381019061022791906118a9565b61079d565b604051610239919061236b565b60405180910390f35b61024a610855565b005b610254610992565b6040516102619190612107565b60405180910390f35b6102726109bc565b60405161027f9190612189565b60405180910390f35b6102a2600480360381019061029d91906119d8565b610a4e565b005b6102be60048036038101906102b9919061195d565b610bcf565b005b6102da60048036038101906102d59190611aa2565b610c31565b6040516102e79190612189565b60405180910390f35b6102f8610cd8565b6040516103059190612189565b60405180910390f35b610328600480360381019061032391906118d2565b610cf8565b604051610335919061216e565b60405180910390f35b610358600480360381019061035391906118a9565b610d8c565b005b60007f80ac58cd000000000000000000000000000000000000000000000000000000007bffffffffffffffffffffffffffffffffffffffffffffffffffffffff1916827bffffffffffffffffffffffffffffffffffffffffffffffffffffffff1916148061042557507f5b5e139f000000000000000000000000000000000000000000000000000000007bffffffffffffffffffffffffffffffffffffffffffffffffffffffff1916827bffffffffffffffffffffffffffffffffffffffffffffffffffffffff1916145b80610435575061043482610f38565b5b9050919050565b60606000805461044b9061259b565b80601f01602080910402602001604051908101604052809291908181526020018280546104779061259b565b80156104c45780601f10610499576101008083540402835291602001916104c4565b820191906000526020600020905b8154815290600101906020018083116104a757829003601f168201915b5050505050905090565b60006104d982610fa2565b610518576040517f08c379a000000000000000000000000000000000000000000000000000000000815260040161050f906122ab565b60405180910390fd5b6004600083815260200190815260200160002060009054906101000a900473ffffffffffffffffffffffffffffffffffffffff169050919050565b600061055e826106eb565b90508073ffffffffffffffffffffffffffffffffffffffff168373ffffffffffffffffffffffffffffffffffffffff1614156105cf576040517f08c379a00000000000000000000000000000000000000000000000000000000081526004016105c69061232b565b60405180910390fd5b8073ffffffffffffffffffffffffffffffffffffffff166105ee61100e565b73ffffffffffffffffffffffffffffffffffffffff16148061061d575061061c8161061761100e565b610cf8565b5b61065c576040517f08c379a00000000000000000000000000000000000000000000000000000000081526004016106539061224b565b60405180910390fd5b6106668383611016565b505050565b61067c61067661100e565b826110cf565b6106bb576040517f08c379a00000000000000000000000000000000000000000000000000000000081526004016106b29061234b565b60405180910390fd5b6106c68383836111ad565b505050565b6106e683838360405180602001604052806000815250610bcf565b505050565b6000806002600084815260200190815260200160002060009054906101000a900473ffffffffffffffffffffffffffffffffffffffff169050600073ffffffffffffffffffffffffffffffffffffffff168173ffffffffffffffffffffffffffffffffffffffff161415610794576040517f08c379a000000000000000000000000000000000000000000000000000000000815260040161078b9061228b565b60405180910390fd5b80915050919050565b60008073ffffffffffffffffffffffffffffffffffffffff168273ffffffffffffffffffffffffffffffffffffffff16141561080e576040517f08c379a00000000000000000000000000000000000000000000000000000000081526004016108059061226b565b60405180910390fd5b600360008373ffffffffffffffffffffffffffffffffffffffff1673ffffffffffffffffffffffffffffffffffffffff168152602001908152602001600020549050919050565b61085d61100e565b73ffffffffffffffffffffffffffffffffffffffff1661087b610992565b73ffffffffffffffffffffffffffffffffffffffff16146108d1576040517f08c379a00000000000000000000000000000000000000000000000000000000081526004016108c8906122cb565b60405180910390fd5b600073ffffffffffffffffffffffffffffffffffffffff16600660009054906101000a900473ffffffffffffffffffffffffffffffffffffffff1673ffffffffffffffffffffffffffffffffffffffff167f8be0079c531659141344cd1fd0a4f28419497f9722a3daafe3b4186f6b6457e060405160405180910390a36000600660006101000a81548173ffffffffffffffffffffffffffffffffffffffff021916908373ffffffffffffffffffffffffffffffffffffffff160217905550565b6000600660009054906101000a900473ffffffffffffffffffffffffffffffffffffffff16905090565b6060600180546109cb9061259b565b80601f01602080910402602001604051908101604052809291908181526020018280546109f79061259b565b8015610a445780601f10610a1957610100808354040283529160200191610a44565b820191906000526020600020905b815481529060010190602001808311610a2757829003601f168201915b5050505050905090565b610a5661100e565b73ffffffffffffffffffffffffffffffffffffffff168273ffffffffffffffffffffffffffffffffffffffff161415610ac4576040517f08c379a0000000000000000000000000000000000000000000000000000000008152600401610abb9061220b565b60405180910390fd5b8060056000610ad161100e565b73ffffffffffffffffffffffffffffffffffffffff1673ffffffffffffffffffffffffffffffffffffffff16815260200190815260200160002060008473ffffffffffffffffffffffffffffffffffffffff1673ffffffffffffffffffffffffffffffffffffffff16815260200190815260200160002060006101000a81548160ff0219169083151502179055508173ffffffffffffffffffffffffffffffffffffffff16610b7e61100e565b73ffffffffffffffffffffffffffffffffffffffff167f17307eab39ab6107e8899845ad3d59bd9653f200f220920489ca2b5937696c3183604051610bc3919061216e565b60405180910390a35050565b610be0610bda61100e565b836110cf565b610c1f576040517f08c379a0000000000000000000000000000000000000000000000000000000008152600401610c169061234b565b60405180910390fd5b610c2b84848484611409565b50505050565b6060610c3c82610fa2565b610c7b576040517f08c379a0000000000000000000000000000000000000000000000000000000008152600401610c729061230b565b60405180910390fd5b6000610c85611465565b90506000815111610ca55760405180602001604052806000815250610cd0565b80610caf8461147c565b604051602001610cc09291906120e3565b6040516020818303038152906040525b915050919050565b60606040518060a001604052806069815260200161277160699139905090565b6000600560008473ffffffffffffffffffffffffffffffffffffffff1673ffffffffffffffffffffffffffffffffffffffff16815260200190815260200160002060008373ffffffffffffffffffffffffffffffffffffffff1673ffffffffffffffffffffffffffffffffffffffff16815260200190815260200160002060009054906101000a900460ff16905092915050565b610d9461100e565b73ffffffffffffffffffffffffffffffffffffffff16610db2610992565b73ffffffffffffffffffffffffffffffffffffffff1614610e08576040517f08c379a0000000000000000000000000000000000000000000000000000000008152600401610dff906122cb565b60405180910390fd5b600073ffffffffffffffffffffffffffffffffffffffff168173ffffffffffffffffffffffffffffffffffffffff161415610e78576040517f08c379a0000000000000000000000000000000000000000000000000000000008152600401610e6f906121cb565b60405180910390fd5b8073ffffffffffffffffffffffffffffffffffffffff16600660009054906101000a900473ffffffffffffffffffffffffffffffffffffffff1673ffffffffffffffffffffffffffffffffffffffff167f8be0079c531659141344cd1fd0a4f28419497f9722a3daafe3b4186f6b6457e060405160405180910390a380600660006101000a81548173ffffffffffffffffffffffffffffffffffffffff021916908373ffffffffffffffffffffffffffffffffffffffff16021790555050565b60007f01ffc9a7000000000000000000000000000000000000000000000000000000007bffffffffffffffffffffffffffffffffffffffffffffffffffffffff1916827bffffffffffffffffffffffffffffffffffffffffffffffffffffffff1916149050919050565b60008073ffffffffffffffffffffffffffffffffffffffff166002600084815260200190815260200160002060009054906101000a900473ffffffffffffffffffffffffffffffffffffffff1673ffffffffffffffffffffffffffffffffffffffff1614159050919050565b600033905090565b816004600083815260200190815260200160002060006101000a81548173ffffffffffffffffffffffffffffffffffffffff021916908373ffffffffffffffffffffffffffffffffffffffff160217905550808273ffffffffffffffffffffffffffffffffffffffff16611089836106eb565b73ffffffffffffffffffffffffffffffffffffffff167f8c5be1e5ebec7d5bd14f71427d1e84f3dd0314c0f7b2291e5b200ac8c7c3b92560405160405180910390a45050565b60006110da82610fa2565b611119576040517f08c379a00000000000000000000000000000000000000000000000000000000081526004016111109061222b565b60405180910390fd5b6000611124836106eb565b90508073ffffffffffffffffffffffffffffffffffffffff168473ffffffffffffffffffffffffffffffffffffffff16148061119357508373ffffffffffffffffffffffffffffffffffffffff1661117b846104ce565b73ffffffffffffffffffffffffffffffffffffffff16145b806111a457506111a38185610cf8565b5b91505092915050565b8273ffffffffffffffffffffffffffffffffffffffff166111cd826106eb565b73ffffffffffffffffffffffffffffffffffffffff1614611223576040517f08c379a000000000000000000000000000000000000000000000000000000000815260040161121a906122eb565b60405180910390fd5b600073ffffffffffffffffffffffffffffffffffffffff168273ffffffffffffffffffffffffffffffffffffffff161415611293576040517f08c379a000000000000000000000000000000000000000000000000000000000815260040161128a906121eb565b60405180910390fd5b61129e838383611629565b6112a9600082611016565b6001600360008573ffffffffffffffffffffffffffffffffffffffff1673ffffffffffffffffffffffffffffffffffffffff16815260200190815260200160002060008282546112f991906124b1565b925050819055506001600360008473ffffffffffffffffffffffffffffffffffffffff1673ffffffffffffffffffffffffffffffffffffffff1681526020019081526020016000206000828254611350919061242a565b92505081905550816002600083815260200190815260200160002060006101000a81548173ffffffffffffffffffffffffffffffffffffffff021916908373ffffffffffffffffffffffffffffffffffffffff160217905550808273ffffffffffffffffffffffffffffffffffffffff168473ffffffffffffffffffffffffffffffffffffffff167fddf252ad1be2c89b69c2b068fc378daa952ba7f163c4a11628f55a4df523b3ef60405160405180910390a4505050565b6114148484846111ad565b6114208484848461162e565b61145f576040517f08c379a0000000000000000000000000000000000000000000000000000000008152600401611456906121ab565b60405180910390fd5b50505050565b606060405180602001604052806000815250905090565b606060008214156114c4576040518060400160405280600181526020017f30000000000000000000000000000000000000000000000000000000000000008152509050611624565b600082905060005b600082146114f65780806114df906125cd565b915050600a826114ef9190612480565b91506114cc565b60008167ffffffffffffffff811115611538577f4e487b7100000000000000000000000000000000000000000000000000000000600052604160045260246000fd5b6040519080825280601f01601f19166020018201604052801561156a5781602001600182028036833780820191505090505b5090505b6000851461161d5760018261158391906124b1565b9150600a856115929190612616565b603061159e919061242a565b60f81b8183815181106115da577f4e487b7100000000000000000000000000000000000000000000000000000000600052603260045260246000fd5b60200101907effffffffffffffffffffffffffffffffffffffffffffffffffffffffffffff1916908160001a905350600a856116169190612480565b945061156e565b8093505050505b919050565b505050565b600061164f8473ffffffffffffffffffffffffffffffffffffffff166117c5565b156117b8578373ffffffffffffffffffffffffffffffffffffffff1663150b7a0261167861100e565b8786866040518563ffffffff1660e01b815260040161169a9493929190612122565b602060405180830381600087803b1580156116b457600080fd5b505af19250505080156116e557506040513d601f19601f820116820180604052508101906116e29190611a79565b60015b611768573d8060008114611715576040519150601f19603f3d011682016040523d82523d6000602084013e61171a565b606091505b50600081511415611760576040517f08c379a0000000000000000000000000000000000000000000000000000000008152600401611757906121ab565b60405180910390fd5b805181602001fd5b63150b7a0260e01b7bffffffffffffffffffffffffffffffffffffffffffffffffffffffff1916817bffffffffffffffffffffffffffffffffffffffffffffffffffffffff1916149150506117bd565b600190505b949350505050565b600080823b905060008111915050919050565b60006117eb6117e6846123b7565b612386565b90508281526020810184848401111561180357600080fd5b61180e848285612559565b509392505050565b60008135905061182581612714565b92915050565b60008135905061183a8161272b565b92915050565b60008135905061184f81612742565b92915050565b60008151905061186481612742565b92915050565b600082601f83011261187b57600080fd5b813561188b8482602086016117d8565b91505092915050565b6000813590506118a381612759565b92915050565b6000602082840312156118bb57600080fd5b60006118c984828501611816565b91505092915050565b600080604083850312156118e557600080fd5b60006118f385828601611816565b925050602061190485828601611816565b9150509250929050565b60008060006060848603121561192357600080fd5b600061193186828701611816565b935050602061194286828701611816565b925050604061195386828701611894565b9150509250925092565b6000806000806080858703121561197357600080fd5b600061198187828801611816565b945050602061199287828801611816565b93505060406119a387828801611894565b925050606085013567ffffffffffffffff8111156119c057600080fd5b6119cc8782880161186a565b91505092959194509250565b600080604083850312156119eb57600080fd5b60006119f985828601611816565b9250506020611a0a8582860161182b565b9150509250929050565b60008060408385031215611a2757600080fd5b6000611a3585828601611816565b9250506020611a4685828601611894565b9150509250929050565b600060208284031215611a6257600080fd5b6000611a7084828501611840565b91505092915050565b600060208284031215611a8b57600080fd5b6000611a9984828501611855565b91505092915050565b600060208284031215611ab457600080fd5b6000611ac284828501611894565b91505092915050565b611ad4816124e5565b82525050565b611ae3816124f7565b82525050565b6000611af4826123e7565b611afe81856123fd565b9350611b0e818560208601612568565b611b1781612703565b840191505092915050565b6000611b2d826123f2565b611b37818561240e565b9350611b47818560208601612568565b611b5081612703565b840191505092915050565b6000611b66826123f2565b611b70818561241f565b9350611b80818560208601612568565b80840191505092915050565b6000611b9960328361240e565b91507f4552433732313a207472616e7366657220746f206e6f6e20455243373231526560008301527f63656976657220696d706c656d656e74657200000000000000000000000000006020830152604082019050919050565b6000611bff60268361240e565b91507f4f776e61626c653a206e6577206f776e657220697320746865207a65726f206160008301527f64647265737300000000000000000000000000000000000000000000000000006020830152604082019050919050565b6000611c6560248361240e565b91507f4552433732313a207472616e7366657220746f20746865207a65726f2061646460008301527f72657373000000000000000000000000000000000000000000000000000000006020830152604082019050919050565b6000611ccb60198361240e565b91507f4552433732313a20617070726f766520746f2063616c6c6572000000000000006000830152602082019050919050565b6000611d0b602c8361240e565b91507f4552433732313a206f70657261746f7220717565727920666f72206e6f6e657860008301527f697374656e7420746f6b656e00000000000000000000000000000000000000006020830152604082019050919050565b6000611d7160388361240e565b91507f4552433732313a20617070726f76652063616c6c6572206973206e6f74206f7760008301527f6e6572206e6f7220617070726f76656420666f7220616c6c00000000000000006020830152604082019050919050565b6000611dd7602a8361240e565b91507f4552433732313a2062616c616e636520717565727920666f7220746865207a6560008301527f726f2061646472657373000000000000000000000000000000000000000000006020830152604082019050919050565b6000611e3d60298361240e565b91507f4552433732313a206f776e657220717565727920666f72206e6f6e657869737460008301527f656e7420746f6b656e00000000000000000000000000000000000000000000006020830152604082019050919050565b6000611ea3602c8361240e565b91507f4552433732313a20617070726f76656420717565727920666f72206e6f6e657860008301527f697374656e7420746f6b656e00000000000000000000000000000000000000006020830152604082019050919050565b6000611f0960208361240e565b91507f4f776e61626c653a2063616c6c6572206973206e6f7420746865206f776e65726000830152602082019050919050565b6000611f4960298361240e565b91507f4552433732313a207472616e73666572206f6620746f6b656e2074686174206960008301527f73206e6f74206f776e00000000000000000000000000000000000000000000006020830152604082019050919050565b6000611faf602f8361240e565b91507f4552433732314d657461646174613a2055524920717565727920666f72206e6f60008301527f6e6578697374656e7420746f6b656e00000000000000000000000000000000006020830152604082019050919050565b600061201560218361240e565b91507f4552433732313a20617070726f76616c20746f2063757272656e74206f776e6560008301527f72000000000000000000000000000000000000000000000000000000000000006020830152604082019050919050565b600061207b60318361240e565b91507f4552433732313a207472616e736665722063616c6c6572206973206e6f74206f60008301527f776e6572206e6f7220617070726f7665640000000000000000000000000000006020830152604082019050919050565b6120dd8161254f565b82525050565b60006120ef8285611b5b565b91506120fb8284611b5b565b91508190509392505050565b600060208201905061211c6000830184611acb565b92915050565b60006080820190506121376000830187611acb565b6121446020830186611acb565b61215160408301856120d4565b81810360608301526121638184611ae9565b905095945050505050565b60006020820190506121836000830184611ada565b92915050565b600060208201905081810360008301526121a38184611b22565b905092915050565b600060208201905081810360008301526121c481611b8c565b9050919050565b600060208201905081810360008301526121e481611bf2565b9050919050565b6000602082019050818103600083015261220481611c58565b9050919050565b6000602082019050818103600083015261222481611cbe565b9050919050565b6000602082019050818103600083015261224481611cfe565b9050919050565b6000602082019050818103600083015261226481611d64565b9050919050565b6000602082019050818103600083015261228481611dca565b9050919050565b600060208201905081810360008301526122a481611e30565b9050919050565b600060208201905081810360008301526122c481611e96565b9050919050565b600060208201905081810360008301526122e481611efc565b9050919050565b6000602082019050818103600083015261230481611f3c565b9050919050565b6000602082019050818103600083015261232481611fa2565b9050919050565b6000602082019050818103600083015261234481612008565b9050919050565b600060208201905081810360008301526123648161206e565b9050919050565b600060208201905061238060008301846120d4565b92915050565b6000604051905081810181811067ffffffffffffffff821117156123ad576123ac6126d4565b5b8060405250919050565b600067ffffffffffffffff8211156123d2576123d16126d4565b5b601f19601f8301169050602081019050919050565b600081519050919050565b600081519050919050565b600082825260208201905092915050565b600082825260208201905092915050565b600081905092915050565b60006124358261254f565b91506124408361254f565b9250827fffffffffffffffffffffffffffffffffffffffffffffffffffffffffffffffff0382111561247557612474612647565b5b828201905092915050565b600061248b8261254f565b91506124968361254f565b9250826124a6576124a5612676565b5b828204905092915050565b60006124bc8261254f565b91506124c78361254f565b9250828210156124da576124d9612647565b5b828203905092915050565b60006124f08261252f565b9050919050565b60008115159050919050565b60007fffffffff0000000000000000000000000000000000000000000000000000000082169050919050565b600073ffffffffffffffffffffffffffffffffffffffff82169050919050565b6000819050919050565b82818337600083830152505050565b60005b8381101561258657808201518184015260208101905061256b565b83811115612595576000848401525b50505050565b600060028204905060018216806125b357607f821691505b602082108114156125c7576125c66126a5565b5b50919050565b60006125d88261254f565b91507fffffffffffffffffffffffffffffffffffffffffffffffffffffffffffffffff82141561260b5761260a612647565b5b600182019050919050565b60006126218261254f565b915061262c8361254f565b92508261263c5761263b612676565b5b828206905092915050565b7f4e487b7100000000000000000000000000000000000000000000000000000000600052601160045260246000fd5b7f4e487b7100000000000000000000000000000000000000000000000000000000600052601260045260246000fd5b7f4e487b7100000000000000000000000000000000000000000000000000000000600052602260045260246000fd5b7f4e487b7100000000000000000000000000000000000000000000000000000000600052604160045260246000fd5b6000601f19601f8301169050919050565b61271d816124e5565b811461272857600080fd5b50565b612734816124f7565b811461273f57600080fd5b50565b61274b81612503565b811461275657600080fd5b50565b6127628161254f565b811461276d57600080fd5b5056fe68747470733a2f2f697066732e696f2f697066732f516d5633487744556b4641534a67706d534d34683677626b526e52555534556246776772645070504237746a396b3f66696c656e616d653d323032312d30322d32385f31392d32322d33392d313335302e6d7034a26469706673582212208531aa2bdbdd0f429dde353c77fe0ac0c5514529de5d8e4b0a5e9d6b9cca966d64736f6c63430008000033",
  "immutableReferences": {},
  "source": "// SPDX-License-Identifier: MIT\n\npragma solidity <0.9.0;\n\nimport \"../utils/Strings.sol\";\nimport \"../access/Ownable.sol\";\nimport \"../ERC721/ERC721.sol\";\n\n\ncontract TradeableERC721Token is ERC721, Ownable {\n    using Strings for string;\n\n  address proxyRegistryAddress;\n\n  constructor(string memory _name,\n   string memory _symbol, \n   address _proxyRegistryAddress\n   ) ERC721(_name, _symbol)  {\n    proxyRegistryAddress = _proxyRegistryAddress;\n  }\n\n  function baseTokenURI() public pure returns (string memory) {\n    return \"https://ipfs.io/ipfs/QmV3HwDUkFASJgpmSM4h6wbkRnRUU4UbFwgrdPpPB7tj9k?filename=2021-02-28_19-22-39-1350.mp4\";\n  }\n}",
  "sourcePath": "/Users/dennismacpro/Projects/Defi/Ethereum-Solidity-Collection/nft-kit/contracts/opensea/tradeableERC721Token.sol",
  "compiler": {
    "name": "solc",
    "version": "0.8.0+commit.c7dfd78e.Darwin.appleclang"
  },
  "schemaVersion": "3.3.4",
  "updatedAt": "2021-03-02T17:15:10.139Z",
  "networkType": "ethereum",
  "devdoc": {
    "kind": "dev",
    "methods": {
      "approve(address,uint256)": {
        "details": "See {IERC721-approve}."
      },
      "balanceOf(address)": {
        "details": "See {IERC721-balanceOf}."
      },
      "getApproved(uint256)": {
        "details": "See {IERC721-getApproved}."
      },
      "isApprovedForAll(address,address)": {
        "details": "See {IERC721-isApprovedForAll}."
      },
      "name()": {
        "details": "See {IERC721Metadata-name}."
      },
      "owner()": {
        "details": "Returns the address of the current owner."
      },
      "ownerOf(uint256)": {
        "details": "See {IERC721-ownerOf}."
      },
      "renounceOwnership()": {
        "details": "Leaves the contract without owner. It will not be possible to call `onlyOwner` functions anymore. Can only be called by the current owner. NOTE: Renouncing ownership will leave the contract without an owner, thereby removing any functionality that is only available to the owner."
      },
      "safeTransferFrom(address,address,uint256)": {
        "details": "See {IERC721-safeTransferFrom}."
      },
      "safeTransferFrom(address,address,uint256,bytes)": {
        "details": "See {IERC721-safeTransferFrom}."
      },
      "setApprovalForAll(address,bool)": {
        "details": "See {IERC721-setApprovalForAll}."
      },
      "supportsInterface(bytes4)": {
        "details": "See {IERC165-supportsInterface}."
      },
      "symbol()": {
        "details": "See {IERC721Metadata-symbol}."
      },
      "tokenURI(uint256)": {
        "details": "See {IERC721Metadata-tokenURI}."
      },
      "transferFrom(address,address,uint256)": {
        "details": "See {IERC721-transferFrom}."
      },
      "transferOwnership(address)": {
        "details": "Transfers ownership of the contract to a new account (`newOwner`). Can only be called by the current owner."
      }
    },
    "version": 1
  },
  "userdoc": {
    "kind": "user",
    "methods": {},
    "version": 1
  }
}